:10000000AAC50000D8C50000D6C50000D4C50000B0
:10001000D2C50000D0C50000CEC50000CCC5000090
:10002000CAC50000C8C50000C6C50000C4C50000A0
:10003000C2C50000C0C50000BEC50000BCC50000B0
:10004000BAC50000B8C50000B6C50000B4C50000C0
:10005000B2C50000B0C50000AEC500000C94740D20
:10006000AAC50000A8C50000A6C50000A4C50000E0
:10007000A2C50000A0C500009EC500009CC50000F0
:100080009AC5000098C5000096C5000094C5000000
:1000900092C5000090C500008EC500008CC5000010
:1000A0008AC500000C942B0A86C5000084C5000098
:1000B00082C5000080C500007EC500007CC5000030
:1000C0007AC5000078C5000076C5000074C5000040
:1000D00072C5000070C500006EC500006CC5000050
:1000E0006AC50000A00BA30B920B960B9C0BDA0BBE
:1000F000A70BAB0BB10BB50BB90BBF0BC30BC70BEE
:10010000DA0BCD0BD10BD50BFFE0FFD1AFFF32FFE8
:10011000D0FFFEFFE0FFD1AEFFD0FFFEFFE0FFD13A
:100120001002FFFEFFD0FFE0FFC1FFD1AED580A8D7
:100130003FD300408D142002A1C8DA1281CFD9F13B
:10014000DB402EA4A6AFFFD0FFFE00161DFEF90E69
:1001500002950652207FFC0EFC0EFC0000000500FC
:1001600001020E0E060200C0C0C0C0C0C0C0C080E8
:10017000800000C0C0050505050009D8D8D8D8D82A
:100180000A0D1A0A00000900090009007FC07FC09B
:10019000120012001200FF80FF80240024002400BF
:1001A0000910200A01FE08003E007F00CB00C800B5
:1001B000E80078003E000F000980C980EB807F00D6
:1001C0003E00080008000E0D1A1001007860CCC037
:1001D000CCC0CD80CD807B000300067806CC0CCC53
:1001E0000CCC18CC18780C0D1A0D01003C007E00C8
:1001F000660066003C007C00EEC0C6C0C3C0C38081
:10020000E7C07EE03C700105050301098080808025
:10021000800412120600FC10306060C0C0C0C0C074
:10022000C0C0C0C0C0606030100412120601FC8063
:10023000C06060303030303030303030306060C0DE
:100240008005070707010720A8F820F8A820080A5A
:100250000A0A010018181818FFFF181818180205C4
:10026000050501FDC0C0404080050101060005F8FC
:10027000020202050100C0C0050E0E05000018189C
:100280001818303030606060C0C0C0C0080D0D0A62
:1002900001003C7E66C3C3C3C3C3C3C3667E3C05C3
:1002A0000D0D0A020018F8F8181818181818181860
:1002B0001818080D0D0A01003CFEC303070E1C3878
:1002C00070E0C0FFFF080D0D0A01003E7FC3C306AA
:1002D0001C1E0703C3C77E3C090D1A0A0000030059
:1002E00007000F001B00330033006300C300FF80D2
:1002F000FF80030003000300080D0D0A0100FEFE4D
:10030000C0C0FCFEC70303C3C7FE7C080D0D0A0175
:10031000003C7F63C0C0DCFEC3C3C3E37E3C080D6A
:100320000D0A0100FFFF03060C0C18183030606046
:1003300060080D0D0A01003C7EE7C3C3667EE7C37B
:10034000C3E77E3C080D0D0A01003C7EC7C3C3C352
:100350007F3B0303C6FE7C020A0A050100C0C00001
:100360000000000000C0C0020D0D0501FDC0C0006E
:100370000000000000C0C04040800809090A0100D8
:10038000030F3C70C0703C0F030705050B0202FE13
:10039000FE00FEFE0809090A0100C0F03C0E030E33
:1003A0003CF0C0070E0E0A01007CFEC6C60E1C38CB
:1003B000303030000030301011221201FD03F00FF8
:1003C000FC1C0E300663D36773C633CC63CC66CC9B
:1003D00066CCCCCFF86770700038001FF007E00CD7
:1003E0000E1C0D0000060006000F000F00198019FA
:1003F0008030C030C03FC07FE060606060C030C00F
:10040000300B0E1C0D0100FF00FF80C1C0C0C0C03A
:10041000C0C180FF80FFC0C0E0C060C060C0E0FF1E
:10042000C0FF800C0E1C0E01000F803FE07070605A
:1004300030E000C000C000C000C000E000603070CC
:10044000703FE00F800C0E1C0E0100FF80FFC0C04B
:10045000E0C060C030C030C030C030C030C030C03C
:1004600060C0E0FFC0FF800A0E1C0D0200FFC0FF4D
:10047000C0C000C000C000C000FF80FF80C000C03E
:1004800000C000C000FFC0FFC0090E1C0C0200FF2E
:1004900080FF80C000C000C000C000FF00FF00C09F
:1004A00000C000C000C000C000C0000D0E1C0F0145
:1004B000000FC03FF070386018E018C000C000C0E6
:1004C000F8C0F8E018601870383FF80FD80B0E1C11
:1004D0000E0100C060C060C060C060C060C060FF4E
:1004E000E0FFE0C060C060C060C060C060C060028B
:1004F0000E0E060200C0C0C0C0C0C0C0C0C0C0C098
:10050000C0C0C0080E0E0A00000303030303030368
:100510000303C3C3E77E3C0C0E1C0D0200C0E0C108
:10052000C0C380C700CE00DC00F800FC00CE00C7CE
:1005300000C380C1C0C0E0C070090E1C0B0100C028
:1005400000C000C000C000C000C000C000C000C0AB
:1005500000C000C000C000FF80FF800E0E1C100114
:1005600000C00CC00CE01CE01CF03CF03CD86CD887
:100570006CCCCCCCCCC48CC78CC30CC30C0B0E1C69
:100580000E0100C060E060F060F060D860CC60CC2C
:1005900060C660C660C360C1E0C1E0C0E0C0600D7D
:1005A0000E1C0F01000F803FE070706030E038C01B
:1005B00018C018C018C018E038603070703FE00FE5
:1005C000800A0E1C0D0200FF00FF80C1C0C0C0C029
:1005D000C0C1C0FF80FF00C000C000C000C000C09C
:1005E00000C0000D0F1E0F01FF0F803FE070706014
:1005F00030E038C018C018C018C018E1B861B07039
:10060000F03FE00FB000300B0E1C0E0100FF80FF2A
:10061000C0C0E0C060C060C0E0FFC0FF80C0C0C01C
:10062000C0C060C060C060C0600A0E1C0D01001E2A
:10063000007F80E1C0C0C0E0007C001F000380019B
:10064000C000C0C0C0E1C07F803F000A0E1C0C018A
:1006500000FFC0FFC00C000C000C000C000C000CD4
:10066000000C000C000C000C000C000C000B0E1C0D
:100670000E0100C060C060C060C060C060C060C0EB
:1006800060C060C060C060C06060C07FC01F000C00
:100690000E1C0D0000C030C03060606060606030D3
:1006A000C030C030C01980198019800F000F0006BB
:1006B00000100E1C120100C183C183C183C3C36338
:1006C000C6624666666666366C366C342C1C381814
:1006D0001818180B0E1C0D0100C060C06060C071BE
:1006E000C031801B000E000E001B00318071C06005
:1006F000C0C060C0600C0E1C0D0000C030C0306077
:1007000060606030C039C019800F00060006000626
:10071000000600060006000A0E1C0C0100FFC0FFC8
:10072000C000C00180030006000C001C001800304F
:10073000006000C000FFC0FFC00412120500FCF002
:10074000F0C0C0C0C0C0C0C0C0C0C0C0C0C0C0F049
:10075000F0050E0E050000C0C0C060606030303093
:1007600030181818180412120500FCF0F030303060
:100770003030303030303030303030F0F007060676
:1007800009010710386C6CC6C60B02040B00FCFF95
:10079000E0FFE004030304000BC06030090A140BFF
:1007A00001007E00E700C30007007F00E300C300F4
:1007B000C300E7807980090E1C0B0100C000C00057
:1007C000C000C000DE00FF00E300C180C180C18026
:1007D000C180E300FF00DE00080A0A0A01003E7F34
:1007E00063C0C0C0C0637F3E090E1C0B01000180C6
:1007F0000180018001803D807F806380C180C18055
:10080000C180C18063807F803D80080A0A0A0100A0
:100810003C7EC3C3FFC0C0E37F3C060E0E06000053
:100820001C3C3030FCFC3030303030303030090E81
:100830001C0B01FC3D807F806180C180C180C18034
:10084000C18063807F803D80018063007F001C0049
:10085000080E0E0A0100C0C0C0C0DEFFE3C3C3C360
:10086000C3C3C3C3020E0E040100C0C00000C0C059
:10087000C0C0C0C0C0C0C0C004121204FFFC3030F1
:100880000000303030303030303030303030F0E058
:10089000080E0E090100C0C0C0C0C6CCD8F0F8D800
:1008A000CCCEC6C7020E0E040100C0C0C0C0C0C07E
:1008B000C0C0C0C0C0C0C0C00E0A14100100DE78A5
:1008C000FFFCE38CC30CC30CC30CC30CC30CC30CE4
:1008D000C30C080A0A0A0100DEFFE3C3C3C3C3C393
:1008E000C3C3090A140B01003E007F006300C180EE
:1008F000C180C180C18063007F003E00090E1C0BD7
:1009000001FCDE00FF00E300C180C180C180C18026
:10091000E300FF00DE00C000C000C000C000090E00
:100920001C0B01FC3D807F806380C180C180C18041
:10093000C18063807F803D800180018001800180D3
:10094000050A0A060100D8D8E0C0C0C0C0C0C0C0B7
:10095000070A0A0901003C7EC6C0FC3E06C6FC78B8
:10096000060D0D060000303030FCFC3030303030E9
:10097000303C1C080A0A0A0100C3C3C3C3C3C3C373
:10098000C7FF7B080A0A0A0100C3C3C36666662460
:100990003C18180C0A140E0100C630C630C630666A
:1009A0006066606960294039C019801980080A0AA8
:1009B0000A0100C3E7663C18183C66E7C3080E0E40
:1009C0000A01FCC3C3C3666666243C181818187075
:1009D00070070A0A090100FEFE060C183060C0FE0E
:1009E000FE06121206FFFC0C18303030303060C0AA
:1009F00060303030303030180C0212120501FCC06B
:100A0000C0C0C0C0C0C0C0C0C0C0C0C0C0C0C0C0E6
:100A1000C00612120600FCC0603030303030180CB6
:100A20001830303030303060C00803030A010473DE
:100A3000FFCEFF00002100240027002A002D0030F7
:100A400000330001010000040107010A0100002039
:100A5000002300260029002C002F00320000010096
:100A60000003010601090100002200250028002BD7
:100A7000002E003100340002010000050108010BC6
:100A80000105050505070508080808020202020A13
:100A90000A08080404040401010101010101010321
:100AA00003030303030303040707070C0C0C0C0CDC
:100AB0000C0C0C0202020206060606060606060BCF
:100AC0000B0B0B0B0B0B0B01021020200808102046
:100AD00040102040800201020108040201010204CA
:100AE0000810204080804020100804020180040289
:100AF00001804020100804020108040201010204E0
:100B00000810204080010204081020408000000AE4
:100B10000B02090C0D0E0807030401000000000081
:100B200000000000000000000000000000000000C5
:100B30000000000000000000001211100000000082
:100B400000000000000000000000000000000000A5
:100B500000000000650F11241FBECFEFD1E2DEBF01
:100B6000CDBF00E00CBF12E0A0E0B2E0E8EDFFE195
:100B700000E00BBF02C007900D92A434B107D9F773
:100B80002FE1A4E4B2E001C01D92A930B207E1F761
:100B900015E0CBEAD5E000E006C021970109802FDF
:100BA000FE010E94DE0FCA3AD10780E00807A9F7CC
:100BB000E5D70C94EA0F24CA80E00895CF92DF9223
:100BC000EF92FF920F931F93CF93DF936C017A0103
:100BD0008B01C0E0D0E0CE15DF0581F0D8016D912A
:100BE0008D01D601ED91FC910190F081E02DC601BF
:100BF0001995892B11F02196EECF7E01C701DF9167
:100C0000CF911F910F91FF90EF90DF90CF900895BB
:100C10000895DC011696ED91FC91179712968C9130
:100C2000481B477081E090E001C0880F4A95EAF7C1
:100C3000E60FF11D3081222311F0832B02C0809535
:100C4000832380830895FB014181DC0112962C915E
:100C50001297421760F013962C911397241738F0CF
:100C6000608115962C91621710F42481D2CF0895DB
:100C7000FC0130819281930F92832181921760F45D
:100C800094819F5F94838381830F821710F08FEF8D
:100C9000820F838381E0089580E00895FC01128231
:100CA000808181508383148208950B96FC01849186
:100CB00008950A96FC0184910895FC018491089599
:100CC000FCDF882321F0823011F083E0089586E074
:100CD0000895FC01E60FF11D849190E0982F88277C
:100CE0003196E4918E0F911D089568E0F2CF66E091
:100CF000F0CF2EE93FE0009729F0F9013197F1F7A5
:100D00000197F9CF08951092C01E08958093C11ED7
:100D10001092B90084FF02C08CE001C088E4809387
:100D2000B800F1CFDB011496ED91FC91159720E00E
:100D300030E065E01994CF92DF92EF92FF920F932B
:100D40001F93CF93DF938C017B016A0180E0F60152
:100D5000C49181110AC0CF3F09F454C04C2FB70190
:100D6000C801E0DF81114CC052C0CF3F11F44FEFFA
:100D7000F6CFCE3F09F44DC0C03F08F041C0C03EA1
:100D800058F04C2F4F70D7011496ED91FC911597A8
:100D900020E030E062E00CC0C03D68F04C2F4F70A6
:100DA000D7011496ED91FC91159720E030E063E0B7
:100DB000C801199525C0C03CF0F0D7011496ED91FB
:100DC000FC91159720E030E040E064E0C8011995FF
:100DD000C295C07FCE5FD0E0CE018BDFD7011496E5
:100DE000ED91FC91159720E030E041E064E0C8010E
:100DF0001995CE0104C0C7FD03C08C2F90E079DFA8
:100E000080E001C081E0BFEFCB1ADB0AA0CF80E019
:100E100001C081E0DF91CF911F910F91FF90EF9082
:100E2000DF90CF900895AF92BF92CF92DF92FF9262
:100E30000F931F93CF93DF936C018B01F42EE90185
:100E400020E1421709F453C0241798F03AE0431305
:100E500057C0DB011496ED91FC91159720E030E02E
:100E600042E061E0199544E251E0B801C60163DF58
:100E700047C081E1481709F43DC0A5E14A1340C0CD
:100E8000FB01A280B3804CE151E0C60154DFD501E3
:100E900014964C91406BB801C60144DFD8011496FA
:100EA000ED91FC91159720E030E041E062E0C60151
:100EB0001995F50126813781D8011496ED91FC91A1
:100EC0001597D50115964C9166E0C60119958111CB
:100ED00002C080E0C2C0D8011496ED91FC91159734
:100EE00020E030E040E063E0C601199509C043E12D
:100EF00051E002C048E051E0B801C6011CDFACC0BF
:100F0000F80102811381F2E3FF1609F46FC0FF15A7
:100F1000B8F025E1F21609F474C037E1F31609F4CC
:100F200085C084E1F81298C0D8011696ED91FC9125
:100F3000179715968C919F01280F311DC9015AC032
:100F4000A6E4FA1609F481C0B7E4FB1609F480C0E0
:100F5000EBE3FE1281C089819B81913029F09330AF
:100F600031F4482F885004C048E0480F01C0482F92
:100F700051E0D80113962C91281708F450E031E085
:100F8000F8012281421708F430E021E0481708F008
:100F900020E0822F852B382319F4252309F45CC027
:100FA000CA80913061F038F0923061F0933071F482
:100FB000FF24FA940CC0F12CDD24D39409C0FF2443
:100FC000F39405C0F12CDD24DA9402C0F12CD12C6D
:100FD000C7FE03C0BE01C80136DE88818D0D88833F
:100FE00089818F0D8983CC0C99F736C0BE01C80169
:100FF0002ADE32C011928E179F07E1F7C8014EDE3C
:101000002BC0C80135DE882309F463CFD8011696BA
:10101000ED91FC91179715968C919F01280F311D2A
:10102000C90111928E179F07E1F716C01882D801E7
:1010300012968C911297898315968C9115978150F1
:101040008A8313968C918B8307C0F801858103C036
:10105000D80111968C91888381E0DF91CF911F9107
:101060000F91FF90DF90CF90BF90AF9008950895BB
:1010700080E090E00895AAD7DB01ED91FC911994EE
:101080005F926F927F928F929F92AF92BF92CF9218
:10109000DF92EF92FF920F931F93CF93DF93EC01B8
:1010A000E62EF42EC22E0C811D81C80106DED82E3C
:1010B0008C819D8105DE982E21E0D21203C02FE0A5
:1010C000A22E02C0AA24AA948C819D81F2DDD82E82
:1010D0008C819D81EADDB82E8C819D8106DEE0E663
:1010E000EC1538F4009729F0080F191F91E6D92E56
:1010F0000FC08C819D81FBDDF0E4FC1538F4009776
:1011000029F0080F191F81E4D82E02C00F5E1F4F6F
:10111000BC1430F4188A1B8A1C8A198A1A8A75C072
:10112000BD14C0F3892D90E0F80124912F3F19F4EC
:101130000F5F1F4F3FC0CD1034C08C819D81BDDD3E
:1011400098012F5F3F4FF801882311F0823091F40E
:1011500084918B8BF90124912C8BF8013396E491C7
:10116000E88BF8013496E491E98BF8013596E49127
:10117000EA8B25C08491982F9F7092509A8B82950C
:101180008F70898BF9012491822F8F708C8B22951F
:101190002F702B8BF8013296E491E295EF70E88B7B
:1011A0000EC0F8013296E491EA219C012E0F311D08
:1011B000020F131FBD1409F4ADCFD394B5CF0115A1
:1011C000110519F18C819D817BDD2C899A89920F03
:1011D000F91A9FEF920F9F0D3CA94EA94F1518F0D9
:1011E000931728F402C0931770F09F1560F43B89A1
:1011F0009989E90E9FEF930F9E0D4BA95DA95E158E
:1012000030F4941730F4888933C080E031C09417EB
:1012100010F49E15C0F7080F111D395F732E7694D8
:1012200076947694622E6F0C5E01FCE1AF0EB11CD9
:10123000872C912C6F1439F35E2C68018C2D801B48
:10124000871590F4F60184916A817B815C8EFD8E16
:101250001F8E8E8F95014BE3CE010EDFFFEFCF1A6D
:10126000DF0A28E0520EEACF080D191DF394E2CFF1
:10127000DF91CF911F910F91FF90EF90DF90CF9072
:10128000BF90AF909F908F907F906F905F900895E8
:10129000DF92EF92FF920F931F93CF93DF93EC01B6
:1012A000D62E1CAD0BAD7C0184E0E80EF11CE98D5F
:1012B000FA8DC7011995412F480F2D2D602FC701B9
:1012C000DFDE9BAD890F8BAF81E090E0DF91CF91A6
:1012D0001F910F91FF90EF90DF9008959091C01EA5
:1012E000911102C08093C01E08951F93CF93DF9386
:1012F0001F921F92CDB7DEB720ED37E03A832983E6
:101300009091BC00982391F429813A81232B49F4D0
:101310008091C11E182F127081FD08C081E0DEDFB0
:1013200006C029813A8121503109E8CF11E0812F8F
:101330000F900F90DF91CF911F91089584E98093D2
:10134000BC0064E080E1D1CFCF938093BB0084E800
:101350008093BC0063E080E8C8DFC82F882381F059
:101360008091C11EC82FC27081FD09C08091B90053
:10137000887F883221F063E082E0B0DF01C0C1E005
:101380008C2FCF910895CF93DF93FC0123A52223C7
:1013900069F0EC0112D3811102C080E008C08EA177
:1013A000811180E4D1DF8823C1F31BA681E0DF91A6
:1013B000CF9108950F931F93CF93C42F890163306A
:1013C000B9F050F4613081F0623009F03FC0FC01A7
:1013D00046A321E023A73AC06630E9F0673041F127
:1013E000653009F033C00CC0FC0186A58FDC2EC02F
:1013F000FC0116A221E023A7411128C09FDF26C0CF
:10140000C2DF811103C09ADF80E021C08C2F9CDFF6
:1014100081111CC0F8CFB7DF8823A9F3CC23B1F02A
:10142000F80181918F0190DF882369F3C150F6CFD5
:10143000AADF882341F3CC2349F0F801849184DFAB
:10144000882329F00F5F1F4FC150F5CF81E0CF9166
:101450001F910F9108951F920F920FB60F921124B2
:101460000BB60F92CF92DF92EF92FF920F931F93E2
:101470002F933F934F935F936F937F938F939F939C
:10148000AF93BF93CF93DF93EF93FF93C091780017
:10149000D0E0D093BF1EC093BE1E8091790090E033
:1014A0009093BD1E8093BC1E982F8827C82BD92BE4
:1014B000C090BA1ED090BB1EF601EE0FFF1FEE5774
:1014C000F94F8081918190588C0F9D1F969587953B
:1014D00091838083E0908006F0908106C701880F99
:1014E000991FFC01E05AFC4FDC01AE57B94F8D91BA
:1014F0009C9190588C0F9D1F969587959183808322
:1015000000915E0310915F039801220F331FA90120
:1015100048535D4FCE01A0E0B0E018962E57394FEA
:10152000F90120813181820F931FA11DB11DB59555
:10153000A79597958795FA01918380838091C6023C
:101540009091C70201969093C7028093C602843699
:10155000910509F057C01092C7021092C6028BE3A2
:101560005FD2892B41F580911202909113028C3148
:10157000FCE09F0728F401969093130280931202D7
:101580008091100290911102803921E0920728F495
:101590000196909311028093100280910E02909117
:1015A0000F028B34910528F4019690930F028093DB
:1015B0000E0280E0D7D18AE333D2892B19F58091CE
:1015C000120290911302009729F001979093130251
:1015D000809312028091100290911102009729F0DD
:1015E0000197909311028093100280910E029091C6
:1015F0000F02009729F0019790930F0280930E023B
:1016000080E0B0D18FEFC81AD80AD092BB1EC0922A
:10161000BA1E8091120290911302C816D90620F0CA
:101620001092BB1E1092BA1EEFEFEE1AFE0AF09255
:101630008106E09280068091100290911102E816D6
:10164000F90620F010928106109280060F5F1F4F5E
:1016500010935F0300935E0380910E0290910F023E
:101660000817190720F010925F0310925E03A091F3
:10167000BA1EB091BB1EAA0FBB1FAE57B94FE09167
:101680008006F0918106EE0FFF1FE05AFC4F2D916E
:101690003C9180819181820F931F9058E0915E036D
:1016A000F0915F03EE0FFF1FE853FD4F2081318162
:1016B000820F931FC80FD91FD695C795D695C7958A
:1016C000D093C502C093C402D058D093A800809193
:1016D000C4028093AA00FF91EF91DF91CF91BF9157
:1016E000AF919F918F917F916F915F914F913F91BA
:1016F0002F911F910F91FF90EF90DF90CF900F905F
:101700000BBE0F900FBE0F901F90189590E0FC013C
:101710003197E231F10508F04DC08827EE58FF4FB0
:101720008F4F4CC4809180008F7703C080918000E0
:101730008F7D80938000089580918000877FF9CF0E
:1017400084B58F7702C084B58F7D84BD0895809164
:10175000B0008F7703C08091B0008F7D8093B00080
:101760000895809190008F7707C0809190008F7DC1
:1017700003C080919000877F8093900008958091AE
:10178000A0008F7707C08091A0008F7D03C080915B
:10179000A000877F8093A0000895809120018F771B
:1017A00007C0809120018F7D03C080912001877F39
:1017B0008093200108950F931F93CF93DF931F927F
:1017C000CDB7DEB70091C81E1091C91EE091F71E7B
:1017D000F091F81E82E0199520E030E04AE0B8016F
:1017E00086EC9EE149DC182FE091F71EF091F81E7F
:1017F00083E01995E091F71EF091F81E80E01995AD
:101800001123A1F16091C81E7091C91E9E012F5F26
:101810003F4F46E486EC9EE12FDC89818093C61E13
:101820006091C81E7091C91E9E012F5F3F4F47E413
:1018300086EC9EE121DC89818093C71E6091C81EE1
:101840007091C91E20E030E048E486EC9EE114DC93
:101850008093D11E6091C81E7091C91E29EF3EE190
:1018600047E186EC9EE108DC81E001C080E00F905A
:10187000DF91CF911F910F910895FF920F931F93C6
:10188000CF93DF93082FF62E172FE091DB1EF091F8
:10189000DC1E86EC9EE11995080FCF2DD12F10E0AC
:1018A000F12C2991222341F0402F6F2D86EC9EE1EF
:1018B000E7DBF80E180FF5CF812FDF91CF911F9145
:1018C0000F91FF9008958F929F92AF92BF920F93C6
:1018D0001F93CF93DF93CDB7DEB7A1970FB6F894E0
:1018E000DEBF0FBECDBF19A2423008F44AE08E0120
:1018F0000F5D1F4F842E912CA12CB12CA5019401BA
:101900003BD3E62FB901CA0101501109EA3014F4A2
:10191000E05D01C0E95CD801EC93232B242B252B3F
:1019200069F70115110569F0F80101900020E9F748
:101930003197AF01401B510BB80182EC9EE13ED9BB
:1019400002C080E090E0A1960FB6F894DEBF0FBE13
:10195000CDBFDF91CF911F910F91BF90AF909F901E
:101960008F9008951F93CF93DF93EAE1FBE094916A
:10197000E4EDFAE0D491EEE8FAE0C491CC23C9F0AA
:10198000182F992311F0892FC1DEEC2FF0E0EE0F14
:10199000FF1FE959F54FA591B4919FB7F894111124
:1019A00004C08C91D095D82302C0EC91DE2BDC933F
:1019B0009FBFDF91CF911F910895CF9384EA8093C9
:1019C000BC0061E080E891DC882351F08091B9008F
:1019D000887F883039F0803129F061E082E07EDC58
:1019E000C0E01BC088E78093BB0084E88093BC0004
:1019F00062E080E87ADC882399F38091C11EC82FC9
:101A0000C27081FD09C08091B900887F883121F0C2
:101A100062E082E063DC01C0C1E08C2FCF910895C9
:101A2000CF93DF93282F30E0F901E35FF44F8491E7
:101A3000F901E953F54FD491F901EF57F54FC491EE
:101A4000CC2389F0811162DEEC2FF0E0EE0FFF1F56
:101A5000E35BF54FA591B491EC91ED2381E090E02B
:101A600021F480E002C080E090E0DF91CF91089502
:101A7000CF93DF9390E0FC01E953F54F2491FC01F3
:101A8000EF57F54F8491882361F190E0880F991FFB
:101A9000FC01ED5CF54FC591D491FC01E959F54F7E
:101AA000A591B491611109C09FB7F89488812095E0
:101AB00082238883EC912E230BC0623061F49FB7A0
:101AC000F8948881322F309583238883EC912E2BD4
:101AD0002C939FBF06C08FB7F894E8812E2B2883E4
:101AE0008FBFDF91CF9108951F920F920FB60F9283
:101AF00011242F933F938F939F93AF93BF93809124
:101B0000051F9091061FA091071FB091081F3091EB
:101B1000041F23E0230F2D3720F40196A11DB11DD2
:101B200005C026E8230F0296A11DB11D2093041FB6
:101B30008093051F9093061FA093071FB093081F63
:101B40008091001F9091011FA091021FB091031F6F
:101B50000196A11DB11D8093001F9093011FA093BA
:101B6000021FB093031FBF91AF919F918F913F913F
:101B70002F910F900FBE0F901F901895789484B5F9
:101B8000826084BD84B5816084BD85B5826085BD79
:101B900085B5816085BD80916E00816080936E0007
:101BA00010928100809181008260809381008091F9
:101BB00081008160809381008091800081608093AA
:101BC00080008091B10084608093B1008091B0006A
:101BD00081608093B0008091910082608093910039
:101BE000809191008160809391008091900081604C
:101BF000809390008091A10082608093A1008091E9
:101C0000A10081608093A1008091A00081608093F9
:101C1000A0008091210182608093210180912101A7
:101C20008160809321018091200181608093200157
:101C300080917A00846080937A0080917A0082603B
:101C400080937A0080917A00816080937A008091FD
:101C50007A00806880937A001092C10062E08CE084
:101C600007DF62E082E004DF62E08BE301DF62E035
:101C70008AE3FEDE61E08DE0FBDE61E086E0F8DE17
:101C800061E087E0F5DE80E680937C0085EE80935E
:101C90007A0010927B0081E080937E0080EA80933E
:101CA000A00081E18093A10080E2809372001092F5
:101CB000A7008FEF8093A60084B1866084B97894E2
:101CC00068E5262E61E0362E79E5672E71E0772EE5
:101CD0000AE511E0EAE4EE2EE1E0FE2EFCEDCF2E67
:101CE000F5E0DF2E50E5552E8CE09ADE892B11F0C1
:101CF00081E001C080E036DE8091FF1E811104C0CA
:101D000081E08093FF1E57DDC091C81ED091C91E8F
:101D1000E091F71EF091F81E82E01995E091F71E10
:101D2000F091F81E81E0199520E030E044E1BE0119
:101D300086EC9EE1A1D929EF3EE147E1BE0186ECA8
:101D40009EE19AD9E091F71EF091F81E80E0199576
:101D50003FE4A32E31E0B32E46E5842E41E0942EDD
:101D60008091CA1E9091CB1E8A54914009F43CC0C8
:101D7000F092CB1EE092CA1E8091DD1E811106C03A
:101D8000F50184918093DE1EF4010EC0813031F4A0
:101D9000F30184918093DE1EF80106C0E7E5F1E0CF
:101DA00084918093DE1EF10184918093DF1E8091E7
:101DB000DE1E082E000C990B2091DF1E821B91095C
:101DC00027FD93952091E01E203441F0829FC001B1
:101DD000112426E0969587952A95E1F78093E11ED8
:101DE000D092DC1EC092DB1E60E272E08EE045DD28
:101DF00069E272E080E241DD5092FD1E80E2809354
:101E0000FE1E609112027091130280E090E04AE0A1
:101E10005ADD62E372E080E330DD5092FD1E80E324
:101E20008093FE1E609110027091110280E090E09C
:101E30004AE049DD6BE372E080E41FDD5092FD1E55
:101E400080E48093FE1E60910E0270910F0280E08C
:101E500090E04AE038DDE091D41EF091D51E309735
:101E600019F086EC9EE11995C091C81ED091C91E4B
:101E7000E091F71EF091F81E82E01995E091F71EAF
:101E8000F091F81E81E0199520E030E045E1BE01B7
:101E900086EC9EE1F1D8482E882339F029EF3EE107
:101EA00047E1BE0186EC9EE1E7D8E091F71EF09194
:101EB000F81E80E01995411053CF80E090E0892B07
:101EC00009F412CF0E9400000DCF1092C51E10928F
:101ED000C41E88E192E09093C31E8093C21E1092AC
:101EE000FD1E1092FE1E1092FF1E1092CB1E10922D
:101EF000CA1E1092CD1E1092CC1E1092CF1E81E0F1
:101F00008093CE1E82E28093D01E1092D51E109236
:101F1000D41EE9EEFEE18FEF81939EE1E73FF907E2
:101F2000D9F781E08093E61E2CED35E03093DC1E7E
:101F30002093DB1E8093DD1E1092DE1E1092DF1EAA
:101F400080E48093E01E1092E11E88E096E090937A
:101F5000F81E8093F71E88E092E09093C91E80934C
:101F6000C81E82E08093F41E26DC88E192E0909304
:101F7000C31E8093C21E0895A1E21A2EAA1BBB1B8A
:101F8000FD010DC0AA1FBB1FEE1FFF1FA217B30745
:101F9000E407F50720F0A21BB30BE40BF50B661F5B
:101FA000771F881F991F1A9469F76095709580951F
:101FB00090959B01AC01BD01CF010895EE0FFF1F6D
:101FC000881F8BBF0790F691E02D199481E090E077
:081FD000F89400C0F894FFCF63
:101FD800084000000080440213070002DA094B00A1
:101FE80090011C0C000000004809DE05380837087D
:101FF8002052455645524220004543484F20313A29
:1020080020004543484F20323A20004543484F209E
:04201800333A200037
:00000001FF
