:100000000C94B00E0C94E00E0C94E00E0C94E00EE8
:100010000C94E00E0C94E00E0C94E00E0C94E00EA8
:100020000C94E00E0C94E00E0C94E00E0C94E00E98
:100030000C94E00E0C94E00E0C94E00E0C94E00E88
:100040000C94E00E0C94E00E0C94E00E0C94E00E78
:100050000C94E00E0C94E00E0C94E00E0C944515FC
:100060000C94E00E0C94E00E0C94E00E0C94E00E58
:100070000C94E00E0C94E00E0C94E00E0C94E00E48
:100080000C94E00E0C94E00E0C94E00E0C94E00E38
:100090000C94E00E0C94E00E0C94E00E0C94E00E28
:1000A0000C94E00E0C948F150C94E00E0C94E00E62
:1000B0000C94E00E0C94E00E0C94E00E0C94E00E08
:1000C0000C94E00E0C94E00E0C94E00E0C94E00EF8
:1000D0000C94E00E0C94E00E0C94E00E0C94E00EE8
:1000E0000C94E00E3C0F3F0F2E0F320F380F760F9F
:1000F000430F470F4D0F510F550F5B0F5F0F630FEE
:10010000760F690F6D0F710FFFE0FFD1AFFF32FF68
:10011000D0FFFEFFE0FFD1AEFFD0FFFEFFE0FFD13A
:100120001002FFFEFFD0FFE0FFC1FFD1AED580A8D7
:100130003FD300408D142002A1C8DA1281CFD9F13B
:10014000DB402EA4A6AFFFD0FFFE0000200023005E
:10015000260029002C002F003200000100000301BE
:100160000601090100002100240027002A002D00BB
:100170003000330001010000040107010A01000002
:100180002200250028002B002E003100340002013F
:100190000000050108010B01050505050705080814
:1001A0000808020202020A0A080804040404010101
:1001B0000101010101010303030303030303040716
:1001C00007070C0C0C0C0C0C0C0C020202020606AD
:1001D0000606060606060B0B0B0B0B0B0B0B0102A0
:1001E0001020200808102040102040800201020149
:1001F0000804020101020408102040808040201001
:100200000804020180040201804020100804020159
:1002100008040201010204081020408001020408C1
:100220001020408000000A0B02090C0D0E08070385
:1002300004010000000000000000000000000000B9
:1002400000000000000000000000000000000000AE
:10025000121110000000000000000000000000006B
:1002600000000000000000000000002730FBF5192E
:1002700005D70E69207FF91BF919F9000000090064
:1002800001031919090400E0E0E0E0E0E0E0E0E04B
:10029000E0E0E0E0E0E0E0E040400000E0E0E0E05E
:1002A0000808080C020FE7E7E7E7E7E74242111703
:1002B00045130100038700038700030600030600BF
:1002C000070E00070E007FFF807FFF807FFF800EFC
:1002D0001C000E1C000C18001C38001C3800FFFF0E
:1002E00000FFFF00FFFF0038700038700030600032
:1002F00030600070E00070E000101F3E1201FC0151
:1003000080018001800FF01FF83DBC718E718EE17D
:100310008EE180E18071807D803FC01FF007FC018D
:10032000FE019E018F0187E187E187718E718E3D0D
:10033000BC3FF80FF001800180018001801A186035
:100340001D0100000030001F0070007F80600073FE
:10035000C0E000E0C0C000C0E1C000C0E18000C05B
:10036000E38000E0C3000073C700007F8600001F29
:100370000E0000000C0000001C3E0000187F8000F2
:1003800038F3800030C1C00071C0C00061C0C0003F
:10039000E1C0C000C0C1C001C0E38001807F800314
:1003A000803E0012174516020007C0000FE0001E35
:1003B00070003C38003838003838003C70001EF0BF
:1003C000000FE00007C0000F80003FC00079C700A9
:1003D00070E700E0F600E07E00E03C00E01C00F08A
:1003E0003E00787F007FF7803FE3C00F00000308E6
:1003F0000806020FE0E0E0E0E0E0E040071F1F0B2E
:1004000002F9060C0C1818383070707060E0E0E0EB
:10041000E0E0E0E0E0E060707070303818180C0C3C
:1004200006071F1F0B01F9C06060303038181C1C14
:100430001C0C0E0E0E0E0E0E0E0E0C0C1C1C1818A4
:100440003830706060C00A0B160D010F0C000C00F4
:100450004C80EDC07F803F001E003F007380E1C0F4
:10046000408011103013010101C00001C00001C023
:100470000001C00001C00001C00001C000FFFF80FA
:10048000FFFF80FFFF8001C00001C00001C000012C
:10049000C00001C00001C0000309090903FBE0E03E
:1004A000E0E0206060C0800802020B0108FFFF034B
:1004B0000404090300E0E0E0E0091830090000014D
:1004C000800180018003000300030006000600068F
:1004D000000C000C000C0008001800180018003078
:1004E0000030003000600060006000C000C0000FFD
:1004F000183012010007C01FF03FF83C78783C70BC
:100500001C701CE00EE00EE00EE00EE00EE00EE0CF
:100510000EE00EE00EE00E701C701C703C3C783F4C
:10052000F81FF007C00818181203000307070F3F51
:10053000FFFF07070707070707070707070707075B
:100540000707070F183012010007C01FF03FF878A7
:100550003C701CF00EE00EE00E000E001C003C0093
:100560007800F003E007C01F003C0078007000E056
:1005700000E000FFFEFFFEFFFE0F18301201000733
:10058000C01FF03FF83838701C701C701C701C00C5
:100590001C003803F803F003F8003C001E000EE0D6
:1005A0000EE00EE00E701C783C3FF81FF007C01004
:1005B0001830120000001800380078007800F801A8
:1005C000F803B803B807380E380E381C38383838F6
:1005D000387038E038FFFFFFFFFFFF0038003800B9
:1005E00038003800380F18301201003FFC3FFC3F44
:1005F000FC3800380038007000700077C07FF07F52
:10060000F8787C701C001E000E000E000EE00EE05C
:100610001EF01C787C7FF83FF00F800F183012011D
:100620000003C00FF01FF83C38381C701C700070BD
:10063000006000E3C0EFF0FFF8F83CF01CF00EE0C3
:100640000EE00E600E700E701C383C3FF81FF00775
:10065000C00F1830120100FFFEFFFEFFFE000E006B
:100660001C001800380070007000E000E001C001BC
:10067000C0038003800700070007000E000E000E75
:10068000001C001C001C000F183012010007C01FC6
:10069000F03FF8383C701C701C701C701C783C3C9F
:1006A000781FF00FE03FF8783C701CE00EE00EE0A1
:1006B0000EE00EF01C783C3FF81FF007C00F18301A
:1006C00012010007C01FF03FF8787C703CF01CE07E
:1006D0001EE00EE00EE00EE01EE01E703E7FFE3FCC
:1006E000EE0FCE000E001CE01CF03C78783FF03F8F
:1006F000E00F80031212090400E0E0E0E0000000D7
:1007000000000000000000E0E0E0E003161609042D
:10071000FBE0E0E0E0000000000000000000E0E09E
:10072000E0E0206060C08010102013020000030091
:100730000F003F01FC07E01F80FE00F000F000FE0C
:10074000001F8007E001FC007F000F00030F09126B
:10075000130204FFFEFFFEFFFE000000000000FF8A
:10076000FEFFFEFFFE101020130100C000F000FE8F
:10077000003F8007E001F8007F000F000F007F01BD
:10078000F807E03F80FE00F000C0000E19321202B0
:100790000007C01FF03FF87838701CF01CE01CE028
:1007A0001C001C00380038007000E001E001C003AC
:1007B0008003800380038000000000038003800327
:1007C0008003801D1E782201FB0007C000003FF857
:1007D0000000FFFE0003F03F8007C007C00F0003CA
:1007E000E01E0001E01C0000F0380F8C70381FDCA8
:1007F00038703CFC3870707C3860E03818E0E038C5
:1008000018E1E03818E1C07038E1C07038E1C0701C
:1008100070E1C0E070E1E0E0E070F3F3C070FF7FF2
:1008200080783E7F003C0000001E0000001F00009A
:10083000000F80000003E0780001FFF800007FE077
:100840000014194B16010000F00000F00000F80041
:1008500001F80001F800039C00039C00039C0007C2
:100860009E00070E00070E000F0F000F0F000E076F
:10087000001E07801FFF801FFF803FFFC03C03C09A
:100880003801C07801E07801E07000E0F000F0F09D
:1008900000F011194B160300FFF000FFFC00FFFEF3
:1008A00000E03E00E00F00E00F00E00700E007007E
:1008B000E00F00E00E00E03E00FFFC00FFFC00FF48
:1008C000FE00E01F00E00780E00380E00380E0031B
:1008D00080E00380E00780E00F00FFFE00FFFE00E5
:1008E000FFF80014194B18020001FC0007FF000F6D
:1008F000FF801F07C03C01E03800E07000F070008E
:1009000070E00000E00000E00000E00000E0000017
:10091000E00000E00000E00000E00070F000707017
:1009200000F07800E03C01E03F07C01FFF8007FEB9
:100930000001F80012194B180300FFF000FFFC0043
:10094000FFFE00E01F00E00F00E00780E00380E012
:100950000380E001C0E001C0E001C0E001C0E001AF
:10096000C0E001C0E001C0E001C0E003C0E00380DE
:10097000E00380E00780E00F00E01E00FFFE00FFC4
:10098000FC00FFF00011194B160300FFFF00FFFFF2
:1009900000FFFF00E00000E00000E00000E00000D9
:1009A000E00000E00000E00000E00000FFFF00FFCA
:1009B000FF00FFFF00E00000E00000E00000E000BA
:1009C00000E00000E00000E00000E00000FFFF8029
:1009D000FFFF80FFFF80101932140300FFFFFFFFAD
:1009E000FFFFE000E000E000E000E000E000E000E9
:1009F000E000FFFCFFFCFFFCE000E000E000E000A6
:100A0000E000E000E000E000E000E000E000161997
:100A10004B19010000FE0003FF800FFFC01F83F091
:100A20003E00F03C0078780038700038F00000E0BC
:100A30000000E00000E00000E00FFCE00FFCE00F31
:100A4000FCE0001CF0001C70001C78003C38003CEE
:100A50003C00FC1F01FC0FFFDC07FF1C01FC1C120B
:100A6000194B180300E001C0E001C0E001C0E00143
:100A7000C0E001C0E001C0E001C0E001C0E001C091
:100A8000E001C0E001C0FFFFC0FFFFC0FFFFC0E00A
:100A900001C0E001C0E001C0E001C0E001C0E00130
:100AA000C0E001C0E001C0E001C0E001C0E001C061
:100AB000031919090300E0E0E0E0E0E0E0E0E0E035
:100AC000E0E0E0E0E0E0E0E0E0E0E0E0E0E0E00DF9
:100AD00019321001000038003800380038003800A2
:100AE0003800380038003800380038003800380046
:100AF0003800380038E038E038E038E038F078780E
:100B0000F07FF03FE01F8014194B160300E003C094
:100B1000E00780E00F00E01E00E03C00E07800E02D
:100B2000F000E1E000E3C000E7C000EF8000FFC09C
:100B300000FFC000F9E000F0F000E07000E0780095
:100B4000E03C00E01C00E01E00E00F00E00780E059
:100B500003C0E003E0E001F00E1932120300E000F0
:100B6000E000E000E000E000E000E000E000E00085
:100B7000E000E000E000E000E000E000E000E00075
:100B8000E000E000E000E000E000FFFCFFFCFFFC14
:100B900015194B1B0300F00078F00078F800F8F806
:100BA00000F8FC01F8FC01F8FC01F8EC01B8EE03D8
:100BB000B8EE03B8E60338E70738E70738E3063846
:100BC000E38E38E38E38E38E38E18C38E1DC38E1AF
:100BD000DC38E0D838E0F838E0F838E07038E07019
:100BE0003813194B180200F000E0F000E0F800E0C4
:100BF000FC00E0FC00E0FE00E0EF00E0E700E0E7E2
:100C000080E0E3C0E0E3C0E0E1E0E0E0E0E0E0F06D
:100C1000E0E078E0E038E0E03CE0E01CE0E01EE00E
:100C2000E00FE0E007E0E007E0E003E0E001E0E003
:100C300001E017194B19010000FE0003FF800FEFC0
:100C4000E01F01F03E00F83C007878003C70001C8A
:100C5000F0001EE0000EE0000EE0000EE0000EE0EE
:100C6000000EE0000EE0000EF0001EF0001E780006
:100C70003C3C00783E00F81F01F00FEFE003FF80DE
:100C800000FE0011194B160300FFF800FFFE00FFE5
:100C9000FF00E00F00E00780E00380E00380E00356
:100CA00080E00380E00380E00780E00F00FFFF00AA
:100CB000FFFE00FFF800E00000E00000E00000E0C0
:100CC0000000E00000E00000E00000E00000E000C4
:100CD00000E00000171A4E1A01FF00FE0003FF801B
:100CE0000FEFE01F01F03E00F83C007878003C7008
:100CF000001CF0001EE0000EE0000EE0000EE00020
:100D00000EE0000EE0000EE0000EF0001EF0021EED
:100D100078073C3C07B83E03F81F01F00FEFF803DB
:100D2000FFBC00FE1E00000C13194B180300FFFC53
:100D300000FFFF00FFFF80E00780E003C0E001C08C
:100D4000E001C0E001C0E001C0E003C0E00380E0DA
:100D50000F80FFFF00FFFE00FFFF00E00F80E007B5
:100D600080E00380E003C0E003C0E003C0E001C016
:100D7000E001C0E001C0E001E013194B16010003DF
:100D8000F8000FFE001FFF003C0F803803C0700109
:100D9000C07001C07000007800007C00003FC000FF
:100DA0001FF80007FF00007F80000FC00001E00077
:100DB00000E0E000E0F000E07001E07801C03E07F4
:100DC000C03FFF800FFE0003F80013194B14000012
:100DD000FFFFE0FFFFE0FFFFE000E00000E00000B9
:100DE000E00000E00000E00000E00000E00000E0C3
:100DF0000000E00000E00000E00000E00000E00093
:100E000000E00000E00000E00000E00000E0000082
:100E1000E00000E00000E00000E00012194B1803C1
:100E200000E001C0E001C0E001C0E001C0E001C09D
:100E3000E001C0E001C0E001C0E001C0E001C0E0AD
:100E400001C0E001C0E001C0E001C0E001C0E0017C
:100E5000C0E001C0E001C0E001C0F003C07807803D
:100E60007C0F803FFF001FFE0003F00013194B169C
:100E70000100F001E0F001E0F001E07001C0780352
:100E8000C07803C03803803803803C07801C07000B
:100E90001C07001E0F000E0E000E0E000F0E0007A6
:100EA0001C00071C00079C0003B80003B80003B82F
:100EB0000001F00001F00000E00000E0001D1964F6
:100EC0001F0100F0070078F0070078F00F807870BD
:100ED0000F8070700F8070781DC0F0781DC0F038E2
:100EE0001DC0E0381DC0E03838E0E03C38E1E01CCF
:100EF00038E1C01C30E1C01C7071C01C7071C00EA4
:100F00007073800EE03B800EE03B800EE03B80077C
:100F1000E03F8007C01F0007C01F0007C01F00037D
:100F2000800E0003800E0014194B160100F800F02B
:100F30007801E03C03C01C03C01E07800F07000FB0
:100F40000F00079E00039C0003FC0001F80000F066
:100F50000000F00001F80001F800039C00079E006B
:100F6000070E000F0F001E07801E07803C03C0788D
:100F700001E07801E0F000F015194B160000F000D8
:100F8000787800F07800E03C01E01C01C01E03C04E
:100F90000E07800F0780078F00038E0003DE00011D
:100FA000DC0001FC0000F80000F800007000007098
:100FB0000000700000700000700000700000700001
:100FC00000700000700000700012194B1401007FC7
:100FD000FFC07FFFC07FFFC0000780000F80000FB1
:100FE00000001E00003C00003C0000780000F00003
:100FF00001E00001E00003C0000780000780000F4F
:1010000000001E00003C00003C0000780000F000E2
:1010100000FFFFC0FFFFC0FFFFC00620200902F94C
:10102000FCFCE0E0E0E0E0E0E0E0E0E0E0E0E0E088
:10103000E0E0E0E0E0E0E0E0E0E0E0E0E0E0FCFC78
:10104000091830090000C000C000600060006000A6
:1010500030003000300010001800180018000C009C
:101060000C000C000600060006000200030003004E
:101070000300018001800620200901F9FCFC1C1CF2
:101080001C1C1C1C1C1C1C1C1C1C1C1C1C1C1C1CA0
:101090001C1C1C1C1C1C1C1C1C1CFCFC0C0D1A10FD
:1010A000010B06000F000F001F801980198039C046
:1010B00030C070E060606060E070C0301202061204
:1010C00000FAFFFFC0FFFFC00605050B0114E0F0AA
:1010D00070381C1012241201000FE03FF83C7870A9
:1010E0003C701C001C003C01FC1FFC7E1C781CF0AA
:1010F0001CE01CE03CE07C79FE7FDF3F8F0F193263
:10110000120200E000E000E000E000E000E000E0AB
:1011100000E3E0EFF0FFF8F83CF01CF01EE00EE01A
:101120000EE00EE00EE00EE00EF01EF01CFC3CFFA8
:10113000F8EFF0E7E00E122410010007C01FF03FA7
:10114000F8383C701C701CE000E000E000E000E0BB
:1011500000E01CE01C701C78383FF81FF007C00F3F
:101160001932120100000E000E000E000E000E00DB
:101170000E000E07CE1FEE3FFE7C3E701EF01EE0FE
:101180000EE00EE00EE00EE00EE00EF01EF01E7817
:101190003E7FFE3FEE0FCE0F122412020007C01F4B
:1011A000F03FF8783C701CF00EE00EE00EFFFEFF02
:1011B000FEE000E000F00E701E783C3FF81FF007E4
:1011C000C00819190901000F1F3C38383838FFFFD3
:1011D000FF383838383838383838383838383838C8
:1011E0000F19321201F907CE1FEE3FFE7C3E701E32
:1011F000F01EE00EE00EE00EE00EE00EE00EF01E3F
:10120000703E783E3FFE1FEE078E000EE00EE01CA3
:10121000F01C7C783FF81FE00E1932120200E0004B
:10122000E000E000E000E000E000E000E3E0EFF0DC
:10123000FFF8F83CF01CE01CE01CE01CE01CE01C8B
:10124000E01CE01CE01CE01CE01CE01CE01CE01CBE
:10125000031919070200E0E0E0E0000000E0E0E030
:10126000E0E0E0E0E0E0E0E0E0E0E0E0E0E0E00658
:10127000202007FFF91C1C1C1C0000001C1C1C1C4F
:101280001C1C1C1C1C1C1C1C1C1C1C1C1C1C1C1C9E
:101290001C1C3CFCF80F1932100100E000E000E0DB
:1012A00000E000E000E000E000E078E0F0E1E0E3F2
:1012B000C0E780EF00FF00FF00FB80F3C0E1C0E16A
:1012C000E0E0E0E0F0E078E038E03CE01E031919EF
:1012D000070200E0E0E0E0E0E0E0E0E0E0E0E0E0A5
:1012E000E0E0E0E0E0E0E0E0E0E0E0E01712361B04
:1012F0000200E3C0F0EFF3FCFFF7FCF87E1EF03CC9
:101300000EE0380EE0380EE0380EE0380EE0380E11
:10131000E0380EE0380EE0380EE0380EE0380EE02F
:10132000380EE0380EE0380E0E1224120200E3E010
:10133000EFF8FFF8F83CF01CE01CE01CE01CE01C9F
:10134000E01CE01CE01CE01CE01CE01CE01CE01CBD
:10135000E01C0F122412010007C01FF03FF8783C78
:10136000701CF01EE00EE00EE00EE00EE00EE00E4F
:10137000F01E701C783C3FF81FF007C00F193212A6
:1013800002F903C0EFF0FFF8F83CF01CF01EE00E8D
:10139000E00EE00EE00EE00EE00EF01EF01CF83C59
:1013A000FFF8EFF0E7E0E000E000E000E000E00040
:1013B000E000E0000F19321201F907C01FEE3FFEF6
:1013C0007C3E701EF01EE00EE00EE00EE00EE00E21
:1013D000E00EF01E701E783E3FFE1FEE0FCE000E98
:1013E000000E000E000E000E000E000E0812120B72
:1013F0000200E7EFFFFCF0F0E0E0E0E0E0E0E0E03A
:10140000E0E0E0E00D12241002000F803FE07FE0FA
:1014100070F0E070E00070007E003FC007F000F068
:101420000078E038E038F0707FF07FE01F80081629
:101430001609010038383838FFFFFF383838383897
:10144000383838383838383C3F1F0E122412020022
:10145000E01CE01CE01CE01CE01CE01CE01CE01CAC
:10146000E01CE01CE01CE01CE01CE03CF07C7FFC8D
:101470007FDC1F1C0F1224100000E00EE00E701C19
:10148000701C701C3838383838381C701C701C7050
:101490000EE00EE00EE007C007C0038003801712C5
:1014A00036170000E0380EE0380E707C1C707C1C93
:1014B000706C1C38EE1C38EE3838EE3838C63818E8
:1014C000C6301DC7701DC7701DC7700D83600F83A8
:1014D000E00F83E00701C00701C00F1224100000D5
:1014E000F01E781C38383C701C700EE00FE007C00E
:1014F000038007C007C00FE01EE01C703878383842
:10150000701CF01E0E19321001F9E01CE01CF038BE
:101510007038703870703870387038E03CE01CE01B
:101520001DC01DC00FC00F800F80070007000700FF
:101530000E000E001C007C00780070000E122410BB
:1015400001007FF87FF87FF8007800F000E001C02C
:1015500003C0078007000E001C003C0078007000EC
:10156000FFFCFFFCFFFC0820200B01F90F1F1C18DB
:101570001818181818181818383870E0E07038382B
:101580001818181818181818181C1F0F021F1F09F0
:1015900003F9C0C0C0C0C0C0C0C0C0C0C0C0C0C0CF
:1015A000C0C0C0C0C0C0C0C0C0C0C0C0C0C0C0C03B
:1015B000C00820200B01F9F0F8381818181818186E
:1015C0001818181C1C0E07070E1C1C1818181818C1
:1015D0001818181838F8F00E060C13020918007CB9
:1015E0000C7F0CC7DCC1F800F0FF00141AFEFA0CE7
:1015F000025B0563207FFC0DFC0CFC000000050075
:1016000001010C0C05020080808080808080808039
:1016100000808004040406010890909090080B0B51
:101620000900001212127F242424FE484848070FA4
:101630000F0901FE107C9292905030181412929271
:101640007C10100C0C180E00007040888088808977
:101650000072000200040004E009101110111020B3
:10166000E00A0C180B00001800240042004200247D
:1016700000180029004500820083004480384002A1
:101680000404030008C0C040400310100601FC2001
:1016900040404080808080808080804040402003A7
:1016A00010100601FC8040404020202020202020F7
:1016B000204040408005050506000720A87050889E
:1016C0000909120A00000800080008000800FF804D
:1016D00008000800080008000204040401FE40405D
:1016E0004080040101050004F001020204020080B0
:1016F00080040C0C050000101020202020404040E9
:10170000808080070C0C0901003844448282828268
:101710008282444438030C0C090300202060A0207E
:1017200020202020202020070C0C090100384482B2
:101730008202040830408080FE070C0C090100384A
:101740004482820438040282824438080C0C090066
:10175000000C14142424444484FF040404070C0CD7
:101760000901003E202040784402020282443807EA
:101770000C0C0901003C428280B8C48282828244FF
:1017800038080C0C090000FF0102040408081010BE
:10179000102020070C0C0901003844828244384490
:1017A0008282824438070C0C09010038448282820C
:1017B00082463A028284780109090402008080008E
:1017C000000000008080020B0B0401FE404000007E
:1017D000000000404040800909120A000001800614
:1017E00000180060008000600018000600018008FA
:1017F00004040A0002FF0000FF0909120A0100C0E8
:101800000030000C000300008003000C003000C01A
:1018100000070C0C090100384482820204081010F1
:101820000010100D0E1C1101FE07801860201043DF
:10183000D04C48884890889088909099904E60400D
:101840000030600F800A0C180B00000C000C001216
:101850000012001200210021007F80408040808023
:10186000408040090C180B0100FC008200810081BF
:10187000008200FE0081008080808080808100FEE8
:10188000000A0C180C01000F00308040404000801E
:10189000008000800080004000404030800F000A3F
:1018A0000C180C0100FC0083008080808080408048
:1018B0004080408040808080808300FC00080C0CC9
:1018C0000B0100FF80808080FF8080808080FF0788
:1018D0000C0C0A0100FE80808080FE808080808069
:1018E000800A0C180D01000E00318040404000803D
:1018F00000800087C08040404040C031400E400919
:101900000C180C010080808080808080808080FFA7
:1019100080808080808080808080808080010C0C2E
:1019200004010080808080808080808080808006AC
:101930000C0C0800000404040404040404848484DB
:1019400078080C0C0B01008182848890B0C88884D0
:10195000828281070C0C0901008080808080808059
:1019600080808080FE0B0C180D01008020C060C0BC
:1019700060A0A0A0A0A0A09120912091208A208A00
:10198000208420090C180C01008080C080A080A059
:10199000809080888088808480828082808180801E
:1019A000800B0C180D01000E00318040404040803B
:1019B000208020802080204040404031800E000860
:1019C0000C0C0B0200FC82818182FC808080808074
:1019D000800B0D1A0D01FF0E003180404040408009
:1019E000208020802080204040424031800E8000B6
:1019F00040090C180C0200FC00820081008100826A
:101A000000FC00820081008100810081008080094B
:101A10000C180B01003E00410080808080400030A7
:101A2000000E0001008080808041003E00090C18FB
:101A30000A0000FF800800080008000800080008ED
:101A40000008000800080008000800090C180C0134
:101A50000080808080808080808080808080808006
:101A6000808080808041003E000A0C180B000080BE
:101A700040804040804080408021002100120012C0
:101A80000012000C000C000D0C180F0100820882DF
:101A900008820845104510451028A028A028A0104D
:101AA0004010401040080C0C0B01008142422424DD
:101AB00018182424424281090C180B01008080412F
:101AC0000041002200220014001C00080008000849
:101AD0000008000800090C180A00007F80010003BC
:101AE00000020004000C000800100030002000403C
:101AF00000FF80030F0F0501FDE080808080808063
:101B000080808080808080E0040C0C050000808054
:101B100040404040202020101010030F0F0500FD12
:101B2000E020202020202020202020202020E0074E
:101B30000707080005102828444482820901020989
:101B400000FDFF8003030306000A80C02008090986
:101B50000901007C8202067A8282867B070C0C09CE
:101B60000100808080B8C48282828282C4B8070962
:101B700009080100384482808080824438070C0CB8
:101B80000901000202023A468282828282463A07B4
:101B9000090909010038448282FE80824438040C1D
:101BA0000C050100304040F0404040404040404083
:101BB000070D0D0901FC3A468282828282463A0272
:101BC000828478070C0C090100808080BCC282826C
:101BD0008282828282010C0C03010080800080805E
:101BE0008080808080808003101004FFFC20200013
:101BF000202020202020202020202020C0070C0C86
:101C0000080000808080848890A0E0908884820111
:101C10000C0C030100808080808080808080808028
:101C2000800B09120E0200B9C0C6208420842084D3
:101C3000208420842084208420070909090100BC15
:101C4000C2828282828282820709090901003844A5
:101C500082828282824438070D0D0901FCB8C48259
:101C600082828282C4B880808080070D0D0901FCC9
:101C70003A468282828282463A02020202040909BC
:101C8000050100B0C080808080808080060909083E
:101C90000100788484C0300C848478040B0B050127
:101CA000004040F0404040404040403007090909B2
:101CB000010082828282828282867A070909080074
:101CC000008282444444282838100B09120C00007A
:101CD0008420842044404E404A402A802A801100BB
:101CE00011000709090800008244442810284444D0
:101CF00082070C0C0800FD8282444428283810100A
:101D00002020C0060909080100FC0408102020401A
:101D100080FC0310100601FC204040404040408001
:101D200040404040404040200110100401FC8080B1
:101D30008080808080808080808080808080031090
:101D4000100601FC80404040404040204040404060
:101D5000404040800802020A0104718EFF00DA163A
:101D600011241FBECFEFD1E2DEBFCDBF00E00CBF1C
:101D700012E0A0E0B2E0EEE7FEE200E00BBF02C03E
:101D800007900D92A833B107D9F723E0A8E3B2E09A
:101D900001C01D92A330B207E1F71EE0C0EBDEE008
:101DA00000E006C021970109802FFE010E94311733
:101DB000CF3AD10780E00807A9F7D5D60C943D1794
:101DC0000C9400008091CD029091CE02009709F40E
:101DD00037C02091E002FC01211107C03596E49143
:101DE000E093E102FC013C960FC0213039F43F96AC
:101DF000E491E093E102FC01709606C03D96E49107
:101E0000E093E102FC013E96E491E093E2028091CE
:101E1000E102082E000C990B2091E202821B91092D
:101E200027FD93952091E302203441F0829FC00169
:101E3000112426E0969587952A95E1F78093E40290
:101E4000089590E0FC013197E231F10508F04EC0B1
:101E50008827EE58FF4F8F4F0C94311780918000E8
:101E60008F7703C0809180008F7D809380000895DC
:101E700080918000877FF9CF84B58F7702C084B5C9
:101E80008F7D84BD08958091B0008F7703C08091CD
:101E9000B0008F7D8093B0000895809190008F777F
:101EA00007C0809190008F7D03C080919000877F54
:101EB0008093900008958091A0008F7707C0809153
:101EC000A0008F7D03C08091A000877F8093A00039
:101ED0000895809120018F7707C0809120018F7D28
:101EE00003C080912001877F8093200108951F9374
:101EF000CF93DF93E1E3F2E09491EBEEF1E0D49144
:101F0000E5EAF1E0C491CC23C9F0182F992311F030
:101F1000892F97DFEC2FF0E0EE0FFF1FE258FE4F06
:101F2000A591B4919FB7F894111104C08C91D095EC
:101F3000D82302C0EC91DE2BDC939FBFDF91CF91C1
:101F40001F910895CF93DF9390E0FC01E252FE4F82
:101F50002491FC01E856FE4F8491882361F190E0C2
:101F6000880F991FFC01EC59FE4FC591D491FC01DB
:101F7000E258FE4FA591B491611109C09FB7F89442
:101F80008881209582238883EC912E230BC06230B8
:101F900061F49FB7F8948881322F3095832388832A
:101FA000EC912E2B2C939FBF06C08FB7F894E8813D
:101FB0002E2B28838FBFDF91CF91089580E0089565
:101FC000CF92DF92EF92FF920F931F93CF93DF9305
:101FD0006C017A018B01C0E0D0E0CE15DF0581F005
:101FE000D8016D918D01D601ED91FC910190F081A8
:101FF000E02DC6011995892B11F02196EECF7E01B7
:10200000C701DF91CF911F910F91FF90EF90DF906B
:10201000CF9008950895DC011696ED91FC911797E5
:1020200012968C91481B477081E090E001C0880FA8
:102030004A95EAF7E60FF11D3081222311F0832B38
:1020400002C08095832380830895FB014181DC01D8
:1020500012962C911297421760F013962C911397B9
:10206000241738F0608115962C91621710F42481A2
:10207000D2CF0895FC0130819281930F9283218108
:10208000921760F494819F5F94838381830F8217FA
:1020900010F08FEF820F838381E0089580E0089530
:1020A000FC01128280818150838314820895DB01B8
:1020B000ED91FC9119940F931F93CF93DF931F928F
:1020C000CDB7DEB70091CB021091CC02E091FA02BD
:1020D000F091FB0282E0199520E030E04AE0B8017F
:1020E00089EC92E0E4DF182FE091FA02F091FB0214
:1020F00083E01995E091FA02F091FB0280E01995D6
:102100001123A1F16091CB027091CC029E012F5F4F
:102110003F4F46E489EC92E0CADF89818093C9028F
:102120006091CB027091CC029E012F5F3F4F47E43C
:1021300089EC92E0BCDF89818093CA026091CB0276
:102140007091CC0220E030E048E489EC92E0AFDF0F
:102150008093D4026091CB027091CC022CEF32E0DC
:1021600047E189EC92E0A3DF81E001C080E00F90BD
:10217000DF91CF911F910F9108950F931F93CF93EC
:10218000DF938C01C5ECD2E0EDA9FEA982E01995A0
:10219000EDA9FEA981E0199520E030E044E1B80105
:1021A00089EC92E084DF2CEF32E047E1B80189EC62
:1021B00092E07DDFEDA9FEA980E0DF91CF911F9134
:1021C0000F9119940F931F93CF93E091D702F09141
:1021D000D802309719F089EC92E019950091CB0262
:1021E0001091CC02E091FA02F091FB0282E0199585
:1021F000E091FA02F091FB0281E0199520E030E0D5
:1022000045E1B80189EC92E052DFC82F882339F00C
:102210002CEF32E047E1B80189EC92E048DFE09131
:10222000FA02F091FB0280E019958C2FCF911F915B
:102230000F9108950B96FC01849108950A96FC0174
:1022400084910895FC0184910895FCDF882321F096
:10225000823011F083E0089586E00895FC01E60FD6
:10226000F11D849190E0982F88273196E4918E0F8C
:10227000911D089568E0F2CF66E0F0CF5F926F9213
:102280007F928F929F92AF92BF92CF92DF92EF9206
:10229000FF920F931F93CF93DF93EC01E62EF42E62
:1022A000C22E0C811D81C801CDDFD82E8C819D816D
:1022B000CCDF982E21E0D21203C02FE0A22E02C064
:1022C000AA24AA948C819D81B9DFD82E8C819D810E
:1022D000B1DFB82E8C819D81CDDFE0E6EC1538F4BE
:1022E000009729F0080F191F91E6D92E0FC08C8195
:1022F0009D81C2DFF0E4FC1538F4009729F0080F47
:10230000191F81E4D82E02C00F5E1F4FBC1430F499
:10231000188A1B8A1C8A198A1A8A75C0BD14C0F3D0
:10232000892D90E0F80124912F3F19F40F5F1F4F82
:102330003FC0CD1034C08C819D8184DF98012F5F18
:102340003F4FF801882311F0823091F484918B8BF8
:10235000F90124912C8BF8013396E491E88BF80174
:102360003496E491E98BF8013596E491EA8B25C027
:102370008491982F9F7092509A8B82958F70898B41
:10238000F9012491822F8F708C8B22952F702B8BCB
:10239000F8013296E491E295EF70E88B0EC0F801F7
:1023A0003296E491EA219C012E0F311D020F131F7A
:1023B000BD1409F4ADCFD394B5CF0115110519F1B2
:1023C0008C819D8142DF2C899A89920FF91A9FEFA7
:1023D000920F9F0D3CA94EA94F1518F0931728F4A2
:1023E00002C0931770F09F1560F43B899989E90E3C
:1023F0009FEF930F9E0D4BA95DA95E1530F49417C6
:1024000030F4888933C080E031C0941710F49E15F1
:10241000C0F7080F111D395F732E76947694769469
:10242000622E6F0C5E01FCE1AF0EB11C872C912C6B
:102430006F1439F35E2C68018C2D801B871590F486
:10244000F60184916A817B815C8EFD8E1F8E8E8F5A
:1024500095014BE3CE012BDEFFEFCF1ADF0A28E018
:10246000520EEACF080D191DF394E2CFDF91CF9100
:102470001F910F91FF90EF90DF90CF90BF90AF90A2
:102480009F908F907F906F905F900895FF920F9331
:102490001F93CF93DF93082FF62E172FE091DE02C4
:1024A000F091DF0289EC92E01995080FCF2DD12F22
:1024B00010E0F12C2991222341F0402F6F2D89EC5F
:1024C00092E0DCDEF80E180FF5CF812FDF91CF916F
:1024D0001F910F91FF9008952EE93FE0009729F09A
:1024E000F9013197F1F70197F9CF08959091BA0268
:1024F000911102C08093BA0208951F93CF93DF9386
:102500001F921F92CDB7DEB720ED37E03A832983C3
:102510009091BC00982391F429813A81232B49F4AE
:102520008091C402182F127081FD08C081E0DEDFA7
:1025300006C029813A8121503109E8CF11E0812F6D
:102540000F900F90DF91CF911F910895CF9384EA60
:102550008093BC0061E080E8D0DF882351F0809157
:10256000B900887F883039F0803129F061E082E05D
:10257000BDDFC0E01BC088E78093BB0084E8809388
:10258000BC0062E080E8B9DF882399F38091C4023F
:10259000C82FC27081FD09C08091B900887F883141
:1025A00021F062E082E0A2DF01C0C1E08C2FCF9178
:1025B000089584E98093BC0064E080E19ECFCF93CE
:1025C0008093BB0084E88093BC0063E080E895DFE3
:1025D000C82F882381F08091C402C82FC27081FD6A
:1025E00009C08091B900887F883221F063E082E0E1
:1025F0007DDF01C0C1E08C2FCF9108951092BA0207
:1026000008958093C4021092B90084FF02C08CE048
:1026100001C088E48093B800F1CFCF93DF93FC0131
:1026200023A5222369F0EC0191DF811102C080E033
:1026300008C08EA1811180E4C2DF8823C1F31BA6EC
:1026400081E0DF91CF9108950F931F93CF93C42F13
:1026500089016330B9F050F4613081F0623009F0E3
:102660003FC0FC0146A321E023A73AC06630E9F051
:10267000673041F1653009F033C00CC0FC0186A51C
:10268000C0DF2EC0FC0116A221E023A7411128C003
:1026900090DF26C0C2DF811103C08BDF80E021C044
:1026A0008C2F8DDF81111CC0F8CFB7DF8823A9F3F1
:1026B000CC23B1F0F80181918F0181DF882369F388
:1026C000C150F6CFAADF882341F3CC2349F0F801AB
:1026D000849175DF882329F00F5F1F4FC150F5CF1C
:1026E00081E0CF911F910F910895DB011496ED9138
:1026F000FC91159720E030E065E01994CF92DF92CD
:10270000EF92FF920F931F93CF93DF938C017B0186
:102710006A0180E0F601C49181110AC0CF3F09F43B
:1027200054C04C2FB701C801E0DF81114CC052C02A
:10273000CF3F11F44FEFF6CFCE3F09F44DC0C03F6D
:1027400008F041C0C03E58F04C2F4F70D70114968E
:10275000ED91FC91159720E030E062E00CC0C03DA7
:1027600068F04C2F4F70D7011496ED91FC9115979E
:1027700020E030E063E0C801199525C0C03CF0F0CE
:10278000D7011496ED91FC91159720E030E040E0E0
:1027900064E0C8011995C295C07FCE5FD0E0CE013C
:1027A0009BDED7011496ED91FC91159720E030E067
:1027B00041E064E0C8011995CE0104C0C7FD03C023
:1027C0008C2F90E089DE80E001C081E0BFEFCB1A62
:1027D000DB0AA0CF80E001C081E0DF91CF911F91A3
:1027E0000F91FF90EF90DF90CF900895AF92BF923E
:1027F000CF92DF92FF920F931F93CF93DF936C01E1
:102800008B01F42EE90120E1421709F453C024178B
:1028100098F03AE0431357C0DB011496ED91FC9118
:10282000159720E030E042E061E0199544E251E084
:10283000B801C60163DF47C081E1481709F43DC014
:10284000A5E14A1340C0FB01A280B3804CE151E0F6
:10285000C60154DFD50114964C91406BB801C601F6
:1028600044DFD8011496ED91FC91159720E030E0FB
:1028700041E062E0C6011995F50126813781D80152
:102880001496ED91FC911597D50115964C9166E043
:10289000C6011995811102C080E0C2C0D80114960A
:1028A000ED91FC91159720E030E040E063E0C60137
:1028B000199509C043E151E002C048E051E0B80178
:1028C000C6011CDFACC0F80102811381F2E3FF16E0
:1028D00009F46FC0FF15B8F025E1F21609F474C0D1
:1028E00037E1F31609F485C084E1F81298C0D801E5
:1028F0001696ED91FC91179715968C919F01280FD4
:10290000311DC9015AC0A6E4FA1609F481C0B7E422
:10291000FB1609F480C0EBE3FE1281C089819B8124
:10292000913029F0933031F4482F885004C048E0AA
:10293000480F01C0482F51E0D80113962C91281759
:1029400008F450E031E0F8012281421708F430E049
:1029500021E0481708F020E0822F852B382319F456
:10296000252309F45CC0CA80913061F038F09230C0
:1029700061F0933071F4FF24FA940CC0F12CDD2443
:10298000D39409C0FF24F39405C0F12CDD24DA941C
:1029900002C0F12CD12CC7FE03C0BE01C80155DB1B
:1029A00088818D0D888389818F0D8983CC0C99F75F
:1029B00036C0BE01C80149DB32C011928E179F0795
:1029C000E1F7C8016DDB2BC0C80154DB882309F493
:1029D00063CFD8011696ED91FC91179715968C91BF
:1029E0009F01280F311DC90111928E179F07E1F732
:1029F00016C01882D80112968C9112978983159669
:102A00008C91159781508A8313968C918B8307C084
:102A1000F801858103C0D80111968C91888381E0EB
:102A2000DF91CF911F910F91FF90DF90CF90BF90DA
:102A3000AF900895DF92EF92FF920F931F93CF9381
:102A4000DF93EC01D62E1CAD0BAD7C0184E0E80ECB
:102A5000F11CE98DFA8DC7011995412F480F2D2DD5
:102A6000602FC7010BDC9BAD890F8BAF81E090E03D
:102A7000DF91CF911F910F91FF90EF90DF9008951C
:102A8000089580E090E00895F4D11F920F920FB660
:102A90000F9211242F933F938F939F93AF93BF93E4
:102AA0008091C0029091C102A091C202B091C30274
:102AB0003091BF0223E0230F2D3720F40196A11D92
:102AC000B11D05C026E8230F0296A11DB11D20935C
:102AD000BF028093C0029093C102A093C202B09340
:102AE000C3028091BB029091BC02A091BD02B09143
:102AF000BE020196A11DB11D8093BB029093BC0242
:102B0000A093BD02B093BE02BF91AF919F918F91F0
:102B10003F912F910F900FBE0F901F9018951F920D
:102B20000F920FB60F9211242F933F938F939F9381
:102B3000809178002091790090E0922B9C01305890
:102B40003093B9022093B8029093A8008091B80204
:102B50008093AA009F918F913F912F910F900FBE6C
:102B60000F901F901895789484B5826084BD84B5C9
:102B7000816084BD85B5826085BD85B5816085BD78
:102B800080916E00816080936E0010928100809130
:102B900081008260809381008091810081608093B8
:102BA0008100809180008160809380008091B100DD
:102BB00084608093B1008091B00081608093B00008
:102BC000809191008260809391008091910081605A
:102BD000809391008091900081608093900080911B
:102BE000A10082608093A1008091A1008160809308
:102BF000A1008091A00081608093A00080912101BC
:102C00008260809321018091210181608093210164
:102C10008091200181608093200180917A008460FE
:102C200080937A0080917A00826080937A0080910C
:102C30007A00816080937A0080917A008068809326
:102C40007A001092C10062E08CE07CD962E082E000
:102C500079D962E08BE376D962E08AE373D961E0E7
:102C60008DE070D961E086E06DD961E087E06AD9D6
:102C700080E680937C0085EE80937A0010927B0042
:102C800081E080937E0080EA8093A00081E18093C0
:102C9000A10080E2809372001092A7008FEF8093D2
:102CA000A60084B1866084B9789420E3E22E22E005
:102CB000F22E3AEEC32E31E0D32E4AE6A42E42E0A5
:102CC000B42ECEEDDFE05AEE852E55E1952E94EA36
:102CD000692E91E0792E5524539400E010E0F7011D
:102CE0008491F6014490F3013490332069F081110E
:102CF000A8D8E32DF0E0EE0FFF1FE65BFE4FA59195
:102D0000B4918C91482281F580E0F1D88091020342
:102D1000811103C050920203CED98091CB029091D1
:102D2000CC022BDA8091CD029091CE028A5692404D
:102D300049F0B092CE02A092CD0244D8D093DF02E7
:102D4000C093DE0269E272E08EE1A0DB60E372E034
:102D50008CE39CDB37DA8111E5CF0115110509F40D
:102D6000BECF0E940000B3CF81E0C1D880910203A2
:102D7000811103C0509202039ED98091CB029091A1
:102D8000CC02FBD98091CD029091CE028A5E954112
:102D900049F09092CE028092CD0214D8D093DF02F7
:102DA000C093DE026AE172E089E170DB0BDA811127
:102DB000E9CFD3CF1092C8021092C70282E192E00D
:102DC0009093C6028093C5021092000310920103F3
:102DD000109202031092CE021092CD021092D002F5
:102DE0001092CF021092D20281E08093D10282E24F
:102DF0008093D3021092D8021092D702ECEEF2E048
:102E00008FEF819392E0EA3FF907D9F781E0809351
:102E1000E9022EED3FE03093DF022093DE02809343
:102E2000E0021092E1021092E20280E48093E30259
:102E30001092E4028AE090E19093FB028093FA0200
:102E400088E092E09093CC028093CB0282E0809362
:102E5000F70231D982E192E09093C6028093C502D5
:102E60000895EE0FFF1F881F8BBF0790F691E02D8E
:0E2E7000199481E090E0F89400C0F894FFCF30
:102E7E000840000000803802F61300022413000000
:102E8E0000001A15E00F4115401520434C45414EE8
:102E9E00204546464543542000454646454354008A
:082EAE002020204F46462000C1
:00000001FF
