:100000000C9491110C94C1110C94C1110C94C11158
:100010000C94C1110C94C1110C94C1110C94C11118
:100020000C94C1110C94C1110C94C1110C94C11108
:100030000C94C1110C94C1110C94C1110C94C111F8
:100040000C94C1110C94C1110C94C1110C94C111E8
:100050000C94C1110C94C1110C94C1110C94211970
:100060000C94C1110C94C1110C94C1110C94C111C8
:100070000C94C1110C94C1110C94C1110C94C111B8
:100080000C94C1110C94C1110C94C1110C94C111A8
:100090000C94C1110C94C1110C94C1110C94C11198
:1000A0000C94C1110C9412160C94C1110C94C11132
:1000B0000C94C1110C94C1110C94C1110C94C11178
:1000C0000C94C1110C94C1110C94C1110C94C11168
:1000D0000C94C1110C94C1110C94C1110C94C11158
:1000E0000C94C111B116B416A316A716AD16EB16D3
:1000F000B816BC16C216C616CA16D016D416D8160E
:10010000EB16DE16E216E616FFE0FFD1AFFF32FF78
:10011000D0FFFEFFE0FFD1AEFFD0FFFEFFE0FFD13A
:100120001002FFFEFFD0FFE0FFC1FFD1AED580A8D7
:100130003FD300408D142002A1C8DA1281CFD9F13B
:10014000DB402EA4A6AFFFD0FFFE001C25FDF81358
:1001500004250931207FFB14FB13FB00000006007F
:1001600001021313060200C0C0C0C0C0C0C0C0C09E
:10017000C0C0C080800000C0C0C006060608010DD7
:10018000CCCCCCCCCC440B11220E02000CC00CC049
:100190000CC01980FFE0FFE01980198033003300A4
:1001A000FFE0FFE0330033006600660066000B16D8
:1001B0002C0D01FE060006001F803FC076E0666041
:1001C0006660660076003E003E000F8007C006E0D5
:1001D0000660C660C660E6E07FC03F80060006009D
:1001E0001312361601000006003C0C007E0C00C302
:1001F0001800C31800C33000C330007E60003C60AC
:100200000000C00000C780018FC001986003186023
:10021000031860061860060FC00407800E12241130
:1002200002000F001F8039C030C030C030C01980BC
:100230000F001E003F18739861D8C0F0C060C0F076
:10024000E1D87F9C1E0002060606020DC0C0C0C099
:10025000C0400518180802FB18183030606060C0F4
:10026000C0C0C0C0C0C0C0C0C0606060303018181E
:100270000518180801FBC0C060603030301818182D
:10028000181818181818183030306060C0C00707E8
:10029000070A010C1010D67C386C440C0C180E01A7
:1002A0000106000600060006000600FFF0FFF0064B
:1002B0000006000600060006000206060602FDC053
:1002C000C0C0404080060202080106FCFC02030395
:1002D000060200C0C0C007131307000006040C0C80
:1002E0000818181010303020606040C0C080800BAB
:1002F00012240D01001F003F8071C060C060C0E08B
:10030000E0C060C060C060C060C060C060E0E0602D
:10031000C060C071C03F801F000612120D02000CA9
:100320000C1CFCFC0C0C0C0C0C0C0C0C0C0C0C0C1D
:100330000C0B12240D01001E007F8061C0C0C0C0E4
:1003400060C06000E000C001C003800F001C0038E6
:10035000007000E000C000FFE0FFE00B12240D0180
:10036000001F007F806180C0C0C0C0C0C000C0014D
:10037000800F000FC000C000600060C060C0C0619E
:10038000C07F801F000B12240D0100018003800339
:100390008007800F800D801980398031806180E175
:1003A00080C180FFE0FFE001800180018001800BBF
:1003B00012240D01007FC07FC060006000600060FB
:1003C000007E007F8071C000C000E000600060C05F
:1003D000E0C0C0E1C07F801E000B12240D01000FA1
:1003E000003FC070C06060E060C000C000CF00DFB0
:1003F00080F1C0E0C0C060C060C060E0E071C07F5C
:10040000C01F000B12240D0100FFE0FFE000E00020
:10041000C00180018003000300060006000C000CF0
:10042000001C00180018003800300030000B1224A7
:100430000D01000E003F80318060C060C060C0319F
:10044000801F003F8071C060C0C060C060C060C0DD
:100450006060C07FC01F000B12240D01001F007FD1
:10046000C071C0E0C0C060C060C060C060E0E0714A
:10047000E07F601E60006000E0C0C0E1C07F801EC1
:1004800000020E0E060200C0C0C000000000000006
:100490000000C0C0C00211110602FDC0C0C00000B3
:1004A000000000000000C0C0C04040800C0C180FCD
:1004B0000101003000F003C00F003C00E000E0004C
:1004C0003C000F0003C000F000300A050A0F0205CF
:1004D000FFC0FFC00000FFC0FFC00C0C180F0101DF
:1004E000C000F0003C000F0003C00070007003C0AB
:1004F0000F003C00F000C0000A13260C01001F0092
:100500007F8071C0E0C0C0C0C1C00180038007000F
:1005100006000C000C000C000C00000000000C0099
:100520000C000C001617451902FC00FF0003FFC069
:100530000F01E01C007038001830001860730C6068
:10054000FB0CC1C70CC3860CC3060CC6060CC60C3C
:100550001CC60C18C60C38E71C7063F7E071E3800A
:100560003800001C00000F030007FF0000FC000F14
:1005700013261101000380038006C006C00C400C46
:10058000600C6018301830183030183FF83FF860B1
:100590000C600C600CC006C006C0060E13261102CB
:1005A00000FFC0FFF0C070C018C018C018C018C04D
:1005B00030FFE0FFF0C018C00CC00CC00CC00CC075
:1005C0001CC078FFF0FFC00F132612010007E01FC8
:1005D000F83C3C700E6006E006C000C000C000C0E1
:1005E00000C000C000C000E0066006700E3C3C1F6A
:1005F000F807E00F1326120200FFC0FFF0C078C01A
:100600001CC00CC00EC006C006C006C006C006C096
:1006100006C006C00EC00CC01CC078FFF0FFC00CA6
:100620001326100200FFF0FFF0C000C000C000C0A1
:1006300000C000C000FFE0FFE0C000C000C000C07C
:1006400000C000C000C000FFF0FFF00B13260E0238
:1006500000FFE0FFE0C000C000C000C000C000C05C
:1006600000FFC0FFC0C000C000C000C000C000C08C
:1006700000C000C000C00010132613010007E01FD7
:10068000F83C3C700E6006E006C000C000C000C030
:100690007FC07FC003C003E0036007700F3C3F1FB3
:1006A000FB07E30E1326120200C00CC00CC00CC0E6
:1006B0000CC00CC00CC00CC00CFFFCFFFCC00CC07C
:1006C0000CC00CC00CC00CC00CC00CC00CC00C0288
:1006D0001313080300C0C0C0C0C0C0C0C0C0C0C0A9
:1006E000C0C0C0C0C0C0C0C00A13260D010000C0F9
:1006F00000C000C000C000C000C000C000C000C0FA
:1007000000C000C000C0C0C0C0C0C0C0C0C06180C8
:100710007F803F000D1326120300C038C070C0E078
:10072000C1C0C380C700CE00DC00FC00FE00E700B3
:10073000C380C180C1C0C0E0C060C070C038C018F4
:100740000B13260E0200C000C000C000C000C00095
:10075000C000C000C000C000C000C000C000C00099
:10076000C000C000C000C000FFE0FFE01113391559
:100770000200C00180E00380E00380F00780F00702
:1007800080D80D80D80D80D80D80CC1980CC1980F0
:10079000CC1980C63180C63180C63180C36180C328
:1007A0006180C36180C1C180C1C1800E1326120265
:1007B00000E00CF00CF00CD80CDC0CCC0CCE0CC611
:1007C0000CC70CC30CC38CC18CC1CCC0CCC0ECC05A
:1007D0006CC03CC03CC01C10132612010007E01F77
:1007E000F83C3C700E6006E007C003C003C003C0C5
:1007F00003C003C003C003E0076006700E3C3C1F4B
:10080000F807E00D1326100200FFE0FFF0C030C033
:1008100018C018C018C018C030FFF0FFE0C000C0FA
:1008200000C000C000C000C000C000C000C0001078
:10083000132612010007E01FF83C3C700E6006E032
:1008400007C003C003C003C003C003C003C003E06C
:100850000760E6707E3C1C1FFE07E70D13261102A1
:1008600000FFE0FFF0C030C018C018C018C018C0AA
:1008700030FFF0FFE0C070C030C018C018C018C012
:1008800018C018C018C0180D13261002000F803FA2
:10089000E06060C030C030C000E0007C003F8007F6
:1008A000E000F0003800180018C018C038F0707F61
:1008B000E01F800E1326100100FFFCFFFC03000365
:1008C0000003000300030003000300030003000310
:1008D0000003000300030003000300030003000EF5
:1008E0001326120200C00CC00CC00CC00CC00CC0FF
:1008F0000CC00CC00CC00CC00CC00CC00CC00CC098
:100900000CC00C601870383FF00FC00F1326110197
:1009100000C006C006E00E600C701C30183018389D
:1009200038183018301C700C600C600EE006C006E1
:10093000C0038003800380141339160100C06030A7
:10094000C06030C06030C0F03060F06061986061BD
:1009500098606198606198603198C0330CC0330C26
:10096000C0330CC01B0D801B0D801E07800E0700BE
:100970000C03000C03000F1326110100C006E00E4B
:10098000701C301818301C700EE007C00380038004
:1009900007C00EE00C601C7038383018600CE00E98
:1009A000C0060E1326100100C00CE01C6018703841
:1009B0003030387018601CE00CC00FC00780078012
:1009C00003000300030003000300030003000D13F2
:1009D000260F0100FFF8FFF80038007000E001C0AA
:1009E00001C00380070007000E001C001C00380037
:1009F00070007000E000FFF8FFF80418180702FB11
:100A0000F0F0C0C0C0C0C0C0C0C0C0C0C0C0C0C086
:100A1000C0C0C0C0C0C0F0F0081313070000C04041
:100A200040602020301010101808080C0404060242
:100A3000030418180701FBF0F0303030303030304C
:100A400030303030303030303030303030F0F00A4C
:100A500009120C010A0C000C001E00120033006188
:100A6000806180C0C0C0C00E02040E00FBFFFCFF0E
:100A7000FC05040407010FC06030180B0E1C0D01AB
:100A8000001F003F8061C060C000C007C03FC07849
:100A9000C0E0C0C0C0C1C0E3C07EE03C600B132614
:100AA0000E0200C000C000C000C000C000CF00DFC8
:100AB00080F1C0E0C0C0E0C060C060C060C060C085
:100AC000E0E0C0F1C0DF80CF000A0E1C0C01001F67
:100AD000003F8071C060C0E000C000C000C000C026
:100AE00000E00060C071C03F801F000B13260E01A4
:100AF00000006000600060006000601E603F607188
:100B0000E060E0E060C060C060C060C060E0606065
:100B1000E071E03F601E600B0E1C0D01000E003FF7
:100B20008071C060C0C060C060FFE0FFE0C000C076
:100B300000606070E03FC00F000613130801001C46
:100B40003C303030FCFC3030303030303030303001
:100B500030300B13260E01FB1E603F6071E060E039
:100B6000E060C060C060C060C060E06060E071E0F4
:100B70003F601E600060C060E0C07FC01F000A13BD
:100B8000260D0200C000C000C000C000C000CE00A2
:100B9000DF80F180E0C0C0C0C0C0C0C0C0C0C0C065
:100BA000C0C0C0C0C0C0C0C0C0C002131306020095
:100BB000C0C0C00000C0C0C0C0C0C0C0C0C0C0C0B5
:100BC000C0C0C00418180600FB30303000003030C0
:100BD000303030303030303030303030303030F055
:100BE000E00A13260C0200C000C000C000C000C014
:100BF00000C180C380C700CE00DC00F800FC00CE3E
:100C000000C600C700C380C180C1C0C0C0021313AA
:100C1000060200C0C0C0C0C0C0C0C0C0C0C0C0C00C
:100C2000C0C0C0C0C0C0100E1C140200CE3CFF7E6D
:100C3000E3C7C183C183C183C183C183C183C1832E
:100C4000C183C183C183C1830A0E1C0E0200CE0082
:100C5000DF80F180E0C0C0C0C0C0C0C0C0C0C0C0A4
:100C6000C0C0C0C0C0C0C0C0C0C00B0E1C0D0100C1
:100C70001F003F8071C060C0E0E0C060C060C06025
:100C8000C060E0E060C071C03F801F000B13260E03
:100C900002FBCF00DF80F1C0E0C0C0E0C060C060F8
:100CA000C060C060C0E0E0C0F1C0DF80CF00C00025
:100CB000C000C000C000C0000B13260E01FB1E6068
:100CC0003F6071E060E0E060C060C060C060C06034
:100CD000E06060E071E03F601E6000600060006006
:100CE00000600060060E0E090200CCDCF8F0E0C0E7
:100CF000C0C0C0C0C0C0C0C00A0E1C0C01003F0074
:100D00007F80E1C0C0C0C000F8007F000F8001C03C
:100D1000C0C0C0C0E1C07F803F00061212080100C1
:100D200030303030FCFC303030303030303030302B
:100D30003C1C0A0E1C0E0200C0C0C0C0C0C0C0C017
:100D4000C0C0C0C0C0C0C0C0C0C0C0C0C1C063C0FF
:100D50007EC01CC00B0E1C0D0100C060C060C060D6
:100D600060C060C071C0318031801B001B001B005F
:100D70000E000E000E00120E2A120000C0C0C0C0ED
:100D8000C0C061E18061E18061E1803123003333E3
:100D9000003333001B36001A16001E1E000E1C0006
:100DA0000C0C000C0C000A0E1C0C0100C0C0E1C0B1
:100DB000618033001E001E000C001E001E00330068
:100DC00073806180C0C0C0C00C13260D00FBC03012
:100DD000C03060307060306038E018C018C00D80DE
:100DE0000D800780070003000300060006000C00CA
:100DF0003C0038000A0E1C0C0100FFC0FFC001803F
:100E0000030007000E000C001C00380030006000DA
:100E1000E000FFC0FFC00618180801FB0C183030B6
:100E200030303030303060C0C06030303030303042
:100E30003030180C0118180602FB808080808080FA
:100E400080808080808080808080808080808080A2
:100E500080800618180801FBC06030303030303018
:100E60003030180C0C18303030303030303060C03A
:100E70000A04080E020570C0FCC0CFC0C380FF008A
:100E80002730FBF51905D70E69207FF91BF919F9F1
:100E9000000000090001031919090400E0E0E0E086
:100EA000E0E0E0E0E0E0E0E0E0E0E0E0E040400062
:100EB00000E0E0E0E00808080C020FE7E7E7E7E7FA
:100EC000E74242111745130100038700038700031F
:100ED0000600030600070E00070E007FFF807FFF5D
:100EE000807FFF800E1C000E1C000C18001C3800B8
:100EF0001C3800FFFF00FFFF00FFFF0038700038C4
:100F0000700030600030600070E00070E000101F82
:100F10003E1201FC0180018001800FF01FF83DBCF2
:100F2000718E718EE18EE180E18071807D803FC0A5
:100F30001FF007FC01FE019E018F0187E187E18719
:100F4000718E718E3DBC3FF80FF0018001800180F1
:100F500001801A18601D0100000030001F007000A1
:100F60007F80600073C0E000E0C0C000C0E1C0004E
:100F7000C0E18000C0E38000E0C3000073C7000050
:100F80007F8600001F0E0000000C0000001C3E00C9
:100F900000187F800038F3800030C1C00071C0C0ED
:100FA0000061C0C000E1C0C000C0C1C001C0E3809A
:100FB00001807F8003803E0012174516020007C0A3
:100FC000000FE0001E70003C380038380038380050
:100FD0003C70001EF0000FE00007C0000F80003FD3
:100FE000C00079C70070E700E0F600E07E00E03C5A
:100FF00000E01C00F03E00787F007FF7803FE3C0F8
:101000000F000003080806020FE0E0E0E0E0E0E087
:1010100040071F1F0B02F9060C0C181838307070AF
:101020007060E0E0E0E0E0E0E0E0E0607070703030
:101030003818180C0C06071F1F0B01F9C060603030
:101040003038181C1C1C0C0E0E0E0E0E0E0E0E0C44
:101050000C1C1C18183830706060C00A0B160D018B
:101060000F0C000C004C80EDC07F803F001E003F45
:10107000007380E1C0408011103013010101C000F5
:1010800001C00001C00001C00001C00001C000019A
:10109000C000FFFF80FFFF80FFFF8001C00001C094
:1010A0000001C00001C00001C00001C00003090927
:1010B0000903FBE0E0E0E0206060C0800802020B72
:1010C0000108FFFF030404090300E0E0E0E0091861
:1010D000300900000180018001800300030003004B
:1010E0000600060006000C000C000C0008001800AA
:1010F0001800180030003000300060006000600010
:10110000C000C0000F183012010007C01FF03FF8E8
:101110003C78783C701C701CE00EE00EE00EE00E97
:10112000E00EE00EE00EE00EE00EE00E701C701C13
:10113000703C3C783FF81FF007C0081818120300F5
:101140000307070F3FFFFF07070707070707070703
:1011500007070707070707070F183012010007C026
:101160001FF03FF8783C701CF00EE00EE00E000E11
:10117000001C003C007800F003E007C01F003C00AA
:1011800078007000E000E000FFFEFFFEFFFE0F1899
:101190003012010007C01FF03FF83838701C701C77
:1011A000701C701C001C003803F803F003F8003CAE
:1011B000001E000EE00EE00EE00E701C783C3FF8C2
:1011C0001FF007C010183012000000180038007817
:1011D000007800F801F803B803B807380E380E3865
:1011E0001C38383838387038E038FFFFFFFFFFFF11
:1011F000003800380038003800380F18301201006D
:101200003FFC3FFC3FFC38003800380070007000A5
:1012100077C07FF07FF8787C701C001E000E000EF7
:10122000000EE00EE01EF01C787C7FF83FF00F808F
:101230000F183012010003C00FF01FF83C38381CA3
:10124000701C700070006000E3C0EFF0FFF8F83C25
:10125000F01CF00EE00EE00E600E700E701C383CBC
:101260003FF81FF007C00F1830120100FFFEFFFE0D
:10127000FFFE000E001C001800380070007000E037
:1012800000E001C001C003800380070007000700E1
:101290000E000E000E001C001C001C000F18301267
:1012A000010007C01FF03FF8383C701C701C701C18
:1012B000701C783C3C781FF00FE03FF8783C701CC5
:1012C000E00EE00EE00EE00EF01C783C3FF81FF060
:1012D00007C00F183012010007C01FF03FF8787CDC
:1012E000703CF01CE01EE00EE00EE00EE01EE01E82
:1012F000703E7FFE3FEE0FCE000E001CE01CF03C67
:1013000078783FF03FE00F80031212090400E0E01C
:10131000E0E000000000000000000000E0E0E0E08D
:101320000316160904FBE0E0E0E000000000000006
:10133000000000E0E0E0E0206060C08010102013BA
:1013400002000003000F003F01FC07E01F80FE00C9
:10135000F000F000FE001F8007E001FC007F000F9E
:1013600000030F0912130204FFFEFFFEFFFE000040
:1013700000000000FFFEFFFEFFFE10102013010022
:10138000C000F000FE003F8007E001F8007F000F82
:10139000000F007F01F807E03F80FE00F000C00072
:1013A0000E193212020007C01FF03FF87838701C87
:1013B000F01CE01CE01C001C00380038007000E04D
:1013C00001E001C00380038003800380000000006F
:1013D00003800380038003801D1E782201FB000729
:1013E000C000003FF80000FFFE0003F03F8007C090
:1013F00007C00F0003E01E0001E01C0000F0380FE2
:101400008C70381FDC38703CFC3870707C3860E0C1
:101410003818E0E03818E1E03818E1C07038E1C071
:101420007038E1C07070E1C0E070E1E0E0E070F3BE
:10143000F3C070FF7F80783E7F003C0000001E00FC
:1014400000001F0000000F80000003E0780001FF93
:10145000F800007FE00014194B16010000F00000B6
:10146000F00000F80001F80001F800039C00039C64
:1014700000039C00079E00070E00070E000F0F00E0
:101480000F0F000E07001E07801FFF801FFF803F09
:10149000FFC03C03C03801C07801E07801E0700073
:1014A000E0F000F0F000F011194B160300FFF0001F
:1014B000FFFC00FFFE00E03E00E00F00E00F00E058
:1014C0000700E00700E00F00E00E00E03E00FFFC38
:1014D00000FFFC00FFFE00E01F00E00780E003804B
:1014E000E00380E00380E00380E00780E00F00FF7E
:1014F000FE00FFFE00FFF80014194B18020001FC6B
:101500000007FF000FFF801F07C03C01E03800E02C
:101510007000F0700070E00000E00000E00000E00B
:101520000000E00000E00000E00000E00000E0005B
:1015300070F000707000F07800E03C01E03F07C000
:101540001FFF8007FE0001F80012194B180300FF6F
:10155000F000FFFC00FFFE00E01F00E00F00E007CE
:1015600080E00380E00380E001C0E001C0E001C052
:10157000E001C0E001C0E001C0E001C0E001C0E066
:1015800003C0E00380E00380E00780E00F00E01E7E
:1015900000FFFE00FFFC00FFF00011194B160300D6
:1015A000FFFF00FFFF00FFFF00E00000E00000E0A1
:1015B0000000E00000E00000E00000E00000E000CB
:1015C00000FFFF00FFFF00FFFF00E00000E0000061
:1015D000E00000E00000E00000E00000E00000E0CB
:1015E0000000FFFF80FFFF80FFFF8010193214030F
:1015F00000FFFFFFFFFFFFE000E000E000E000E091
:1016000000E000E000E000FFFCFFFCFFFCE000E089
:1016100000E000E000E000E000E000E000E000E0CA
:1016200000E00016194B19010000FE0003FF800FB7
:10163000FFC01F83F03E00F03C0078780038700057
:1016400038F00000E00000E00000E00000E00FFCE7
:10165000E00FFCE00FFCE0001CF0001C70001C78A8
:10166000003C38003C3C00FC1F01FC0FFFDC07FF86
:101670001C01FC1C12194B180300E001C0E001C062
:10168000E001C0E001C0E001C0E001C0E001C0E055
:1016900001C0E001C0E001C0E001C0FFFFC0FFFFEA
:1016A000C0FFFFC0E001C0E001C0E001C0E001C038
:1016B000E001C0E001C0E001C0E001C0E001C0E025
:1016C00001C0E001C0031919090300E0E0E0E0E017
:1016D000E0E0E0E0E0E0E0E0E0E0E0E0E0E0E0E00A
:1016E000E0E0E0E00D193210010000380038003869
:1016F000003800380038003800380038003800382A
:1017000000380038003800380038E038E038E03879
:10171000E038F07878F07FF03FE01F8014194B1626
:101720000300E003C0E00780E00F00E01E00E03CA3
:1017300000E07800E0F000E1E000E3C000E7C00076
:10174000EF8000FFC000FFC000F9E000F0F000E013
:101750007000E07800E03C00E01C00E01E00E00FBC
:1017600000E00780E003C0E003E0E001F00E193282
:10177000120300E000E000E000E000E000E000E034
:1017800000E000E000E000E000E000E000E000E059
:1017900000E000E000E000E000E000E000E000FF2A
:1017A000FCFFFCFFFC15194B1B0300F00078F00058
:1017B00078F800F8F800F8FC01F8FC01F8FC01F8F2
:1017C000EC01B8EE03B8EE03B8E60338E70738E7F4
:1017D0000738E30638E38E38E38E38E38E38E18C41
:1017E00038E1DC38E1DC38E0D838E0F838E0F838C7
:1017F000E07038E0703813194B180200F000E0F088
:1018000000E0F800E0FC00E0FC00E0FE00E0EF009B
:10181000E0E700E0E780E0E3C0E0E3C0E0E1E0E033
:10182000E0E0E0E0F0E0E078E0E038E0E03CE0E05C
:101830001CE0E01EE0E00FE0E007E0E007E0E0038E
:10184000E0E001E0E001E017194B19010000FE00A3
:1018500003FF800FEFE01F01F03E00F83C007878B6
:10186000003C70001CF0001EE0000EE0000EE000E6
:101870000EE0000EE0000EE0000EE0000EF0001E94
:10188000F0001E78003C3C00783E00F81F01F00F8D
:10189000EFE003FF8000FE0011194B160300FFF874
:1018A00000FFFE00FFFF00E00F00E00780E0038084
:1018B000E00380E00380E00380E00380E00780E055
:1018C0000F00FFFF00FFFE00FFF800E00000E00057
:1018D00000E00000E00000E00000E00000E00000A8
:1018E000E00000E00000E00000171A4E1A01FF00BF
:1018F000FE0003FF800FEFE01F01F03E00F83C0008
:101900007878003C70001CF0001EE0000EE0000E35
:10191000E0000EE0000EE0000EE0000EE0000EF031
:10192000001EF0021E78073C3C07B83E03F81F017A
:10193000F00FEFF803FFBC00FE1E00000C13194B64
:10194000180300FFFC00FFFF00FFFF80E00780E0BE
:1019500003C0E001C0E001C0E001C0E001C0E0035D
:10196000C0E00380E00F80FFFF00FFFE00FFFF00EC
:10197000E00F80E00780E00380E003C0E003C0E008
:1019800003C0E001C0E001C0E001C0E001E01319C4
:101990004B16010003F8000FFE001FFF003C0F80F4
:1019A0003803C07001C07001C07000007800007C76
:1019B00000003FC0001FF80007FF00007F80000FFD
:1019C000C00001E00000E0E000E0F000E07001E0B5
:1019D0007801C03E07C03FFF800FFE0003F80013F0
:1019E000194B140000FFFFE0FFFFE0FFFFE000E005
:1019F0000000E00000E00000E00000E00000E00087
:101A000000E00000E00000E00000E00000E0000076
:101A1000E00000E00000E00000E00000E00000E086
:101A20000000E00000E00000E00000E00000E00056
:101A300012194B180300E001C0E001C0E001C0E052
:101A400001C0E001C0E001C0E001C0E001C0E00170
:101A5000C0E001C0E001C0E001C0E001C0E001C0A1
:101A6000E001C0E001C0E001C0E001C0E001C0F061
:101A700003C07807807C0F803FFF001FFE0003F04B
:101A80000013194B160100F001E0F001E0F001E055
:101A90007001C07803C07803C03803803803803CED
:101AA00007801C07001C07001E0F000E0E000E0E04
:101AB000000F0E00071C00071C00079C0003B80065
:101AC00003B80003B80001F00001F00000E00000DE
:101AD000E0001D19641F0100F0070078F00700788E
:101AE000F00F8078700F8070700F8070781DC0F0DC
:101AF000781DC0F0381DC0E0381DC0E03838E0E087
:101B00003C38E1E01C38E1C01C30E1C01C7071C001
:101B10001C7071C00E7073800EE03B800EE03B8045
:101B20000EE03B8007E03F8007C01F0007C01F009A
:101B300007C01F0003800E0003800E0014194B160F
:101B40000100F800F07801E03C03C01C03C01E0750
:101B5000800F07000F0F00079E00039C0003FC008E
:101B600001F80000F00000F00001F80001F80003A7
:101B70009C00079E00070E000F0F001E07801E0727
:101B8000803C03C07801E07801E0F000F015194BCB
:101B9000160000F000787800F07800E03C01E01CCE
:101BA00001C01E03C00E07800F0780078F00038E41
:101BB0000003DE0001DC0001FC0000F80000F8007A
:101BC00000700000700000700000700000700000E5
:101BD00070000070000070000070000070001219AA
:101BE0004B1401007FFFC07FFFC07FFFC000078054
:101BF000000F80000F00001E00003C00003C0000B1
:101C0000780000F00001E00001E00003C000078060
:101C1000000780000F00001E00003C00003C000098
:101C2000780000F00000FFFFC0FFFFC0FFFFC0060C
:101C300020200902F9FCFCE0E0E0E0E0E0E0E0E088
:101C4000E0E0E0E0E0E0E0E0E0E0E0E0E0E0E0E094
:101C5000E0E0E0FCFC091830090000C000C00060B2
:101C600000600060003000300030001000180018E4
:101C70000018000C000C000C000600060006000214
:101C800000030003000300018001800620200901F9
:101C9000F9FCFC1C1C1C1C1C1C1C1C1C1C1C1C1CE7
:101CA0001C1C1C1C1C1C1C1C1C1C1C1C1C1C1CFC94
:101CB000FC0C0D1A10010B06000F000F001F8019FD
:101CC00080198039C030C070E060606060E070C032
:101CD000301202061200FAFFFFC0FFFFC006050522
:101CE0000B0114E0F070381C1012241201000FE0F8
:101CF0003FF83C78703C701C001C003C01FC1FFC51
:101D00007E1C781CF01CE01CE03CE07C79FE7FDF50
:101D10003F8F0F1932120200E000E000E000E00007
:101D2000E000E000E000E3E0EFF0FFF8F83CF01C3A
:101D3000F01EE00EE00EE00EE00EE00EE00EF01EF3
:101D4000F01CFC3CFFF8EFF0E7E00E12241001005D
:101D500007C01FF03FF8383C701C701CE000E0002A
:101D6000E000E000E000E01CE01C701C78383FF868
:101D70001FF007C00F1932120100000E000E000EF6
:101D8000000E000E000E000E07CE1FEE3FFE7C3E42
:101D9000701EF01EE00EE00EE00EE00EE00EE00E13
:101DA000F01EF01E783E7FFE3FEE0FCE0F12241283
:101DB000020007C01FF03FF8783C701CF00EE00EE8
:101DC000E00EFFFEFFFEE000E000F00E701E783C2B
:101DD0003FF81FF007C00819190901000F1F3C3810
:101DE000383838FFFFFF383838383838383838381E
:101DF00038383838380F19321201F907CE1FEE3F44
:101E0000FE7C3E701EF01EE00EE00EE00EE00EE0E6
:101E10000EE00EF01E703E783E3FFE1FEE078E0075
:101E20000EE00EE01CF01C7C783FF81FE00E19322B
:101E3000120200E000E000E000E000E000E000E06E
:101E400000E3E0EFF0FFF8F83CF01CE01CE01CE0E1
:101E50001CE01CE01CE01CE01CE01CE01CE01CE0A2
:101E60001CE01CE01C031919070200E0E0E0E000A0
:101E70000000E0E0E0E0E0E0E0E0E0E0E0E0E0E022
:101E8000E0E0E0E006202007FFF91C1C1C1C00001D
:101E9000001C1C1C1C1C1C1C1C1C1C1C1C1C1C1C9E
:101EA0001C1C1C1C1C1C1C3CFCF80F1932100100D3
:101EB000E000E000E000E000E000E000E000E078AA
:101EC000E0F0E1E0E3C0E780EF00FF00FF00FB800F
:101ED000F3C0E1C0E1E0E0E0E0F0E078E038E03CD1
:101EE000E01E031919070200E0E0E0E0E0E0E0E0B6
:101EF000E0E0E0E0E0E0E0E0E0E0E0E0E0E0E0E0E2
:101F0000E01712361B0200E3C0F0EFF3FCFFF7FC12
:101F1000F87E1EF03C0EE0380EE0380EE0380EE0A1
:101F2000380EE0380EE0380EE0380EE0380EE038BB
:101F30000EE0380EE0380EE0380EE0380E0E1224B7
:101F4000120200E3E0EFF8FFF8F83CF01CE01CE0C0
:101F50001CE01CE01CE01CE01CE01CE01CE01CE0A1
:101F60001CE01CE01CE01C0F122412010007C01F23
:101F7000F03FF8783C701CF01EE00EE00EE00EE042
:101F80000EE00EE00EF01E701C783C3FF81FF007CC
:101F9000C00F19321202F903C0EFF0FFF8F83CF05D
:101FA0001CF01EE00EE00EE00EE00EE00EE00EF083
:101FB0001EF01CF83CFFF8EFF0E7E0E000E000E086
:101FC00000E000E000E000E0000F19321201F90724
:101FD000C01FEE3FFE7C3E701EF01EE00EE00EE0E5
:101FE0000EE00EE00EE00EF01E701E783E3FFE1F6B
:101FF000EE0FCE000E000E000E000E000E000E00C2
:102000000E0812120B0200E7EFFFFCF0F0E0E0E038
:10201000E0E0E0E0E0E0E0E0E00D12241002000F7C
:10202000803FE07FE070F0E070E00070007E003FF5
:10203000C007F000F00078E038E038F0707FF07F03
:10204000E01F8008161609010038383838FFFFFFF6
:102050003838383838383838383838383C3F1F0E38
:102060001224120200E01CE01CE01CE01CE01CE05A
:102070001CE01CE01CE01CE01CE01CE01CE01CE080
:102080003CF07C7FFC7FDC1F1C0F1224100000E062
:102090000EE00E701C701C701C3838383838381C34
:1020A000701C701C700EE00EE00EE007C007C0034D
:1020B000800380171236170000E0380EE0380E70EB
:1020C0007C1C707C1C706C1C38EE1C38EE3838EEB2
:1020D0003838C63818C6301DC7701DC7701DC77088
:1020E0000D83600F83E00F83E00701C00701C00F7D
:1020F0001224100000F01E781C38383C701C700E42
:10210000E00FE007C0038007C007C00FE01EE01C1F
:102110007038783838701CF01E0E19321001F9E052
:102120001CE01CF0387038703870703870387038B7
:10213000E03CE01CE01DC01DC00FC00F800F8007F9
:1021400000070007000E000E001C007C00780070E5
:10215000000E12241001007FF87FF87FF80078004D
:10216000F000E001C003C0078007000E001C003C27
:102170000078007000FFFCFFFCFFFC0820200B0132
:10218000F90F1F1C18181818181818181838387054
:10219000E0E07038381818181818181818181C1F8C
:1021A0000F021F1F0903F9C0C0C0C0C0C0C0C0C01B
:1021B000C0C0C0C0C0C0C0C0C0C0C0C0C0C0C0C01F
:1021C000C0C0C0C0C0C00820200B01F9F0F838180A
:1021D00018181818181818181C1C0E07070E1C1CA5
:1021E00018181818181818181838F8F00E060C13C4
:1021F000020918007C0C7F0CC7DCC1F800F0FF005E
:10220000002100240027002A002D003000330001A7
:10221000010000040107010A01000020002300263C
:102220000029002C002F00320000010000030106ED
:1022300001090100002200250028002B002E00319A
:1022400000340002010000050108010B010505052D
:1022500005070508080808020202020A0A0808041D
:10226000040404010101010101010103030303034B
:10227000030303040707070C0C0C0C0C0C0C0C02DA
:1022800002020206060606060606060B0B0B0B0BE1
:102290000B0B0B01021020200808102040102040DA
:1022A000800201020108040201010204081020401A
:1022B0008080402010080402018004020180402038
:1022C0001008040201080402010102040810204061
:1022D00080010204081020408000000A0B02090C53
:1022E0000D0E0807030401000000000000000000BC
:1022F00000000000000000000000000000000000DE
:10230000000000000012111000000000000000009A
:1023100000000000000000000000000000000000BD
:10232000A81A11241FBECFEFD1E2DEBFCDBF00E05F
:102330000CBF12E0A0E0B2E0EEE5F6E300E00BBF78
:1023400002C007900D92A433B107D9F723E0A4E3AC
:10235000B2E001C01D92A130B207E1F711E1C1E97D
:10236000D1E100E006C021970109802FFE010E9403
:10237000211BC039D10780E00807A9F7ACD70C941E
:102380002D1B0C94000080E00895CF92DF92EF9215
:10239000FF920F931F93CF93DF936C017A018B0110
:1023A000C0E0D0E0CE15DF0581F0D8016D918D0140
:1023B000D601ED91FC910190F081E02DC6011995B7
:1023C000892B11F02196EECF7E01C701DF91CF91CD
:1023D0001F910F91FF90EF90DF90CF900895089597
:1023E000DC011696ED91FC91179712968C91481B83
:1023F000477081E090E001C0880F4A95EAF7E60F48
:10240000F11D3081222311F0832B02C0809583239C
:1024100080830895FB014181DC0112962C91129773
:10242000421760F013962C911397241738F06081AF
:1024300015962C91621710F42481D2CF0895FC01D7
:1024400030819281930F92832181921760F494815D
:102450009F5F94838381830F821710F08FEF820F29
:10246000838381E0089580E00895FC0112828081D9
:1024700081508383148208950B96FC018491089502
:102480000A96FC0184910895FC0184910895FCDF73
:10249000882321F0823011F083E0089586E00895CA
:1024A000FC01E60FF11D849190E0982F882731966A
:1024B000E4918E0F911D089568E0F2CF66E0F0CFB1
:1024C0002EE93FE0009729F0F9013197F1F70197E4
:1024D000F9CF08951092B80208958093B90210922E
:1024E000B90084FF02C08CE001C088E48093B8008A
:1024F000F1CFDB011496ED91FC91159720E030E0CF
:1025000065E01994CF92DF92EF92FF920F931F93A1
:10251000CF93DF938C017B016A0180E0F601C491C7
:1025200081110AC0CF3F09F454C04C2FB701C80134
:10253000E0DF81114CC052C0CF3F11F44FEFF6CF16
:10254000CE3F09F44DC0C03F08F041C0C03E58F036
:102550004C2F4F70D7011496ED91FC91159720E008
:1025600030E062E00CC0C03D68F04C2F4F70D701E6
:102570001496ED91FC91159720E030E063E0C801DE
:10258000199525C0C03CF0F0D7011496ED91FC914F
:10259000159720E030E040E064E0C8011995C2954D
:1025A000C07FCE5FD0E0CE018BDFD7011496ED91D6
:1025B000FC91159720E030E041E064E0C8011995F6
:1025C000CE0104C0C7FD03C08C2F90E079DF80E00E
:1025D00001C081E0BFEFCB1ADB0AA0CF80E001C0D1
:1025E00081E0DF91CF911F910F91FF90EF90DF90ED
:1025F000CF900895AF92BF92CF92DF92FF920F9348
:102600001F93CF93DF936C018B01F42EE90120E13E
:10261000421709F453C0241798F03AE0431357C007
:10262000DB011496ED91FC91159720E030E042E03B
:1026300061E0199544E251E0B801C60163DF47C08B
:1026400081E1481709F43DC0A5E14A1340C0FB01F0
:10265000A280B3804CE151E0C60154DFD50114964D
:102660004C91406BB801C60144DFD8011496ED913E
:10267000FC91159720E030E041E062E0C601199539
:10268000F50126813781D8011496ED91FC911597BB
:10269000D50115964C9166E0C6011995811102C0CD
:1026A00080E0C2C0D8011496ED91FC91159720E00E
:1026B00030E040E063E0C601199509C043E151E014
:1026C00002C048E051E0B801C6011CDFACC0F8010F
:1026D00002811381F2E3FF1609F46FC0FF15B8F011
:1026E00025E1F21609F474C037E1F31609F485C048
:1026F00084E1F81298C0D8011696ED91FC911797D5
:1027000015968C919F01280F311DC9015AC0A6E46E
:10271000FA1609F481C0B7E4FB1609F480C0EBE3B4
:10272000FE1281C089819B81913029F0933031F470
:10273000482F885004C048E0480F01C0482F51E09E
:10274000D80113962C91281708F450E031E0F801D5
:102750002281421708F430E021E0481708F020E019
:10276000822F852B382319F4252309F45CC0CA80F5
:10277000913061F038F0923061F0933071F4FF24C1
:10278000FA940CC0F12CDD24D39409C0FF24F394F7
:1027900005C0F12CDD24DA9402C0F12CD12CC7FE47
:1027A00003C0BE01C80136DE88818D0D8883898112
:1027B0008F0D8983CC0C99F736C0BE01C8012ADE83
:1027C00032C011928E179F07E1F7C8014EDE2BC071
:1027D000C80135DE882309F463CFD8011696ED9140
:1027E000FC91179715968C919F01280F311DC901F7
:1027F00011928E179F07E1F716C01882D801129622
:102800008C911297898315968C91159781508A83A4
:1028100013968C918B8307C0F801858103C0D80182
:1028200011968C91888381E0DF91CF911F910F9158
:10283000FF90DF90CF90BF90AF900895089580E013
:1028400090E0089506D7DB01ED91FC9119945F9219
:102850006F927F928F929F92AF92BF92CF92DF92B0
:10286000EF92FF920F931F93CF93DF93EC01E62E2D
:10287000F42EC22E0C811D81C80106DED82E8C815B
:102880009D8105DE982E21E0D21203C02FE0A22EFA
:1028900002C0AA24AA948C819D81F2DDD82E8C815D
:1028A0009D81EADDB82E8C819D8106DEE0E6EC1587
:1028B00038F4009729F0080F191F91E6D92E0FC0A0
:1028C0008C819D81FBDDF0E4FC1538F4009729F044
:1028D000080F191F81E4D82E02C00F5E1F4FBC14D1
:1028E00030F4188A1B8A1C8A198A1A8A75C0BD148A
:1028F000C0F3892D90E0F80124912F3F19F40F5F68
:102900001F4F3FC0CD1034C08C819D81BDDD98012B
:102910002F5F3F4FF801882311F0823091F48491AA
:102920008B8BF90124912C8BF8013396E491E88B81
:10293000F8013496E491E98BF8013596E491EA8B3D
:1029400025C08491982F9F7092509A8B82958F709A
:10295000898BF9012491822F8F708C8B22952F7097
:102960002B8BF8013296E491E295EF70E88B0EC064
:10297000F8013296E491EA219C012E0F311D020FDD
:10298000131FBD1409F4ADCFD394B5CF01151105B4
:1029900019F18C819D817BDD2C899A89920FF91A1E
:1029A0009FEF920F9F0D3CA94EA94F1518F093175A
:1029B00028F402C0931770F09F1560F43B89998941
:1029C000E90E9FEF930F9E0D4BA95DA95E1530F4A4
:1029D000941730F4888933C080E031C0941710F424
:1029E0009E15C0F7080F111D395F732E76947694EB
:1029F0007694622E6F0C5E01FCE1AF0EB11C872C49
:102A0000912C6F1439F35E2C68018C2D801B871577
:102A100090F4F60184916A817B815C8EFD8E1F8E1D
:102A20008E8F95014BE3CE010EDFFFEFCF1ADF0A49
:102A300028E0520EEACF080D191DF394E2CFDF9182
:102A4000CF911F910F91FF90EF90DF90CF90BF90AB
:102A5000AF909F908F907F906F905F900895DF92DE
:102A6000EF92FF920F931F93CF93DF93EC01D62E3B
:102A70001CAD0BAD7C0184E0E80EF11CE98DFA8DF4
:102A8000C7011995412F480F2D2D602FC701DFDE9B
:102A90009BAD890F8BAF81E090E0DF91CF911F91CB
:102AA0000F91FF90EF90DF9008959091B8029111EF
:102AB00002C08093B80208951F93CF93DF931F92B3
:102AC0001F92CDB7DEB720ED37E03A83298390918E
:102AD000BC00982391F429813A81232B49F48091F9
:102AE000B902182F127081FD08C081E0DEDF06C038
:102AF00029813A8121503109E8CF11E0812F0F90CF
:102B00000F90DF91CF911F91089584E98093BC00CD
:102B100064E080E1D1CFCF938093BB0084E88093C1
:102B2000BC0063E080E8C8DFC82F882381F0809173
:102B3000B902C82FC27081FD09C08091B900887F99
:102B4000883221F063E082E0B0DF01C0C1E08C2F69
:102B5000CF910895CF93DF93FC0123A5222369F041
:102B6000EC01D8D2811102C080E008C08EA1811191
:102B700080E4D1DF8823C1F31BA681E0DF91CF91F0
:102B800008950F931F93CF93C42F89016330B9F039
:102B900050F4613081F0623009F03FC0FC0146A37F
:102BA00021E023A73AC06630E9F0673041F1653093
:102BB00009F033C00CC0FC0186A58FDC2EC0FC01DF
:102BC00016A221E023A7411128C09FDF26C0C2DF43
:102BD000811103C09ADF80E021C08C2F9CDF81111E
:102BE0001CC0F8CFB7DF8823A9F3CC23B1F0F801DC
:102BF00081918F0190DF882369F3C150F6CFAADF5E
:102C0000882341F3CC2349F0F801849184DF8823A1
:102C100029F00F5F1F4FC150F5CF81E0CF911F9179
:102C20000F9108951F920F920FB60F9211240BB6B9
:102C30000F922F933F934F935F936F937F938F9355
:102C40009F93AF93BF93CF93DF93EF93FF93C09185
:102C5000780080917900D0E0D82BD058D093B7027B
:102C6000C093B6028091B4029091B5020196909300
:102C7000B5028093B402883E934029F51092B502C4
:102C80001092B4028AE379D2892B59F480910E0212
:102C900090910F02499690930F0280930E0280E06C
:102CA00048D18BE36AD2892B71F480910E02909106
:102CB0000F02181619062CF4499790930F0280936F
:102CC0000E0280E036D180910E0290910F028C1797
:102CD0009D073CF480E090E89093B7028093B602A1
:102CE00006C0919581959109C817D9079CF38091E9
:102CF000B6029091B70290589093A8008091B602C6
:102D00008093AA00FF91EF91DF91CF91BF91AF9196
:102D10009F918F917F916F915F914F913F912F91F3
:102D20000F900BBE0F900FBE0F901F90189590E064
:102D3000FC013197E231F10508F04DC08827EE58CB
:102D4000FF4F8F4F7EC4809180008F7703C08091AA
:102D500080008F7D80938000089580918000877F20
:102D6000F9CF84B58F7702C084B58F7D84BD089577
:102D70008091B0008F7703C08091B0008F7D8093E9
:102D8000B0000895809190008F7707C080919000E7
:102D90008F7D03C080919000877F8093900008957D
:102DA0008091A0008F7707C08091A0008F7D03C025
:102DB0008091A000877F8093A000089580912001DA
:102DC0008F7707C0809120018F7D03C08091200103
:102DD000877F8093200108950F931F93CF93DF93F4
:102DE0001F92CDB7DEB70091C0021091C102E091F1
:102DF000EF02F091F00282E0199520E030E04AE025
:102E0000B8018EEB92E01FDD182FE091EF02F091F8
:102E1000F00283E01995E091EF02F091F00280E07A
:102E200019951123A1F16091C0027091C1029E0118
:102E30002F5F3F4F46E48EEB92E005DD8981809362
:102E4000BE026091C0027091C1029E012F5F3F4F90
:102E500047E48EEB92E0F7DC89818093BF026091BA
:102E6000C0027091C10220E030E048E48EEB92E0B5
:102E7000EADC8093C9026091C0027091C10221EF27
:102E800032E047E18EEB92E0DEDC81E001C080E0E1
:102E90000F90DF91CF911F910F9108950F931F9382
:102EA000CF93DF938C01CAEBD2E0EDA9FEA982E0BB
:102EB0001995EDA9FEA981E0199520E030E044E1E3
:102EC000B8018EEB92E0BFDC21EF32E047E1B801C0
:102ED0008EEB92E0B8DCEDA9FEA980E0DF91CF9106
:102EE0001F910F911994FF920F931F93CF93DF932C
:102EF000082FF62E172FE091D302F091D4028EEB1B
:102F000092E01995080FCF2DD12F10E0F12C2991C7
:102F1000222341F0402F6F2D8EEB92E098DCF80ECB
:102F2000180FF5CF812FDF91CF911F910F91FF9057
:102F300008951F93CF93DF93E6EEF2E29491E0EAD7
:102F4000F2E2D491EAE5F2E2C491CC23C9F0182F61
:102F5000992311F0892FEBDEEC2FF0E0EE0FFF1F2D
:102F6000ED5CFD4DA591B4919FB7F894111104C08B
:102F70008C91D095D82302C0EC91DE2BDC939FBFBF
:102F8000DF91CF911F9108958091C2029091C30269
:102F9000009709F437C02091D502FC01211107C028
:102FA0003596E491E093D602FC013C960FC02130A7
:102FB00039F43F96E491E093D602FC01709606C086
:102FC0003D96E491E093D602FC013E96E491E093B5
:102FD000D7028091D602082E000C990B2091D702BF
:102FE000821B910927FD93952091D802203441F04E
:102FF000829FC001112426E0969587952A95E1F7D6
:103000008093D90208958F929F92AF92BF920F93AF
:103010001F93CF93DF93CDB7DEB7A1970FB6F89488
:10302000DEBF0FBECDBF19A2423008F44AE08E01C8
:103030000F5D1F4F842E912CA12CB12CA501940162
:10304000DED2E62FB901CA0101501109EA3014F4A9
:10305000E05D01C0E95CD801EC93232B242B252BE8
:1030600069F70115110569F0F80101900020E9F7F1
:103070003197AF01401B510BB8018AEB92E085D923
:1030800002C080E090E0A1960FB6F894DEBF0FBEBC
:10309000CDBFDF91CF911F910F91BF90AF909F90C7
:1030A0008F9008950F931F93CF93E091CC02F091EE
:1030B000CD02309719F08EEB92E019950091C00285
:1030C0001091C102E091EF02F091F00282E01995B7
:1030D000E091EF02F091F00281E0199520E030E0FC
:1030E00045E1B8018EEB92E0AEDBC82F882339F0C2
:1030F00021EF32E047E1B8018EEB92E0A4DBE091F2
:10310000EF02F091F00280E019958C2FCF911F9182
:103110000F910895CF9384EA8093BC0061E080E82A
:10312000CBDC882351F08091B900887F883039F05A
:10313000803129F061E082E0B8DCC0E01BC088E7A4
:103140008093BB0084E88093BC0062E080E8B4DC3C
:10315000882399F38091B902C82FC27081FD09C0FC
:103160008091B900887F883121F062E082E09DDCA7
:1031700001C0C1E08C2FCF910895CF93DF93282F0A
:1031800030E0F901E752FD4D8491F901ED56FD4D16
:10319000D491F901E35BFD4DC491CC2389F08111F9
:1031A000C6DDEC2FF0E0EE0FFF1FE75EFD4DA591B1
:1031B000B491EC91ED2381E090E021F480E002C035
:1031C00080E090E0DF91CF910895CF93DF9390E07E
:1031D000FC01ED56FD4D2491FC01E35BFD4D849116
:1031E000882361F190E0880F991FFC01E150FE4DAA
:1031F000C591D491FC01ED5CFD4DA591B491611197
:1032000009C09FB7F8948881209582238883EC9128
:103210002E230BC0623061F49FB7F8948881322F5F
:10322000309583238883EC912E2B2C939FBF06C06F
:103230008FB7F894E8812E2B28838FBFDF91CF9131
:1032400008951F920F920FB60F9211242F933F9360
:103250008F939F93AF93BF938091FD029091FE0255
:10326000A091FF02B09100033091FC0223E0230FF4
:103270002D3720F40196A11DB11D05C026E8230FAE
:103280000296A11DB11D2093FC028093FD02909334
:10329000FE02A093FF02B09300038091F802909188
:1032A000F902A091FA02B091FB020196A11DB11D95
:1032B0008093F8029093F902A093FA02B093FB0274
:1032C000BF91AF919F918F913F912F910F900FBE22
:1032D0000F901F901895789484B5826084BD84B552
:1032E000816084BD85B5826085BD85B5816085BD01
:1032F00080916E00816080936E00109281008091B9
:103300008100826080938100809181008160809340
:103310008100809180008160809380008091B10065
:1033200084608093B1008091B00081608093B00090
:1033300080919100826080939100809191008160E2
:1033400080939100809190008160809390008091A3
:10335000A10082608093A1008091A1008160809390
:10336000A1008091A00081608093A0008091210144
:1033700082608093210180912101816080932101ED
:103380008091200181608093200180917A00846087
:1033900080937A0080917A00826080937A00809195
:1033A0007A00816080937A0080917A0080688093AF
:1033B0007A001092C10062E08CE007DF62E082E0F8
:1033C00004DF62E08BE301DF62E08AE3FEDE61E0BE
:1033D0008DE0FBDE61E086E0F8DE61E087E0F5DEAF
:1033E00080E680937C0085EE80937A0010927B00CB
:1033F00081E080937E0080EA8093A00081E1809349
:10340000A10080E2809372001092A7008FEF80935A
:10341000A60084B1866084B9789480E4682E90E038
:10342000E92E90E0F92E2FE7C22E2EE0D22EC3EC2B
:10343000D1E10AE411E0772473948CE09EDE892BBD
:1034400009F45CC081E075DD8091F702811103C051
:103450007092F702C1DC8091C0029091C1021EDD22
:103460008091C2029091C3028A54914049F0109316
:10347000C3020093C20288DDD093D402C093D3026A
:103480006CE172E08EE12FDD8EE18093F5026092B7
:10349000F6028091C2029091C3028A54914049F091
:1034A0001093C3020093C2026FDDD093D402C09385
:1034B000D30280900E0290900F02092C000CAA08F3
:1034C000BB08B7FE0DC06DE28AEB92E0C8DA662752
:1034D0007727CB01681979098A099B094AE003C05B
:1034E0004AE0C501B4018FDDDDDD8111B9CFE11402
:1034F000F10409F4A2CF0E9400009DCF80E019DD05
:103500008091F702811103C07092F70265DC80910F
:10351000C0029091C102C2DC8091C2029091C302AC
:103520008F579E4049F0D092C302C092C2022CDD58
:10353000D093D402C093D30265E272E08EE1D3DC73
:103540006CE272E08CE3CFDCADDD8111E5CFCFCF53
:103550001092BD021092BC0284E192E09093BB02F3
:103560008093BA021092F5021092F6021092F702BE
:103570001092C3021092C2021092C5021092C402AD
:103580001092C70281E08093C60282E28093C80253
:103590001092CD021092CC02E1EEF2E08FEF819317
:1035A00092E0EF3EF907D9F781E08093DE0223EC49
:1035B00031E13093D4022093D3028093D50210924C
:1035C000D6021092D70280E48093D8021092D902DA
:1035D0008FEE91E19093F0028093EF0288E092E009
:1035E0009093C1028093C00282E08093EC02F4DBEE
:1035F00084E192E09093BB028093BA020895A1E225
:103600001A2EAA1BBB1BFD010DC0AA1FBB1FEE1F5C
:10361000FF1FA217B307E407F50720F0A21BB30BA7
:10362000E40BF50B661F771F881F991F1A9469F723
:1036300060957095809590959B01AC01BD01CF017F
:103640000895EE0FFF1F881F8BBF0790F691E02DA6
:0E365000199481E090E0F89400C0F894FFCF48
:10365E000840000000803402FA120002C1157017F3
:10366E00000000002F15C5111F141E14202020204D
:10367E0046555A5A00454646454354002020204F91
:04368E00464620008C
:00000001FF
