:100000000C94B00E0C94E00E0C94E00E0C94E00EE8
:100010000C94E00E0C94E00E0C94E00E0C94E00EA8
:100020000C94E00E0C94E00E0C94E00E0C94E00E98
:100030000C94E00E0C94E00E0C94E00E0C94E00E88
:100040000C94E00E0C94E00E0C94E00E0C94E00E78
:100050000C94E00E0C94E00E0C94E00E0C944616FA
:100060000C94E00E0C94E00E0C94E00E0C94E00E58
:100070000C94E00E0C94E00E0C94E00E0C94E00E48
:100080000C94E00E0C94E00E0C94E00E0C94E00E38
:100090000C94E00E0C94E00E0C94E00E0C94E00E28
:1000A0000C94E00E0C9431130C94E00E0C94E00EC2
:1000B0000C94E00E0C94E00E0C94E00E0C94E00E08
:1000C0000C94E00E0C94E00E0C94E00E0C94E00EF8
:1000D0000C94E00E0C94E00E0C94E00E0C94E00EE8
:1000E0000C94E00EC813CB13BA13BE13C41302143E
:1000F000CF13D313D913DD13E113E713EB13EF136E
:100100000214F513F913FD13FFE0FFD1AFFF32FF27
:10011000D0FFFEFFE0FFD1AEFFD0FFFEFFE0FFD13A
:100120001002FFFEFFD0FFE0FFC1FFD1AED580A8D7
:100130003FD300408D142002A1C8DA1281CFD9F13B
:10014000DB402EA4A6AFFFD0FFFE00141AFEFA0C6F
:10015000025B0563207FFC0DFC0CFC000000050029
:1001600001010C0C050200808080808080808080EE
:1001700000808004040406010890909090080B0B06
:100180000900001212127F242424FE484848070F59
:100190000F0901FE107C9292905030181412929226
:1001A0007C10100C0C180E0000704088808880892C
:1001B0000072000200040004E00910111011102068
:1001C000E00A0C180B000018002400420042002432
:1001D0000018002900450082008300448038400256
:1001E0000404030008C0C040400310100601FC20B6
:1001F000404040808080808080808040404020035C
:1002000010100601FC8040404020202020202020AB
:10021000204040408005050506000720A870508852
:100220000909120A00000800080008000800FF8001
:1002300008000800080008000204040401FE404011
:100240004080040101050004F00102020402008064
:1002500080040C0C0500001010202020204040409D
:10026000808080070C0C090100384444828282821D
:100270008282444438030C0C090300202060A02033
:1002800020202020202020070C0C09010038448267
:100290008202040830408080FE070C0C09010038FF
:1002A0004482820438040282824438080C0C09001B
:1002B000000C14142424444484FF040404070C0C8C
:1002C0000901003E2020407844020202824438079F
:1002D0000C0C0901003C428280B8C48282828244B4
:1002E00038080C0C090000FF010204040808101073
:1002F000102020070C0C0901003844828244384445
:100300008282824438070C0C0901003844828282C0
:1003100082463A0282847801090904020080800042
:10032000000000008080020B0B0401FE4040000032
:10033000000000404040800909120A0000018006C8
:1003400000180060008000600018000600018008AE
:1003500004040A0002FF0000FF0909120A0100C09C
:100360000030000C000300008003000C003000C0CF
:1003700000070C0C090100384482820204081010A6
:100380000010100D0E1C1101FE0780186020104394
:10039000D04C48884890889088909099904E6040C2
:1003A0000030600F800A0C180B00000C000C0012CB
:1003B0000012001200210021007F804080408080D8
:1003C000408040090C180B0100FC00820081008174
:1003D000008200FE0081008080808080808100FE9D
:1003E000000A0C180C01000F0030804040400080D3
:1003F000008000800080004000404030800F000AF4
:100400000C180C0100FC00830080808080804080FC
:100410004080408040808080808300FC00080C0C7D
:100420000B0100FF80808080FF8080808080FF073C
:100430000C0C0A0100FE80808080FE80808080801D
:10044000800A0C180D01000E0031804040400080F1
:1004500000800087C08040404040C031400E4009CD
:100460000C180C010080808080808080808080FF5C
:1004700080808080808080808080808080010C0CE3
:100480000401008080808080808080808080800661
:100490000C0C080000040404040404040484848490
:1004A00078080C0C0B01008182848890B0C8888485
:1004B000828281070C0C090100808080808080800E
:1004C00080808080FE0B0C180D01008020C060C071
:1004D00060A0A0A0A0A0A09120912091208A208AB5
:1004E000208420090C180C01008080C080A080A00E
:1004F00080908088808880848082808280818080D3
:10050000800B0C180D01000E0031804040404080EF
:10051000208020802080204040404031800E000814
:100520000C0C0B0200FC82818182FC808080808028
:10053000800B0D1A0D01FF0E0031804040404080BD
:10054000208020802080204040424031800E80006A
:1005500040090C180C0200FC00820081008100821E
:1005600000FC008200810081008100810080800900
:100570000C180B01003E004100808080804000305C
:10058000000E0001008080808041003E00090C18B0
:100590000A0000FF800800080008000800080008A2
:1005A0000008000800080008000800090C180C01E9
:1005B00000808080808080808080808080808080BB
:1005C000808080808041003E000A0C180B00008073
:1005D0004080404080408040802100210012001275
:1005E0000012000C000C000D0C180F010082088294
:1005F00008820845104510451028A028A028A01002
:100600004010401040080C0C0B0100814242242491
:1006100018182424424281090C180B0100808041E3
:100620000041002200220014001C000800080008FD
:100630000008000800090C180A00007F8001000370
:1006400000020004000C00080010003000200040F0
:1006500000FF80030F0F0501FDE080808080808017
:1006600080808080808080E0040C0C050000808009
:1006700040404040202020101010030F0F0500FDC7
:10068000E020202020202020202020202020E00703
:10069000070708000510282844448282090102093E
:1006A00000FDFF8003030306000A80C0200809093B
:1006B0000901007C8202067A8282867B070C0C0983
:1006C0000100808080B8C48282828282C4B8070917
:1006D00009080100384482808080824438070C0C6D
:1006E0000901000202023A468282828282463A0769
:1006F000090909010038448282FE80824438040CD2
:100700000C050100304040F0404040404040404037
:10071000070D0D0901FC3A468282828282463A0226
:10072000828478070C0C090100808080BCC2828220
:100730008282828282010C0C030100808000808012
:100740008080808080808003101004FFFC202000C7
:10075000202020202020202020202020C0070C0C3A
:10076000080000808080848890A0E09088848201C6
:100770000C0C0301008080808080808080808080DD
:10078000800B09120E0200B9C0C620842084208488
:10079000208420842084208420070909090100BCCA
:1007A000C28282828282828207090909010038445A
:1007B00082828282824438070D0D0901FCB8C4820E
:1007C00082828282C4B880808080070D0D0901FC7E
:1007D0003A468282828282463A0202020204090971
:1007E000050100B0C08080808080808006090908F3
:1007F0000100788484C0300C848478040B0B0501DC
:10080000004040F040404040404040300709090966
:10081000010082828282828282867A070909080028
:10082000008282444444282838100B09120C00002E
:100830008420842044404E404A402A802A8011006F
:100840001100070909080000824444281028444484
:1008500082070C0C0800FD828244442828381010BE
:100860002020C0060909080100FC040810202040CF
:1008700080FC0310100601FC2040404040404080B6
:1008800040404040404040200110100401FC808066
:100890008080808080808080808080808080031045
:1008A000100601FC80404040404040204040404015
:1008B000404040800802020A0104718EFF00273088
:1008C000FBF51905D70E69207FF91BF919F900000E
:1008D00000090001031919090400E0E0E0E0E0E08C
:1008E000E0E0E0E0E0E0E0E0E0E0E040400000E008
:1008F000E0E0E00808080C020FE7E7E7E7E7E74277
:100900004211174513010003870003870003060007
:10091000030600070E00070E007FFF807FFF807F29
:10092000FF800E1C000E1C000C18001C38001C3828
:1009300000FFFF00FFFF00FFFF003870003870006D
:1009400030600030600070E00070E000101F3E1268
:1009500001FC0180018001800FF01FF83DBC718E09
:10096000718EE18EE180E18071807D803FC01FF05B
:1009700007FC01FE019E018F0187E187E187718EEF
:10098000718E3DBC3FF80FF0018001800180018035
:100990001A18601D0100000030001F0070007F80E9
:1009A000600073C0E000E0C0C000C0E1C000C0E172
:1009B0008000C0E38000E0C3000073C700007F86B2
:1009C00000001F0E0000000C0000001C3E0000187C
:1009D0007F800038F3800030C1C00071C0C000616A
:1009E000C0C000E1C0C000C0C1C001C0E380018040
:1009F0007F8003803E0012174516020007C0000FDB
:100A0000E0001E70003C38003838003838003C7078
:100A1000001EF0000FE00007C0000F80003FC00084
:100A200079C70070E700E0F600E07E00E03C00E0FF
:100A30001C00F03E00787F007FF7803FE3C00F008E
:100A40000003080806020FE0E0E0E0E0E0E0400715
:100A50001F1F0B02F9060C0C1818383070707060EC
:100A6000E0E0E0E0E0E0E0E0E06070707030381876
:100A7000180C0C06071F1F0B01F9C06060303038DE
:100A8000181C1C1C0C0E0E0E0E0E0E0E0E0C0C1C4A
:100A90001C18183830706060C00A0B160D010F0C5E
:100AA000000C004C80EDC07F803F001E003F0073B3
:100AB00080E1C0408011103013010101C00001C06D
:100AC0000001C00001C00001C00001C00001C00061
:100AD000FFFF80FFFF80FFFF8001C00001C0000119
:100AE000C00001C00001C00001C0000309090903E2
:100AF000FBE0E0E0E0206060C0800802020B01083B
:100B0000FFFF030404090300E0E0E0E009183009F6
:100B10000000018001800180030003000300060043
:100B2000060006000C000C000C000800180018005D
:100B30001800300030003000600060006000C0002D
:100B4000C0000F183012010007C01FF03FF83C78BA
:100B5000783C701C701CE00EE00EE00EE00EE00E23
:100B6000E00EE00EE00EE00EE00E701C701C703C1B
:100B70003C783FF81FF007C008181812030003075D
:100B8000070F3FFFFF0707070707070707070707C5
:100B90000707070707070F183012010007C01FF0EB
:100BA0003FF8783C701CF00EE00EE00E000E001CCA
:100BB000003C007800F003E007C01F003C00780014
:100BC0007000E000E000FFFEFFFEFFFE0F18301295
:100BD000010007C01FF03FF83838701C701C701CF3
:100BE000701C001C003803F803F003F8003C001EE2
:100BF000000EE00EE00EE00E701C783C3FF81FF097
:100C000007C0101830120000001800380078007873
:100C100000F801F803B803B807380E380E381C384E
:100C2000383838387038E038FFFFFFFFFFFF0038F2
:100C300000380038003800380F18301201003FFC2F
:100C40003FFC3FFC3800380038007000700077C06F
:100C50007FF07FF8787C701C001E000E000E000EE6
:100C6000E00EE01EF01C787C7FF83FF00F800F183C
:100C70003012010003C00FF01FF83C38381C701C04
:100C8000700070006000E3C0EFF0FFF8F83CF01C6B
:100C9000F00EE00EE00E600E700E701C383C3FF857
:100CA0001FF007C00F1830120100FFFEFFFEFFFE0D
:100CB000000E001C001800380070007000E000E01A
:100CC00001C001C0038003800700070007000E0079
:100CD0000E000E001C001C001C000F18301201003A
:100CE00007C01FF03FF8383C701C701C701C701C53
:100CF000783C3C781FF00FE03FF8783C701CE00E29
:100D0000E00EE00EE00EF01C783C3FF81FF007C04C
:100D10000F183012010007C01FF03FF8787C703CBC
:100D2000F01CE01EE00EE00EE00EE01EE01E703E45
:100D30007FFE3FEE0FCE000E001CE01CF03C7878EA
:100D40003FF03FE00F80031212090400E0E0E0E012
:100D500000000000000000000000E0E0E0E00316FA
:100D6000160904FBE0E0E0E00000000000000000E5
:100D700000E0E0E0E0206060C0801010201302007E
:100D80000003000F003F01FC07E01F80FE00F000A1
:100D9000F000FE001F8007E001FC007F000F000351
:100DA0000F0912130204FFFEFFFEFFFE0000000009
:100DB0000000FFFEFFFEFFFE101020130100C00028
:100DC000F000FE003F8007E001F8007F000F000FF9
:100DD000007F01F807E03F80FE00F000C0000E1920
:100DE0003212020007C01FF03FF87838701CF01C68
:100DF000E01CE01C001C00380038007000E001E03E
:100E000001C0038003800380038000000000038092
:100E10000380038003801D1E782201FB0007C000B1
:100E2000003FF80000FFFE0003F03F8007C007C04E
:100E30000F0003E01E0001E01C0000F0380F8C7072
:100E4000381FDC38703CFC3870707C3860E0381833
:100E5000E0E03818E1E03818E1C07038E1C07038DF
:100E6000E1C07070E1C0E070E1E0E0E070F3F3C079
:100E700070FF7F80783E7F003C0000001E00000075
:100E80001F0000000F80000003E0780001FFF80061
:100E9000007FE00014194B16010000F00000F00084
:100EA00000F80001F80001F800039C00039C000317
:100EB0009C00079E00070E00070E000F0F000F0F8B
:100EC000000E07001E07801FFF801FFF803FFFC02E
:100ED0003C03C03801C07801E07801E07000E0F028
:100EE00000F0F000F011194B160300FFF000FFFCBA
:100EF00000FFFE00E03E00E00F00E00F00E0070012
:100F0000E00700E00F00E00E00E03E00FFFC00FF05
:100F1000FC00FFFE00E01F00E00780E00380E0032C
:100F200080E00380E00380E00780E00F00FFFE0028
:100F3000FFFE00FFF80014194B18020001FC000727
:100F4000FF000FFF801F07C03C01E03800E0700089
:100F5000F0700070E00000E00000E00000E0000041
:100F6000E00000E00000E00000E00000E00070F0C1
:100F700000707000F07800E03C01E03F07C01FFF08
:100F80008007FE0001F80012194B180300FFF00063
:100F9000FFFC00FFFE00E01F00E00F00E00780E024
:100FA0000380E00380E001C0E001C0E001C0E00197
:100FB000C0E001C0E001C0E001C0E001C0E003C04A
:100FC000E00380E00380E00780E00F00E01E00FF08
:100FD000FE00FFFC00FFF00011194B160300FFFF9D
:100FE00000FFFF00FFFF00E00000E00000E0000065
:100FF000E00000E00000E00000E00000E00000FF92
:10100000FF00FFFF00FFFF00E00000E00000E00045
:1010100000E00000E00000E00000E00000E0000070
:10102000FFFF80FFFF80FFFF80101932140300FFD5
:10103000FFFFFFFFFFE000E000E000E000E000E075
:1010400000E000E000FFFCFFFCFFFCE000E000E04F
:1010500000E000E000E000E000E000E000E000E090
:101060000016194B19010000FE0003FF800FFFC09E
:101070001F83F03E00F03C0078780038700038F0B4
:101080000000E00000E00000E00000E00FFCE00FE6
:10109000FCE00FFCE0001CF0001C70001C78003C21
:1010A00038003C3C00FC1F01FC0FFFDC07FF1C016B
:1010B000FC1C12194B180300E001C0E001C0E00164
:1010C000C0E001C0E001C0E001C0E001C0E001C03B
:1010D000E001C0E001C0E001C0FFFFC0FFFFC0FFB2
:1010E000FFC0E001C0E001C0E001C0E001C0E001DC
:1010F000C0E001C0E001C0E001C0E001C0E001C00B
:10110000E001C0031919090300E0E0E0E0E0E0E0DD
:10111000E0E0E0E0E0E0E0E0E0E0E0E0E0E0E0E0CF
:10112000E0E00D19321001000038003800380038B6
:1011300000380038003800380038003800380038EF
:101140000038003800380038E038E038E038E0385F
:10115000F07878F07FF03FE01F8014194B16030001
:10116000E003C0E00780E00F00E01E00E03C00E08C
:101170007800E0F000E1E000E3C000E7C000EF80AD
:1011800000FFC000FFC000F9E000F0F000E07000D8
:10119000E07800E03C00E01C00E01E00E00F00E012
:1011A0000780E003C0E003E0E001F00E1932120313
:1011B00000E000E000E000E000E000E000E000E02F
:1011C00000E000E000E000E000E000E000E000E01F
:1011D00000E000E000E000E000E000E000FFFCFFD5
:1011E000FCFFFC15194B1B0300F00078F00078F8A9
:1011F00000F8F800F8FC01F8FC01F8FC01F8EC013B
:10120000B8EE03B8EE03B8E60338E70738E7073867
:10121000E30638E38E38E38E38E38E38E18C38E12C
:10122000DC38E1DC38E0D838E0F838E0F838E07055
:1012300038E0703813194B180200F000E0F000E0BD
:10124000F800E0FC00E0FC00E0FE00E0EF00E0E77A
:1012500000E0E780E0E3C0E0E3C0E0E1E0E0E0E000
:10126000E0E0F0E0E078E0E038E0E03CE0E01CE0E6
:10127000E01EE0E00FE0E007E0E007E0E003E0E090
:1012800001E0E001E017194B19010000FE0003FF27
:10129000800FEFE01F01F03E00F83C007878003C42
:1012A00070001CF0001EE0000EE0000EE0000EE0FA
:1012B000000EE0000EE0000EE0000EF0001EF00058
:1012C0001E78003C3C00783E00F81F01F00FEFE074
:1012D00003FF8000FE0011194B160300FFF800FF0A
:1012E000FE00FFFF00E00F00E00780E00380E00366
:1012F00080E00380E00380E00380E00780E00F00EF
:10130000FFFF00FFFE00FFF800E00000E00000E04B
:101310000000E00000E00000E00000E00000E0006D
:1013200000E00000E00000171A4E1A01FF00FE0066
:1013300003FF800FEFE01F01F03E00F83C007878DB
:10134000003C70001CF0001EE0000EE0000EE0000B
:101350000EE0000EE0000EE0000EE0000EF0001EB9
:10136000F0021E78073C3C07B83E03F81F01F00F5F
:10137000EFF803FFBC00FE1E00000C13194B18030E
:1013800000FFFC00FFFF00FFFF80E00780E003C0DC
:10139000E001C0E001C0E001C0E001C0E003C0E046
:1013A0000380E00F80FFFF00FFFE00FFFF00E00F63
:1013B00080E00780E00380E003C0E003C0E003C0FA
:1013C000E001C0E001C0E001C0E001E013194B16EC
:1013D000010003F8000FFE001FFF003C0F803803E0
:1013E000C07001C07001C07000007800007C000077
:1013F0003FC0001FF80007FF00007F80000FC00003
:1014000001E00000E0E000E0F000E07001E07801C1
:10141000C03E07C03FFF800FFE0003F80013194BCA
:10142000140000FFFFE0FFFFE0FFFFE000E000002E
:10143000E00000E00000E00000E00000E00000E06C
:101440000000E00000E00000E00000E00000E0003C
:1014500000E00000E00000E00000E00000E000002C
:10146000E00000E00000E00000E00000E0001219F1
:101470004B180300E001C0E001C0E001C0E001C082
:10148000E001C0E001C0E001C0E001C0E001C0E057
:1014900001C0E001C0E001C0E001C0E001C0E00126
:1014A000C0E001C0E001C0E001C0E001C0F003C045
:1014B0007807807C0F803FFF001FFE0003F00013C1
:1014C000194B160100F001E0F001E0F001E07001BD
:1014D000C07803C07803C03803803803803C07809D
:1014E0001C07001C07001E0F000E0E000E0E000F42
:1014F0000E00071C00071C00079C0003B80003B87F
:101500000003B80001F00001F00000E00000E0007E
:101510001D19641F0100F0070078F0070078F00F34
:101520008078700F8070700F8070781DC0F0781D0B
:10153000C0F0381DC0E0381DC0E03838E0E03C386D
:10154000E1E01C38E1C01C30E1C01C7071C01C70AF
:1015500071C00E7073800EE03B800EE03B800EE0A9
:101560003B8007E03F8007C01F0007C01F0007C087
:101570001F0003800E0003800E0014194B1601009B
:10158000F800F07801E03C03C01C03C01E07800F88
:1015900007000F0F00079E00039C0003FC0001F8EA
:1015A0000000F00000F00001F80001F800039C00CA
:1015B000079E00070E000F0F001E07801E07803CCD
:1015C00003C07801E07801E0F000F015194B160037
:1015D00000F000787800F07800E03C01E01C01C0E9
:1015E0001E03C00E07800F0780078F00038E0003C5
:1015F000DE0001DC0001FC0000F80000F8000070D3
:1016000000007000007000007000007000007000AA
:1016100000700000700000700000700012194B1480
:1016200001007FFFC07FFFC07FFFC0000780000F69
:1016300080000F00001E00003C00003C000078000D
:1016400000F00001E00001E00003C0000780000797
:1016500080000F00001E00003C00003C00007800ED
:1016600000F00000FFFFC0FFFFC0FFFFC00620200A
:101670000902F9FCFCE0E0E0E0E0E0E0E0E0E0E0CE
:10168000E0E0E0E0E0E0E0E0E0E0E0E0E0E0E0E05A
:10169000E0FCFC091830090000C000C000600060D8
:1016A00000600030003000300010001800180018F2
:1016B000000C000C000C00060006000600020003EF
:1016C0000003000300018001800620200901F9FCCD
:1016D000FC1C1C1C1C1C1C1C1C1C1C1C1C1C1C1C6A
:1016E0001C1C1C1C1C1C1C1C1C1C1C1C1CFCFC0C8A
:1016F0000D1A10010B06000F000F001F8019801932
:101700008039C030C070E060606060E070C030124E
:1017100002061200FAFFFFC0FFFFC00605050B011D
:1017200014E0F070381C1012241201000FE03FF892
:101730003C78703C701C001C003C01FC1FFC7E1CB3
:10174000781CF01CE01CE03CE07C79FE7FDF3F8FE2
:101750000F1932120200E000E000E000E000E000BB
:10176000E000E000E3E0EFF0FFF8F83CF01CF01ED2
:10177000E00EE00EE00EE00EE00EE00EF01EF01CBB
:10178000FC3CFFF8EFF0E7E00E122410010007C068
:101790001FF03FF8383C701C701CE000E000E000D7
:1017A000E000E000E01CE01C701C78383FF81FF0FF
:1017B00007C00F1932120100000E000E000E000EBD
:1017C000000E000E000E07CE1FEE3FFE7C3E701E88
:1017D000F01EE00EE00EE00EE00EE00EE00EF01E59
:1017E000F01E783E7FFE3FEE0FCE0F122412020055
:1017F00007C01FF03FF8783C701CF00EE00EE00EC2
:10180000FFFEFFFEE000E000F00E701E783C3FF8A7
:101810001FF007C00819190901000F1F3C3838389C
:1018200038FFFFFF383838383838383838383838E3
:101830003838380F19321201F907CE1FEE3FFE7CFF
:101840003E701EF01EE00EE00EE00EE00EE00EE038
:101850000EF01E703E783E3FFE1FEE078E000EE03B
:101860000EE01CF01C7C783FF81FE00E19321202CB
:1018700000E000E000E000E000E000E000E000E365
:10188000E0EFF0FFF8F83CF01CE01CE01CE01CE08E
:101890001CE01CE01CE01CE01CE01CE01CE01CE068
:1018A0001CE01C031919070200E0E0E0E000000062
:1018B000E0E0E0E0E0E0E0E0E0E0E0E0E0E0E0E028
:1018C000E0E006202007FFF91C1C1C1C0000001C87
:1018D0001C1C1C1C1C1C1C1C1C1C1C1C1C1C1C1C48
:1018E0001C1C1C1C1C3CFCF80F1932100100E000F1
:1018F000E000E000E000E000E000E000E078E0F080
:10190000E1E0E3C0E780EF00FF00FF00FB80F3C0F1
:10191000E1C0E1E0E0E0E0F0E078E038E03CE01E4B
:10192000031919070200E0E0E0E0E0E0E0E0E0E0B9
:10193000E0E0E0E0E0E0E0E0E0E0E0E0E0E0E01770
:1019400012361B0200E3C0F0EFF3FCFFF7FCF87E59
:101950001EF03C0EE0380EE0380EE0380EE0380E97
:10196000E0380EE0380EE0380EE0380EE0380EE0D9
:10197000380EE0380EE0380EE0380E0E1224120257
:1019800000E3E0EFF8FFF8F83CF01CE01CE01CE09E
:101990001CE01CE01CE01CE01CE01CE01CE01CE067
:1019A0001CE01CE01C0F122412010007C01FF03FB6
:1019B000F8783C701CF01EE00EE00EE00EE00EE049
:1019C0000EE00EF01E701C783C3FF81FF007C00FB1
:1019D00019321202F903C0EFF0FFF8F83CF01CF0E6
:1019E0001EE00EE00EE00EE00EE00EE00EF01EF047
:1019F0001CF83CFFF8EFF0E7E0E000E000E000E07A
:101A000000E000E000E0000F19321201F907C01FEA
:101A1000EE3FFE7C3E701EF01EE00EE00EE00EE09B
:101A20000EE00EE00EF01E701E783E3FFE1FEE0F21
:101A3000CE000E000E000E000E000E000E000E086E
:101A400012120B0200E7EFFFFCF0F0E0E0E0E0E054
:101A5000E0E0E0E0E0E0E00D12241002000F803F43
:101A6000E07FE070F0E070E00070007E003FC007B3
:101A7000F000F00078E038E038F0707FF07FE01F91
:101A80008008161609010038383838FFFFFF38384B
:101A9000383838383838383838383C3F1F0E122438
:101AA000120200E01CE01CE01CE01CE01CE01CE05A
:101AB0001CE01CE01CE01CE01CE01CE01CE03CF016
:101AC0007C7FFC7FDC1F1C0F1224100000E00EE066
:101AD0000E701C701C701C3838383838381C701C5C
:101AE000701C700EE00EE00EE007C007C00380031C
:101AF00080171236170000E0380EE0380E707C1C9C
:101B0000707C1C706C1C38EE1C38EE3838EE38389F
:101B1000C63818C6301DC7701DC7701DC7700D832D
:101B2000600F83E00F83E00701C00701C00F12249C
:101B3000100000F01E781C38383C701C700EE00F4E
:101B4000E007C0038007C007C00FE01EE01C70382C
:101B5000783838701CF01E0E19321001F9E01CE0C4
:101B60001CF0387038703870703870387038E03C5D
:101B7000E01CE01DC01DC00FC00F800F80070007D4
:101B80000007000E000E001C007C00780070000EA4
:101B900012241001007FF87FF87FF8007800F00031
:101BA000E001C003C0078007000E001C003C007865
:101BB000007000FFFCFFFCFFFC0820200B01F90F68
:101BC0001F1C181818181818181818383870E0E062
:101BD0007038381818181818181818181C1F0F0201
:101BE0001F1F0903F9C0C0C0C0C0C0C0C0C0C0C072
:101BF000C0C0C0C0C0C0C0C0C0C0C0C0C0C0C0C0E5
:101C0000C0C0C0C00820200B01F9F0F8381818181F
:101C10001818181818181C1C0E07070E1C1C18186A
:101C20001818181818181838F8F00E060C130209AE
:101C300018007C0C7F0CC7DCC1F800F0FF0000210D
:101C400000240027002A002D00300033000101008D
:101C500000040107010A01000020002300260029DA
:101C6000002C002F003200000100000301060109D2
:101C70000100002200250028002B002E0031003436
:101C80000002010000050108010B0105050505071B
:101C90000508080808020202020A0A0808040404E7
:101CA0000401010101010101010303030303030313
:101CB00003040707070C0C0C0C0C0C0C0C020202A2
:101CC0000206060606060606060B0B0B0B0B0B0B95
:101CD0000B01021020200808102040102040800234
:101CE0000102010804020101020408102040808062
:101CF00040201008040201800402018040201008E6
:101D000004020108040201010204081020408001BD
:101D10000204081020408000000A0B02090C0D0E7E
:101D2000080703040100000000000000000000009C
:101D300000000000000000000000000000000000A3
:101D40000000001211100000000000000000000060
:101D50000000000000000000000000000000A517C7
:101D600011241FBECFEFD1E2DEBFCDBF00E00CBF1C
:101D700012E0A0E0B2E0E8E5F0E300E00BBF02C053
:101D800007900D92AE33B107D9F723E0AEE3B2E08E
:101D900001C01D92AD30B207E1F71EE0C0EBDEE0FE
:101DA00000E006C021970109802FFE010E941E1845
:101DB000CF3AD10780E00807A9F7B2D70C942A18C8
:101DC0000C940000CF92DF92EF92FF920F931F933B
:101DD000CF93DF936C017A018B01C0E0D0E0CE1588
:101DE000DF0581F0D8016D918D01D601ED91FC9157
:101DF0000190F081E02DC6011995892B11F02196F3
:101E0000EECF7E01C701DF91CF911F910F91FF901F
:101E1000EF90DF90CF9008950895DC011696ED9134
:101E2000FC91179712968C91481B477081E090E0C7
:101E300001C0880F4A95EAF7E60FF11D3081222391
:101E400011F0832B02C08095832380830895FB01CA
:101E50004181DC0112962C911297421760F0139683
:101E60002C911397241738F0608115962C916217E6
:101E700010F42481D2CF0895FC0130819281930F18
:101E800092832181921760F494819F5F9483838170
:101E9000830F821710F08FEF820F838381E0089504
:101EA00080E00895FC011282808181508383148236
:101EB000089580E008950B96FC01849108950A9698
:101EC000FC0184910895FC0184910895FCDF88232E
:101ED00021F0823011F083E0089586E00895FC013E
:101EE000E60FF11D849190E0982F88273196E491B8
:101EF0008E0F911D089568E0F2CF66E0F0CF2EE9D5
:101F00003FE0009729F0F9013197F1F70197F9CFF8
:101F100008951092C20208958093C5021092B900EC
:101F200084FF02C08CE001C088E48093B800F1CF48
:101F3000DB011496ED91FC91159720E030E065E00F
:101F40001994CF92DF92EF92FF920F931F93CF934A
:101F5000DF938C017B016A0180E0F601C49181115D
:101F60000AC0CF3F09F454C04C2FB701C801E0DFCD
:101F700081114CC052C0CF3F11F44FEFF6CFCE3F8E
:101F800009F44DC0C03F08F041C0C03E58F04C2F8E
:101F90004F70D7011496ED91FC91159720E030E039
:101FA00062E00CC0C03D68F04C2F4F70D701149612
:101FB000ED91FC91159720E030E063E0C8011995A0
:101FC00025C0C03CF0F0D7011496ED91FC91159717
:101FD00020E030E040E064E0C8011995C295C07F80
:101FE000CE5FD0E0CE018BDFD7011496ED91FC914E
:101FF000159720E030E041E064E0C8011995CE017A
:1020000004C0C7FD03C08C2F90E079DF80E001C0E1
:1020100081E0BFEFCB1ADB0AA0CF80E001C081E0F6
:10202000DF91CF911F910F91FF90EF90DF90CF90B4
:102030000895AF92BF92CF92DF92FF920F931F93BA
:10204000CF93DF936C018B01F42EE90120E142175D
:1020500009F453C0241798F03AE0431357C0DB014A
:102060001496ED91FC91159720E030E042E061E09C
:10207000199544E251E0B801C60163DF47C081E130
:10208000481709F43DC0A5E14A1340C0FB01A280F6
:10209000B3804CE151E0C60154DFD50114964C9158
:1020A000406BB801C60144DFD8011496ED91FC9154
:1020B000159720E030E041E062E0C6011995F50196
:1020C00026813781D8011496ED91FC911597D501A1
:1020D00015964C9166E0C6011995811102C080E009
:1020E000C2C0D8011496ED91FC91159720E030E024
:1020F00040E063E0C601199509C043E151E002C028
:1021000048E051E0B801C6011CDFACC0F801028113
:102110001381F2E3FF1609F46FC0FF15B8F025E153
:10212000F21609F474C037E1F31609F485C084E1AE
:10213000F81298C0D8011696ED91FC911797159654
:102140008C919F01280F311DC9015AC0A6E4FA16CF
:1021500009F481C0B7E4FB1609F480C0EBE3FE127A
:1021600081C089819B81913029F0933031F4482FCF
:10217000885004C048E0480F01C0482F51E0D80102
:1021800013962C91281708F450E031E0F8012281D1
:10219000421708F430E021E0481708F020E0822FD1
:1021A000852B382319F4252309F45CC0CA809130AB
:1021B00061F038F0923061F0933071F4FF24FA94BA
:1021C0000CC0F12CDD24D39409C0FF24F39405C086
:1021D000F12CDD24DA9402C0F12CD12CC7FE03C00F
:1021E000BE01C80134DE88818D0D888389818F0D01
:1021F0008983CC0C99F736C0BE01C80128DE32C0F5
:1022000011928E179F07E1F7C8014CDE2BC0C80161
:1022100033DE882309F463CFD8011696ED91FC9143
:10222000179715968C919F01280F311DC9011192A6
:102230008E179F07E1F716C01882D80112968C916D
:102240001297898315968C91159781508A831396DE
:102250008C918B8307C0F801858103C0D80111964A
:102260008C91888381E0DF91CF911F910F91FF9036
:10227000DF90CF90BF90AF900895089580E090E0F8
:102280000895E4D6DB01ED91FC9119945F926F9271
:102290007F928F929F92AF92BF92CF92DF92EF92F6
:1022A000FF920F931F93CF93DF93EC01E62EF42E52
:1022B000C22E0C811D81C80106DED82E8C819D8125
:1022C00005DE982E21E0D21203C02FE0A22E02C01C
:1022D000AA24AA948C819D81F2DDD82E8C819D81C7
:1022E000EADDB82E8C819D8106DEE0E6EC1538F43F
:1022F000009729F0080F191F91E6D92E0FC08C8185
:102300009D81FBDDF0E4FC1538F4009729F0080FFF
:10231000191F81E4D82E02C00F5E1F4FBC1430F489
:10232000188A1B8A1C8A198A1A8A75C0BD14C0F3C0
:10233000892D90E0F80124912F3F19F40F5F1F4F72
:102340003FC0CD1034C08C819D81BDDD98012F5FD1
:102350003F4FF801882311F0823091F484918B8BE8
:10236000F90124912C8BF8013396E491E88BF80164
:102370003496E491E98BF8013596E491EA8B25C017
:102380008491982F9F7092509A8B82958F70898B31
:10239000F9012491822F8F708C8B22952F702B8BBB
:1023A000F8013296E491E295EF70E88B0EC0F801E7
:1023B0003296E491EA219C012E0F311D020F131F6A
:1023C000BD1409F4ADCFD394B5CF0115110519F1A2
:1023D0008C819D817BDD2C899A89920FF91A9FEF60
:1023E000920F9F0D3CA94EA94F1518F0931728F492
:1023F00002C0931770F09F1560F43B899989E90E2C
:102400009FEF930F9E0D4BA95DA95E1530F49417B5
:1024100030F4888933C080E031C0941710F49E15E1
:10242000C0F7080F111D395F732E76947694769459
:10243000622E6F0C5E01FCE1AF0EB11C872C912C5B
:102440006F1439F35E2C68018C2D801B871590F476
:10245000F60184916A817B815C8EFD8E1F8E8E8F4A
:1024600095014BE3CE010EDFFFEFCF1ADF0A28E024
:10247000520EEACF080D191DF394E2CFDF91CF91F0
:102480001F910F91FF90EF90DF90CF90BF90AF9092
:102490009F908F907F906F905F900895DF92EF9262
:1024A000FF920F931F93CF93DF93EC01D62E1CADB9
:1024B0000BAD7C0184E0E80EF11CE98DFA8DC701BB
:1024C0001995412F480F2D2D602FC701DFDE9BADE1
:1024D000890F8BAF81E090E0DF91CF911F910F9139
:1024E000FF90EF90DF9008959091C202911102C089
:1024F0008093C20208951F93CF93DF931F921F9280
:10250000CDB7DEB720ED37E03A8329839091BC0048
:10251000982391F429813A81232B49F48091C502B3
:10252000182F127081FD08C081E0DEDF06C029810E
:102530003A8121503109E8CF11E0812F0F900F909F
:10254000DF91CF911F91089584E98093BC0064E0EE
:1025500080E1D1CFCF938093BB0084E88093BC000F
:1025600063E080E8C8DFC82F882381F08091C5022E
:10257000C82FC27081FD09C08091B900887F883260
:1025800021F063E082E0B0DF01C0C1E08C2FCF9189
:102590000895CF93DF93FC0123A5222369F0EC017A
:1025A000DED2811102C080E008C08EA1811180E4DA
:1025B000D1DF8823C1F31BA681E0DF91CF9108957D
:1025C0000F931F93CF93C42F89016330B9F050F458
:1025D000613081F0623009F03FC0FC0146A321E088
:1025E00023A73AC06630E9F0673041F1653009F061
:1025F00033C00CC0FC0186A58FDC2EC0FC0116A2E6
:1026000021E023A7411128C09FDF26C0C2DF81112E
:1026100003C09ADF80E021C08C2F9CDF81111CC099
:10262000F8CFB7DF8823A9F3CC23B1F0F80181916B
:102630008F0190DF882369F3C150F6CFAADF88238A
:1026400041F3CC2349F0F801849184DF882329F0F9
:102650000F5F1F4FC150F5CF81E0CF911F910F91B8
:1026600008951F920F920FB60F9211240BB60F927E
:102670002F933F934F935F936F937F938F939F938A
:10268000AF93BF93CF93DF93EF93FF93C091780005
:1026900080917900D0E0D82BD058D093C102C0935C
:1026A000C0028091BE029091BF020196803127E264
:1026B000920729F09093BF028093BE0228C0109227
:1026C000BF021092BE028AE37DD2892B71F4809101
:1026D000C3029091C402803191052CF4019690932D
:1026E000C4028093C30280E03BD18BE36BD2892B81
:1026F00071F48091C3029091C402181619062CF44B
:1027000001979093C4028093C30280E029D1009086
:10271000C30202C0CC0FDD1F0A94E2F7D093C102BE
:10272000C093C002D058D093A8008091C00280937B
:10273000AA00FF91EF91DF91CF91BF91AF919F914F
:102740008F917F916F915F914F913F912F910F905A
:102750000BBE0F900FBE0F901F90189590E0FC01DC
:102760003197E231F10508F04DC08827EE58FF4F50
:102770008F4F64C4809180008F7703C08091800068
:102780008F7D80938000089580918000877FF9CFAE
:1027900084B58F7702C084B58F7D84BD0895809104
:1027A000B0008F7703C08091B0008F7D8093B00020
:1027B0000895809190008F7707C0809190008F7D61
:1027C00003C080919000877F80939000089580914E
:1027D000A0008F7707C08091A0008F7D03C08091FB
:1027E000A000877F8093A0000895809120018F77BB
:1027F00007C0809120018F7D03C080912001877FD9
:102800008093200108950F931F93CF93DF931F921E
:10281000CDB7DEB70091CC021091CD02E091FB0262
:10282000F091FC0282E0199520E030E04AE0B80126
:102830008AEC92E027DD182FE091FB02F091FC0278
:1028400083E01995E091FB02F091FC0280E019957C
:102850001123A1F16091CC027091CD029E012F5FF6
:102860003F4F46E48AEC92E00DDD89818093CA02F5
:102870006091CC027091CD029E012F5F3F4F47E4E3
:102880008AEC92E0FFDC89818093CB026091CC02DC
:102890007091CD0220E030E048E48AEC92E0F2DC76
:1028A0008093D5026091CC027091CD022DEF32E081
:1028B00047E18AEC92E0E6DC81E001C080E00F9025
:1028C000DF91CF911F910F9108950F931F93CF9395
:1028D000DF938C01C6ECD2E0EDA9FEA982E0199548
:1028E000EDA9FEA981E0199520E030E044E1B801AE
:1028F0008AEC92E0C7DC2DEF32E047E1B8018AECC8
:1029000092E0C0DCEDA9FEA980E0DF91CF911F919C
:102910000F911994FF920F931F93CF93DF93082F7A
:10292000F62E172FE091DF02F091E0028AEC92E0A0
:102930001995080FCF2DD12F10E0F12C29912223CA
:1029400041F0402F6F2D8AEC92E0A0DCF80E180FBA
:10295000F5CF812FDF91CF911F910F91FF900895B7
:102960001F93CF93DF93E4E2FDE19491EEEDFCE160
:10297000D491E8E9FCE1C491CC23C9F0182F992344
:1029800011F0892FEBDEEC2FF0E0EE0FFF1FEF5878
:10299000F34EA591B4919FB7F894111104C08C9196
:1029A000D095D82302C0EC91DE2BDC939FBFDF9142
:1029B000CF911F9108952091CE023091CF02281718
:1029C000390709F444C09093CF028093CE02009758
:1029D00009F437C02091E102FC01211107C03596AE
:1029E000E491E093E202FC013C960FC0213039F4FF
:1029F0003F96E491E093E202FC01709606C03D969A
:102A0000E491E093E202FC013E9684918093E3021C
:102A10008091E202082E000C990B2091E302821BA8
:102A2000910927FD93952091E402203441F0829F83
:102A3000C001112426E0969587952A95E1F78093A9
:102A4000E50289E59FE09093E0028093DF0208951C
:102A50008F929F92AF92BF920F931F93CF93DF936A
:102A6000CDB7DEB7A1970FB6F894DEBF0FBECDBFCE
:102A700019A2423008F44AE08E010F5D1F4F842EE8
:102A8000912CA12CB12CA5019401B6D2E62FB9014D
:102A9000CA0101501109EA3014F4E05D01C0E95C9B
:102AA000D801EC93232B242B252B69F70115110555
:102AB00069F0F80101900020E9F73197AF01401B60
:102AC000510BB80186EC92E07DD902C080E090E025
:102AD000A1960FB6F894DEBF0FBECDBFDF91CF91A8
:102AE0001F910F91BF90AF909F908F9008950F937B
:102AF0001F93CF93E091D802F091D902309719F04B
:102B00008AEC92E019950091CC021091CD02E091EF
:102B1000FB02F091FC0282E01995E091FB02F0913A
:102B2000FC0281E0199520E030E045E1B8018AEC33
:102B300092E0A8DBC82F882339F02DEF32E047E17F
:102B4000B8018AEC92E09EDBE091FB02F091FC027E
:102B500080E019958C2FCF911F910F910895CF93FD
:102B600084EA8093BC0061E080E8C5DC882351F0F2
:102B70008091B900887F883039F0803129F061E098
:102B800082E0B2DCC0E01BC088E78093BB0084E831
:102B90008093BC0062E080E8AEDC882399F38091EA
:102BA000C502C82FC27081FD09C08091B900887F1D
:102BB000883121F062E082E097DC01C0C1E08C2F17
:102BC000CF910895CF93DF93282F30E0F901E95E8C
:102BD000F24E8491F901EF52F34ED491F901E55789
:102BE000F34EC491CC2389F08111B8DDEC2FF0E0D5
:102BF000EE0FFF1FE95AF34EA591B491EC91ED232E
:102C000081E090E021F480E002C080E090E0DF917C
:102C1000CF910895CF93DF9390E0FC01EF52F34EF4
:102C20002491FC01E557F34E8491882361F190E0F3
:102C3000880F991FFC01E35CF34EC591D491FC0110
:102C4000EF58F34EA591B491611109C09FB7F89464
:102C50008881209582238883EC912E230BC06230DB
:102C600061F49FB7F8948881322F3095832388834D
:102C7000EC912E2B2C939FBF06C08FB7F894E88160
:102C80002E2B28838FBFDF91CF9108951F920F9233
:102C90000FB60F9211242F933F938F939F93AF936F
:102CA000BF938091090390910A03A0910B03B09107
:102CB0000C033091080323E0230F2D3720F40196F5
:102CC000A11DB11D05C026E8230F0296A11DB11D4F
:102CD000209308038093090390930A03A0930B03A6
:102CE000B0930C038091040390910503A091060317
:102CF000B09107030196A11DB11D80930403909329
:102D00000503A0930603B0930703BF91AF919F9172
:102D10008F913F912F910F900FBE0F901F9018959C
:102D2000789484B5826084BD84B5816084BD85B5A6
:102D3000826085BD85B5816085BD80916E008160B2
:102D400080936E0010928100809181008260809358
:102D5000810080918100816080938100809180005A
:102D60008160809380008091B10084608093B10085
:102D70008091B00081608093B0008091910082606A
:102D80008093910080919100816080939100809167
:102D900090008160809390008091A1008260809378
:102DA000A1008091A10081608093A1008091A0008A
:102DB00081608093A0008091210182608093210135
:102DC00080912101816080932101809120018160A7
:102DD0008093200180917A00846080937A008091B2
:102DE0007A00826080937A0080917A00816080937B
:102DF0007A0080917A00806880937A001092C100F6
:102E000062E08CE007DF62E082E004DF62E08BE3F7
:102E100001DF62E08AE3FEDE61E08DE0FBDE61E07F
:102E200086E0F8DE61E087E0F5DE80E680937C00F6
:102E300085EE80937A0010927B0081E080937E0083
:102E400080EA8093A00081E18093A10080E28093DA
:102E500072001092A7008FEF8093A60084B1866065
:102E600084B97894C0E0D0E011E002E38CE3B82E9E
:102E70008CE0A8DE892B09F44BC081E071DD8091E4
:102E80000303811103C010930303BDDC8091CC02C6
:102E90009091CD021ADD8AE491E08DDD6AE172E065
:102EA00089E138DD00930103B09202038DEB98E0D5
:102EB00082DDC090C302D090C4020D2C000CEE083D
:102EC000FF08F7FE0DC06DE286EC92E0E7DA6627B8
:102ED0007727CB016C197D098E099F094AE003C051
:102EE0004AE0C701B601B4DD8AE491E064DD45E063
:102EF00050E068E272E086EC92E00E94E20EF7DDBC
:102F00008111C9CF209709F4B3CF0E940000B0CF40
:102F100080E026DD80910303811103C01093030339
:102F200072DC8091CC029091CD02CFDC8DEB98E0E9
:102F300042DD6EE272E08EE1EDDC65E372E08CE38F
:102F4000E9DCD5DD8111F2CFDDCF1092C9021092FC
:102F5000C80282E192E09093C7028093C602109269
:102F6000010310920203109203031092CF021092F9
:102F7000CE021092D1021092D0021092D30281E0C0
:102F80008093D20282E28093D4021092D9021092EE
:102F9000D802EDEEF2E08FEF819392E0EB3FF9077C
:102FA000D9F781E08093EA0229E53FE03093E0021F
:102FB0002093DF028093E1021092E2021092E3027A
:102FC00080E48093E4021092E5028CE09FE090930D
:102FD000FC028093FB0288E092E09093CD02809304
:102FE000CC0282E08093F8020EDC82E192E09093C2
:102FF000C7028093C6020895A1E21A2EAA1BBB1B2A
:10300000FD010DC0AA1FBB1FEE1FFF1FA217B307B4
:10301000E407F50720F0A21BB30BE40BF50B661FCA
:10302000771F881F991F1A9469F76095709580958E
:1030300090959B01AC01BD01CF010895EE0FFF1FDC
:10304000881F8BBF0790F691E02D199481E090E0E6
:08305000F89400C0F894FFCFD2
:103058000840000000803E0219100002E012000043
:1030680000004E12E20E3E113D112020424954202C
:1030780043525553484552002042697473004546EF
:0E30880046454354002020204F4646200000BD
:00000001FF
