:100000000C9405160C9435160C9435160C94351674
:100010000C9435160C9435160C9435160C94351634
:100020000C9435160C9435160C9435160C94351624
:100030000C9435160C9435160C9435160C94351614
:100040000C9435160C9435160C9435160C94351604
:100050000C9435160C9435160C9435160C94921D90
:100060000C9435160C9435160C9435160C943516E4
:100070000C9435160C9435160C9435160C943516D4
:100080000C9435160C9435160C9435160C943516C4
:100090000C9435160C9435160C9435160C943516B4
:1000A0000C9435160C94861A0C9435160C9435164F
:1000B0000C9435160C9435160C9435160C94351694
:1000C0000C9435160C9435160C9435160C94351684
:1000D0000C9435160C9435160C9435160C94351674
:1000E0000C943516221B251B141B181B1E1B5C1B96
:1000F000291B2D1B331B371B3B1B411B451B491B5E
:100100005C1B4F1B531B571BFFE0FFD1AFFF32FFA0
:10011000D0FFFEFFE0FFD1AEFFD0FFFEFFE0FFD13A
:100120001002FFFEFFD0FFE0FFC1FFD1AED580A8D7
:100130003FD300408D142002A1C8DA1281CFD9F13B
:10014000DB402EA4A6AFFFD0FFFE001C25FDF81358
:1001500004250931207FFB14FB13FB00000006007F
:1001600001021313060200C0C0C0C0C0C0C0C0C09E
:10017000C0C0C080800000C0C0C006060608010DD7
:10018000CCCCCCCCCC440B11220E02000CC00CC049
:100190000CC01980FFE0FFE01980198033003300A4
:1001A000FFE0FFE0330033006600660066000B16D8
:1001B0002C0D01FE060006001F803FC076E0666041
:1001C0006660660076003E003E000F8007C006E0D5
:1001D0000660C660C660E6E07FC03F80060006009D
:1001E0001312361601000006003C0C007E0C00C302
:1001F0001800C31800C33000C330007E60003C60AC
:100200000000C00000C780018FC001986003186023
:10021000031860061860060FC00407800E12241130
:1002200002000F001F8039C030C030C030C01980BC
:100230000F001E003F18739861D8C0F0C060C0F076
:10024000E1D87F9C1E0002060606020DC0C0C0C099
:10025000C0400518180802FB18183030606060C0F4
:10026000C0C0C0C0C0C0C0C0C0606060303018181E
:100270000518180801FBC0C060603030301818182D
:10028000181818181818183030306060C0C00707E8
:10029000070A010C1010D67C386C440C0C180E01A7
:1002A0000106000600060006000600FFF0FFF0064B
:1002B0000006000600060006000206060602FDC053
:1002C000C0C0404080060202080106FCFC02030395
:1002D000060200C0C0C007131307000006040C0C80
:1002E0000818181010303020606040C0C080800BAB
:1002F00012240D01001F003F8071C060C060C0E08B
:10030000E0C060C060C060C060C060C060E0E0602D
:10031000C060C071C03F801F000612120D02000CA9
:100320000C1CFCFC0C0C0C0C0C0C0C0C0C0C0C0C1D
:100330000C0B12240D01001E007F8061C0C0C0C0E4
:1003400060C06000E000C001C003800F001C0038E6
:10035000007000E000C000FFE0FFE00B12240D0180
:10036000001F007F806180C0C0C0C0C0C000C0014D
:10037000800F000FC000C000600060C060C0C0619E
:10038000C07F801F000B12240D0100018003800339
:100390008007800F800D801980398031806180E175
:1003A00080C180FFE0FFE001800180018001800BBF
:1003B00012240D01007FC07FC060006000600060FB
:1003C000007E007F8071C000C000E000600060C05F
:1003D000E0C0C0E1C07F801E000B12240D01000FA1
:1003E000003FC070C06060E060C000C000CF00DFB0
:1003F00080F1C0E0C0C060C060C060E0E071C07F5C
:10040000C01F000B12240D0100FFE0FFE000E00020
:10041000C00180018003000300060006000C000CF0
:10042000001C00180018003800300030000B1224A7
:100430000D01000E003F80318060C060C060C0319F
:10044000801F003F8071C060C0C060C060C060C0DD
:100450006060C07FC01F000B12240D01001F007FD1
:10046000C071C0E0C0C060C060C060C060E0E0714A
:10047000E07F601E60006000E0C0C0E1C07F801EC1
:1004800000020E0E060200C0C0C000000000000006
:100490000000C0C0C00211110602FDC0C0C00000B3
:1004A000000000000000C0C0C04040800C0C180FCD
:1004B0000101003000F003C00F003C00E000E0004C
:1004C0003C000F0003C000F000300A050A0F0205CF
:1004D000FFC0FFC00000FFC0FFC00C0C180F0101DF
:1004E000C000F0003C000F0003C00070007003C0AB
:1004F0000F003C00F000C0000A13260C01001F0092
:100500007F8071C0E0C0C0C0C1C00180038007000F
:1005100006000C000C000C000C00000000000C0099
:100520000C000C001617451902FC00FF0003FFC069
:100530000F01E01C007038001830001860730C6068
:10054000FB0CC1C70CC3860CC3060CC6060CC60C3C
:100550001CC60C18C60C38E71C7063F7E071E3800A
:100560003800001C00000F030007FF0000FC000F14
:1005700013261101000380038006C006C00C400C46
:10058000600C6018301830183030183FF83FF860B1
:100590000C600C600CC006C006C0060E13261102CB
:1005A00000FFC0FFF0C070C018C018C018C018C04D
:1005B00030FFE0FFF0C018C00CC00CC00CC00CC075
:1005C0001CC078FFF0FFC00F132612010007E01FC8
:1005D000F83C3C700E6006E006C000C000C000C0E1
:1005E00000C000C000C000E0066006700E3C3C1F6A
:1005F000F807E00F1326120200FFC0FFF0C078C01A
:100600001CC00CC00EC006C006C006C006C006C096
:1006100006C006C00EC00CC01CC078FFF0FFC00CA6
:100620001326100200FFF0FFF0C000C000C000C0A1
:1006300000C000C000FFE0FFE0C000C000C000C07C
:1006400000C000C000C000FFF0FFF00B13260E0238
:1006500000FFE0FFE0C000C000C000C000C000C05C
:1006600000FFC0FFC0C000C000C000C000C000C08C
:1006700000C000C000C00010132613010007E01FD7
:10068000F83C3C700E6006E006C000C000C000C030
:100690007FC07FC003C003E0036007700F3C3F1FB3
:1006A000FB07E30E1326120200C00CC00CC00CC0E6
:1006B0000CC00CC00CC00CC00CFFFCFFFCC00CC07C
:1006C0000CC00CC00CC00CC00CC00CC00CC00C0288
:1006D0001313080300C0C0C0C0C0C0C0C0C0C0C0A9
:1006E000C0C0C0C0C0C0C0C00A13260D010000C0F9
:1006F00000C000C000C000C000C000C000C000C0FA
:1007000000C000C000C0C0C0C0C0C0C0C0C06180C8
:100710007F803F000D1326120300C038C070C0E078
:10072000C1C0C380C700CE00DC00FC00FE00E700B3
:10073000C380C180C1C0C0E0C060C070C038C018F4
:100740000B13260E0200C000C000C000C000C00095
:10075000C000C000C000C000C000C000C000C00099
:10076000C000C000C000C000FFE0FFE01113391559
:100770000200C00180E00380E00380F00780F00702
:1007800080D80D80D80D80D80D80CC1980CC1980F0
:10079000CC1980C63180C63180C63180C36180C328
:1007A0006180C36180C1C180C1C1800E1326120265
:1007B00000E00CF00CF00CD80CDC0CCC0CCE0CC611
:1007C0000CC70CC30CC38CC18CC1CCC0CCC0ECC05A
:1007D0006CC03CC03CC01C10132612010007E01F77
:1007E000F83C3C700E6006E007C003C003C003C0C5
:1007F00003C003C003C003E0076006700E3C3C1F4B
:10080000F807E00D1326100200FFE0FFF0C030C033
:1008100018C018C018C018C030FFF0FFE0C000C0FA
:1008200000C000C000C000C000C000C000C0001078
:10083000132612010007E01FF83C3C700E6006E032
:1008400007C003C003C003C003C003C003C003E06C
:100850000760E6707E3C1C1FFE07E70D13261102A1
:1008600000FFE0FFF0C030C018C018C018C018C0AA
:1008700030FFF0FFE0C070C030C018C018C018C012
:1008800018C018C018C0180D13261002000F803FA2
:10089000E06060C030C030C000E0007C003F8007F6
:1008A000E000F0003800180018C018C038F0707F61
:1008B000E01F800E1326100100FFFCFFFC03000365
:1008C0000003000300030003000300030003000310
:1008D0000003000300030003000300030003000EF5
:1008E0001326120200C00CC00CC00CC00CC00CC0FF
:1008F0000CC00CC00CC00CC00CC00CC00CC00CC098
:100900000CC00C601870383FF00FC00F1326110197
:1009100000C006C006E00E600C701C30183018389D
:1009200038183018301C700C600C600EE006C006E1
:10093000C0038003800380141339160100C06030A7
:10094000C06030C06030C0F03060F06061986061BD
:1009500098606198606198603198C0330CC0330C26
:10096000C0330CC01B0D801B0D801E07800E0700BE
:100970000C03000C03000F1326110100C006E00E4B
:10098000701C301818301C700EE007C00380038004
:1009900007C00EE00C601C7038383018600CE00E98
:1009A000C0060E1326100100C00CE01C6018703841
:1009B0003030387018601CE00CC00FC00780078012
:1009C00003000300030003000300030003000D13F2
:1009D000260F0100FFF8FFF80038007000E001C0AA
:1009E00001C00380070007000E001C001C00380037
:1009F00070007000E000FFF8FFF80418180702FB11
:100A0000F0F0C0C0C0C0C0C0C0C0C0C0C0C0C0C086
:100A1000C0C0C0C0C0C0F0F0081313070000C04041
:100A200040602020301010101808080C0404060242
:100A3000030418180701FBF0F0303030303030304C
:100A400030303030303030303030303030F0F00A4C
:100A500009120C010A0C000C001E00120033006188
:100A6000806180C0C0C0C00E02040E00FBFFFCFF0E
:100A7000FC05040407010FC06030180B0E1C0D01AB
:100A8000001F003F8061C060C000C007C03FC07849
:100A9000C0E0C0C0C0C1C0E3C07EE03C600B132614
:100AA0000E0200C000C000C000C000C000CF00DFC8
:100AB00080F1C0E0C0C0E0C060C060C060C060C085
:100AC000E0E0C0F1C0DF80CF000A0E1C0C01001F67
:100AD000003F8071C060C0E000C000C000C000C026
:100AE00000E00060C071C03F801F000B13260E01A4
:100AF00000006000600060006000601E603F607188
:100B0000E060E0E060C060C060C060C060E0606065
:100B1000E071E03F601E600B0E1C0D01000E003FF7
:100B20008071C060C0C060C060FFE0FFE0C000C076
:100B300000606070E03FC00F000613130801001C46
:100B40003C303030FCFC3030303030303030303001
:100B500030300B13260E01FB1E603F6071E060E039
:100B6000E060C060C060C060C060E06060E071E0F4
:100B70003F601E600060C060E0C07FC01F000A13BD
:100B8000260D0200C000C000C000C000C000CE00A2
:100B9000DF80F180E0C0C0C0C0C0C0C0C0C0C0C065
:100BA000C0C0C0C0C0C0C0C0C0C002131306020095
:100BB000C0C0C00000C0C0C0C0C0C0C0C0C0C0C0B5
:100BC000C0C0C00418180600FB30303000003030C0
:100BD000303030303030303030303030303030F055
:100BE000E00A13260C0200C000C000C000C000C014
:100BF00000C180C380C700CE00DC00F800FC00CE3E
:100C000000C600C700C380C180C1C0C0C0021313AA
:100C1000060200C0C0C0C0C0C0C0C0C0C0C0C0C00C
:100C2000C0C0C0C0C0C0100E1C140200CE3CFF7E6D
:100C3000E3C7C183C183C183C183C183C183C1832E
:100C4000C183C183C183C1830A0E1C0E0200CE0082
:100C5000DF80F180E0C0C0C0C0C0C0C0C0C0C0C0A4
:100C6000C0C0C0C0C0C0C0C0C0C00B0E1C0D0100C1
:100C70001F003F8071C060C0E0E0C060C060C06025
:100C8000C060E0E060C071C03F801F000B13260E03
:100C900002FBCF00DF80F1C0E0C0C0E0C060C060F8
:100CA000C060C060C0E0E0C0F1C0DF80CF00C00025
:100CB000C000C000C000C0000B13260E01FB1E6068
:100CC0003F6071E060E0E060C060C060C060C06034
:100CD000E06060E071E03F601E6000600060006006
:100CE00000600060060E0E090200CCDCF8F0E0C0E7
:100CF000C0C0C0C0C0C0C0C00A0E1C0C01003F0074
:100D00007F80E1C0C0C0C000F8007F000F8001C03C
:100D1000C0C0C0C0E1C07F803F00061212080100C1
:100D200030303030FCFC303030303030303030302B
:100D30003C1C0A0E1C0E0200C0C0C0C0C0C0C0C017
:100D4000C0C0C0C0C0C0C0C0C0C0C0C0C1C063C0FF
:100D50007EC01CC00B0E1C0D0100C060C060C060D6
:100D600060C060C071C0318031801B001B001B005F
:100D70000E000E000E00120E2A120000C0C0C0C0ED
:100D8000C0C061E18061E18061E1803123003333E3
:100D9000003333001B36001A16001E1E000E1C0006
:100DA0000C0C000C0C000A0E1C0C0100C0C0E1C0B1
:100DB000618033001E001E000C001E001E00330068
:100DC00073806180C0C0C0C00C13260D00FBC03012
:100DD000C03060307060306038E018C018C00D80DE
:100DE0000D800780070003000300060006000C00CA
:100DF0003C0038000A0E1C0C0100FFC0FFC001803F
:100E0000030007000E000C001C00380030006000DA
:100E1000E000FFC0FFC00618180801FB0C183030B6
:100E200030303030303060C0C06030303030303042
:100E30003030180C0118180602FB808080808080FA
:100E400080808080808080808080808080808080A2
:100E500080800618180801FBC06030303030303018
:100E60003030180C0C18303030303030303060C03A
:100E70000A04080E020570C0FCC0CFC0C380FF008A
:100E8000161DFEF90E02950652207FFC0EFC0EFC8C
:100E9000000000050001020E0E060200C0C0C0C026
:100EA000C0C0C0C080800000C0C0050505050009A5
:100EB000D8D8D8D8D80A0D1A0A00000900090009A4
:100EC000007FC07FC0120012001200FF80FF80244C
:100ED00000240024000910200A01FE08003E007FC3
:100EE00000CB00C800E80078003E000F000980C970
:100EF00080EB807F003E00080008000E0D1A1001F4
:100F0000007860CCC0CCC0CD80CD807B00030006D3
:100F10007806CC0CCC0CCC18CC18780C0D1A0D0122
:100F2000003C007E00660066003C007C00EEC0C60F
:100F3000C0C3C0C380E7C07EE03C7001050503016B
:100F40000980808080800412120600FC10306060EE
:100F5000C0C0C0C0C0C0C0C0C0C0606030100412FB
:100F6000120601FC80C060603030303030303030EC
:100F700030306060C08005070707010720A8F8200F
:100F8000F8A820080A0A0A010018181818FFFF1804
:100F90001818180205050501FDC0C0404080050174
:100FA00001060005F8020202050100C0C0050E0E90
:100FB00005000018181818303030606060C0C0C0DC
:100FC000C0080D0D0A01003C7E66C3C3C3C3C3C382
:100FD000C3667E3C050D0D0A020018F8F8181818B3
:100FE00018181818181818080D0D0A01003CFEC32F
:100FF00003070E1C3870E0C0FFFF080D0D0A01004A
:101000003E7FC3C3061C1E0703C3C77E3C090D1ADF
:101010000A0000030007000F001B003300330063C9
:1010200000C300FF80FF80030003000300080D0DD4
:101030000A0100FEFEC0C0FCFEC70303C3C7FE7C5E
:10104000080D0D0A01003C7F63C0C0DCFEC3C3C3B2
:10105000E37E3C080D0D0A0100FFFF03060C0C188F
:10106000183030606060080D0D0A01003C7EE7C357
:10107000C3667EE7C3C3E77E3C080D0D0A01003C52
:101080007EC7C3C3C37F3B0303C6FE7C020A0A05B7
:101090000100C0C0000000000000C0C0020D0D052E
:1010A00001FDC0C0000000000000C0C0404080083A
:1010B00009090A0100030F3C70C0703C0F030705CB
:1010C000050B0202FEFE00FEFE0809090A0100C02F
:1010D000F03C0E030E3CF0C0070E0E0A01007CFE31
:1010E000C6C60E1C383030300000303010112212CD
:1010F00001FD03F00FFC1C0E300663D36773C6338B
:10110000CC63CC66CC66CCCCCFF86770700038006E
:101110001FF007E00C0E1C0D0000060006000F007B
:101120000F001980198030C030C03FC07FE0606080
:101130006060C030C0300B0E1C0D0100FF00FF804E
:10114000C1C0C0C0C0C0C180FF80FFC0C0E0C060DF
:10115000C060C0E0FFC0FF800C0E1C0E01000F80BD
:101160003FE070706030E000C000C000C000C00010
:10117000E000603070703FE00F800C0E1C0E01002C
:10118000FF80FFC0C0E0C060C030C030C030C030A1
:10119000C030C030C060C0E0FFC0FF800A0E1C0D30
:1011A0000200FFC0FFC0C000C000C000C000FF8040
:1011B000FF80C000C000C000C000FFC0FFC0090E1B
:1011C0001C0C0200FF80FF80C000C000C000C000F7
:1011D000FF00FF00C000C000C000C000C000C00091
:1011E0000D0E1C0F01000FC03FF070386018E018A2
:1011F000C000C000C0F8C0F8E018601870383FF8B0
:101200000FD80B0E1C0E0100C060C060C060C06033
:10121000C060C060FFE0FFE0C060C060C060C06050
:10122000C060C060020E0E060200C0C0C0C0C0C0D8
:10123000C0C0C0C0C0C0C0C0080E0E0A000003037A
:1012400003030303030303C3C3E77E3C0C0E1C0D1F
:101250000200C0E0C1C0C380C700CE00DC00F800BF
:10126000FC00CE00C700C380C1C0C0E0C070090E42
:101270001C0B0100C000C000C000C000C000C000C6
:10128000C000C000C000C000C000C000FF80FF80E0
:101290000E0E1C100100C00CC00CE01CE01CF03C49
:1012A000F03CD86CD86CCCCCCCCCC48CC78CC30CE8
:1012B000C30C0B0E1C0E0100C060E060F060F0601B
:1012C000D860CC60CC60C660C660C360C1E0C1E0DD
:1012D000C0E0C0600D0E1C0F01000F803FE0707079
:1012E0006030E038C018C018C018C018E03860304E
:1012F00070703FE00F800A0E1C0D0200FF00FF809F
:10130000C1C0C0C0C0C0C1C0FF80FF00C000C000DD
:10131000C000C000C000C0000D0F1E0F01FF0F80F5
:101320003FE070706030E038C018C018C018C018B6
:10133000E1B861B070F03FE00FB000300B0E1C0E52
:101340000100FF80FFC0C0E0C060C060C0E0FFC01F
:10135000FF80C0C0C0C0C060C060C060C0600A0E76
:101360001C0D01001E007F80E1C0C0C0E0007C00B9
:101370001F00038001C000C0C0C0E1C07F803F00EB
:101380000A0E1C0C0100FFC0FFC00C000C000C007A
:101390000C000C000C000C000C000C000C000C00ED
:1013A0000C000B0E1C0E0100C060C060C060C0606D
:1013B000C060C060C060C060C060C060C06060C02D
:1013C0007FC01F000C0E1C0D0000C030C0306060DC
:1013D0006060606030C030C030C0198019801980F2
:1013E0000F000F000600100E1C120100C183C18304
:1013F000C183C3C363C6624666666666366C366C76
:10140000342C1C38181818180B0E1C0D0100C06065
:10141000C06060C071C031801B000E000E001B0058
:10142000318071C060C0C060C0600C0E1C0D000037
:10143000C030C0306060606030C039C019800F00BB
:101440000600060006000600060006000A0E1C0C38
:101450000100FFC0FFC000C00180030006000C00B7
:101460001C00180030006000C000FFC0FFC0041264
:10147000120500FCF0F0C0C0C0C0C0C0C0C0C0C0F9
:10148000C0C0C0C0F0F0050E0E050000C0C0C060B6
:10149000606030303030181818180412120500FC43
:1014A000F0F03030303030303030303030303030BC
:1014B000F0F007060609010710386C6CC6C60B026F
:1014C000040B00FCFFE0FFE004030304000BC0601A
:1014D00030090A140B01007E00E700C30007007FFB
:1014E00000E300C300C300E7807980090E1C0B01F4
:1014F00000C000C000C000C000DE00FF00E300C16B
:1015000080C180C180C180E300FF00DE00080A0ABC
:101510000A01003E7F63C0C0C0C0637F3E090E1C4D
:101520000B010001800180018001803D807F80638C
:1015300080C180C180C180C18063807F803D800880
:101540000A0A0A01003C7EC3C3FFC0C0E37F3C0619
:101550000E0E0600001C3C3030FCFC3030303030C9
:10156000303030090E1C0B01FC3D807F806180C152
:1015700080C180C180C18063807F803D80018063A5
:10158000007F001C00080E0E0A0100C0C0C0C0DEB3
:10159000FFE3C3C3C3C3C3C3C3020E0E040100C031
:1015A000C00000C0C0C0C0C0C0C0C0C0C0041212D3
:1015B00004FFFC303000003030303030303030301C
:1015C000303030F0E0080E0E090100C0C0C0C0C6C7
:1015D000CCD8F0F8D8CCCEC6C7020E0E040100C09D
:1015E000C0C0C0C0C0C0C0C0C0C0C0C0C00E0A140F
:1015F000100100DE78FFFCE38CC30CC30CC30CC3EA
:101600000CC30CC30CC30C080A0A0A0100DEFFE37A
:10161000C3C3C3C3C3C3C3090A140B01003E007F85
:10162000006300C180C180C180C18063007F003E33
:1016300000090E1C0B01FCDE00FF00E300C180C1AD
:1016400080C180C180E300FF00DE00C000C000C098
:1016500000C000090E1C0B01FC3D807F806380C12F
:1016600080C180C180C18063807F803D8001800116
:101670008001800180050A0A060100D8D8E0C0C0B8
:10168000C0C0C0C0C0070A0A0901003C7EC6C0FC39
:101690003E06C6FC78060D0D060000303030FCFC1E
:1016A0003030303030303C1C080A0A0A0100C3C315
:1016B000C3C3C3C3C3C7FF7B080A0A0A0100C3C36D
:1016C000C3666666243C18180C0A140E0100C63066
:1016D000C630C630666066606960294039C01980CE
:1016E0001980080A0A0A0100C3E7663C18183C661C
:1016F000E7C3080E0E0A01FCC3C3C3666666243C3A
:10170000181818187070070A0A090100FEFE060C66
:10171000183060C0FEFE06121206FFFC0C183030B6
:1017200030303060C060303030303030180C021251
:10173000120501FCC0C0C0C0C0C0C0C0C0C0C0C095
:10174000C0C0C0C0C0C00612120600FCC06030306D
:10175000303030180C1830303030303060C0080372
:10176000030A010473FFCEFF002730FBF51905D7EC
:101770000E69207FF91BF919F90000000900010327
:101780001919090400E0E0E0E0E0E0E0E0E0E0E07A
:10179000E0E0E0E0E0E040400000E0E0E0E00808F9
:1017A000080C020FE7E7E7E7E7E7424211174513A6
:1017B0000100038700038700030600030600070EED
:1017C00000070E007FFF807FFF807FFF800E1C00E0
:1017D0000E1C000C18001C38001C3800FFFF00FF16
:1017E000FF00FFFF0038700038700030600030608C
:1017F0000070E00070E000101F3E1201FC0180014B
:101800008001800FF01FF83DBC718E718EE18EE17A
:1018100080E18071807D803FC01FF007FC01FE01E8
:101820009E018F0187E187E187718E718E3DBC3FFC
:10183000F80FF001800180018001801A18601D01FD
:1018400000000030001F0070007F80600073C0E067
:1018500000E0C0C000C0E1C000C0E18000C0E38083
:1018600000E0C3000073C700007F8600001F0E0069
:1018700000000C0000001C3E0000187F800038F3C0
:10188000800030C1C00071C0C00061C0C000E1C0B4
:10189000C000C0C1C001C0E38001807F8003803EE2
:1018A0000012174516020007C0000FE0001E70006E
:1018B0003C38003838003838003C70001EF0000F0B
:1018C000E00007C0000F80003FC00079C70070E74C
:1018D00000E0F600E07E00E03C00E01C00F03E008E
:1018E000787F007FF7803FE3C00F00000308080601
:1018F000020FE0E0E0E0E0E0E040071F1F0B02F92C
:10190000060C0C1818383070707060E0E0E0E0E011
:10191000E0E0E0E060707070303818180C0C0607DA
:101920001F1F0B01F9C06060303038181C1C1C0CE4
:101930000E0E0E0E0E0E0E0E0C0C1C1C181838304F
:10194000706060C00A0B160D010F0C000C004C807B
:10195000EDC07F803F001E003F007380E1C04080EB
:1019600011103013010101C00001C00001C00001CD
:10197000C00001C00001C00001C000FFFF80FFFFE8
:1019800080FFFF8001C00001C00001C00001C00055
:1019900001C00001C0000309090903FBE0E0E0E029
:1019A000206060C0800802020B0108FFFF030404EE
:1019B000090300E0E0E0E0091830090000018001BF
:1019C0008001800300030003000600060006000CEF
:1019D000000C000C0008001800180018003000303F
:1019E000003000600060006000C000C0000F1830D0
:1019F00012010007C01FF03FF83C78783C701C7063
:101A00001CE00EE00EE00EE00EE00EE00EE00EE058
:101A10000EE00EE00E701C701C703C3C783FF81F0E
:101A2000F007C00818181203000307070F3FFFFF55
:101A30000707070707070707070707070707070736
:101A4000070F183012010007C01FF03FF8783C70F4
:101A50001CF00EE00EE00E000E001C003C007800B2
:101A6000F003E007C01F003C0078007000E000E0D9
:101A700000FFFEFFFEFFFE0F183012010007C01F1F
:101A8000F03FF83838701C701C701C701C001C0073
:101A90003803F803F003F8003C001E000EE00EE0EF
:101AA0000EE00E701C783C3FF81FF007C010183095
:101AB000120000001800380078007800F801F803E0
:101AC000B803B807380E380E381C38383838387034
:101AD00038E038FFFFFFFFFFFF0038003800380014
:101AE0003800380F18301201003FFC3FFC3FFC3833
:101AF00000380038007000700077C07FF07FF87801
:101B00007C701C001E000E000E000EE00EE01EF0A9
:101B10001C787C7FF83FF00F800F18301201000313
:101B2000C00FF01FF83C38381C701C70007000604B
:101B300000E3C0EFF0FFF8F83CF01CF00EE00EE020
:101B40000E600E700E701C383C3FF81FF007C00F7F
:101B50001830120100FFFEFFFEFFFE000E001C0009
:101B60001800380070007000E000E001C001C00300
:101B70008003800700070007000E000E000E001C07
:101B8000001C001C000F183012010007C01FF03F9E
:101B9000F8383C701C701C701C701C783C3C781F22
:101BA000F00FE03FF8783C701CE00EE00EE00EE035
:101BB0000EF01C783C3FF81FF007C00F18301201E0
:101BC0000007C01FF03FF8787C703CF01CE01EE07E
:101BD0000EE00EE00EE01EE01E703E7FFE3FEE0FB8
:101BE000CE000E001CE01CF03C78783FF03FE00F88
:101BF00080031212090400E0E0E0E00000000000B1
:101C00000000000000E0E0E0E00316160904FBE03D
:101C1000E0E0E0000000000000000000E0E0E0E0A4
:101C2000206060C0801010201302000003000F002D
:101C30003F01FC07E01F80FE00F000F000FE001FE7
:101C40008007E001FC007F000F00030F0912130260
:101C500004FFFEFFFEFFFE000000000000FFFEFF8D
:101C6000FEFFFE101020130100C000F000FE003F38
:101C70008007E001F8007F000F000F007F01F807E8
:101C8000E03F80FE00F000C0000E19321202000793
:101C9000C01FF03FF87838701CF01CE01CE01C00FE
:101CA0001C00380038007000E001E001C003800330
:101CB0008003800380000000000380038003800312
:101CC000801D1E782201FB0007C000003FF80000C5
:101CD000FFFE0003F03F8007C007C00F0003E01EB7
:101CE0000001E01C0000F0380F8C70381FDC3870E9
:101CF0003CFC3870707C3860E03818E0E03818E15F
:101D0000E03818E1C07038E1C07038E1C07070E1AF
:101D1000C0E070E1E0E0E070F3F3C070FF7F807836
:101D20003E7F003C0000001E0000001F0000000F6E
:101D300080000003E0780001FFF800007FE000145D
:101D4000194B16010000F00000F00000F80001F847
:101D50000001F800039C00039C00039C00079E0008
:101D6000070E00070E000F0F000F0F000E07001EDA
:101D700007801FFF801FFF803FFFC03C03C038016A
:101D8000C07801E07801E07000E0F000F0F000F0D1
:101D900011194B160300FFF000FFFC00FFFE00E0EE
:101DA0003E00E00F00E00F00E00700E00700E00F5A
:101DB00000E00E00E03E00FFFC00FFFC00FFFE0024
:101DC000E01F00E00780E00380E00380E00380E0A4
:101DD0000380E00780E00F00FFFE00FFFE00FFF839
:101DE0000014194B18020001FC0007FF000FFF80D0
:101DF0001F07C03C01E03800E07000F0700070E0A8
:101E00000000E00000E00000E00000E00000E00072
:101E100000E00000E00000E00070F000707000F0F2
:101E20007800E03C01E03F07C01FFF8007FE000193
:101E3000F80012194B180300FFF000FFFC00FFFE32
:101E400000E01F00E00F00E00780E00380E0038077
:101E5000E001C0E001C0E001C0E001C0E001C0E07D
:101E600001C0E001C0E001C0E003C0E00380E00386
:101E700080E00780E00F00E01E00FFFE00FFFC0096
:101E8000FFF00011194B160300FFFF00FFFF00FFDA
:101E9000FF00E00000E00000E00000E00000E000E3
:101EA00000E00000E00000E00000FFFF00FFFF0096
:101EB000FFFF00E00000E00000E00000E00000E0C4
:101EC0000000E00000E00000E00000FFFF80FFFFF6
:101ED00080FFFF80101932140300FFFFFFFFFFFF98
:101EE000E000E000E000E000E000E000E000E000F2
:101EF000FFFCFFFCFFFCE000E000E000E000E00091
:101F0000E000E000E000E000E000E00016194B19FE
:101F1000010000FE0003FF800FFFC01F83F03E00A2
:101F2000F03C0078780038700038F00000E00000E5
:101F3000E00000E00000E00FFCE00FFCE00FFCE040
:101F4000001CF0001C70001C78003C38003C3C0079
:101F5000FC1F01FC0FFFDC07FF1C01FC1C12194BCE
:101F6000180300E001C0E001C0E001C0E001C0E0F2
:101F700001C0E001C0E001C0E001C0E001C0E0013B
:101F8000C0E001C0FFFFC0FFFFC0FFFFC0E001C015
:101F9000E001C0E001C0E001C0E001C0E001C0E03C
:101FA00001C0E001C0E001C0E001C0E001C00319D0
:101FB00019090300E0E0E0E0E0E0E0E0E0E0E0E07C
:101FC000E0E0E0E0E0E0E0E0E0E0E0E0E00D193259
:101FD00010010000380038003800380038003800A0
:101FE0003800380038003800380038003800380031
:101FF000380038E038E038E038E038F07878F07FC2
:10200000F03FE01F8014194B160300E003C0E00707
:1020100080E00F00E01E00E03C00E07800E0F0000F
:10202000E1E000E3C000E7C000EF8000FFC000FF78
:10203000C000F9E000F0F000E07000E07800E03C63
:1020400000E01C00E01E00E00F00E00780E003C09D
:10205000E003E0E001F00E1932120300E000E000BE
:10206000E000E000E000E000E000E000E000E00070
:10207000E000E000E000E000E000E000E000E00060
:10208000E000E000E000E000FFFCFFFCFFFC1519B1
:102090004B1B0300F00078F00078F800F8F800F827
:1020A000FC01F8FC01F8FC01F8EC01B8EE03B8EE15
:1020B00003B8E60338E70738E70738E30638E38E66
:1020C00038E38E38E38E38E18C38E1DC38E1DC38F7
:1020D000E0D838E0F838E0F838E07038E0703813CD
:1020E000194B180200F000E0F000E0F800E0FC00FE
:1020F000E0FC00E0FE00E0EF00E0E700E0E780E069
:10210000E3C0E0E3C0E0E1E0E0E0E0E0E0F0E0E0F8
:1021100078E0E038E0E03CE0E01CE0E01EE0E00FCA
:10212000E0E007E0E007E0E003E0E001E0E001E0FC
:1021300017194B19010000FE0003FF800FEFE01F8D
:1021400001F03E00F83C007878003C70001CF00084
:102150001EE0000EE0000EE0000EE0000EE0000EBB
:10216000E0000EE0000EF0001EF0001E78003C3C87
:1021700000783E00F81F01F00FEFE003FF8000FE43
:102180000011194B160300FFF800FFFE00FFFF00CF
:10219000E00F00E00780E00380E00380E00380E0E0
:1021A0000380E00380E00780E00F00FFFF00FFFEF8
:1021B00000FFF800E00000E00000E00000E00000A8
:1021C000E00000E00000E00000E00000E00000E0CF
:1021D0000000171A4E1A01FF00FE0003FF800FEFE8
:1021E000E01F01F03E00F83C007878003C70001CD5
:1021F000F0001EE0000EE0000EE0000EE0000EE039
:10220000000EE0000EE0000EF0001EF0021E780747
:102210003C3C07B83E03F81F01F00FEFF803FFBC8A
:1022200000FE1E00000C13194B180300FFFC00FFFA
:10223000FF00FFFF80E00780E003C0E001C0E00195
:10224000C0E001C0E001C0E003C0E00380E00F8017
:10225000FFFF00FFFE00FFFF00E00F80E00780E0CF
:102260000380E003C0E003C0E003C0E001C0E00180
:10227000C0E001C0E001E013194B16010003F800B3
:102280000FFE001FFF003C0F803803C07001C070BC
:1022900001C07000007800007C00003FC0001FF803
:1022A0000007FF00007F80000FC00001E00000E099
:1022B000E000E0F000E07001E07801C03E07C03FC0
:1022C000FF800FFE0003F80013194B140000FFFFFE
:1022D000E0FFFFE0FFFFE000E00000E00000E000C2
:1022E00000E00000E00000E00000E00000E000008E
:1022F000E00000E00000E00000E00000E00000E09E
:102300000000E00000E00000E00000E00000E0006D
:1023100000E00000E00000E00012194B180300E0AC
:1023200001C0E001C0E001C0E001C0E001C0E00187
:10233000C0E001C0E001C0E001C0E001C0E001C0B8
:10234000E001C0E001C0E001C0E001C0E001C0E088
:1023500001C0E001C0E001C0F003C07807807C0F3D
:10236000803FFF001FFE0003F00013194B16010011
:10237000F001E0F001E0F001E07001C07803C07806
:1023800003C03803803803803C07801C07001C070B
:10239000001E0F000E0E000E0E000F0E00071C0098
:1023A000071C00079C0003B80003B80003B8000135
:1023B000F00001F00000E00000E0001D19641F01C2
:1023C00000F0070078F0070078F00F8078700F8039
:1023D00070700F8070781DC0F0781DC0F0381DC07F
:1023E000E0381DC0E03838E0E03C38E1E01C38E17E
:1023F000C01C30E1C01C7071C01C7071C00E7073C5
:10240000800EE03B800EE03B800EE03B8007E03F2B
:102410008007C01F0007C01F0007C01F0003800EF9
:102420000003800E0014194B160100F800F078012B
:10243000E03C03C01C03C01E07800F07000F0F0005
:10244000079E00039C0003FC0001F80000F0000060
:10245000F00001F80001F800039C00079E00070E41
:10246000000F0F001E07801E07803C03C07801E0AC
:102470007801E0F000F015194B160000F0007878B4
:1024800000F07800E03C01E01C01C01E03C00E0714
:10249000800F0780078F00038E0003DE0001DC0041
:1024A00001FC0000F80000F800007000007000005F
:1024B000700000700000700000700000700000707C
:1024C0000000700000700012194B1401007FFFC063
:1024D0007FFFC07FFFC0000780000F80000F00005B
:1024E0001E00003C00003C0000780000F00001E00D
:1024F0000001E00003C0000780000780000F00001B
:102500001E00003C00003C0000780000F00000FFCE
:10251000FFC0FFFFC0FFFFC00620200902F9FCFC3E
:10252000E0E0E0E0E0E0E0E0E0E0E0E0E0E0E0E0AB
:10253000E0E0E0E0E0E0E0E0E0E0E0E0FCFC091802
:1025400030090000C000C000600060006000300082
:102550003000300010001800180018000C000C00AB
:102560000C00060006000600020003000300030042
:10257000018001800620200901F9FCFC1C1C1C1CA8
:102580001C1C1C1C1C1C1C1C1C1C1C1C1C1C1C1C8B
:102590001C1C1C1C1C1C1C1CFCFC0C0D1A10010B14
:1025A00006000F000F001F801980198039C030C04D
:1025B00070E060606060E070C0301202061200FAE5
:1025C000FFFFC0FFFFC00605050B0114E0F07038E7
:1025D0001C1012241201000FE03FF83C78703C7090
:1025E0001C001C003C01FC1FFC7E1C781CF01CE045
:1025F0001CE03CE07C79FE7FDF3F8F0F1932120236
:1026000000E000E000E000E000E000E000E000E3C7
:10261000E0EFF0FFF8F83CF01CF01EE00EE00EE0FA
:102620000EE00EE00EE00EF01EF01CFC3CFFF8EF9A
:10263000F0E7E00E122410010007C01FF03FF83849
:102640003C701C701CE000E000E000E000E000E0F6
:102650001CE01C701C78383FF81FF007C00F1932BF
:10266000120100000E000E000E000E000E000E0003
:102670000E07CE1FEE3FFE7C3E701EF01EE00EE009
:102680000EE00EE00EE00EE00EF01EF01E783E7F33
:10269000FE3FEE0FCE0F122412020007C01FF03FC4
:1026A000F8783C701CF00EE00EE00EFFFEFFFEE03E
:1026B00000E000F00E701E783C3FF81FF007C008E5
:1026C00019190901000F1F3C38383838FFFFFF384F
:1026D00038383838383838383838383838380F19C2
:1026E000321201F907CE1FEE3FFE7C3E701EF01E37
:1026F000E00EE00EE00EE00EE00EE00EF01E703E8A
:10270000783E3FFE1FEE078E000EE00EE01CF01C30
:102710007C783FF81FE00E1932120200E000E00062
:10272000E000E000E000E000E000E3E0EFF0FFF8B0
:10273000F83CF01CE01CE01CE01CE01CE01CE01C71
:10274000E01CE01CE01CE01CE01CE01CE01C031989
:1027500019070200E0E0E0E0000000E0E0E0E0E077
:10276000E0E0E0E0E0E0E0E0E0E0E0E0E0062020C3
:1027700007FFF91C1C1C1C0000001C1C1C1C1C1C42
:102780001C1C1C1C1C1C1C1C1C1C1C1C1C1C1C1C89
:102790003CFCF80F1932100100E000E000E000E01E
:1027A00000E000E000E000E078E0F0E1E0E3C0E716
:1027B00080EF00FF00FF00FB80F3C0E1C0E1E0E03C
:1027C000E0E0F0E078E038E03CE01E031919070291
:1027D00000E0E0E0E0E0E0E0E0E0E0E0E0E0E0E0D9
:1027E000E0E0E0E0E0E0E0E0E0E01712361B0200AD
:1027F000E3C0F0EFF3FCFFF7FCF87E1EF03C0EE0C8
:10280000380EE0380EE0380EE0380EE0380EE038D2
:102810000EE0380EE0380EE0380EE0380EE0380EEC
:10282000E0380EE0380E0E1224120200E3E0EFF85A
:10283000FFF8F83CF01CE01CE01CE01CE01CE01C75
:10284000E01CE01CE01CE01CE01CE01CE01CE01CA8
:102850000F122412010007C01FF03FF8783C701CD3
:10286000F01EE00EE00EE00EE00EE00EE00EF01EB8
:10287000701C783C3FF81FF007C00F19321202F9A4
:1028800003C0EFF0FFF8F83CF01CF01EE00EE00E85
:10289000E00EE00EE00EE00EF01EF01CF83CFFF83B
:1028A000EFF0E7E0E000E000E000E000E000E00042
:1028B000E0000F19321201F907C01FEE3FFE7C3E07
:1028C000701EF01EE00EE00EE00EE00EE00EE00ED8
:1028D000F01E701E783E3FFE1FEE0FCE000E000E63
:1028E000000E000E000E000E000E0812120B020069
:1028F000E7EFFFFCF0F0E0E0E0E0E0E0E0E0E0E067
:10290000E0E00D12241002000F803FE07FE070F045
:10291000E070E00070007E003FC007F000F000783B
:10292000E038E038F0707FF07FE01F80081616096D
:10293000010038383838FFFFFF3838383838383831
:1029400038383838383C3F1F0E1224120200E01C81
:10295000E01CE01CE01CE01CE01CE01CE01CE01C97
:10296000E01CE01CE01CE01CE03CF07C7FFC7FDC19
:102970001F1C0F1224100000E00EE00E701C701CD3
:10298000701C3838383838381C701C701C700EE0D9
:102990000EE00EE007C007C0038003801712361751
:1029A0000000E0380EE0380E707C1C707C1C706CEF
:1029B0001C38EE1C38EE3838EE3838C63818C630B9
:1029C0001DC7701DC7701DC7700D83600F83E00F9A
:1029D00083E00701C00701C00F1224100000F01EA1
:1029E000781C38383C701C700EE00FE007C0038084
:1029F00007C007C00FE01EE01C7038783838701C24
:102A0000F01E0E19321001F9E01CE01CF03870388D
:102A1000703870703870387038E03CE01CE01DC0D1
:102A20001DC00FC00F800F800700070007000E00B9
:102A30000E001C007C00780070000E1224100100B3
:102A40007FF87FF87FF8007800F000E001C003C055
:102A5000078007000E001C003C0078007000FFFC9F
:102A6000FFFCFFFC0820200B01F90F1F1C18181891
:102A7000181818181818383870E0E0703838181816
:102A8000181818181818181C1F0F021F1F0903F90F
:102A9000C0C0C0C0C0C0C0C0C0C0C0C0C0C0C0C036
:102AA000C0C0C0C0C0C0C0C0C0C0C0C0C0C0C008DE
:102AB00020200B01F9F0F8381818181818181818F1
:102AC000181C1C0E07070E1C1C18181818181818AC
:102AD000181838F8F00E060C13020918007C0C7F49
:102AE0000CC7DCC1F800F0FF000021002400270023
:102AF0002A002D003000330001010000040107010D
:102B00000A01000020002300260029002C002F00CD
:102B1000320000010000030106010901000022004B
:102B2000250028002B002E00310034000201000097
:102B3000050108010B01050505050705080808083A
:102B4000020202020A0A0808040404040101010145
:102B50000101010103030303030303030407070740
:102B60000C0C0C0C0C0C0C0C0202020206060606E5
:102B7000060606060B0B0B0B0B0B0B0B01021020B2
:102B800020080810204010204080020102010804A3
:102B90000201010204081020408080402010080437
:102BA0000201800402018040201008040201080490
:102BB00002010102040810204080010204081020D4
:102BC000408000000A0B02090C0D0E0807030401E7
:102BD00000000000000000000000000000000000F5
:102BE00000000000000000000000000000001211C2
:102BF00010000000000000000000000000000000C5
:102C000000000000000000001D1F11241FBECFEFB8
:102C1000D1E2DEBFCDBF00E00CBF12E0A0E0B2E029
:102C2000E8E4FFE300E00BBF02C007900D92A6337B
:102C3000B107D9F723E0A6E3B2E001C01D92A330AB
:102C4000B207E1F716E1C5E0D6E100E006C0219742
:102C50000109802FFE010E94961FC430D10780E039
:102C60000807A9F7A9D70C94A21F0C94000080E0D4
:102C70000895CF92DF92EF92FF920F931F93CF931D
:102C8000DF936C017A018B01C0E0D0E0CE15DF0547
:102C900081F0D8016D918D01D601ED91FC910190EB
:102CA000F081E02DC6011995892B11F02196EECF08
:102CB0007E01C701DF91CF911F910F91FF90EF909F
:102CC000DF90CF9008950895DC011696ED91FC9168
:102CD000179712968C91481B477081E090E001C0D5
:102CE000880F4A95EAF7E60FF11D3081222311F093
:102CF000832B02C08095832380830895FB0141814B
:102D0000DC0112962C911297421760F013962C91C9
:102D10001397241738F0608115962C91621710F4E0
:102D20002481D2CF0895FC0130819281930F928348
:102D30002181921760F494819F5F94838381830F34
:102D4000821710F08FEF820F838381E0089580E077
:102D50000895FC011282808181508383148208953A
:102D60000B96FC01849108950A96FC0184910895C4
:102D7000FC0184910895FCDF882321F0823011F05A
:102D800083E0089586E00895FC01E60FF11D84912B
:102D900090E0982F88273196E4918E0F911D089529
:102DA00068E0F2CF66E0F0CF2EE93FE0009729F02F
:102DB000F9013197F1F70197F9CF08951092BA020E
:102DC00008958093BB021092B90084FF02C08CE08A
:102DD00001C088E48093B800F1CFDB011496ED9137
:102DE000FC91159720E030E065E01994CF92DF92D6
:102DF000EF92FF920F931F93CF93DF938C017B0190
:102E00006A0180E0F601C49181110AC0CF3F09F444
:102E100054C04C2FB701C801E0DF81114CC052C033
:102E2000CF3F11F44FEFF6CFCE3F09F44DC0C03F76
:102E300008F041C0C03E58F04C2F4F70D701149697
:102E4000ED91FC91159720E030E062E00CC0C03DB0
:102E500068F04C2F4F70D7011496ED91FC911597A7
:102E600020E030E063E0C801199525C0C03CF0F0D7
:102E7000D7011496ED91FC91159720E030E040E0E9
:102E800064E0C8011995C295C07FCE5FD0E0CE0145
:102E90008BDFD7011496ED91FC91159720E030E07F
:102EA00041E064E0C8011995CE0104C0C7FD03C02C
:102EB0008C2F90E079DF80E001C081E0BFEFCB1A7A
:102EC000DB0AA0CF80E001C081E0DF91CF911F91AC
:102ED0000F91FF90EF90DF90CF900895AF92BF9247
:102EE000CF92DF92FF920F931F93CF93DF936C01EA
:102EF0008B01F42EE90120E1421709F453C0241795
:102F000098F03AE0431357C0DB011496ED91FC9121
:102F1000159720E030E042E061E0199544E251E08D
:102F2000B801C60163DF47C081E1481709F43DC01D
:102F3000A5E14A1340C0FB01A280B3804CE151E0FF
:102F4000C60154DFD50114964C91406BB801C601FF
:102F500044DFD8011496ED91FC91159720E030E004
:102F600041E062E0C6011995F50126813781D8015B
:102F70001496ED91FC911597D50115964C9166E04C
:102F8000C6011995811102C080E0C2C0D801149613
:102F9000ED91FC91159720E030E040E063E0C60140
:102FA000199509C043E151E002C048E051E0B80181
:102FB000C6011CDFACC0F80102811381F2E3FF16E9
:102FC00009F46FC0FF15B8F025E1F21609F474C0DA
:102FD00037E1F31609F485C084E1F81298C0D801EE
:102FE0001696ED91FC91179715968C919F01280FDD
:102FF000311DC9015AC0A6E4FA1609F481C0B7E42C
:10300000FB1609F480C0EBE3FE1281C089819B812D
:10301000913029F0933031F4482F885004C048E0B3
:10302000480F01C0482F51E0D80113962C91281762
:1030300008F450E031E0F8012281421708F430E052
:1030400021E0481708F020E0822F852B382319F45F
:10305000252309F45CC0CA80913061F038F09230C9
:1030600061F0933071F4FF24FA940CC0F12CDD244C
:10307000D39409C0FF24F39405C0F12CDD24DA9425
:1030800002C0F12CD12CC7FE03C0BE01C80136DE40
:1030900088818D0D888389818F0D8983CC0C99F768
:1030A00036C0BE01C8012ADE32C011928E179F07BA
:1030B000E1F7C8014EDE2BC0C80135DE882309F4D4
:1030C00063CFD8011696ED91FC91179715968C91C8
:1030D0009F01280F311DC90111928E179F07E1F73B
:1030E00016C01882D80112968C9112978983159672
:1030F0008C91159781508A8313968C918B8307C08E
:10310000F801858103C0D80111968C91888381E0F4
:10311000DF91CF911F910F91FF90DF90CF90BF90E3
:10312000AF900895089580E090E0089507D7DB01FF
:10313000ED91FC9119945F926F927F928F929F9282
:10314000AF92BF92CF92DF92EF92FF920F931F93B5
:10315000CF93DF93EC01E62EF42EC22E0C811D815D
:10316000C80106DED82E8C819D8105DE982E21E0D7
:10317000D21203C02FE0A22E02C0AA24AA948C81EE
:103180009D81F2DDD82E8C819D81EADDB82E8C8167
:103190009D8106DEE0E6EC1538F4009729F0080F73
:1031A000191F91E6D92E0FC08C819D81FBDDF0E4C3
:1031B000FC1538F4009729F0080F191F81E4D82E68
:1031C00002C00F5E1F4FBC1430F4188A1B8A1C8A81
:1031D000198A1A8A75C0BD14C0F3892D90E0F801D0
:1031E00024912F3F19F40F5F1F4F3FC0CD1034C003
:1031F0008C819D81BDDD98012F5F3F4FF8018823B1
:1032000011F0823091F484918B8BF90124912C8BF5
:10321000F8013396E491E88BF8013496E491E98B58
:10322000F8013596E491EA8B25C08491982F9F7020
:1032300092509A8B82958F70898BF9012491822FFD
:103240008F708C8B22952F702B8BF8013296E49126
:10325000E295EF70E88B0EC0F8013296E491EA2116
:103260009C012E0F311D020F131FBD1409F4ADCFA9
:10327000D394B5CF0115110519F18C819D817BDDAA
:103280002C899A89920FF91A9FEF920F9F0D3CA9F2
:103290004EA94F1518F0931728F402C0931770F039
:1032A0009F1560F43B899989E90E9FEF930F9E0D5E
:1032B0004BA95DA95E1530F4941730F4888933C0AA
:1032C00080E031C0941710F49E15C0F7080F111D4F
:1032D000395F732E769476947694622E6F0C5E012D
:1032E000FCE1AF0EB11C872C912C6F1439F35E2CCE
:1032F00068018C2D801B871590F4F60184916A81FA
:103300007B815C8EFD8E1F8E8E8F95014BE3CE01EF
:103310000EDFFFEFCF1ADF0A28E0520EEACF080DCA
:10332000191DF394E2CFDF91CF911F910F91FF9080
:10333000EF90DF90CF90BF90AF909F908F907F9055
:103340006F905F900895DF92EF92FF920F931F931B
:10335000CF93DF93EC01D62E1CAD0BAD7C0184E046
:10336000E80EF11CE98DFA8DC7011995412F480F20
:103370002D2D602FC701DFDE9BAD890F8BAF81E064
:1033800090E0DF91CF911F910F91FF90EF90DF9030
:1033900008959091BA02911102C08093BA020895E3
:1033A0001F93CF93DF931F921F92CDB7DEB720ED0F
:1033B00037E03A8329839091BC00982391F42981C6
:1033C0003A81232B49F48091BB02182F127081FDA2
:1033D00008C081E0DEDF06C029813A812150310931
:1033E000E8CF11E0812F0F900F90DF91CF911F91C7
:1033F000089584E98093BC0064E080E1D1CFCF934D
:103400008093BB0084E88093BC0063E080E8C8DF61
:10341000C82F882381F08091BB02C82FC27081FD24
:1034200009C08091B900887F883221F063E082E092
:10343000B0DF01C0C1E08C2FCF910895CF93DF930F
:10344000FC0123A5222369F0EC01D5D2811102C031
:1034500080E008C08EA1811180E4D1DF8823C1F310
:103460001BA681E0DF91CF9108950F931F93CF9317
:10347000C42F89016330B9F050F4613081F06230BB
:1034800009F03FC0FC0146A321E023A73AC0663003
:10349000E9F0673041F1653009F033C00CC0FC0140
:1034A00086A58FDC2EC0FC0116A221E023A74111C6
:1034B00028C09FDF26C0C2DF811103C09ADF80E0F1
:1034C00021C08C2F9CDF81111CC0F8CFB7DF88236F
:1034D000A9F3CC23B1F0F80181918F0190DF88230B
:1034E00069F3C150F6CFAADF882341F3CC2349F01A
:1034F000F801849184DF882329F00F5F1F4FC150AA
:10350000F5CF81E0CF911F910F9108951F920F92F7
:103510000FB60F9211240BB60F922F933F934F9338
:103520005F936F937F938F939F93AF93BF93CF934B
:10353000DF93EF93FF93C091780080917900D0E002
:10354000D82BD058D093B902C093B8028091B6025C
:103550009091B70201969093B7028093B602883E8D
:10356000934029F51092B7021092B6028AE376D200
:10357000892B59F480910E0290910F0249969093F5
:103580000F0280930E0280E045D18BE367D2892B36
:1035900071F480910E0290910F02181619062CF406
:1035A000499790930F0280930E0280E033D180916F
:1035B0000E0290910F028C179D0734F09195819522
:1035C0009109C817D90724F49093B9028093B802DF
:1035D0008091B8029091B90290589093A800809180
:1035E000B8028093AA00FF91EF91DF91CF91BF9134
:1035F000AF919F918F917F916F915F914F913F918B
:103600002F910F900BBE0F900FBE0F901F9018952B
:1036100090E0FC013197E231F10508F04DC08827B8
:10362000EE58FF4F8F4F82C4809180008F7703C088
:10363000809180008F7D809380000895809180002C
:10364000877FF9CF84B58F7702C084B58F7D84BD25
:1036500008958091B0008F7703C08091B0008F7D76
:103660008093B0000895809190008F7707C080917B
:1036700090008F7D03C080919000877F80939000A1
:1036800008958091A0008F7707C08091A0008F7D62
:1036900003C08091A000877F8093A000089580914F
:1036A00020018F7707C0809120018F7D03C080911A
:1036B0002001877F8093200108950F931F93CF935C
:1036C000DF931F92CDB7DEB70091C2021091C30203
:1036D000E091F102F091F20282E0199520E030E0F1
:1036E0004AE0B80180EC92E022DD182FE091F1026F
:1036F000F091F20283E01995E091F102F091F2026B
:1037000080E019951123A1F16091C2027091C3026A
:103710009E012F5F3F4F46E480EC92E008DD8981F7
:103720008093C0026091C2027091C3029E012F5F1C
:103730003F4F47E480EC92E0FADC89818093C1023C
:103740006091C2027091C30220E030E048E480EC56
:1037500092E0EDDC8093CB026091C2027091C302D3
:1037600023EF32E047E180EC92E0E1DC81E001C050
:1037700080E00F90DF91CF911F910F9108950F93EB
:103780001F93CF93DF938C01CCEBD2E0EDA9FEA980
:1037900082E01995EDA9FEA981E0199520E030E0BD
:1037A00044E1B80180EC92E0C2DC23EF32E047E173
:1037B000B80180EC92E0BBDCEDA9FEA980E0DF91CE
:1037C000CF911F910F911994FF920F931F93CF9355
:1037D000DF93082FF62E172FE091D502F091D60235
:1037E00080EC92E01995080FCF2DD12F10E0F12C2D
:1037F0002991222341F0402F6F2D80EC92E09BDC39
:10380000F80E180FF5CF812FDF91CF911F910F91F7
:10381000FF9008951F93CF93DF93EFECFBE2949119
:10382000E9E8FBE2D491E3E4FBE2C491CC23C9F0E4
:10383000182F992311F0892FEBDEEC2FF0E0EE0F1B
:10384000FF1FE45EF44DA591B4919FB7F894111158
:1038500004C08C91D095D82302C0EC91DE2BDC9370
:103860009FBFDF91CF911F9108958091C4029091E5
:10387000C502009709F437C02091D702FC0121113D
:1038800007C03596E491E093D802FC013C960FC046
:10389000213039F43F96E491E093D802FC01709610
:1038A00006C03D96E491E093D802FC013E96E49177
:1038B000E093D9028091D802082E000C990B209138
:1038C000D902821B910927FD93952091DA022034B9
:1038D00041F0829FC001112426E0969587952A9594
:1038E000E1F78093DB0208958F929F92AF92BF928F
:1038F0000F931F93CF93DF93CDB7DEB7A1970FB68A
:10390000F894DEBF0FBECDBF19A2423008F44AE0E2
:103910008E010F5D1F4F842E912CA12CB12CA5017F
:103920009401E2D2E62FB901CA0101501109EA302F
:1039300014F4E05D01C0E95CD801EC93232B242B47
:10394000252B69F70115110569F0F8010190002098
:10395000E9F73197AF01401B510BB8018CEB92E0B6
:1039600088D902C080E090E0A1960FB6F894DEBF3F
:103970000FBECDBFDF91CF911F910F91BF90AF9040
:103980009F908F9008950F931F93CF93E091CE0255
:10399000F091CF02309719F080EC92E019950091E8
:1039A000C2021091C302E091F102F091F20282E0B2
:1039B0001995E091F102F091F20281E0199520E071
:1039C00030E045E1B80180EC92E0B1DBC82F8823FC
:1039D00039F023EF32E047E1B80180EC92E0A7DB59
:1039E000E091F102F091F20280E019958C2FCF91D5
:1039F0001F910F910895CF9384EA8093BC0061E0FA
:103A000080E8CEDC882351F08091B900887F88302F
:103A100039F0803129F061E082E0BBDCC0E01BC0FE
:103A200088E78093BB0084E88093BC0062E080E874
:103A3000B7DC882399F38091BB02C82FC27081FD47
:103A400009C08091B900887F883121F062E082E06E
:103A5000A0DC01C0C1E08C2FCF910895CF93DF93FC
:103A6000282F30E0F901EE53F44D8491F901E45828
:103A7000F44DD491F901EA5CF44DC491CC2389F062
:103A80008111C6DDEC2FF0E0EE0FFF1FEE5FF44D6D
:103A9000A591B491EC91ED2381E090E021F480E0D8
:103AA00002C080E090E0DF91CF910895CF93DF9343
:103AB00090E0FC01E458F44D2491FC01EA5CF44DE3
:103AC0008491882361F190E0880F991FFC01E851EF
:103AD000F54DC591D491FC01E45EF44DA591B491EE
:103AE000611109C09FB7F89488812095822388834B
:103AF000EC912E230BC0623061F49FB7F89488815B
:103B0000322F309583238883EC912E2B2C939FBFEB
:103B100006C08FB7F894E8812E2B28838FBFDF91E2
:103B2000CF9108951F920F920FB60F9211242F93E9
:103B30003F938F939F93AF93BF938091FF02909198
:103B40000003A0910103B09102033091FE0223E033
:103B5000230F2D3720F40196A11DB11D05C026E8C5
:103B6000230F0296A11DB11D2093FE028093FF0238
:103B700090930003A0930103B09302038091FA0293
:103B80009091FB02A091FC02B091FD020196A11D53
:103B9000B11D8093FA029093FB02A093FC02B093B4
:103BA000FD02BF91AF919F918F913F912F910F9007
:103BB0000FBE0F901F901895789484B5826084BDD5
:103BC00084B5816084BD85B5826085BD85B5816021
:103BD00085BD80916E00816080936E00109281009F
:103BE000809181008260809381008091810081605A
:103BF000809381008091800081608093800080911B
:103C0000B10084608093B1008091B00081608093A6
:103C1000B00080919100826080939100809191002A
:103C200081608093910080919000816080939000EA
:103C30008091A10082608093A1008091A1008160A9
:103C40008093A1008091A00081608093A00080916A
:103C50002101826080932101809121018160809304
:103C600021018091200181608093200180917A0060
:103C7000846080937A0080917A00826080937A00D9
:103C800080917A00816080937A0080917A008068C8
:103C900080937A001092C10062E08CE007DF62E05E
:103CA00082E004DF62E08BE301DF62E08AE3FEDEB4
:103CB00061E08DE0FBDE61E086E0F8DE61E087E058
:103CC000F5DE80E680937C0085EE80937A0010928A
:103CD0007B0081E080937E0080EA8093A00081E1F8
:103CE0008093A10080E2809372001092A7008FEF72
:103CF0008093A60084B1866084B9789400E010E0D7
:103D000098E6E92E97E1F92EC7E3D6E12AE4C22E20
:103D100021E0D22E3FE7A32E3EE0B32E99249394C8
:103D200080E4882E8CE09ADE892B09F45CC081E067
:103D300071DD8091F902811103C09092F902BDDC1E
:103D40008091C2029091C3021ADD8091C4029091C9
:103D5000C5028F579E4049F0B092C502A092C4029E
:103D600084DDD093D602C093D5026CE172E08EE17F
:103D70002BDD8EE18093F7028092F8028091C402DD
:103D80009091C5028A54914049F0D092C502C092E8
:103D9000C4026BDDD093D602C093D50240900E02D0
:103DA00050900F02052C000C6608770877FE0DC0B6
:103DB0006DE28CEB92E0C7DA66277727CB016419B6
:103DC0007509860997094AE003C04AE0C301B201B8
:103DD0008BDDD9DD8111B9CF0115110509F4A2CF11
:103DE0000E9400009BCF80E015DD8091F9028111D7
:103DF00003C09092F90261DC8091C2029091C302EB
:103E0000BEDC8091C4029091C5028856974149F06A
:103E1000F092C502E092C40228DDD093D602C0938E
:103E2000D50267E272E08EE1CFDC6EE272E08CE3F5
:103E3000CBDCA9DD8111E5CFCFCF1092BF0210926C
:103E4000BE0284E192E09093BD028093BC02109286
:103E5000F7021092F8021092F9021092C502109225
:103E6000C4021092C7021092C6021092C90281E0E9
:103E70008093C80282E28093CA021092CF0210920D
:103E8000CE02E3EEF2E08FEF819392E0E13FF9079B
:103E9000D9F781E08093E00227E336E13093D60240
:103EA0002093D5028093D7021092D8021092D902A3
:103EB00080E48093DA021092DB0283E696E190932D
:103EC000F2028093F10288E092E09093C302809323
:103ED000C20282E08093EE02F0DB84E192E09093F4
:103EE000BD028093BC020895A1E21A2EAA1BBB1B3F
:103EF000FD010DC0AA1FBB1FEE1FFF1FA217B307B6
:103F0000E407F50720F0A21BB30BE40BF50B661FCB
:103F1000771F881F991F1A9469F76095709580958F
:103F200090959B01AC01BD01CF010895EE0FFF1FDD
:103F3000881F8BBF0790F691E02D199481E090E0E7
:083F4000F89400C0F894FFCFD3
:103F480008400000008036026E170002351A70170C
:103F580000000000A31939169318921844495354C5
:103F68004F5254494F4E0045464645435400202081
:063F7800204F4646200028
:00000001FF
