:10000000D0C70000FEC70000FCC70000FAC7000010
:10001000F8C70000F6C70000F4C70000F2C70000F0
:10002000F0C70000EEC70000ECC70000EAC7000000
:10003000E8C70000E6C70000E4C70000E2C7000010
:10004000E0C70000DEC70000DCC70000DAC7000020
:10005000D8C70000D6C70000D4C700000C94F20D2A
:10006000D0C70000CEC70000CCC70000CAC7000040
:10007000C8C70000C6C70000C4C70000C2C7000050
:10008000C0C70000BEC70000BCC70000BAC7000060
:10009000B8C70000B6C70000B4C70000B2C7000070
:1000A000B0C700000C943C0EACC70000AAC700000B
:1000B000A8C70000A6C70000A4C70000A2C7000090
:1000C000A0C700009EC700009CC700009AC70000A0
:1000D00098C7000096C7000094C7000092C70000B0
:1000E00090C700001E082108100814081A085808B4
:1000F000250829082F08330837083D084108450816
:1001000058084B084F085308FFE0FFD1AFFF32FFFC
:10011000D0FFFEFFE0FFD1AEFFD0FFFEFFE0FFD13A
:100120001002FFFEFFD0FFE0FFC1FFD1AED580A8D7
:100130003FD300408D142002A1C8DA1281CFD9F13B
:10014000DB402EA4A6AFFFD0FFFE0000210024005C
:1001500027002A002D0030003300010100000401B7
:1001600007010A01000020002300260029002C00BE
:100170002F00320000010000030106010901000008
:100180002200250028002B002E003100340002013F
:100190000000050108010B01050505050705080814
:1001A0000808020202020A0A080804040404010101
:1001B0000101010101010303030303030303040716
:1001C00007070C0C0C0C0C0C0C0C020202020606AD
:1001D0000606060606060B0B0B0B0B0B0B0B0102A0
:1001E0001020200808102040102040800201020149
:1001F0000804020101020408102040808040201001
:100200000804020180040201804020100804020159
:1002100008040201010204081020408001020408C1
:100220001020408000000A0B02090C0D0E08070385
:1002300004010000000000000000000000000000B9
:1002400000000000000000000000000000000000AE
:10025000121110000000000000000000000000006B
:1002600000000000000000000000001C25FDF81345
:1002700004250931207FFB14FB13FB00000006005E
:1002800001021313060200C0C0C0C0C0C0C0C0C07D
:10029000C0C0C080800000C0C0C006060608010DB6
:1002A000CCCCCCCCCC440B11220E02000CC00CC028
:1002B0000CC01980FFE0FFE0198019803300330083
:1002C000FFE0FFE0330033006600660066000B16B7
:1002D0002C0D01FE060006001F803FC076E0666020
:1002E0006660660076003E003E000F8007C006E0B4
:1002F0000660C660C660E6E07FC03F80060006007C
:100300001312361601000006003C0C007E0C00C3E0
:100310001800C31800C33000C330007E60003C608A
:100320000000C00000C780018FC001986003186002
:10033000031860061860060FC00407800E1224110F
:1003400002000F001F8039C030C030C030C019809B
:100350000F001E003F18739861D8C0F0C060C0F055
:10036000E1D87F9C1E0002060606020DC0C0C0C078
:10037000C0400518180802FB18183030606060C0D3
:10038000C0C0C0C0C0C0C0C0C060606030301818FD
:100390000518180801FBC0C060603030301818180C
:1003A000181818181818183030306060C0C00707C7
:1003B000070A010C1010D67C386C440C0C180E0186
:1003C0000106000600060006000600FFF0FFF0062A
:1003D0000006000600060006000206060602FDC032
:1003E000C0C0404080060202080106FCFC02030374
:1003F000060200C0C0C007131307000006040C0C5F
:100400000818181010303020606040C0C080800B89
:1004100012240D01001F003F8071C060C060C0E069
:10042000E0C060C060C060C060C060C060E0E0600C
:10043000C060C071C03F801F000612120D02000C88
:100440000C1CFCFC0C0C0C0C0C0C0C0C0C0C0C0CFC
:100450000C0B12240D01001E007F8061C0C0C0C0C3
:1004600060C06000E000C001C003800F001C0038C5
:10047000007000E000C000FFE0FFE00B12240D015F
:10048000001F007F806180C0C0C0C0C0C000C0012C
:10049000800F000FC000C000600060C060C0C0617D
:1004A000C07F801F000B12240D0100018003800318
:1004B0008007800F800D801980398031806180E154
:1004C00080C180FFE0FFE001800180018001800B9E
:1004D00012240D01007FC07FC060006000600060DA
:1004E000007E007F8071C000C000E000600060C03E
:1004F000E0C0C0E1C07F801E000B12240D01000F80
:10050000003FC070C06060E060C000C000CF00DF8E
:1005100080F1C0E0C0C060C060C060E0E071C07F3A
:10052000C01F000B12240D0100FFE0FFE000E000FF
:10053000C00180018003000300060006000C000CCF
:10054000001C00180018003800300030000B122486
:100550000D01000E003F80318060C060C060C0317E
:10056000801F003F8071C060C0C060C060C060C0BC
:100570006060C07FC01F000B12240D01001F007FB0
:10058000C071C0E0C0C060C060C060C060E0E07129
:10059000E07F601E60006000E0C0C0E1C07F801EA0
:1005A00000020E0E060200C0C0C0000000000000E5
:1005B0000000C0C0C00211110602FDC0C0C0000092
:1005C000000000000000C0C0C04040800C0C180FAC
:1005D0000101003000F003C00F003C00E000E0002B
:1005E0003C000F0003C000F000300A050A0F0205AE
:1005F000FFC0FFC00000FFC0FFC00C0C180F0101BE
:10060000C000F0003C000F0003C00070007003C089
:100610000F003C00F000C0000A13260C01001F0070
:100620007F8071C0E0C0C0C0C1C0018003800700EE
:1006300006000C000C000C000C00000000000C0078
:100640000C000C001617451902FC00FF0003FFC048
:100650000F01E01C007038001830001860730C6047
:10066000FB0CC1C70CC3860CC3060CC6060CC60C1B
:100670001CC60C18C60C38E71C7063F7E071E380E9
:100680003800001C00000F030007FF0000FC000FF3
:1006900013261101000380038006C006C00C400C25
:1006A000600C6018301830183030183FF83FF86090
:1006B0000C600C600CC006C006C0060E13261102AA
:1006C00000FFC0FFF0C070C018C018C018C018C02C
:1006D00030FFE0FFF0C018C00CC00CC00CC00CC054
:1006E0001CC078FFF0FFC00F132612010007E01FA7
:1006F000F83C3C700E6006E006C000C000C000C0C0
:1007000000C000C000C000E0066006700E3C3C1F48
:10071000F807E00F1326120200FFC0FFF0C078C0F8
:100720001CC00CC00EC006C006C006C006C006C075
:1007300006C006C00EC00CC01CC078FFF0FFC00C85
:100740001326100200FFF0FFF0C000C000C000C080
:1007500000C000C000FFE0FFE0C000C000C000C05B
:1007600000C000C000C000FFF0FFF00B13260E0217
:1007700000FFE0FFE0C000C000C000C000C000C03B
:1007800000FFC0FFC0C000C000C000C000C000C06B
:1007900000C000C000C00010132613010007E01FB6
:1007A000F83C3C700E6006E006C000C000C000C00F
:1007B0007FC07FC003C003E0036007700F3C3F1F92
:1007C000FB07E30E1326120200C00CC00CC00CC0C5
:1007D0000CC00CC00CC00CC00CFFFCFFFCC00CC05B
:1007E0000CC00CC00CC00CC00CC00CC00CC00C0267
:1007F0001313080300C0C0C0C0C0C0C0C0C0C0C088
:10080000C0C0C0C0C0C0C0C00A13260D010000C0D7
:1008100000C000C000C000C000C000C000C000C0D8
:1008200000C000C000C0C0C0C0C0C0C0C0C06180A7
:100830007F803F000D1326120300C038C070C0E057
:10084000C1C0C380C700CE00DC00FC00FE00E70092
:10085000C380C180C1C0C0E0C060C070C038C018D3
:100860000B13260E0200C000C000C000C000C00074
:10087000C000C000C000C000C000C000C000C00078
:10088000C000C000C000C000FFE0FFE01113391538
:100890000200C00180E00380E00380F00780F007E1
:1008A00080D80D80D80D80D80D80CC1980CC1980CF
:1008B000CC1980C63180C63180C63180C36180C307
:1008C0006180C36180C1C180C1C1800E1326120244
:1008D00000E00CF00CF00CD80CDC0CCC0CCE0CC6F0
:1008E0000CC70CC30CC38CC18CC1CCC0CCC0ECC039
:1008F0006CC03CC03CC01C10132612010007E01F56
:10090000F83C3C700E6006E007C003C003C003C0A3
:1009100003C003C003C003E0076006700E3C3C1F29
:10092000F807E00D1326100200FFE0FFF0C030C012
:1009300018C018C018C018C030FFF0FFE0C000C0D9
:1009400000C000C000C000C000C000C000C0001057
:10095000132612010007E01FF83C3C700E6006E011
:1009600007C003C003C003C003C003C003C003E04B
:100970000760E6707E3C1C1FFE07E70D1326110280
:1009800000FFE0FFF0C030C018C018C018C018C089
:1009900030FFF0FFE0C070C030C018C018C018C0F1
:1009A00018C018C018C0180D13261002000F803F81
:1009B000E06060C030C030C000E0007C003F8007D5
:1009C000E000F0003800180018C018C038F0707F40
:1009D000E01F800E1326100100FFFCFFFC03000344
:1009E00000030003000300030003000300030003EF
:1009F0000003000300030003000300030003000ED4
:100A00001326120200C00CC00CC00CC00CC00CC0DD
:100A10000CC00CC00CC00CC00CC00CC00CC00CC076
:100A20000CC00C601870383FF00FC00F1326110176
:100A300000C006C006E00E600C701C30183018387C
:100A400038183018301C700C600C600EE006C006C0
:100A5000C0038003800380141339160100C0603086
:100A6000C06030C06030C0F03060F060619860619C
:100A700098606198606198603198C0330CC0330C05
:100A8000C0330CC01B0D801B0D801E07800E07009D
:100A90000C03000C03000F1326110100C006E00E2A
:100AA000701C301818301C700EE007C003800380E3
:100AB00007C00EE00C601C7038383018600CE00E77
:100AC000C0060E1326100100C00CE01C6018703820
:100AD0003030387018601CE00CC00FC007800780F1
:100AE00003000300030003000300030003000D13D1
:100AF000260F0100FFF8FFF80038007000E001C089
:100B000001C00380070007000E001C001C00380015
:100B100070007000E000FFF8FFF80418180702FBEF
:100B2000F0F0C0C0C0C0C0C0C0C0C0C0C0C0C0C065
:100B3000C0C0C0C0C0C0F0F0081313070000C04020
:100B400040602020301010101808080C0404060221
:100B5000030418180701FBF0F0303030303030302B
:100B600030303030303030303030303030F0F00A2B
:100B700009120C010A0C000C001E00120033006167
:100B8000806180C0C0C0C00E02040E00FBFFFCFFED
:100B9000FC05040407010FC06030180B0E1C0D018A
:100BA000001F003F8061C060C000C007C03FC07828
:100BB000C0E0C0C0C0C1C0E3C07EE03C600B1326F3
:100BC0000E0200C000C000C000C000C000CF00DFA7
:100BD00080F1C0E0C0C0E0C060C060C060C060C064
:100BE000E0E0C0F1C0DF80CF000A0E1C0C01001F46
:100BF000003F8071C060C0E000C000C000C000C005
:100C000000E00060C071C03F801F000B13260E0182
:100C100000006000600060006000601E603F607166
:100C2000E060E0E060C060C060C060C060E0606044
:100C3000E071E03F601E600B0E1C0D01000E003FD6
:100C40008071C060C0C060C060FFE0FFE0C000C055
:100C500000606070E03FC00F000613130801001C25
:100C60003C303030FCFC30303030303030303030E0
:100C700030300B13260E01FB1E603F6071E060E018
:100C8000E060C060C060C060C060E06060E071E0D3
:100C90003F601E600060C060E0C07FC01F000A139C
:100CA000260D0200C000C000C000C000C000CE0081
:100CB000DF80F180E0C0C0C0C0C0C0C0C0C0C0C044
:100CC000C0C0C0C0C0C0C0C0C0C002131306020074
:100CD000C0C0C00000C0C0C0C0C0C0C0C0C0C0C094
:100CE000C0C0C00418180600FB303030000030309F
:100CF000303030303030303030303030303030F034
:100D0000E00A13260C0200C000C000C000C000C0F2
:100D100000C180C380C700CE00DC00F800FC00CE1C
:100D200000C600C700C380C180C1C0C0C002131389
:100D3000060200C0C0C0C0C0C0C0C0C0C0C0C0C0EB
:100D4000C0C0C0C0C0C0100E1C140200CE3CFF7E4C
:100D5000E3C7C183C183C183C183C183C183C1830D
:100D6000C183C183C183C1830A0E1C0E0200CE0061
:100D7000DF80F180E0C0C0C0C0C0C0C0C0C0C0C083
:100D8000C0C0C0C0C0C0C0C0C0C00B0E1C0D0100A0
:100D90001F003F8071C060C0E0E0C060C060C06004
:100DA000C060E0E060C071C03F801F000B13260EE2
:100DB00002FBCF00DF80F1C0E0C0C0E0C060C060D7
:100DC000C060C060C0E0E0C0F1C0DF80CF00C00004
:100DD000C000C000C000C0000B13260E01FB1E6047
:100DE0003F6071E060E0E060C060C060C060C06013
:100DF000E06060E071E03F601E60006000600060E5
:100E000000600060060E0E090200CCDCF8F0E0C0C5
:100E1000C0C0C0C0C0C0C0C00A0E1C0C01003F0052
:100E20007F80E1C0C0C0C000F8007F000F8001C01B
:100E3000C0C0C0C0E1C07F803F00061212080100A0
:100E400030303030FCFC303030303030303030300A
:100E50003C1C0A0E1C0E0200C0C0C0C0C0C0C0C0F6
:100E6000C0C0C0C0C0C0C0C0C0C0C0C0C1C063C0DE
:100E70007EC01CC00B0E1C0D0100C060C060C060B5
:100E800060C060C071C0318031801B001B001B003E
:100E90000E000E000E00120E2A120000C0C0C0C0CC
:100EA000C0C061E18061E18061E1803123003333C2
:100EB000003333001B36001A16001E1E000E1C00E5
:100EC0000C0C000C0C000A0E1C0C0100C0C0E1C090
:100ED000618033001E001E000C001E001E00330047
:100EE00073806180C0C0C0C00C13260D00FBC030F1
:100EF000C03060307060306038E018C018C00D80BD
:100F00000D800780070003000300060006000C00A8
:100F10003C0038000A0E1C0C0100FFC0FFC001801D
:100F2000030007000E000C001C00380030006000B9
:100F3000E000FFC0FFC00618180801FB0C18303095
:100F400030303030303060C0C06030303030303021
:100F50003030180C0118180602FB808080808080D9
:100F60008080808080808080808080808080808081
:100F700080800618180801FBC060303030303030F7
:100F80003030180C0C18303030303030303060C019
:100F90000A04080E020570C0FCC0CFC0C380FF0069
:100FA0008A1011241FBECFEFD1E2DEBFCDBF00E01B
:100FB0000CBF16E0A0E0B2E0E8E7F2E200E00BBF11
:100FC00002C007900D92AE32B107D9F727E0AEE22A
:100FD000B6E001C01D92A330B207E1F717E0C1ED02
:100FE000D7E000E006C021970109802FFE010E9492
:100FF0002E11C03DD10780E00807A9F715D70C9442
:101000003A110C94000090E0FC013197E231F105B7
:1010100008F04EC08827EE58FF4F8F4F0C942E11CA
:10102000809180008F7703C0809180008F7D8093B6
:101030008000089580918000877FF9CF84B58F77F5
:1010400002C084B58F7D84BD08958091B0008F77F4
:1010500003C08091B0008F7D8093B000089580918F
:1010600090008F7707C0809190008F7D03C08091A2
:101070009000877F8093900008958091A0008F77E3
:1010800007C08091A0008F7D03C08091A000877F62
:101090008093A0000895809120018F7707C08091F0
:1010A00020018F7D03C080912001877F80932001E4
:1010B00008951F93CF93DF93E1E3F2E09491EBEE79
:1010C000F1E0D491E5EAF1E0C491CC23C9F0182F06
:1010D000992311F0892F97DFEC2FF0E0EE0FFF1F1F
:1010E000E258FE4FA591B4919FB7F894111104C036
:1010F0008C91D095D82302C0EC91DE2BDC939FBF5E
:10110000DF91CF911F910895CF93DF93282F30E087
:10111000F901EC5DFD4F8491F901E252FE4FD4914B
:10112000F901E856FE4FC491CC2389F081116BDFA1
:10113000EC2FF0E0EE0FFF1FEC59FE4FA591B4919C
:10114000EC91ED2381E090E021F480E002C080E0AA
:1011500090E0DF91CF910895CF93DF9390E0FC0171
:10116000E252FE4F2491FC01E856FE4F8491882301
:1011700061F190E0880F991FFC01E65BFE4FC5917D
:10118000D491FC01E258FE4FA591B491611109C0C0
:101190009FB7F8948881209582238883EC912E2331
:1011A0000BC0623061F49FB7F8948881322F30957C
:1011B00083238883EC912E2B2C939FBF06C08FB77F
:1011C000F894E8812E2B28838FBFDF91CF9108956B
:1011D00080E00895CF92DF92EF92FF920F931F93DA
:1011E000CF93DF936C017A018B01C0E0D0E0CE1584
:1011F000DF0581F0D8016D918D01D601ED91FC9153
:101200000190F081E02DC6011995892B11F02196EE
:10121000EECF7E01C701DF91CF911F910F91FF901B
:10122000EF90DF90CF9008950895DC011696ED9130
:10123000FC91179712968C91481B477081E090E0C3
:1012400001C0880F4A95EAF7E60FF11D308122238D
:1012500011F0832B02C08095832380830895FB01C6
:101260004181DC0112962C911297421760F013967F
:101270002C911397241738F0608115962C916217E2
:1012800010F42481D2CF0895FC0130819281930F14
:1012900092832181921760F494819F5F948383816C
:1012A000830F821710F08FEF820F838381E0089500
:1012B00080E00895FC011282808181508383148232
:1012C0000895DB01ED91FC9119940F931F93CF9337
:1012D000DF931F92CDB7DEB70091CB061091CC06FD
:1012E000E091FA06F091FB0682E0199520E030E0EB
:1012F0004AE0B80189EC96E0E4DF182FE091FA06A5
:10130000F091FB0683E01995E091FA06F091FB0657
:1013100080E019951123A1F16091CB067091CC0664
:101320009E012F5F3F4F46E489EC96E0CADF89813A
:101330008093C9066091CB067091CC069E012F5F09
:101340003F4F47E489EC96E0BCDF89818093CA0671
:101350006091CB067091CC0620E030E048E489EC47
:1013600096E0AFDF8093D4066091CB067091CC06F7
:101370002CEF36E047E189EC96E0A3DF81E001C085
:1013800080E00F90DF91CF911F910F9108950B9600
:10139000FC01849108950A96FC0184910895FC0152
:1013A00084910895FCDF882321F0823011F083E0DE
:1013B000089586E00895FC01E60FF11D849190E008
:1013C000982F88273196E4918E0F911D089568E03B
:1013D000F2CF66E0F0CF5F926F927F928F929F92F2
:1013E000AF92BF92CF92DF92EF92FF920F931F9333
:1013F000CF93DF93EC01E62EF42EC22E0C811D81DB
:10140000C801CDDFD82E8C819D81CCDF982E21E0C4
:10141000D21203C02FE0A22E02C0AA24AA948C816B
:101420009D81B9DFD82E8C819D81B1DFB82E8C8152
:101430009D81CDDFE0E6EC1538F4009729F0080F28
:10144000191F91E6D92E0FC08C819D81C2DFF0E477
:10145000FC1538F4009729F0080F191F81E4D82EE5
:1014600002C00F5E1F4FBC1430F4188A1B8A1C8AFE
:10147000198A1A8A75C0BD14C0F3892D90E0F8014D
:1014800024912F3F19F40F5F1F4F3FC0CD1034C080
:101490008C819D8184DF98012F5F3F4FF801882365
:1014A00011F0823091F484918B8BF90124912C8B73
:1014B000F8013396E491E88BF8013496E491E98BD6
:1014C000F8013596E491EA8B25C08491982F9F709E
:1014D00092509A8B82958F70898BF9012491822F7B
:1014E0008F708C8B22952F702B8BF8013296E491A4
:1014F000E295EF70E88B0EC0F8013296E491EA2194
:101500009C012E0F311D020F131FBD1409F4ADCF26
:10151000D394B5CF0115110519F18C819D8142DF5E
:101520002C899A89920FF91A9FEF920F9F0D3CA96F
:101530004EA94F1518F0931728F402C0931770F0B6
:101540009F1560F43B899989E90E9FEF930F9E0DDB
:101550004BA95DA95E1530F4941730F4888933C027
:1015600080E031C0941710F49E15C0F7080F111DCC
:10157000395F732E769476947694622E6F0C5E01AA
:10158000FCE1AF0EB11C872C912C6F1439F35E2C4B
:1015900068018C2D801B871590F4F60184916A8177
:1015A0007B815C8EFD8E1F8E8E8F95014BE3CE016D
:1015B00088DEFFEFCF1ADF0A28E0520EEACF080DCF
:1015C000191DF394E2CFDF91CF911F910F91FF90FE
:1015D000EF90DF90CF90BF90AF909F908F907F90D3
:1015E0006F905F900895FF920F931F93CF93DF93B7
:1015F000082FF62E172FE091DE06F091DF0689EC1A
:1016000096E01995080FCF2DD12F10E0F12C2991DC
:10161000222341F0402F6F2D89EC96E0DCDEF80E9E
:10162000180FF5CF812FDF91CF911F910F91FF9070
:1016300008952EE93FE0009729F0F9013197F1F77D
:101640000197F9CF08959091BA06911102C0809345
:10165000BA0608951F93CF93DF931F921F92CDB7C1
:10166000DEB720ED37E03A8329839091BC009823C0
:1016700091F429813A81232B49F48091C406182FD3
:10168000127081FD08C081E0DEDF06C029813A8149
:1016900021503109E8CF11E0812F0F900F90DF9199
:1016A000CF911F910895CF9384EA8093BC0061E0AD
:1016B00080E8D0DF882351F08091B900887F88309E
:1016C00039F0803129F061E082E0BDDFC0E01BC06D
:1016D00088E78093BB0084E88093BC0062E080E8E8
:1016E000B9DF882399F38091C406C82FC27081FDA9
:1016F00009C08091B900887F883121F062E082E0E2
:10170000A2DF01C0C1E08C2FCF91089584E98093BE
:10171000BC0064E080E19ECFCF938093BB0084E85F
:101720008093BC0063E080E895DFC82F882381F0B8
:101730008091C406C82FC27081FD09C08091B90094
:10174000887F883221F063E082E07DDF01C0C1E064
:101750008C2FCF9108951092BA0608958093C406F5
:101760001092B90084FF02C08CE001C088E480932D
:10177000B800F1CFCF93DF93FC0123A5222369F0BA
:10178000EC0191DF811102C080E008C08EA18111BF
:1017900080E4C2DF8823C1F31BA681E0DF91CF91F3
:1017A00008950F931F93CF93C42F89016330B9F02D
:1017B00050F4613081F0623009F03FC0FC0146A373
:1017C00021E023A73AC06630E9F0673041F1653087
:1017D00009F033C00CC0FC0186A5C0DF2EC0FC019F
:1017E00016A221E023A7411128C090DF26C0C2DF46
:1017F000811103C08BDF80E021C08C2F8DDF811130
:101800001CC0F8CFB7DF8823A9F3CC23B1F0F801CF
:1018100081918F0181DF882369F3C150F6CFAADF60
:10182000882341F3CC2349F0F801849175DF8823A4
:1018300029F00F5F1F4FC150F5CF81E0CF911F916D
:101840000F910895DB011496ED91FC91159720E01E
:1018500030E065E01994CF92DF92EF92FF920F9300
:101860001F93CF93DF938C017B016A0180E0F60127
:10187000C49181110AC0CF3F09F454C04C2FB70165
:10188000C801E0DF81114CC052C0CF3F11F44FEFCF
:10189000F6CFCE3F09F44DC0C03F08F041C0C03E76
:1018A00058F04C2F4F70D7011496ED91FC9115977D
:1018B00020E030E062E00CC0C03D68F04C2F4F707B
:1018C000D7011496ED91FC91159720E030E063E08C
:1018D000C801199525C0C03CF0F0D7011496ED91D0
:1018E000FC91159720E030E040E064E0C8011995D4
:1018F000C295C07FCE5FD0E0CE019BDED7011496AB
:10190000ED91FC91159720E030E041E064E0C801E2
:101910001995CE0104C0C7FD03C08C2F90E089DE6D
:1019200080E001C081E0BFEFCB1ADB0AA0CF80E0EE
:1019300001C081E0DF91CF911F910F91FF90EF9057
:10194000DF90CF900895AF92BF92CF92DF92FF9237
:101950000F931F93CF93DF936C018B01F42EE9015A
:1019600020E1421709F453C0241798F03AE04313DA
:1019700057C0DB011496ED91FC91159720E030E003
:1019800042E061E0199544E251E0B801C60163DF2D
:1019900047C081E1481709F43DC0A5E14A1340C0A2
:1019A000FB01A280B3804CE151E0C60154DFD501B8
:1019B00014964C91406BB801C60144DFD8011496CF
:1019C000ED91FC91159720E030E041E062E0C60126
:1019D0001995F50126813781D8011496ED91FC9176
:1019E0001597D50115964C9166E0C60119958111A0
:1019F00002C080E0C2C0D8011496ED91FC91159709
:101A000020E030E040E063E0C601199509C043E101
:101A100051E002C048E051E0B801C6011CDFACC093
:101A2000F80102811381F2E3FF1609F46FC0FF157C
:101A3000B8F025E1F21609F474C037E1F31609F4A1
:101A400085C084E1F81298C0D8011696ED91FC91FA
:101A5000179715968C919F01280F311DC9015AC007
:101A6000A6E4FA1609F481C0B7E4FB1609F480C0B5
:101A7000EBE3FE1281C089819B81913029F0933084
:101A800031F4482F885004C048E0480F01C0482F67
:101A900051E0D80113962C91281708F450E031E05A
:101AA000F8012281421708F430E021E0481708F0DD
:101AB00020E0822F852B382319F4252309F45CC0FC
:101AC000CA80913061F038F0923061F0933071F457
:101AD000FF24FA940CC0F12CDD24D39409C0FF2418
:101AE000F39405C0F12CDD24DA9402C0F12CD12C42
:101AF000C7FE03C0BE01C801B2DB88818D0D88839B
:101B000089818F0D8983CC0C99F736C0BE01C8013D
:101B1000A6DB32C011928E179F07E1F7C801CADB1E
:101B20002BC0C801B1DB882309F463CFD801169616
:101B3000ED91FC91179715968C919F01280F311DFF
:101B4000C90111928E179F07E1F716C01882D801BC
:101B500012968C911297898315968C9115978150C6
:101B60008A8313968C918B8307C0F801858103C00B
:101B7000D80111968C91888381E0DF91CF911F91DC
:101B80000F91FF90DF90CF90BF90AF900895DF92BC
:101B9000EF92FF920F931F93CF93DF93EC01D62E1A
:101BA0001CAD0BAD7C0184E0E80EF11CE98DFA8DD3
:101BB000C7011995412F480F2D2D602FC7010BDC50
:101BC0009BAD890F8BAF81E090E0DF91CF911F91AA
:101BD0000F91FF90EF90DF900895089580E090E0DE
:101BE000089544D31F920F920FB60F9211242F9392
:101BF0003F938F939F93AF93BF938091C006909133
:101C0000C106A091C206B091C3063091BF0623E081
:101C1000230F2D3720F40196A11DB11D05C026E824
:101C2000230F0296A11DB11D2093BF068093C0060D
:101C30009093C106A093C206B093C3068091BB06E1
:101C40009091BC06A091BD06B091BE060196A11D63
:101C5000B11D8093BB069093BC06A093BD06B093C4
:101C6000BE06BF91AF919F918F913F912F910F90A1
:101C70000FBE0F901F9018951F920F920FB60F92E4
:101C800011240BB60F927F928F929F92AF92BF92C8
:101C9000CF92DF92EF92FF920F931F932F933F9378
:101CA0004F935F936F937F938F939F93AF93BF9364
:101CB000CF93DF93EF93FF93A0917800B0E0B093C0
:101CC000B906A093B806709079000091B4061091FF
:101CD000B506F801E05FFD4FC081D0E09E01AFD2B4
:101CE000812C912C54018A94A50194016AD2690136
:101CF0007A013093B9062093B8069E01A72DB0E073
:101D00009ED2A50194015DD22093B6063093B7060A
:101D1000D22F20E0C22FCC29DD29CE0190589093FC
:101D2000B3068093B2068091B0069091B1060196F9
:101D30009093B1068093B006883E934049F5109287
:101D4000B1061092B0068AE3DFD9892B79F480912D
:101D5000080290910902811524E092072CF4019663
:101D6000909309028093080280E0A3D98BE3CCD939
:101D7000892B71F4809108029091090218161906B6
:101D80002CF40197909309028093080280E091D986
:101D90008091AE069091AF0601968430910529F0AE
:101DA0009093AF068093AE060EC01092AF061092CD
:101DB000AE068091080290910902080F191F109336
:101DC000B5060093B4068091B4069091B5068115CE
:101DD000944024F01092B5061092B406D093A80057
:101DE0008091B2068093AA00FF91EF91DF91CF918D
:101DF000BF91AF919F918F917F916F915F914F9123
:101E00003F912F911F910F91FF90EF90DF90CF9016
:101E1000BF90AF909F908F907F900F900BBE0F90D0
:101E20000FBE0F901F901895789484B5826084BD82
:101E300084B5816084BD85B5826085BD85B58160CE
:101E400085BD80916E00816080936E00109281004C
:101E50008091810082608093810080918100816007
:101E600080938100809180008160809380008091C8
:101E7000B10084608093B1008091B0008160809354
:101E8000B0008091910082608093910080919100D8
:101E90008160809391008091900081608093900098
:101EA0008091A10082608093A1008091A100816057
:101EB0008093A1008091A00081608093A000809118
:101EC00021018260809321018091210181608093B2
:101ED00021018091200181608093200180917A000E
:101EE000846080937A0080917A00826080937A0087
:101EF00080917A00816080937A0080917A00806876
:101F000080937A001092C10080910207811104C071
:101F100081E080930207D9D9C091CB06D091CC063D
:101F2000E091FA06F091FB0682E01995E091FA063D
:101F3000F091FB0681E0199520E030E044E1BE011C
:101F400089EC96E0BED92CEF36E047E1BE0189EC82
:101F500096E0B7D9E091FA06F091FB0680E019957A
:101F60000AE612E038EEE32E38E0F32E48E7442E7E
:101F700042E0542E59E7652E52E0752E6AE7C62ED0
:101F800062E0D62E7FE6A72E72E0B72EE6E78E2E11
:101F9000E2E09E2E8091CD069091CE068A56924028
:101FA00009F43CC01093CE060093CD068091E00664
:101FB000811106C0F50184918093E106F4010EC001
:101FC000813031F4F30184918093E106F60106C07B
:101FD000E7E7F2E084918093E106F2018491809337
:101FE000E2068091E106082E000C990B2091E20692
:101FF000821B910927FD93952091E306203441F03F
:10200000829FC001112426E0969587952A95E1F7D5
:102010008093E406F092DF06E092DE066CE176E063
:102020008EE1E1DA65E276E08CE3DDDAE091D70675
:10203000F091D806309719F089EC96E01995C09187
:10204000CB06D091CC06E091FA06F091FB0682E037
:102050001995E091FA06F091FB0681E0199520E0D0
:1020600030E045E1BE0189EC96E02BD9382E88237B
:1020700039F02CEF36E047E1BE0189EC96E021D93A
:10208000E091FA06F091FB0680E01995311082CFBD
:1020900062E08CE061D862E082E05ED862E08BE3CF
:1020A0005BD862E08AE358D861E08DE055D861E002
:1020B00086E052D861E087E04FD880E680937C00CC
:1020C00085EE80937A0010927B0081E080937E0001
:1020D00080EA8093A00081E18093A10080E2809358
:1020E00072001092A7008FEF8093A60084B18660E3
:1020F00084B97894C0E0D0E080E006D8892B11F054
:1021000081E001C080E00E9459082097A9F30E9455
:102110000000F2CF1092C8061092C70684E196E044
:102120009093C6068093C50610920007109201078F
:10213000109202071092CE061092CD061092D00691
:102140001092CF061092D20681E08093D10682E2EF
:102150008093D3061092D8061092D706ECEEF6E0E4
:102160008FEF819396E0EA3FF907D9F781E08093FA
:10217000E90628EE38E03093DF062093DE068093F0
:10218000E0061092E1061092E20680E48093E306F6
:102190001092E40684E199E09093FB068093FA069E
:1021A0008AE092E09093CC068093CB0682E0809305
:1021B000F7068BD884E196E09093C6068093C50617
:1021C0000895052E97FB16F400940FD057FD05D007
:1021D00014D007FC02D046F408C0509540953095C5
:1021E00021953F4F4F4F5F4F089590958095709583
:1021F00061957F4F8F4F9F4F0895A1E21A2EAA1B22
:10220000BB1BFD010DC0AA1FBB1FEE1FFF1FA217A6
:10221000B307E407F50720F0A21BB30BE40BF50BA3
:10222000661F771F881F991F1A9469F7609570952C
:10223000809590959B01AC01BD01CF010895A29FAF
:10224000B001B39FC001A39F700D811D1124911D8A
:10225000B29F700D811D1124911D0895EE0FFF1F77
:10226000881F8BBF0790F691E02D199481E090E0D4
:08227000F89400C0F894FFCFC0
:102278000840000000802E060100A30C0002D10BCC
:102288000001010202020303040404050505060611
:1022980007070708080909090A0A0B0B0B0C0C0D9C
:1022A8000D0D0E0E0E0F0F10101011111212121329
:1022B80013141414151516161617171718181919B4
:1022C800191A1A1B1B1B1C1C1D1D1D1E1E1E1F1F41
:1022D80020202021212222222323242424252526CC
:1022E800262627272728282929292A2A2B2B2B2C59
:1022F8002C2D2D2D2E2E2F2F2F30303031313232E4
:10230800323333343434353536363637373838386F
:102318003939393A3A3B3B3B3C3C3D3D3D3E3E3FFB
:102328003F3F404041414142424243434444444587
:1023380045464646474748484849494A4A4A4B4B12
:102348004B4C4C4D4D4D4E4E4F4F4F50505151519F
:10235800525253535354545455555656565757582A
:10236800585859595A5A5A5B5B5B5C5C5D5D5D5EB7
:102378005E5F5F5F60606161616262636363646442
:10238800646565666666676768686869696A6A6ACF
:102398006B6B6C6C6C6D6D6D6E6E6F6F6F7070715A
:1023A80071717272737373747475757576767677E6
:1023B8007778787879797A7A7A7B7B7C7C7C7D7D72
:1023C8007E7E7E7F7F7F80808181818282838383FE
:1023D8008484858585868687878788888889898A89
:1023E8008A8A8B8B8C8C8C8D8D8E8E8E8F8F8F9016
:1023F80090919191929293939394949595959696A2
:1024080097979798989899999A9A9A9B9B9C9C9C2D
:102418009D9D9E9E9E9F9FA0A0A0A1A1A1A2A2A3B8
:10242800A3A3A4A4A5A5A5A6A6A7A7A7A8A8A9A944
:10243800A9AAAAAAABABACACACADADAEAEAEAFAFD1
:10244800B0B0B0B1B1B2B2B2B3B3B3B4B4B5B5B55C
:10245800B6B6B7B7B7B8B8B9B9B9BABABBBBBBBCE7
:10246800BCBCBDBDBEBEBEBFBFC0C0C0C1C1C2C274
:10247800C2C3C3C4C4C4C5C5C5C6C6C7C7C7C8C800
:10248800C8C7C7C7C6C6C5C5C5C4C4C4C3C3C2C2F6
:10249800C2C1C1C0C0C0BFBFBEBEBEBDBDBCBCBC4A
:1024A800BBBBBBBABAB9B9B9B8B8B7B7B7B6B6B59E
:1024B800B5B5B4B4B3B3B3B2B2B2B1B1B0B0B0AFF2
:1024C800AFAEAEAEADADACACACABABAAAAAAA9A947
:1024D800A9A8A8A7A7A7A6A6A5A5A5A4A4A3A3A39A
:1024E800A2A2A1A1A1A0A0A09F9F9E9E9E9D9D9CEF
:1024F8009C9C9B9B9A9A9A99999898989797979643
:102508009695959594949393939292919191909096
:102518008F8F8F8E8E8E8D8D8C8C8C8B8B8A8A8AEA
:10252800898988888887878786868585858484833E
:102538008383828281818180807F7F7F7E7E7E7D92
:102548007D7C7C7C7B7B7A7A7A79797878787777E6
:10255800767676757575747473737372727171713A
:1025680070706F6F6F6E6E6D6D6D6C6C6C6B6B6A8F
:102578006A6A6969686868676766666665656464E3
:1025880064636363626261616160605F5F5F5E5E36
:102598005D5D5D5C5C5B5B5B5A5A5A59595858588B
:1025A80057575656565555545454535353525251DF
:1025B800515150504F4F4F4E4E4D4D4D4C4C4B4B33
:1025C8004B4A4A4A49494848484747464646454586
:1025D800444444434342424241414140403F3F3FDB
:1025E8003E3E3D3D3D3C3C3B3B3B3A3A3939393830
:1025F8003838373736363635353434343333323283
:102608003231313030302F2F2F2E2E2D2D2D2C2CD6
:102618002B2B2B2A2A29292928282727272626262B
:102628002525242424232322222221212020201F7F
:102638001F1E1E1E1D1D1D1C1C1B1B1B1A1A1919D3
:102648001918181717171616161515141414131326
:1026580012121211111010100F0F0E0E0E0D0D0D7B
:102668000C0C0B0B0B0A0A090909080807070706CF
:102678000605050504040403030202020101000023
:1026880000000000C70DEA08EE0DED0D205452457C
:0E2698004D4F4C4F0020204546464543540010
:00000001FF
