:100000000C946B0F0C949C0F0C949C0F0C949C0FF5
:100010000C949C0F0C949C0F0C949C0F0C949C0FB4
:100020000C949C0F0C949C0F0C949C0F0C949C0FA4
:100030000C949C0F0C949C0F0C949C0F0C949C0F94
:100040000C949C0F0C949C0F0C949C0F0C949C0F84
:100050000C949C0F0C949C0F0C949C0F0C9489177F
:100060000C949C0F0C949C0F0C949C0F0C949C0F64
:100070000C949C0F0C949C0F0C949C0F0C949C0F54
:100080000C949C0F0C949C0F0C949C0F0C949C0F44
:100090000C949C0F0C949C0F0C949C0F0C949C0F34
:1000A0000C949C0F0C94ED130C949C0F0C949C0FCF
:1000B0000C949C0F0C949C0F0C949C0F0C949C0F14
:1000C0000C949C0F0C949C0F0C949C0F0C949C0F04
:1000D0000C949C0F0C949C0F0C949C0F0C949C0FF4
:1000E0000C949C0F0B150E15FD14011507154515E5
:1000F000121516151C15201524152A152E15321546
:10010000451538153C154015FFE0FFD1AFFF32FF14
:10011000D0FFFEFFE0FFD1AEFFD0FFFEFFE0FFD13A
:100120001002FFFEFFD0FFE0FFC1FFD1AED580A8D7
:100130003FD300408D142002A1C8DA1281CFD9F13B
:10014000DB402EA4A6AFFFD0FFFE00161DFEF90E69
:1001500002950652207FFC0EFC0EFC0000000500FC
:1001600001020E0E060200C0C0C0C0C0C0C0C080E8
:10017000800000C0C0050505050009D8D8D8D8D82A
:100180000A0D1A0A00000900090009007FC07FC09B
:10019000120012001200FF80FF80240024002400BF
:1001A0000910200A01FE08003E007F00CB00C800B5
:1001B000E80078003E000F000980C980EB807F00D6
:1001C0003E00080008000E0D1A1001007860CCC037
:1001D000CCC0CD80CD807B000300067806CC0CCC53
:1001E0000CCC18CC18780C0D1A0D01003C007E00C8
:1001F000660066003C007C00EEC0C6C0C3C0C38081
:10020000E7C07EE03C700105050301098080808025
:10021000800412120600FC10306060C0C0C0C0C074
:10022000C0C0C0C0C0606030100412120601FC8063
:10023000C06060303030303030303030306060C0DE
:100240008005070707010720A8F820F8A820080A5A
:100250000A0A010018181818FFFF181818180205C4
:10026000050501FDC0C0404080050101060005F8FC
:10027000020202050100C0C0050E0E05000018189C
:100280001818303030606060C0C0C0C0080D0D0A62
:1002900001003C7E66C3C3C3C3C3C3C3667E3C05C3
:1002A0000D0D0A020018F8F8181818181818181860
:1002B0001818080D0D0A01003CFEC303070E1C3878
:1002C00070E0C0FFFF080D0D0A01003E7FC3C306AA
:1002D0001C1E0703C3C77E3C090D1A0A0000030059
:1002E00007000F001B00330033006300C300FF80D2
:1002F000FF80030003000300080D0D0A0100FEFE4D
:10030000C0C0FCFEC70303C3C7FE7C080D0D0A0175
:10031000003C7F63C0C0DCFEC3C3C3E37E3C080D6A
:100320000D0A0100FFFF03060C0C18183030606046
:1003300060080D0D0A01003C7EE7C3C3667EE7C37B
:10034000C3E77E3C080D0D0A01003C7EC7C3C3C352
:100350007F3B0303C6FE7C020A0A050100C0C00001
:100360000000000000C0C0020D0D0501FDC0C0006E
:100370000000000000C0C04040800809090A0100D8
:10038000030F3C70C0703C0F030705050B0202FE13
:10039000FE00FEFE0809090A0100C0F03C0E030E33
:1003A0003CF0C0070E0E0A01007CFEC6C60E1C38CB
:1003B000303030000030301011221201FD03F00FF8
:1003C000FC1C0E300663D36773C633CC63CC66CC9B
:1003D00066CCCCCFF86770700038001FF007E00CD7
:1003E0000E1C0D0000060006000F000F00198019FA
:1003F0008030C030C03FC07FE060606060C030C00F
:10040000300B0E1C0D0100FF00FF80C1C0C0C0C03A
:10041000C0C180FF80FFC0C0E0C060C060C0E0FF1E
:10042000C0FF800C0E1C0E01000F803FE07070605A
:1004300030E000C000C000C000C000E000603070CC
:10044000703FE00F800C0E1C0E0100FF80FFC0C04B
:10045000E0C060C030C030C030C030C030C030C03C
:1004600060C0E0FFC0FF800A0E1C0D0200FFC0FF4D
:10047000C0C000C000C000C000FF80FF80C000C03E
:1004800000C000C000FFC0FFC0090E1C0C0200FF2E
:1004900080FF80C000C000C000C000FF00FF00C09F
:1004A00000C000C000C000C000C0000D0E1C0F0145
:1004B000000FC03FF070386018E018C000C000C0E6
:1004C000F8C0F8E018601870383FF80FD80B0E1C11
:1004D0000E0100C060C060C060C060C060C060FF4E
:1004E000E0FFE0C060C060C060C060C060C060028B
:1004F0000E0E060200C0C0C0C0C0C0C0C0C0C0C098
:10050000C0C0C0080E0E0A00000303030303030368
:100510000303C3C3E77E3C0C0E1C0D0200C0E0C108
:10052000C0C380C700CE00DC00F800FC00CE00C7CE
:1005300000C380C1C0C0E0C070090E1C0B0100C028
:1005400000C000C000C000C000C000C000C000C0AB
:1005500000C000C000C000FF80FF800E0E1C100114
:1005600000C00CC00CE01CE01CF03CF03CD86CD887
:100570006CCCCCCCCCC48CC78CC30CC30C0B0E1C69
:100580000E0100C060E060F060F060D860CC60CC2C
:1005900060C660C660C360C1E0C1E0C0E0C0600D7D
:1005A0000E1C0F01000F803FE070706030E038C01B
:1005B00018C018C018C018E038603070703FE00FE5
:1005C000800A0E1C0D0200FF00FF80C1C0C0C0C029
:1005D000C0C1C0FF80FF00C000C000C000C000C09C
:1005E00000C0000D0F1E0F01FF0F803FE070706014
:1005F00030E038C018C018C018C018E1B861B07039
:10060000F03FE00FB000300B0E1C0E0100FF80FF2A
:10061000C0C0E0C060C060C0E0FFC0FF80C0C0C01C
:10062000C0C060C060C060C0600A0E1C0D01001E2A
:10063000007F80E1C0C0C0E0007C001F000380019B
:10064000C000C0C0C0E1C07F803F000A0E1C0C018A
:1006500000FFC0FFC00C000C000C000C000C000CD4
:10066000000C000C000C000C000C000C000B0E1C0D
:100670000E0100C060C060C060C060C060C060C0EB
:1006800060C060C060C060C06060C07FC01F000C00
:100690000E1C0D0000C030C03060606060606030D3
:1006A000C030C030C01980198019800F000F0006BB
:1006B00000100E1C120100C183C183C183C3C36338
:1006C000C6624666666666366C366C342C1C381814
:1006D0001818180B0E1C0D0100C060C06060C071BE
:1006E000C031801B000E000E001B00318071C06005
:1006F000C0C060C0600C0E1C0D0000C030C0306077
:1007000060606030C039C019800F00060006000626
:10071000000600060006000A0E1C0C0100FFC0FFC8
:10072000C000C00180030006000C001C001800304F
:10073000006000C000FFC0FFC00412120500FCF002
:10074000F0C0C0C0C0C0C0C0C0C0C0C0C0C0C0F049
:10075000F0050E0E050000C0C0C060606030303093
:1007600030181818180412120500FCF0F030303060
:100770003030303030303030303030F0F007060676
:1007800009010710386C6CC6C60B02040B00FCFF95
:10079000E0FFE004030304000BC06030090A140BFF
:1007A00001007E00E700C30007007F00E300C300F4
:1007B000C300E7807980090E1C0B0100C000C00057
:1007C000C000C000DE00FF00E300C180C180C18026
:1007D000C180E300FF00DE00080A0A0A01003E7F34
:1007E00063C0C0C0C0637F3E090E1C0B01000180C6
:1007F0000180018001803D807F806380C180C18055
:10080000C180C18063807F803D80080A0A0A0100A0
:100810003C7EC3C3FFC0C0E37F3C060E0E06000053
:100820001C3C3030FCFC3030303030303030090E81
:100830001C0B01FC3D807F806180C180C180C18034
:10084000C18063807F803D80018063007F001C0049
:10085000080E0E0A0100C0C0C0C0DEFFE3C3C3C360
:10086000C3C3C3C3020E0E040100C0C00000C0C059
:10087000C0C0C0C0C0C0C0C004121204FFFC3030F1
:100880000000303030303030303030303030F0E058
:10089000080E0E090100C0C0C0C0C6CCD8F0F8D800
:1008A000CCCEC6C7020E0E040100C0C0C0C0C0C07E
:1008B000C0C0C0C0C0C0C0C00E0A14100100DE78A5
:1008C000FFFCE38CC30CC30CC30CC30CC30CC30CE4
:1008D000C30C080A0A0A0100DEFFE3C3C3C3C3C393
:1008E000C3C3090A140B01003E007F006300C180EE
:1008F000C180C180C18063007F003E00090E1C0BD7
:1009000001FCDE00FF00E300C180C180C180C18026
:10091000E300FF00DE00C000C000C000C000090E00
:100920001C0B01FC3D807F806380C180C180C18041
:10093000C18063807F803D800180018001800180D3
:10094000050A0A060100D8D8E0C0C0C0C0C0C0C0B7
:10095000070A0A0901003C7EC6C0FC3E06C6FC78B8
:10096000060D0D060000303030FCFC3030303030E9
:10097000303C1C080A0A0A0100C3C3C3C3C3C3C373
:10098000C7FF7B080A0A0A0100C3C3C36666662460
:100990003C18180C0A140E0100C630C630C630666A
:1009A0006066606960294039C019801980080A0AA8
:1009B0000A0100C3E7663C18183C66E7C3080E0E40
:1009C0000A01FCC3C3C3666666243C181818187075
:1009D00070070A0A090100FEFE060C183060C0FE0E
:1009E000FE06121206FFFC0C18303030303060C0AA
:1009F00060303030303030180C0212120501FCC06B
:100A0000C0C0C0C0C0C0C0C0C0C0C0C0C0C0C0C0E6
:100A1000C00612120600FCC0603030303030180CB6
:100A20001830303030303060C00803030A010473DE
:100A3000FFCEFF002730FBF51905D70E69207FF99F
:100A40001BF919F900000009000103191909040034
:100A5000E0E0E0E0E0E0E0E0E0E0E0E0E0E0E0E096
:100A6000E040400000E0E0E0E00808080C020FE78A
:100A7000E7E7E7E7E7424211174513010003870064
:100A8000038700030600030600070E00070E007F21
:100A9000FF807FFF807FFF800E1C000E1C000C1863
:100AA000001C38001C3800FFFF00FFFF00FFFF00A4
:100AB00038700038700030600030600070E0007006
:100AC000E000101F3E1201FC0180018001800FF048
:100AD0001FF83DBC718E718EE18EE180E1807180E6
:100AE0007D803FC01FF007FC01FE019E018F018742
:100AF000E187E187718E718E3DBC3FF80FF0018078
:100B00000180018001801A18601D01000000300082
:100B10001F0070007F80600073C0E000E0C0C00074
:100B2000C0E1C000C0E18000C0E38000E0C300007D
:100B300073C700007F8600001F0E0000000C00003D
:100B4000001C3E0000187F800038F3800030C1C0D8
:100B50000071C0C00061C0C000E1C0C000C0C1C021
:100B600001C0E38001807F8003803E00121745169C
:100B7000020007C0000FE0001E70003C380038384B
:100B8000003838003C70001EF0000FE00007C00085
:100B90000F80003FC00079C70070E700E0F600E07A
:100BA0007E00E03C00E01C00F03E00787F007FF714
:100BB000803FE3C00F000003080806020FE0E0E0FA
:100BC000E0E0E0E040071F1F0B02F9060C0C1818CC
:100BD000383070707060E0E0E0E0E0E0E0E0E060BD
:100BE000707070303818180C0C06071F1F0B01F9B5
:100BF000C06060303038181C1C1C0C0E0E0E0E0E1F
:100C00000E0E0E0C0C1C1C18183830706060C00AD8
:100C10000B160D010F0C000C004C80EDC07F803FC7
:100C2000001E003F007380E1C040801110301301AE
:100C30000101C00001C00001C00001C00001C000EE
:100C400001C00001C000FFFF80FFFF80FFFF8001A7
:100C5000C00001C00001C00001C00001C00001C00F
:100C6000000309090903FBE0E0E0E0206060C080C8
:100C70000802020B0108FFFF030404090300E0E07F
:100C8000E0E00918300900000180018001800300C4
:100C9000030003000600060006000C000C000C0018
:100CA0000800180018001800300030003000600004
:100CB00060006000C000C0000F183012010007C0C3
:100CC0001FF03FF83C78783C701C701CE00EE00E82
:100CD000E00EE00EE00EE00EE00EE00EE00EE00EA4
:100CE000701C701C703C3C783FF81FF007C008185F
:100CF000181203000307070F3FFFFF070707070747
:100D00000707070707070707070707070F18301226
:100D1000010007C01FF03FF8783C701CF00EE00E99
:100D2000E00E000E001C003C007800F003E007C05D
:100D30001F003C0078007000E000E000FFFEFFFEB6
:100D4000FFFE0F183012010007C01FF03FF83838BF
:100D5000701C701C701C701C001C003803F803F021
:100D600003F8003C001E000EE00EE00EE00E701CCA
:100D7000783C3FF81FF007C0101830120000001830
:100D800000380078007800F801F803B803B8073895
:100D90000E380E381C38383838387038E038FFFFD5
:100DA000FFFFFFFF003800380038003800380F1808
:100DB000301201003FFC3FFC3FFC38003800380097
:100DC0007000700077C07FF07FF8787C701C001E88
:100DD000000E000E000EE00EE01EF01C787C7FF886
:100DE0003FF00F800F183012010003C00FF01FF802
:100DF0003C38381C701C700070006000E3C0EFF0DD
:100E0000FFF8F83CF01CF00EE00EE00E600E700EE5
:100E1000701C383C3FF81FF007C00F18301201005B
:100E2000FFFEFFFEFFFE000E001C001800380070E1
:100E3000007000E000E001C001C0038003800700F3
:100E4000070007000E000E000E001C001C001C0016
:100E50000F183012010007C01FF03FF8383C701C1B
:100E6000701C701C701C783C3C781FF00FE03FF841
:100E7000783C701CE00EE00EE00EE00EF01C783CBA
:100E80003FF81FF007C00F183012010007C01FF015
:100E90003FF8787C703CF01CE01EE00EE00EE00EA7
:100EA000E01EE01E703E7FFE3FEE0FCE000E001CE7
:100EB000E01CF03C78783FF03FE00F80031212090D
:100EC0000400E0E0E0E0000000000000000000009E
:100ED000E0E0E0E00316160904FBE0E0E0E00000DB
:100EE00000000000000000E0E0E0E0206060C08062
:100EF0001010201302000003000F003F01FC07E068
:100F00001F80FE00F000F000FE001F8007E001FCE3
:100F1000007F000F00030F0912130204FFFEFFFE03
:100F2000FFFE000000000000FFFEFFFEFFFE1010AD
:100F300020130100C000F000FE003F8007E001F830
:100F4000007F000F000F007F01F807E03F80FE00E8
:100F5000F000C0000E193212020007C01FF03FF867
:100F60007838701CF01CE01CE01C001C00380038B5
:100F7000007000E001E001C0038003800380038073
:100F80000000000003800380038003801D1E782280
:100F900001FB0007C000003FF80000FFFE0003F067
:100FA0003F8007C007C00F0003E01E0001E01C00E7
:100FB00000F0380F8C70381FDC38703CFC387070D3
:100FC0007C3860E03818E0E03818E1E03818E1C01B
:100FD0007038E1C07038E1C07070E1C0E070E1E0ED
:100FE000E0E070F3F3C070FF7F80783E7F003C004C
:100FF00000001E0000001F0000000F80000003E042
:10100000780001FFF800007FE00014194B16010082
:1010100000F00000F00000F80001F80001F8000303
:101020009C00039C00039C00079E00070E00070E17
:10103000000F0F000F0F000E07001E07801FFF801C
:101040001FFF803FFFC03C03C03801C07801E0783B
:1010500001E07000E0F000F0F000F011194B160311
:1010600000FFF000FFFC00FFFE00E03E00E00F008C
:10107000E00F00E00700E00700E00F00E00E00E0F6
:101080003E00FFFC00FFFC00FFFE00E01F00E00749
:1010900080E00380E00380E00380E00380E00780DD
:1010A000E00F00FFFE00FFFE00FFF80014194B18D0
:1010B000020001FC0007FF000FFF801F07C03C017A
:1010C000E03800E07000F0700070E00000E0000028
:1010D000E00000E00000E00000E00000E00000E0D0
:1010E0000000E00070F000707000F07800E03C015B
:1010F000E03F07C01FFF8007FE0001F80012194BF8
:10110000180300FFF000FFFC00FFFE00E01F00E0FE
:101110000F00E00780E00380E00380E001C0E00111
:10112000C0E001C0E001C0E001C0E001C0E001C0DA
:10113000E001C0E003C0E00380E00380E00780E05E
:101140000F00E01E00FFFE00FFFC00FFF000111981
:101150004B160300FFFF00FFFF00FFFF00E0000051
:10116000E00000E00000E00000E00000E00000E03F
:101170000000E00000FFFF00FFFF00FFFF00E000B5
:1011800000E00000E00000E00000E00000E00000FF
:10119000E00000E00000FFFF80FFFF80FFFF801005
:1011A0001932140300FFFFFFFFFFFFE000E000E043
:1011B00000E000E000E000E000E000FFFCFFFCFFDA
:1011C000FCE000E000E000E000E000E000E000E023
:1011D00000E000E000E00016194B19010000FE00DD
:1011E00003FF800FFFC01F83F03E00F03C007878C3
:1011F0000038700038F00000E00000E00000E0007F
:1012000000E00FFCE00FFCE00FFCE0001CF0001C15
:1012100070001C78003C38003C3C00FC1F01FC0FB7
:10122000FFDC07FF1C01FC1C12194B180300E00136
:10123000C0E001C0E001C0E001C0E001C0E001C0C9
:10124000E001C0E001C0E001C0E001C0E001C0FF7A
:10125000FFC0FFFFC0FFFFC0E001C0E001C0E00130
:10126000C0E001C0E001C0E001C0E001C0E001C099
:10127000E001C0E001C0E001C0031919090300E06A
:10128000E0E0E0E0E0E0E0E0E0E0E0E0E0E0E0E05E
:10129000E0E0E0E0E0E0E0E00D19321001000038AD
:1012A000003800380038003800380038003800387E
:1012B0000038003800380038003800380038E0388E
:1012C000E038E038E038F07878F07FF03FE01F80D9
:1012D00014194B160300E003C0E00780E00F00E0A4
:1012E0001E00E03C00E07800E0F000E1E000E3C038
:1012F00000E7C000EF8000FFC000FFC000F9E00081
:10130000F0F000E07000E07800E03C00E01C00E05D
:101310001E00E00F00E00780E003C0E003E0E00112
:10132000F00E1932120300E000E000E000E000E0FF
:1013300000E000E000E000E000E000E000E000E0AD
:1013400000E000E000E000E000E000E000E000E09D
:1013500000E000FFFCFFFCFFFC15194B1B0300F035
:101360000078F00078F800F8F800F8FC01F8FC01CB
:10137000F8FC01F8EC01B8EE03B8EE03B8E6033868
:10138000E70738E70738E30638E38E38E38E38E3BB
:101390008E38E18C38E1DC38E1DC38E0D838E0F830
:1013A00038E0F838E07038E0703813194B18020054
:1013B000F000E0F000E0F800E0FC00E0FC00E0FEFF
:1013C00000E0EF00E0E700E0E780E0E3C0E0E3C03A
:1013D000E0E1E0E0E0E0E0E0F0E0E078E0E038E00C
:1013E000E03CE0E01CE0E01EE0E00FE0E007E0E0D1
:1013F00007E0E003E0E001E0E001E017194B19012C
:101400000000FE0003FF800FEFE01F01F03E00F838
:101410003C007878003C70001CF0001EE0000EE0FC
:10142000000EE0000EE0000EE0000EE0000EE00016
:101430000EF0001EF0001E78003C3C00783E00F8E4
:101440001F01F00FEFE003FF8000FE0011194B16A3
:101450000300FFF800FFFE00FFFF00E00F00E007C1
:1014600080E00380E00380E00380E00380E003800D
:10147000E00780E00F00FFFF00FFFE00FFF800E044
:101480000000E00000E00000E00000E00000E000FC
:1014900000E00000E00000E00000E00000171A4E4D
:1014A0001A01FF00FE0003FF800FEFE01F01F03E76
:1014B00000F83C007878003C70001CF0001EE00052
:1014C0000EE0000EE0000EE0000EE0000EE0000E68
:1014D000E0000EF0001EF0021E78073C3C07B83E0C
:1014E00003F81F01F00FEFF803FFBC00FE1E000021
:1014F0000C13194B180300FFFC00FFFF00FFFF80D7
:10150000E00780E003C0E001C0E001C0E001C0E00E
:1015100001C0E003C0E00380E00F80FFFF00FFFE9A
:1015200000FFFF00E00F80E00780E00380E003C0E1
:10153000E003C0E003C0E001C0E001C0E001C0E0A2
:1015400001E013194B16010003F8000FFE001FFF06
:10155000003C0F803803C07001C07001C0700000F3
:101560007800007C00003FC0001FF80007FF00006B
:101570007F80000FC00001E00000E0E000E0F0002C
:10158000E07001E07801C03E07C03FFF800FFE0021
:1015900003F80013194B140000FFFFE0FFFFE0FF0A
:1015A000FFE000E00000E00000E00000E00000E0FC
:1015B0000000E00000E00000E00000E00000E000CB
:1015C00000E00000E00000E00000E00000E00000BB
:1015D000E00000E00000E00000E00000E00000E0CB
:1015E0000000E00012194B180300E001C0E001C048
:1015F000E001C0E001C0E001C0E001C0E001C0E0E6
:1016000001C0E001C0E001C0E001C0E001C0E001B4
:10161000C0E001C0E001C0E001C0E001C0E001C0E5
:10162000E001C0F003C07807807C0F803FFF001FFF
:10163000FE0003F00013194B160100F001E0F00169
:10164000E0F001E07001C07803C07803C038038087
:101650003803803C07801C07001C07001E0F000E8B
:101660000E000E0E000F0E00071C00071C00079C4A
:101670000003B80003B80003B80001F00001F00057
:1016800000E00000E0001D19641F0100F007007871
:10169000F0070078F00F8078700F8070700F807006
:1016A000781DC0F0781DC0F0381DC0E0381DC0E0C6
:1016B0003838E0E03C38E1E01C38E1C01C30E1C0E3
:1016C0001C7071C01C7071C00E7073800EE03B8086
:1016D0000EE03B800EE03B8007E03F8007C01F002C
:1016E00007C01F0007C01F0003800E0003800E000C
:1016F00014194B160100F800F07801E03C03C01CFF
:1017000003C01E07800F07000F0F00079E00039CF9
:101710000003FC0001F80000F00000F00001F800F8
:1017200001F800039C00079E00070E000F0F001E2B
:1017300007801E07803C03C07801E07801E0F000DC
:10174000F015194B160000F000787800F07800E0F2
:101750003C01E01C01C01E03C00E07800F0780077C
:101760008F00038E0003DE0001DC0001FC0000F8A6
:101770000000F800007000007000007000007000B1
:101780000070000070000070000070000070000029
:10179000700012194B1401007FFFC07FFFC07FFF54
:1017A000C0000780000F80000F00001E00003C00FA
:1017B000003C0000780000F00001E00001E00003C0
:1017C000C0000780000780000F00001E00003C00E2
:1017D000003C0000780000F00000FFFFC0FFFFC0E9
:1017E000FFFFC00620200902F9FCFCE0E0E0E0E099
:1017F000E0E0E0E0E0E0E0E0E0E0E0E0E0E0E0E0E9
:10180000E0E0E0E0E0E0E0FCFC091830090000C0A6
:1018100000C0006000600060003000300030001048
:10182000001800180018000C000C000C0006000640
:10183000000600020003000300030001800180068F
:1018400020200901F9FCFC1C1C1C1C1C1C1C1C1C61
:101850001C1C1C1C1C1C1C1C1C1C1C1C1C1C1C1CC8
:101860001C1C1CFCFC0C0D1A10010B06000F000FB9
:10187000001F801980198039C030C070E06060603E
:1018800060E070C0301202061200FAFFFFC0FFFFD6
:10189000C00605050B0114E0F070381C101224126C
:1018A00001000FE03FF83C78703C701C001C003CCD
:1018B00001FC1FFC7E1C781CF01CE01CE03CE07C62
:1018C00079FE7FDF3F8F0F1932120200E000E00047
:1018D000E000E000E000E000E000E3E0EFF0FFF80F
:1018E000F83CF01CF01EE00EE00EE00EE00EE00E04
:1018F000E00EF01EF01CFC3CFFF8EFF0E7E00E12EB
:101900002410010007C01FF03FF8383C701C701C09
:10191000E000E000E000E000E000E01CE01C701CE3
:1019200078383FF81FF007C00F1932120100000E7F
:10193000000E000E000E000E000E000E07CE1FEE71
:101940003FFE7C3E701EF01EE00EE00EE00EE00E4C
:10195000E00EE00EF01EF01E783E7FFE3FEE0FCE52
:101960000F122412020007C01FF03FF8783C701CD1
:10197000F00EE00EE00EFFFEFFFEE000E000F00ED5
:10198000701E783C3FF81FF007C0081919090100C4
:101990000F1F3C38383838FFFFFF383838383838B0
:1019A0003838383838383838380F19321201F907D2
:1019B000CE1FEE3FFE7C3E701EF01EE00EE00EE0FD
:1019C0000EE00EE00EE00EF01E703E783E3FFE1F71
:1019D000EE078E000EE00EE01CF01C7C783FF81F36
:1019E000E00E1932120200E000E000E000E000E04A
:1019F00000E000E000E3E0EFF0FFF8F83CF01CE06E
:101A00001CE01CE01CE01CE01CE01CE01CE01CE0F6
:101A10001CE01CE01CE01CE01C031919070200E09C
:101A2000E0E0E0000000E0E0E0E0E0E0E0E0E0E056
:101A3000E0E0E0E0E0E0E0E006202007FFF91C1C29
:101A40001C1C0000001C1C1C1C1C1C1C1C1C1C1C2A
:101A50001C1C1C1C1C1C1C1C1C1C1C3CFCF80F19FA
:101A600032100100E000E000E000E000E000E000F3
:101A7000E000E078E0F0E1E0E3C0E780EF00FF00A5
:101A8000FF00FB80F3C0E1C0E1E0E0E0E0F0E078DF
:101A9000E038E03CE01E031919070200E0E0E0E056
:101AA000E0E0E0E0E0E0E0E0E0E0E0E0E0E0E0E036
:101AB000E0E0E0E0E01712361B0200E3C0F0EFF3D5
:101AC000FCFFF7FCF87E1EF03C0EE0380EE0380E0E
:101AD000E0380EE0380EE0380EE0380EE0380EE068
:101AE000380EE0380EE0380EE0380EE0380EE03800
:101AF0000E0E1224120200E3E0EFF8FFF8F83CF0BB
:101B00001CE01CE01CE01CE01CE01CE01CE01CE0F5
:101B10001CE01CE01CE01CE01CE01C0F1224120165
:101B20000007C01FF03FF8783C701CF01EE00EE08C
:101B30000EE00EE00EE00EE00EF01E701C783C3F52
:101B4000F81FF007C00F19321202F903C0EFF0FFBF
:101B5000F8F83CF01CF01EE00EE00EE00EE00EE0A7
:101B60000EE00EF01EF01CF83CFFF8EFF0E7E0E0AE
:101B700000E000E000E000E000E000E0000F1932CB
:101B80001201F907C01FEE3FFE7C3E701EF01EE002
:101B90000EE00EE00EE00EE00EE00EF01E701E787D
:101BA0003E3FFE1FEE0FCE000E000E000E000E0098
:101BB0000E000E000E0812120B0200E7EFFFFCF001
:101BC000F0E0E0E0E0E0E0E0E0E0E0E0E00D122462
:101BD0001002000F803FE07FE070F0E070E00070E6
:101BE000007E003FC007F000F00078E038E038F0F9
:101BF000707FF07FE01F8008161609010038383822
:101C000038FFFFFF383838383838383838383838FF
:101C10003C3F1F0E1224120200E01CE01CE01CE0FE
:101C20001CE01CE01CE01CE01CE01CE01CE01CE0D4
:101C30001CE01CE03CF07C7FFC7FDC1F1C0F1224AE
:101C4000100000E00EE00E701C701C701C3838385C
:101C50003838381C701C701C700EE00EE00EE00767
:101C6000C007C003800380171236170000E0380E4B
:101C7000E0380E707C1C707C1C706C1C38EE1C38BC
:101C8000EE3838EE3838C63818C6301DC7701DC754
:101C9000701DC7700D83600F83E00F83E00701C0E4
:101CA0000701C00F1224100000F01E781C38383CC9
:101CB000701C700EE00FE007C0038007C007C00F64
:101CC000E01EE01C7038783838701CF01E0E193297
:101CD0001001F9E01CE01CF0387038703870703872
:101CE00070387038E03CE01CE01DC01DC00FC00F14
:101CF000800F800700070007000E000E001C007C0C
:101D000000780070000E12241001007FF87FF87F29
:101D1000F8007800F000E001C003C0078007000E63
:101D2000001C003C0078007000FFFCFFFCFFFC087A
:101D300020200B01F90F1F1C181818181818181854
:101D400018383870E0E07038381818181818181853
:101D500018181C1F0F021F1F0903F9C0C0C0C0C004
:101D6000C0C0C0C0C0C0C0C0C0C0C0C0C0C0C0C073
:101D7000C0C0C0C0C0C0C0C0C0C00820200B01F996
:101D8000F0F8381818181818181818181C1C0E070E
:101D9000070E1C1C18181818181818181838F8F0FE
:101DA0000E060C13020918007C0C7F0CC7DCC1F86E
:101DB00000F0FF00002100240027002A002D003041
:101DC00000330001010000040107010A01000020A6
:101DD000002300260029002C002F00320000010003
:101DE0000003010601090100002200250028002B44
:101DF000002E003100340002010000050108010B33
:101E00000105050505070508080808020202020A7F
:101E10000A0808040404040101010101010101038D
:101E200003030303030303040707070C0C0C0C0C48
:101E30000C0C0C0202020206060606060606060B3B
:101E40000B0B0B0B0B0B0B010210202008081020B2
:101E50004010204080020102010804020101020436
:101E600008102040808040201008040201800402F5
:101E7000018040201008040201080402010102044C
:101E80000810204080010204081020408000000A51
:101E90000B02090C0D0E08070304010000000000EE
:101EA0000000000000000000000000000000000032
:101EB00000000000000000000012111000000000EF
:101EC0000000000000000000000000000000000012
:101ED00000000000F51811241FBECFEFD1E2DEBFD5
:101EE000CDBF00E00CBF12E0A0E0B2E0E8EFF2E30B
:101EF00000E00BBF02C007900D92A234B107D9F7E2
:101F00002AE0A2E4B2E001C01D92A93EB207E1F7C7
:101F10001FE0CBE6DFE000E006C021970109802F3B
:101F2000FE010E946E19CA36D10780E00807A9F7A2
:101F30000E94D3170C947A190C940000CF92DF9270
:101F4000EF92FF920F931F93CF93DF936C017A016F
:101F50008B01C0E0D0E0CE15DF0581F0D8016D9196
:101F60008D01D601ED91FC910190F081E02DC6012B
:101F70001995892B11F02196EECF7E01C701DF91D3
:101F8000CF911F910F91FF90EF90DF90CF90089528
:101F90000895DC011696ED91FC91179712968C919D
:101FA000481B477081E090E001C0880F4A95EAF72E
:101FB000E60FF11D3081222311F0832B02C08095A2
:101FC000832380830895FB014181DC0112962C91CB
:101FD0001297421760F013962C911397241738F03C
:101FE000608115962C91621710F42481D2CF089548
:101FF000FC0130819281930F92832181921760F4CA
:1020000094819F5F94838381830F821710F08FEFF9
:10201000820F838381E0089580E00895FC0112829D
:102020008081815083831482089580E008950B9607
:10203000FC01849108950A96FC0184910895FC01A5
:1020400084910895FCDF882321F0823011F083E031
:10205000089586E00895FC01E60FF11D849190E05B
:10206000982F88273196E4918E0F911D089568E08E
:10207000F2CF66E0F0CF2EE93FE0009729F0F901BA
:102080003197F1F70197F9CF089510929E0A0895BC
:102090008093A10A1092B90084FF02C08CE001C0B5
:1020A00088E48093B800F1CFDB011496ED91FC91A8
:1020B000159720E030E065E01994CF92DF92EF921F
:1020C000FF920F931F93CF93DF938C017B016A01E3
:1020D00080E0F601C49181110AC0CF3F09F454C0D9
:1020E0004C2FB701C801E0DF81114CC052C0CF3F77
:1020F00011F44FEFF6CFCE3F09F44DC0C03F08F0CA
:1021000041C0C03E58F04C2F4F70D7011496ED914E
:10211000FC91159720E030E062E00CC0C03D68F013
:102120004C2F4F70D7011496ED91FC91159720E03C
:1021300030E063E0C801199525C0C03CF0F0D7013C
:102140001496ED91FC91159720E030E040E064E0BA
:10215000C8011995C295C07FCE5FD0E0CE018BDF5C
:10216000D7011496ED91FC91159720E030E041E005
:1021700064E0C8011995CE0104C0C7FD03C08C2FCF
:1021800090E079DF80E001C081E0BFEFCB1ADB0A8D
:10219000A0CF80E001C081E0DF91CF911F910F912E
:1021A000FF90EF90DF90CF900895AF92BF92CF92C3
:1021B000DF92FF920F931F93CF93DF936C018B01FC
:1021C000F42EE90120E1421709F453C0241798F0D6
:1021D0003AE0431357C0DB011496ED91FC9115973B
:1021E00020E030E042E061E0199544E251E0B801BE
:1021F000C60163DF47C081E1481709F43DC0A5E18E
:102200004A1340C0FB01A280B3804CE151E0C601FB
:1022100054DFD50114964C91406BB801C60144DFE0
:10222000D8011496ED91FC91159720E030E041E043
:1022300062E0C6011995F50126813781D80114960F
:10224000ED91FC911597D50115964C9166E0C6016C
:102250001995811102C080E0C2C0D8011496ED9199
:10226000FC91159720E030E040E063E0C60119954D
:1022700009C043E151E002C048E051E0B801C601A5
:102280001CDFACC0F80102811381F2E3FF1609F4F0
:102290006FC0FF15B8F025E1F21609F474C037E1FC
:1022A000F31609F485C084E1F81298C0D801169697
:1022B000ED91FC91179715968C919F01280F311D78
:1022C000C9015AC0A6E4FA1609F481C0B7E4FB16A6
:1022D00009F480C0EBE3FE1281C089819B819130BB
:1022E00029F0933031F4482F885004C048E0480F5B
:1022F00001C0482F51E0D80113962C91281708F4FB
:1023000050E031E0F8012281421708F430E021E08A
:10231000481708F020E0822F852B382319F4252355
:1023200009F45CC0CA80913061F038F0923061F0FD
:10233000933071F4FF24FA940CC0F12CDD24D39473
:1023400009C0FF24F39405C0F12CDD24DA9402C007
:10235000F12CD12CC7FE03C0BE01C80134DE888138
:102360008D0D888389818F0D8983CC0C99F736C0B8
:10237000BE01C80128DE32C011928E179F07E1F717
:10238000C8014CDE2BC0C80133DE882309F463CFBB
:10239000D8011696ED91FC91179715968C919F0197
:1023A000280F311DC90111928E179F07E1F716C042
:1023B0001882D80112968C911297898315968C9168
:1023C000159781508A8313968C918B8307C0F801EF
:1023D000858103C0D80111968C91888381E0DF91BB
:1023E000CF911F910F91FF90DF90CF90BF90AF9052
:1023F0000895089580E090E0089578D7DB01ED918D
:10240000FC9119945F926F927F928F929F92AF92FC
:10241000BF92CF92DF92EF92FF920F931F93CF93D1
:10242000DF93EC01E62EF42EC22E0C811D81C80133
:1024300006DED82E8C819D8105DE982E21E0D212F9
:1024400003C02FE0A22E02C0AA24AA948C819D81F1
:10245000F2DDD82E8C819D81EADDB82E8C819D81A4
:1024600006DEE0E6EC1538F4009729F0080F191F96
:1024700091E6D92E0FC08C819D81FBDDF0E4FC1527
:1024800038F4009729F0080F191F81E4D82E02C0F4
:102490000F5E1F4FBC1430F4188A1B8A1C8A198ADD
:1024A0001A8A75C0BD14C0F3892D90E0F8012491FB
:1024B0002F3F19F40F5F1F4F3FC0CD1034C08C81E8
:1024C0009D81BDDD98012F5F3F4FF801882311F0FA
:1024D000823091F484918B8BF90124912C8BF8013B
:1024E0003396E491E88BF8013496E491E98BF80196
:1024F0003596E491EA8B25C08491982F9F70925075
:102500009A8B82958F70898BF9012491822F8F701D
:102510008C8B22952F702B8BF8013296E491E295EB
:10252000EF70E88B0EC0F8013296E491EA219C012D
:102530002E0F311D020F131FBD1409F4ADCFD3941C
:10254000B5CF0115110519F18C819D817BDD2C8999
:102550009A89920FF91A9FEF920F9F0D3CA94EA9ED
:102560004F1518F0931728F402C0931770F09F15B9
:1025700060F43B899989E90E9FEF930F9E0D4BA95B
:102580005DA95E1530F4941730F4888933C080E07B
:1025900031C0941710F49E15C0F7080F111D395F54
:1025A000732E769476947694622E6F0C5E01FCE125
:1025B000AF0EB11C872C912C6F1439F35E2C68017F
:1025C0008C2D801B871590F4F60184916A817B81A4
:1025D0005C8EFD8E1F8E8E8F95014BE3CE010EDF3C
:1025E000FFEFCF1ADF0A28E0520EEACF080D191DBF
:1025F000F394E2CFDF91CF911F910F91FF90EF9075
:10260000DF90CF90BF90AF909F908F907F906F9012
:102610005F900895DF92EF92FF920F931F93CF93F5
:10262000DF93EC01D62E1CAD0BAD7C0184E0E80EEF
:10263000F11CE98DFA8DC7011995412F480F2D2DF9
:10264000602FC701DFDE9BAD890F8BAF81E090E08B
:10265000DF91CF911F910F91FF90EF90DF90089540
:1026600090919E0A911102C080939E0A08951F9333
:10267000CF93DF931F921F92CDB7DEB720ED37E0E7
:102680003A8329839091BC00982391F429813A815F
:10269000232B49F48091A10A182F127081FD08C0E4
:1026A00081E0DEDF06C029813A8121503109E8CF7F
:1026B00011E0812F0F900F90DF91CF911F9108951E
:1026C00084E98093BC0064E080E1D1CFCF93809314
:1026D000BB0084E88093BC0063E080E8C8DFC82FBB
:1026E000882381F08091A10AC82FC27081FD09C0A2
:1026F0008091B900887F883221F063E082E0B0DF0A
:1027000001C0C1E08C2FCF910895CF93DF93FC01DE
:1027100023A5222369F0EC0165D3811102C080E07A
:1027200008C08EA1811180E4D1DF8823C1F31BA6EC
:1027300081E0DF91CF9108950F931F93CF93C42F22
:1027400089016330B9F050F4613081F0623009F0F2
:102750003FC0FC0146A321E023A73AC06630E9F060
:10276000673041F1653009F033C00CC0FC0186A52B
:102770008FDC2EC0FC0116A221E023A7411128C046
:102780009FDF26C0C2DF811103C09ADF80E021C035
:102790008C2F9CDF81111CC0F8CFB7DF8823A9F3F1
:1027A000CC23B1F0F80181918F0190DF882369F388
:1027B000C150F6CFAADF882341F3CC2349F0F801BA
:1027C000849184DF882329F00F5F1F4FC150F5CF1C
:1027D00081E0CF911F910F9108951F920F920FB634
:1027E0000F9211240BB60F92EF92FF920F931F934B
:1027F0002F933F934F935F936F937F938F939F9309
:10280000AF93BF93CF93DF93EF93FF93C091780083
:10281000D0E0D0939D0AC0939C0A8091790090E00B
:1028200090939B0A80939A0A0091980A1091990AB2
:10283000982F8827C82BD92BF801EE0FFF1FE853DC
:10284000FD4FCE019058918380838091C602909174
:10285000C70201969093C7028093C602883E9340B8
:1028600029F51092C7021092C6028AE3EED2892B94
:1028700069F48091100290911102883E23E0920742
:1028800028F4019690931102809310028BE3DDD21D
:10289000892B61F48091100290911102853191058C
:1028A00028F0019790931102809310020F5F1F4F41
:1028B0001093990A0093980AE0900802F090090298
:1028C0000E151F0508F44AC01092990A1092980A32
:1028D00080919F0A9091A00A870101501109892BCC
:1028E00071F181E080D1F701EE0FFF1FE853FD4F3A
:1028F00080E090E0000F111FD801A853BD4F2D912B
:102900003C9111972193319301968A309105B9F743
:102910009093C5028093C4028FEFE81AF80AF092F0
:102920000902E09208028091100290911102E816CB
:10293000F906A0F01092A00A10929F0A0FC080E042
:1029400052D110930902009308020B30110530F4A4
:1029500081E090E09093A00A80939F0A82E075D274
:102960002091980A3091990A220F331FF901E853F8
:10297000FD4F892B39F0808191819093C302809320
:10298000C2020BC0808191819058C80FD91FD69583
:10299000C795D093C302C093C2028091C2029091A6
:1029A000C30290589093A8008091C2028093AA001D
:1029B000FF91EF91DF91CF91BF91AF919F918F9157
:1029C0007F916F915F914F913F912F911F910F9147
:1029D000FF90EF900F900BBE0F900FBE0F901F90C7
:1029E000189590E0FC013197E231F10508F04DC0F7
:1029F0008827EE58FF4F8F4F71C4809180008F77EA
:102A000003C0809180008F7D809380000895809125
:102A10008000877FF9CF84B58F7702C084B58F7D22
:102A200084BD08958091B0008F7703C08091B0007D
:102A30008F7D8093B0000895809190008F7707C0BC
:102A4000809190008F7D03C080919000877F80935C
:102A5000900008958091A0008F7707C08091A0001A
:102A60008F7D03C08091A000877F8093A000089590
:102A7000809120018F7707C0809120018F7D03C056
:102A800080912001877F8093200108950F931F93E9
:102A9000CF93DF931F92CDB7DEB70091A80A1091B4
:102AA000A90AE091D70AF091D80A82E0199520E0AE
:102AB00030E04AE0B80186EA9AE0A0DC182FE09105
:102AC000D70AF091D80A83E01995E091D70AF091DE
:102AD000D80A80E019951123A1F16091A80A70919C
:102AE000A90A9E012F5F3F4F46E486EA9AE086DC02
:102AF00089818093A60A6091A80A7091A90A9E0113
:102B00002F5F3F4F47E486EA9AE078DC8981809323
:102B1000A70A6091A80A7091A90A20E030E048E471
:102B200086EA9AE06BDC8093B10A6091A80A709102
:102B3000A90A29ED3AE047E186EA9AE05FDC81E004
:102B400001C080E00F90DF91CF911F910F91089508
:102B50000F931F93CF93DF938C01C2EADAE0EDA9C4
:102B6000FEA982E01995EDA9FEA981E0199520E062
:102B700030E044E1B80186EA9AE040DC29ED3AE031
:102B800047E1B80186EA9AE039DCEDA9FEA980E0C8
:102B9000DF91CF911F910F911994FF920F931F9383
:102BA000CF93DF93082FF62E172FE091BB0AF091F9
:102BB000BC0A86EA9AE01995080FCF2DD12F10E0B4
:102BC000F12C2991222341F0402F6F2D86EA9AE0C3
:102BD00019DCF80E180FF5CF812FDF91CF911F91DF
:102BE0000F91FF9008951F93CF93DF93EAE9FEE1E1
:102BF0009491E4E5FEE1D491EEE0FEE1C491CC23B2
:102C0000C9F0182F992311F0892FEBDEEC2FF0E09B
:102C1000EE0FFF1FE951F24EA591B4919FB7F894C2
:102C2000111104C08C91D095D82302C0EC91DE2BF9
:102C3000DC939FBFDF91CF911F9108952091AA0A45
:102C40003091AB0A2817390709F444C09093AB0AB6
:102C50008093AA0A009709F437C02091BD0AFC01AD
:102C6000211107C03596E491E093BE0AFC013C9621
:102C70000FC0213039F43F96E491E093BE0AFC0185
:102C8000709606C03D96E491E093BE0AFC013E9624
:102C900084918093BF0A8091BE0A082E000C990B84
:102CA0002091BF0A821B910927FD93952091C00AAC
:102CB000203441F0829FC001112426E0969587952B
:102CC0002A95E1F78093C10A85E190E19093BC0ACF
:102CD0008093BB0A08958F929F92AF92BF920F93F9
:102CE0001F93CF93DF93CDB7DEB7A1970FB6F894BC
:102CF000DEBF0FBECDBF19A2423008F44AE08E01FC
:102D00000F5D1F4F842E912CA12CB12CA501940195
:102D1000C3D2E62FB901CA0101501109EA3014F4F7
:102D2000E05D01C0E95CD801EC93232B242B252B1B
:102D300069F70115110569F0F80101900020E9F724
:102D40003197AF01401B510BB80182EA9AE0F6D8E7
:102D500002C080E090E0A1960FB6F894DEBF0FBEEF
:102D6000CDBFDF91CF911F910F91BF90AF909F90FA
:102D70008F9008950F931F93CF93E091B40AF09131
:102D8000B50A309719F086EA9AE019950091A80AD9
:102D90001091A90AE091D70AF091D80A82E019951A
:102DA000E091D70AF091D80A81E0199520E030E04F
:102DB00045E1B80186EA9AE021DBC82F882339F083
:102DC00029ED3AE047E1B80186EA9AE017DBE091A5
:102DD000D70AF091D80A80E019958C2FCF911F91D6
:102DE0000F910895CF9384EA8093BC0061E080E85E
:102DF0003EDC882351F08091B900887F883039F01B
:102E0000803129F061E082E02BDCC0E01BC088E764
:102E10008093BB0084E88093BC0062E080E827DCFC
:102E2000882399F38091A10AC82FC27081FD09C03F
:102E30008091B900887F883121F062E082E010DC67
:102E400001C0C1E08C2FCF910895CF93DF93282F3D
:102E500030E0F901E357F14E8491F901E95BF14E5D
:102E6000D491F901EF5FF14EC491CC2389F0811127
:102E7000B8DDEC2FF0E0EE0FFF1FE353F24EA5910B
:102E8000B491EC91ED2381E090E021F480E002C068
:102E900080E090E0DF91CF910895CF93DF9390E0B1
:102EA000FC01E95BF14E2491FC01EF5FF14E84914E
:102EB000882361F190E0880F991FFC01ED54F24ED8
:102EC000C591D491FC01E951F24EA591B4916111E3
:102ED00009C09FB7F8948881209582238883EC915C
:102EE0002E230BC0623061F49FB7F8948881322F93
:102EF000309583238883EC912E2B2C939FBF06C0A3
:102F00008FB7F894E8812E2B28838FBFDF91CF9164
:102F100008951F920F920FB60F9211242F933F9393
:102F20008F939F93AF93BF938091E50A9091E60AA8
:102F3000A091E70AB091E80A3091E40A23E0230F58
:102F40002D3720F40196A11DB11D05C026E8230FE1
:102F50000296A11DB11D2093E40A8093E50A909387
:102F6000E60AA093E70AB093E80A8091E00A9091FC
:102F7000E10AA091E20AB091E30A0196A11DB11DF8
:102F80008093E00A9093E10AA093E20AB093E30AE7
:102F9000BF91AF919F918F913F912F910F900FBE55
:102FA0000F901F901895789484B5826084BD84B585
:102FB000816084BD85B5826085BD85B5816085BD34
:102FC00080916E00816080936E00109281008091EC
:102FD0008100826080938100809181008160809374
:102FE0008100809180008160809380008091B10099
:102FF00084608093B1008091B00081608093B000C4
:103000008091910082608093910080919100816015
:1030100080939100809190008160809390008091D6
:10302000A10082608093A1008091A10081608093C3
:10303000A1008091A00081608093A0008091210177
:103040008260809321018091210181608093210120
:103050008091200181608093200180917A008460BA
:1030600080937A0080917A00826080937A008091C8
:103070007A00816080937A0080917A0080688093E2
:103080007A001092C10062E08CE007DF62E082E02B
:1030900004DF62E08BE301DF62E08AE3FEDE61E0F1
:1030A0008DE0FBDE61E086E0F8DE61E087E0F5DEE2
:1030B00080E680937C0085EE80937A0010927B00FE
:1030C00081E080937E0080EA8093A00081E180937C
:1030D000A10080E2809372001092A7008FEF80938E
:1030E000A60084B1866084B97894C0E0D0E011E095
:1030F0008AE0B82E0CE394E6A92E8CE0A6DE892B9C
:1031000009F456C081E06FDD8091DF0A811103C0B0
:103110001093DF0ABBDC8091A80A9091A90A18DD00
:103120008AE491E08BDD82E090DE892B19F06EE17C
:1031300072E002C068E272E084E12FDD83E39AE08E
:103140007DDDB092DD0A0093DE0A6091100270917D
:10315000110280E090E04AE0BEDD8AE491E06EDD9D
:10316000A092DD0A0093DE0AC0909F0AD090A00AC8
:103170000D2C000CEE08FF08F7FE0DC06DE282EA90
:103180009AE048DA66277727CB016C197D098E090A
:103190009F094AE003C04AE0C701B6019CDDEADDB1
:1031A0008111BECF209709F4A8CF0E940000A5CFBF
:1031B00080E019DD8091DF0A811103C01093DF0ADE
:1031C00065DC8091A80A9091A90AC2DC83E39AE0A9
:1031D00035DD61E372E080E2E0DC69E372E080E427
:1031E000DCDCC8DD8111F2CFDDCF1092A50A109290
:1031F000A40A86E192E09093A30A8093A20A109217
:10320000DD0A1092DE0A1092DF0A1092AB0A1092C9
:10321000AA0A1092AD0A1092AC0A1092AF0A81E08D
:103220008093AE0A82E28093B00A1092B50A10929F
:10323000B40AE9ECFAE08FEF81939AE0E73DF907F1
:10324000D9F781E08093C60A25E130E13093BC0ACA
:103250002093BB0A8093BD0A1092BE0A1092BF0A47
:1032600080E48093C00A1092C10A88EC9FE090939A
:10327000D80A8093D70A8AE092E09093A90A8093B3
:10328000A80A82E08093D40A01DC86E192E0909360
:10329000A30A8093A20A0895A1E21A2EAA1BBB1BBF
:1032A000FD010DC0AA1FBB1FEE1FFF1FA217B30712
:1032B000E407F50720F0A21BB30BE40BF50B661F28
:1032C000771F881F991F1A9469F7609570958095EC
:1032D00090959B01AC01BD01CF010895EE0FFF1F3A
:1032E000881F8BBF0790F691E02D199481E090E044
:0832F000F89400C0F894FFCF30
:1032F80008400000008042026400D51000029C13C0
:103308006400000000000A139E0FFA11F9112056FC
:1033180049425241544F20002043484F52555320B0
:103328000045464645435420002020204F4646206D
:02333800200073
:00000001FF
