:100000000C946B0F0C949C0F0C949C0F0C949C0FF5
:100010000C949C0F0C949C0F0C949C0F0C949C0FB4
:100020000C949C0F0C949C0F0C949C0F0C949C0FA4
:100030000C949C0F0C949C0F0C949C0F0C949C0F94
:100040000C949C0F0C949C0F0C949C0F0C949C0F84
:100050000C949C0F0C949C0F0C949C0F0C94771791
:100060000C949C0F0C949C0F0C949C0F0C949C0F64
:100070000C949C0F0C949C0F0C949C0F0C949C0F54
:100080000C949C0F0C949C0F0C949C0F0C949C0F44
:100090000C949C0F0C949C0F0C949C0F0C949C0F34
:1000A0000C949C0F0C94ED130C949C0F0C949C0FCF
:1000B0000C949C0F0C949C0F0C949C0F0C949C0F14
:1000C0000C949C0F0C949C0F0C949C0F0C949C0F04
:1000D0000C949C0F0C949C0F0C949C0F0C949C0FF4
:1000E0000C949C0F9F14A214911495149B14D91472
:1000F000A614AA14B014B414B814BE14C214C614AE
:10010000D914CC14D014D414FFE0FFD1AFFF32FFC8
:10011000D0FFFEFFE0FFD1AEFFD0FFFEFFE0FFD13A
:100120001002FFFEFFD0FFE0FFC1FFD1AED580A8D7
:100130003FD300408D142002A1C8DA1281CFD9F13B
:10014000DB402EA4A6AFFFD0FFFE002730FBF51941
:1001500005D70E69207FF91BF919F9000000090085
:1001600001031919090400E0E0E0E0E0E0E0E0E06C
:10017000E0E0E0E0E0E0E0E040400000E0E0E0E07F
:100180000808080C020FE7E7E7E7E7E74242111724
:1001900045130100038700038700030600030600E0
:1001A000070E00070E007FFF807FFF807FFF800E1D
:1001B0001C000E1C000C18001C38001C3800FFFF2F
:1001C00000FFFF00FFFF0038700038700030600053
:1001D00030600070E00070E000101F3E1201FC0172
:1001E00080018001800FF01FF83DBC718E718EE19F
:1001F0008EE180E18071807D803FC01FF007FC01AF
:10020000FE019E018F0187E187E187718E718E3D2E
:10021000BC3FF80FF001800180018001801A186056
:100220001D0100000030001F0070007F806000731F
:10023000C0E000E0C0C000C0E1C000C0E18000C07C
:10024000E38000E0C3000073C700007F8600001F4A
:100250000E0000000C0000001C3E0000187F800013
:1002600038F3800030C1C00071C0C00061C0C00060
:10027000E1C0C000C0C1C001C0E38001807F800335
:10028000803E0012174516020007C0000FE0001E56
:1002900070003C38003838003838003C70001EF0E0
:1002A000000FE00007C0000F80003FC00079C700CA
:1002B00070E700E0F600E07E00E03C00E01C00F0AB
:1002C0003E00787F007FF7803FE3C00F0000030807
:1002D0000806020FE0E0E0E0E0E0E040071F1F0B4F
:1002E00002F9060C0C1818383070707060E0E0E00D
:1002F000E0E0E0E0E0E060707070303818180C0C5E
:1003000006071F1F0B01F9C06060303038181C1C35
:100310001C0C0E0E0E0E0E0E0E0E0C0C1C1C1818C5
:100320003830706060C00A0B160D010F0C000C0015
:100330004C80EDC07F803F001E003F007380E1C015
:10034000408011103013010101C00001C00001C044
:100350000001C00001C00001C00001C000FFFF801B
:10036000FFFF80FFFF8001C00001C00001C000014D
:10037000C00001C00001C0000309090903FBE0E05F
:10038000E0E0206060C0800802020B0108FFFF036C
:100390000404090300E0E0E0E0091830090000016E
:1003A00080018001800300030003000600060006B0
:1003B000000C000C000C0008001800180018003099
:1003C0000030003000600060006000C000C0000F1E
:1003D000183012010007C01FF03FF83C78783C70DD
:1003E0001C701CE00EE00EE00EE00EE00EE00EE0F1
:1003F0000EE00EE00EE00E701C701C703C3C783F6E
:10040000F81FF007C00818181203000307070F3F72
:10041000FFFF07070707070707070707070707077C
:100420000707070F183012010007C01FF03FF878C8
:100430003C701CF00EE00EE00E000E001C003C00B4
:100440007800F003E007C01F003C0078007000E077
:1004500000E000FFFEFFFEFFFE0F18301201000754
:10046000C01FF03FF83838701C701C701C701C00E6
:100470001C003803F803F003F8003C001E000EE0F7
:100480000EE00EE00E701C783C3FF81FF007C01025
:100490001830120000001800380078007800F801C9
:1004A000F803B803B807380E380E381C3838383817
:1004B000387038E038FFFFFFFFFFFF0038003800DA
:1004C00038003800380F18301201003FFC3FFC3F65
:1004D000FC3800380038007000700077C07FF07F73
:1004E000F8787C701C001E000E000E000EE00EE07E
:1004F0001EF01C787C7FF83FF00F800F183012013F
:100500000003C00FF01FF83C38381C701C700070DE
:10051000006000E3C0EFF0FFF8F83CF01CF00EE0E4
:100520000EE00E600E700E701C383C3FF81FF00796
:10053000C00F1830120100FFFEFFFEFFFE000E008C
:100540001C001800380070007000E000E001C001DD
:10055000C0038003800700070007000E000E000E96
:10056000001C001C001C000F183012010007C01FE7
:10057000F03FF8383C701C701C701C701C783C3CC0
:10058000781FF00FE03FF8783C701CE00EE00EE0C2
:100590000EE00EF01C783C3FF81FF007C00F18303B
:1005A00012010007C01FF03FF8787C703CF01CE09F
:1005B0001EE00EE00EE00EE01EE01E703E7FFE3FED
:1005C000EE0FCE000E001CE01CF03C78783FF03FB0
:1005D000E00F80031212090400E0E0E0E0000000F8
:1005E00000000000000000E0E0E0E003161609044F
:1005F000FBE0E0E0E0000000000000000000E0E0C0
:10060000E0E0206060C080101020130200000300B2
:100610000F003F01FC07E01F80FE00F000F000FE2D
:10062000001F8007E001FC007F000F00030F09128C
:10063000130204FFFEFFFEFFFE000000000000FFAB
:10064000FEFFFEFFFE101020130100C000F000FEB0
:10065000003F8007E001F8007F000F000F007F01DE
:10066000F807E03F80FE00F000C0000E19321202D1
:100670000007C01FF03FF87838701CF01CE01CE049
:100680001C001C00380038007000E001E001C003CD
:100690008003800380038000000000038003800348
:1006A0008003801D1E782201FB0007C000003FF878
:1006B0000000FFFE0003F03F8007C007C00F0003EB
:1006C000E01E0001E01C0000F0380F8C70381FDCC9
:1006D00038703CFC3870707C3860E03818E0E038E6
:1006E00018E1E03818E1C07038E1C07038E1C0703E
:1006F00070E1C0E070E1E0E0E070F3F3C070FF7F14
:1007000080783E7F003C0000001E0000001F0000BB
:10071000000F80000003E0780001FFF800007FE098
:100720000014194B16010000F00000F00000F80062
:1007300001F80001F800039C00039C00039C0007E3
:100740009E00070E00070E000F0F000F0F000E0790
:10075000001E07801FFF801FFF803FFFC03C03C0BB
:100760003801C07801E07801E07000E0F000F0F0BE
:1007700000F011194B160300FFF000FFFC00FFFE14
:1007800000E03E00E00F00E00F00E00700E007009F
:10079000E00F00E00E00E03E00FFFC00FFFC00FF69
:1007A000FE00E01F00E00780E00380E00380E0033C
:1007B00080E00380E00780E00F00FFFE00FFFE0006
:1007C000FFF80014194B18020001FC0007FF000F8E
:1007D000FF801F07C03C01E03800E07000F07000AF
:1007E00070E00000E00000E00000E00000E0000039
:1007F000E00000E00000E00000E00070F000707039
:1008000000F07800E03C01E03F07C01FFF8007FEDA
:100810000001F80012194B180300FFF000FFFC0064
:10082000FFFE00E01F00E00F00E00780E00380E033
:100830000380E001C0E001C0E001C0E001C0E001D0
:10084000C0E001C0E001C0E001C0E003C0E00380FF
:10085000E00380E00780E00F00E01E00FFFE00FFE5
:10086000FC00FFF00011194B160300FFFF00FFFF13
:1008700000FFFF00E00000E00000E00000E00000FA
:10088000E00000E00000E00000E00000FFFF00FFEB
:10089000FF00FFFF00E00000E00000E00000E000DB
:1008A00000E00000E00000E00000E00000FFFF804A
:1008B000FFFF80FFFF80101932140300FFFFFFFFCE
:1008C000FFFFE000E000E000E000E000E000E0000A
:1008D000E000FFFCFFFCFFFCE000E000E000E000C7
:1008E000E000E000E000E000E000E000E0001619B9
:1008F0004B19010000FE0003FF800FFFC01F83F0B3
:100900003E00F03C0078780038700038F00000E0DD
:100910000000E00000E00000E00FFCE00FFCE00F52
:10092000FCE0001CF0001C70001C78003C38003C0F
:100930003C00FC1F01FC0FFFDC07FF1C01FC1C122C
:10094000194B180300E001C0E001C0E001C0E00164
:10095000C0E001C0E001C0E001C0E001C0E001C0B2
:10096000E001C0E001C0FFFFC0FFFFC0FFFFC0E02B
:1009700001C0E001C0E001C0E001C0E001C0E00151
:10098000C0E001C0E001C0E001C0E001C0E001C082
:10099000031919090300E0E0E0E0E0E0E0E0E0E056
:1009A000E0E0E0E0E0E0E0E0E0E0E0E0E0E0E00D1A
:1009B00019321001000038003800380038003800C3
:1009C0003800380038003800380038003800380067
:1009D0003800380038E038E038E038E038F078782F
:1009E000F07FF03FE01F8014194B160300E003C0B6
:1009F000E00780E00F00E01E00E03C00E07800E04F
:100A0000F000E1E000E3C000E7C000EF8000FFC0BD
:100A100000FFC000F9E000F0F000E07000E07800B6
:100A2000E03C00E01C00E01E00E00F00E00780E07A
:100A300003C0E003E0E001F00E1932120300E00011
:100A4000E000E000E000E000E000E000E000E000A6
:100A5000E000E000E000E000E000E000E000E00096
:100A6000E000E000E000E000E000FFFCFFFCFFFC35
:100A700015194B1B0300F00078F00078F800F8F827
:100A800000F8FC01F8FC01F8FC01F8EC01B8EE03F9
:100A9000B8EE03B8E60338E70738E70738E3063867
:100AA000E38E38E38E38E38E38E18C38E1DC38E1D0
:100AB000DC38E0D838E0F838E0F838E07038E0703A
:100AC0003813194B180200F000E0F000E0F800E0E5
:100AD000FC00E0FC00E0FE00E0EF00E0E700E0E703
:100AE00080E0E3C0E0E3C0E0E1E0E0E0E0E0E0F08F
:100AF000E0E078E0E038E0E03CE0E01CE0E01EE030
:100B0000E00FE0E007E0E007E0E003E0E001E0E024
:100B100001E017194B19010000FE0003FF800FEFE1
:100B2000E01F01F03E00F83C007878003C70001CAB
:100B3000F0001EE0000EE0000EE0000EE0000EE00F
:100B4000000EE0000EE0000EF0001EF0001E780027
:100B50003C3C00783E00F81F01F00FEFE003FF80FF
:100B600000FE0011194B160300FFF800FFFE00FF06
:100B7000FF00E00F00E00780E00380E00380E00377
:100B800080E00380E00380E00780E00F00FFFF00CB
:100B9000FFFE00FFF800E00000E00000E00000E0E1
:100BA0000000E00000E00000E00000E00000E000E5
:100BB00000E00000171A4E1A01FF00FE0003FF803C
:100BC0000FEFE01F01F03E00F83C007878003C7029
:100BD000001CF0001EE0000EE0000EE0000EE00041
:100BE0000EE0000EE0000EE0000EF0001EF0021E0F
:100BF00078073C3C07B83E03F81F01F00FEFF803FD
:100C0000FFBC00FE1E00000C13194B180300FFFC74
:100C100000FFFF00FFFF80E00780E003C0E001C0AD
:100C2000E001C0E001C0E001C0E003C0E00380E0FB
:100C30000F80FFFF00FFFE00FFFF00E00F80E007D6
:100C400080E00380E003C0E003C0E003C0E001C037
:100C5000E001C0E001C0E001E013194B1601000300
:100C6000F8000FFE001FFF003C0F803803C070012A
:100C7000C07001C07000007800007C00003FC00020
:100C80001FF80007FF00007F80000FC00001E00098
:100C900000E0E000E0F000E07001E07801C03E0715
:100CA000C03FFF800FFE0003F80013194B14000033
:100CB000FFFFE0FFFFE0FFFFE000E00000E00000DA
:100CC000E00000E00000E00000E00000E00000E0E4
:100CD0000000E00000E00000E00000E00000E000B4
:100CE00000E00000E00000E00000E00000E00000A4
:100CF000E00000E00000E00000E00012194B1803E3
:100D000000E001C0E001C0E001C0E001C0E001C0BE
:100D1000E001C0E001C0E001C0E001C0E001C0E0CE
:100D200001C0E001C0E001C0E001C0E001C0E0019D
:100D3000C0E001C0E001C0E001C0F003C07807805E
:100D40007C0F803FFF001FFE0003F00013194B16BD
:100D50000100F001E0F001E0F001E07001C0780373
:100D6000C07803C03803803803803C07801C07002C
:100D70001C07001E0F000E0E000E0E000F0E0007C7
:100D80001C00071C00079C0003B80003B80003B850
:100D90000001F00001F00000E00000E0001D196417
:100DA0001F0100F0070078F0070078F00F807870DE
:100DB0000F8070700F8070781DC0F0781DC0F03803
:100DC0001DC0E0381DC0E03838E0E03C38E1E01CF0
:100DD00038E1C01C30E1C01C7071C01C7071C00EC5
:100DE0007073800EE03B800EE03B800EE03B80079E
:100DF000E03F8007C01F0007C01F0007C01F00039F
:100E0000800E0003800E0014194B160100F800F04C
:100E10007801E03C03C01C03C01E07800F07000FD1
:100E20000F00079E00039C0003FC0001F80000F087
:100E30000000F00001F80001F800039C00079E008C
:100E4000070E000F0F001E07801E07803C03C078AE
:100E500001E07801E0F000F015194B160000F000F9
:100E6000787800F07800E03C01E01C01C01E03C06F
:100E70000E07800F0780078F00038E0003DE00013E
:100E8000DC0001FC0000F80000F8000070000070B9
:100E90000000700000700000700000700000700022
:100EA00000700000700000700012194B1401007FE8
:100EB000FFC07FFFC07FFFC0000780000F80000FD2
:100EC00000001E00003C00003C0000780000F00024
:100ED00001E00001E00003C0000780000780000F70
:100EE00000001E00003C00003C0000780000F00004
:100EF00000FFFFC0FFFFC0FFFFC00620200902F96E
:100F0000FCFCE0E0E0E0E0E0E0E0E0E0E0E0E0E0A9
:100F1000E0E0E0E0E0E0E0E0E0E0E0E0E0E0FCFC99
:100F2000091830090000C000C000600060006000C7
:100F300030003000300010001800180018000C00BD
:100F40000C000C000600060006000200030003006F
:100F50000300018001800620200901F9FCFC1C1C13
:100F60001C1C1C1C1C1C1C1C1C1C1C1C1C1C1C1CC1
:100F70001C1C1C1C1C1C1C1C1C1CFCFC0C0D1A101E
:100F8000010B06000F000F001F801980198039C067
:100F900030C070E060606060E070C0301202061225
:100FA00000FAFFFFC0FFFFC00605050B0114E0F0CB
:100FB00070381C1012241201000FE03FF83C7870CA
:100FC0003C701C001C003C01FC1FFC7E1C781CF0CB
:100FD0001CE01CE03CE07C79FE7FDF3F8F0F193284
:100FE000120200E000E000E000E000E000E000E0CD
:100FF00000E3E0EFF0FFF8F83CF01CF01EE00EE03C
:101000000EE00EE00EE00EE00EF01EF01CFC3CFFC9
:10101000F8EFF0E7E00E122410010007C01FF03FC8
:10102000F8383C701C701CE000E000E000E000E0DC
:1010300000E01CE01C701C78383FF81FF007C00F60
:101040001932120100000E000E000E000E000E00FC
:101050000E000E07CE1FEE3FFE7C3E701EF01EE01F
:101060000EE00EE00EE00EE00EE00EF01EF01E7838
:101070003E7FFE3FEE0FCE0F122412020007C01F6C
:10108000F03FF8783C701CF00EE00EE00EFFFEFF23
:10109000FEE000E000F00E701E783C3FF81FF00705
:1010A000C00819190901000F1F3C38383838FFFFF4
:1010B000FF383838383838383838383838383838E9
:1010C0000F19321201F907CE1FEE3FFE7C3E701E53
:1010D000F01EE00EE00EE00EE00EE00EE00EF01E60
:1010E000703E783E3FFE1FEE078E000EE00EE01CC5
:1010F000F01C7C783FF81FE00E1932120200E0006D
:10110000E000E000E000E000E000E000E3E0EFF0FD
:10111000FFF8F83CF01CE01CE01CE01CE01CE01CAC
:10112000E01CE01CE01CE01CE01CE01CE01CE01CDF
:10113000031919070200E0E0E0E0000000E0E0E051
:10114000E0E0E0E0E0E0E0E0E0E0E0E0E0E0E00679
:10115000202007FFF91C1C1C1C0000001C1C1C1C70
:101160001C1C1C1C1C1C1C1C1C1C1C1C1C1C1C1CBF
:101170001C1C3CFCF80F1932100100E000E000E0FC
:1011800000E000E000E000E000E078E0F0E1E0E313
:10119000C0E780EF00FF00FF00FB80F3C0E1C0E18B
:1011A000E0E0E0E0F0E078E038E03CE01E03191910
:1011B000070200E0E0E0E0E0E0E0E0E0E0E0E0E0C6
:1011C000E0E0E0E0E0E0E0E0E0E0E0E01712361B25
:1011D0000200E3C0F0EFF3FCFFF7FCF87E1EF03CEA
:1011E0000EE0380EE0380EE0380EE0380EE0380E33
:1011F000E0380EE0380EE0380EE0380EE0380EE051
:10120000380EE0380EE0380E0E1224120200E3E031
:10121000EFF8FFF8F83CF01CE01CE01CE01CE01CC0
:10122000E01CE01CE01CE01CE01CE01CE01CE01CDE
:10123000E01C0F122412010007C01FF03FF8783C99
:10124000701CF01EE00EE00EE00EE00EE00EE00E70
:10125000F01E701C783C3FF81FF007C00F193212C7
:1012600002F903C0EFF0FFF8F83CF01CF01EE00EAE
:10127000E00EE00EE00EE00EE00EF01EF01CF83C7A
:10128000FFF8EFF0E7E0E000E000E000E000E00061
:10129000E000E0000F19321201F907C01FEE3FFE17
:1012A0007C3E701EF01EE00EE00EE00EE00EE00E42
:1012B000E00EF01E701E783E3FFE1FEE0FCE000EB9
:1012C000000E000E000E000E000E000E0812120B93
:1012D0000200E7EFFFFCF0F0E0E0E0E0E0E0E0E05B
:1012E000E0E0E0E00D12241002000F803FE07FE01C
:1012F00070F0E070E00070007E003FC007F000F08A
:101300000078E038E038F0707FF07FE01F8008164A
:101310001609010038383838FFFFFF3838383838B8
:10132000383838383838383C3F1F0E122412020043
:10133000E01CE01CE01CE01CE01CE01CE01CE01CCD
:10134000E01CE01CE01CE01CE01CE03CF07C7FFCAE
:101350007FDC1F1C0F1224100000E00EE00E701C3A
:10136000701C701C3838383838381C701C701C7071
:101370000EE00EE00EE007C007C0038003801712E6
:1013800036170000E0380EE0380E707C1C707C1CB4
:10139000706C1C38EE1C38EE3838EE3838C6381809
:1013A000C6301DC7701DC7701DC7700D83600F83C9
:1013B000E00F83E00701C00701C00F1224100000F6
:1013C000F01E781C38383C701C700EE00FE007C02F
:1013D000038007C007C00FE01EE01C703878383863
:1013E000701CF01E0E19321001F9E01CE01CF038E0
:1013F0007038703870703870387038E03CE01CE03D
:101400001DC01DC00FC00F800F8007000700070020
:101410000E000E001C007C00780070000E122410DC
:1014200001007FF87FF87FF8007800F000E001C04D
:1014300003C0078007000E001C003C00780070000D
:10144000FFFCFFFCFFFC0820200B01F90F1F1C18FC
:101450001818181818181818383870E0E07038384C
:101460001818181818181818181C1F0F021F1F0911
:1014700003F9C0C0C0C0C0C0C0C0C0C0C0C0C0C0F0
:10148000C0C0C0C0C0C0C0C0C0C0C0C0C0C0C0C05C
:10149000C00820200B01F9F0F8381818181818188F
:1014A0001818181C1C0E07070E1C1C1818181818E2
:1014B0001818181838F8F00E060C13020918007CDA
:1014C0000C7F0CC7DCC1F800F0FF00161DFEF90E02
:1014D00002950652207FFC0EFC0EFC000000050069
:1014E00001020E0E060200C0C0C0C0C0C0C0C08055
:1014F000800000C0C0050505050009D8D8D8D8D897
:101500000A0D1A0A00000900090009007FC07FC007
:10151000120012001200FF80FF802400240024002B
:101520000910200A01FE08003E007F00CB00C80021
:10153000E80078003E000F000980C980EB807F0042
:101540003E00080008000E0D1A1001007860CCC0A3
:10155000CCC0CD80CD807B000300067806CC0CCCBF
:101560000CCC18CC18780C0D1A0D01003C007E0034
:10157000660066003C007C00EEC0C6C0C3C0C380ED
:10158000E7C07EE03C700105050301098080808092
:10159000800412120600FC10306060C0C0C0C0C0E1
:1015A000C0C0C0C0C0606030100412120601FC80D0
:1015B000C06060303030303030303030306060C04B
:1015C0008005070707010720A8F820F8A820080AC7
:1015D0000A0A010018181818FFFF18181818020531
:1015E000050501FDC0C0404080050101060005F869
:1015F000020202050100C0C0050E0E050000181809
:101600001818303030606060C0C0C0C0080D0D0ACE
:1016100001003C7E66C3C3C3C3C3C3C3667E3C052F
:101620000D0D0A020018F8F81818181818181818CC
:101630001818080D0D0A01003CFEC303070E1C38E4
:1016400070E0C0FFFF080D0D0A01003E7FC3C30616
:101650001C1E0703C3C77E3C090D1A0A00000300C5
:1016600007000F001B00330033006300C300FF803E
:10167000FF80030003000300080D0D0A0100FEFEB9
:10168000C0C0FCFEC70303C3C7FE7C080D0D0A01E2
:10169000003C7F63C0C0DCFEC3C3C3E37E3C080DD7
:1016A0000D0A0100FFFF03060C0C181830306060B3
:1016B00060080D0D0A01003C7EE7C3C3667EE7C3E8
:1016C000C3E77E3C080D0D0A01003C7EC7C3C3C3BF
:1016D0007F3B0303C6FE7C020A0A050100C0C0006E
:1016E0000000000000C0C0020D0D0501FDC0C000DB
:1016F0000000000000C0C04040800809090A010045
:10170000030F3C70C0703C0F030705050B0202FE7F
:10171000FE00FEFE0809090A0100C0F03C0E030E9F
:101720003CF0C0070E0E0A01007CFEC6C60E1C3837
:10173000303030000030301011221201FD03F00F64
:10174000FC1C0E300663D36773C633CC63CC66CC07
:1017500066CCCCCFF86770700038001FF007E00C43
:101760000E1C0D0000060006000F000F0019801966
:101770008030C030C03FC07FE060606060C030C07B
:10178000300B0E1C0D0100FF00FF80C1C0C0C0C0A7
:10179000C0C180FF80FFC0C0E0C060C060C0E0FF8B
:1017A000C0FF800C0E1C0E01000F803FE0707060C7
:1017B00030E000C000C000C000C000E00060307039
:1017C000703FE00F800C0E1C0E0100FF80FFC0C0B8
:1017D000E0C060C030C030C030C030C030C030C0A9
:1017E00060C0E0FFC0FF800A0E1C0D0200FFC0FFBA
:1017F000C0C000C000C000C000FF80FF80C000C0AB
:1018000000C000C000FFC0FFC0090E1C0C0200FF9A
:1018100080FF80C000C000C000C000FF00FF00C00B
:1018200000C000C000C000C000C0000D0E1C0F01B1
:10183000000FC03FF070386018E018C000C000C052
:10184000F8C0F8E018601870383FF80FD80B0E1C7D
:101850000E0100C060C060C060C060C060C060FFBA
:10186000E0FFE0C060C060C060C060C060C06002F7
:101870000E0E060200C0C0C0C0C0C0C0C0C0C0C004
:10188000C0C0C0080E0E0A000003030303030303D5
:101890000303C3C3E77E3C0C0E1C0D0200C0E0C175
:1018A000C0C380C700CE00DC00F800FC00CE00C73B
:1018B00000C380C1C0C0E0C070090E1C0B0100C095
:1018C00000C000C000C000C000C000C000C000C018
:1018D00000C000C000C000FF80FF800E0E1C100181
:1018E00000C00CC00CE01CE01CF03CF03CD86CD8F4
:1018F0006CCCCCCCCCC48CC78CC30CC30C0B0E1CD6
:101900000E0100C060E060F060F060D860CC60CC98
:1019100060C660C660C360C1E0C1E0C0E0C0600DE9
:101920000E1C0F01000F803FE070706030E038C087
:1019300018C018C018C018E038603070703FE00F51
:10194000800A0E1C0D0200FF00FF80C1C0C0C0C095
:10195000C0C1C0FF80FF00C000C000C000C000C008
:1019600000C0000D0F1E0F01FF0F803FE070706080
:1019700030E038C018C018C018C018E1B861B070A5
:10198000F03FE00FB000300B0E1C0E0100FF80FF97
:10199000C0C0E0C060C060C0E0FFC0FF80C0C0C089
:1019A000C0C060C060C060C0600A0E1C0D01001E97
:1019B000007F80E1C0C0C0E0007C001F0003800108
:1019C000C000C0C0C0E1C07F803F000A0E1C0C01F7
:1019D00000FFC0FFC00C000C000C000C000C000C41
:1019E000000C000C000C000C000C000C000B0E1C7A
:1019F0000E0100C060C060C060C060C060C060C058
:101A000060C060C060C060C06060C07FC01F000C6C
:101A10000E1C0D0000C030C030606060606060303F
:101A2000C030C030C01980198019800F000F000627
:101A300000100E1C120100C183C183C183C3C363A4
:101A4000C6624666666666366C366C342C1C381880
:101A50001818180B0E1C0D0100C060C06060C0712A
:101A6000C031801B000E000E001B00318071C06071
:101A7000C0C060C0600C0E1C0D0000C030C03060E3
:101A800060606030C039C019800F00060006000693
:101A9000000600060006000A0E1C0C0100FFC0FF35
:101AA000C000C00180030006000C001C00180030BC
:101AB000006000C000FFC0FFC00412120500FCF06F
:101AC000F0C0C0C0C0C0C0C0C0C0C0C0C0C0C0F0B6
:101AD000F0050E0E050000C0C0C060606030303000
:101AE00030181818180412120500FCF0F0303030CD
:101AF0003030303030303030303030F0F0070606E3
:101B000009010710386C6CC6C60B02040B00FCFF01
:101B1000E0FFE004030304000BC06030090A140B6B
:101B200001007E00E700C30007007F00E300C30060
:101B3000C300E7807980090E1C0B0100C000C000C3
:101B4000C000C000DE00FF00E300C180C180C18092
:101B5000C180E300FF00DE00080A0A0A01003E7FA0
:101B600063C0C0C0C0637F3E090E1C0B0100018032
:101B70000180018001803D807F806380C180C180C1
:101B8000C180C18063807F803D80080A0A0A01000D
:101B90003C7EC3C3FFC0C0E37F3C060E0E060000C0
:101BA0001C3C3030FCFC3030303030303030090EEE
:101BB0001C0B01FC3D807F806180C180C180C180A1
:101BC000C18063807F803D80018063007F001C00B6
:101BD000080E0E0A0100C0C0C0C0DEFFE3C3C3C3CD
:101BE000C3C3C3C3020E0E040100C0C00000C0C0C6
:101BF000C0C0C0C0C0C0C0C004121204FFFC30305E
:101C00000000303030303030303030303030F0E0C4
:101C1000080E0E090100C0C0C0C0C6CCD8F0F8D86C
:101C2000CCCEC6C7020E0E040100C0C0C0C0C0C0EA
:101C3000C0C0C0C0C0C0C0C00E0A14100100DE7811
:101C4000FFFCE38CC30CC30CC30CC30CC30CC30C50
:101C5000C30C080A0A0A0100DEFFE3C3C3C3C3C3FF
:101C6000C3C3090A140B01003E007F006300C1805A
:101C7000C180C180C18063007F003E00090E1C0B43
:101C800001FCDE00FF00E300C180C180C180C18093
:101C9000E300FF00DE00C000C000C000C000090E6D
:101CA0001C0B01FC3D807F806380C180C180C180AE
:101CB000C18063807F803D80018001800180018040
:101CC000050A0A060100D8D8E0C0C0C0C0C0C0C024
:101CD000070A0A0901003C7EC6C0FC3E06C6FC7825
:101CE000060D0D060000303030FCFC303030303056
:101CF000303C1C080A0A0A0100C3C3C3C3C3C3C3E0
:101D0000C7FF7B080A0A0A0100C3C3C366666624CC
:101D10003C18180C0A140E0100C630C630C63066D6
:101D20006066606960294039C019801980080A0A14
:101D30000A0100C3E7663C18183C66E7C3080E0EAC
:101D40000A01FCC3C3C3666666243C1818181870E1
:101D500070070A0A090100FEFE060C183060C0FE7A
:101D6000FE06121206FFFC0C18303030303060C016
:101D700060303030303030180C0212120501FCC0D7
:101D8000C0C0C0C0C0C0C0C0C0C0C0C0C0C0C0C053
:101D9000C00612120600FCC0603030303030180C23
:101DA0001830303030303060C00803030A0104734B
:101DB000FFCEFF00002100240027002A002D003064
:101DC00000330001010000040107010A01000020A6
:101DD000002300260029002C002F00320000010003
:101DE0000003010601090100002200250028002B44
:101DF000002E003100340002010000050108010B33
:101E00000105050505070508080808020202020A7F
:101E10000A0808040404040101010101010101038D
:101E200003030303030303040707070C0C0C0C0C48
:101E30000C0C0C0202020206060606060606060B3B
:101E40000B0B0B0B0B0B0B010210202008081020B2
:101E50004010204080020102010804020101020436
:101E600008102040808040201008040201800402F5
:101E7000018040201008040201080402010102044C
:101E80000810204080010204081020408000000A51
:101E90000B02090C0D0E08070304010000000000EE
:101EA0000000000000000000000000000000000032
:101EB00000000000000000000012111000000000EF
:101EC0000000000000000000000000000000000012
:101ED00000000000FB1811241FBECFEFD1E2DEBFCF
:101EE000CDBF00E00CBF16E0A0E0B2E0E4E0F3E319
:101EF00000E00BBF02C007900D92A833B107D9F7DD
:101F000027E0A8E3B6E001C01D92A530B207E1F7D3
:101F10001FE0CBE6DFE000E006C021970109802F3B
:101F2000FE010E947419CA36D10780E00807A9F79C
:101F30000E94C1170C9480190C94000080E0089551
:101F4000CF92DF92EF92FF920F931F93CF93DF9385
:101F50006C017A018B01C0E0D0E0CE15DF0581F085
:101F6000D8016D918D01D601ED91FC910190F08128
:101F7000E02DC6011995892B11F02196EECF7E0137
:101F8000C701DF91CF911F910F91FF90EF90DF90EC
:101F9000CF9008950895DC011696ED91FC91179766
:101FA00012968C91481B477081E090E001C0880F29
:101FB0004A95EAF7E60FF11D3081222311F0832BB9
:101FC00002C08095832380830895FB014181DC0159
:101FD00012962C911297421760F013962C9113973A
:101FE000241738F0608115962C91621710F4248123
:101FF000D2CF0895FC0130819281930F9283218189
:10200000921760F494819F5F94838381830F82177A
:1020100010F08FEF820F838381E0089580E00895B0
:10202000FC011282808181508383148208950B9673
:10203000FC01849108950A96FC0184910895FC01A5
:1020400084910895FCDF882321F0823011F083E031
:10205000089586E00895FC01E60FF11D849190E05B
:10206000982F88273196E4918E0F911D089568E08E
:10207000F2CF66E0F0CF2EE93FE0009729F0F901BA
:102080003197F1F70197F9CF08951092BA060895A4
:102090008093BD061092B90084FF02C08CE001C09D
:1020A00088E48093B800F1CFDB011496ED91FC91A8
:1020B000159720E030E065E01994CF92DF92EF921F
:1020C000FF920F931F93CF93DF938C017B016A01E3
:1020D00080E0F601C49181110AC0CF3F09F454C0D9
:1020E0004C2FB701C801E0DF81114CC052C0CF3F77
:1020F00011F44FEFF6CFCE3F09F44DC0C03F08F0CA
:1021000041C0C03E58F04C2F4F70D7011496ED914E
:10211000FC91159720E030E062E00CC0C03D68F013
:102120004C2F4F70D7011496ED91FC91159720E03C
:1021300030E063E0C801199525C0C03CF0F0D7013C
:102140001496ED91FC91159720E030E040E064E0BA
:10215000C8011995C295C07FCE5FD0E0CE018BDF5C
:10216000D7011496ED91FC91159720E030E041E005
:1021700064E0C8011995CE0104C0C7FD03C08C2FCF
:1021800090E079DF80E001C081E0BFEFCB1ADB0A8D
:10219000A0CF80E001C081E0DF91CF911F910F912E
:1021A000FF90EF90DF90CF900895AF92BF92CF92C3
:1021B000DF92FF920F931F93CF93DF936C018B01FC
:1021C000F42EE90120E1421709F453C0241798F0D6
:1021D0003AE0431357C0DB011496ED91FC9115973B
:1021E00020E030E042E061E0199544E251E0B801BE
:1021F000C60163DF47C081E1481709F43DC0A5E18E
:102200004A1340C0FB01A280B3804CE151E0C601FB
:1022100054DFD50114964C91406BB801C60144DFE0
:10222000D8011496ED91FC91159720E030E041E043
:1022300062E0C6011995F50126813781D80114960F
:10224000ED91FC911597D50115964C9166E0C6016C
:102250001995811102C080E0C2C0D8011496ED9199
:10226000FC91159720E030E040E063E0C60119954D
:1022700009C043E151E002C048E051E0B801C601A5
:102280001CDFACC0F80102811381F2E3FF1609F4F0
:102290006FC0FF15B8F025E1F21609F474C037E1FC
:1022A000F31609F485C084E1F81298C0D801169697
:1022B000ED91FC91179715968C919F01280F311D78
:1022C000C9015AC0A6E4FA1609F481C0B7E4FB16A6
:1022D00009F480C0EBE3FE1281C089819B819130BB
:1022E00029F0933031F4482F885004C048E0480F5B
:1022F00001C0482F51E0D80113962C91281708F4FB
:1023000050E031E0F8012281421708F430E021E08A
:10231000481708F020E0822F852B382319F4252355
:1023200009F45CC0CA80913061F038F0923061F0FD
:10233000933071F4FF24FA940CC0F12CDD24D39473
:1023400009C0FF24F39405C0F12CDD24DA9402C007
:10235000F12CD12CC7FE03C0BE01C80136DE888136
:102360008D0D888389818F0D8983CC0C99F736C0B8
:10237000BE01C8012ADE32C011928E179F07E1F715
:10238000C8014EDE2BC0C80135DE882309F463CFB7
:10239000D8011696ED91FC91179715968C919F0197
:1023A000280F311DC90111928E179F07E1F716C042
:1023B0001882D80112968C911297898315968C9168
:1023C000159781508A8313968C918B8307C0F801EF
:1023D000858103C0D80111968C91888381E0DF91BB
:1023E000CF911F910F91FF90DF90CF90BF90AF9052
:1023F0000895089580E090E008957ED7DB01ED9187
:10240000FC9119945F926F927F928F929F92AF92FC
:10241000BF92CF92DF92EF92FF920F931F93CF93D1
:10242000DF93EC01E62EF42EC22E0C811D81C80133
:1024300006DED82E8C819D8105DE982E21E0D212F9
:1024400003C02FE0A22E02C0AA24AA948C819D81F1
:10245000F2DDD82E8C819D81EADDB82E8C819D81A4
:1024600006DEE0E6EC1538F4009729F0080F191F96
:1024700091E6D92E0FC08C819D81FBDDF0E4FC1527
:1024800038F4009729F0080F191F81E4D82E02C0F4
:102490000F5E1F4FBC1430F4188A1B8A1C8A198ADD
:1024A0001A8A75C0BD14C0F3892D90E0F8012491FB
:1024B0002F3F19F40F5F1F4F3FC0CD1034C08C81E8
:1024C0009D81BDDD98012F5F3F4FF801882311F0FA
:1024D000823091F484918B8BF90124912C8BF8013B
:1024E0003396E491E88BF8013496E491E98BF80196
:1024F0003596E491EA8B25C08491982F9F70925075
:102500009A8B82958F70898BF9012491822F8F701D
:102510008C8B22952F702B8BF8013296E491E295EB
:10252000EF70E88B0EC0F8013296E491EA219C012D
:102530002E0F311D020F131FBD1409F4ADCFD3941C
:10254000B5CF0115110519F18C819D817BDD2C8999
:102550009A89920FF91A9FEF920F9F0D3CA94EA9ED
:102560004F1518F0931728F402C0931770F09F15B9
:1025700060F43B899989E90E9FEF930F9E0D4BA95B
:102580005DA95E1530F4941730F4888933C080E07B
:1025900031C0941710F49E15C0F7080F111D395F54
:1025A000732E769476947694622E6F0C5E01FCE125
:1025B000AF0EB11C872C912C6F1439F35E2C68017F
:1025C0008C2D801B871590F4F60184916A817B81A4
:1025D0005C8EFD8E1F8E8E8F95014BE3CE010EDF3C
:1025E000FFEFCF1ADF0A28E0520EEACF080D191DBF
:1025F000F394E2CFDF91CF911F910F91FF90EF9075
:10260000DF90CF90BF90AF909F908F907F906F9012
:102610005F900895DF92EF92FF920F931F93CF93F5
:10262000DF93EC01D62E1CAD0BAD7C0184E0E80EEF
:10263000F11CE98DFA8DC7011995412F480F2D2DF9
:10264000602FC701DFDE9BAD890F8BAF81E090E08B
:10265000DF91CF911F910F91FF90EF90DF90089540
:102660009091BA06911102C08093BA0608951F9303
:10267000CF93DF931F921F92CDB7DEB720ED37E0E7
:102680003A8329839091BC00982391F429813A815F
:10269000232B49F48091BD06182F127081FD08C0CC
:1026A00081E0DEDF06C029813A8121503109E8CF7F
:1026B00011E0812F0F900F90DF91CF911F9108951E
:1026C00084E98093BC0064E080E1D1CFCF93809314
:1026D000BB0084E88093BC0063E080E8C8DFC82FBB
:1026E000882381F08091BD06C82FC27081FD09C08A
:1026F0008091B900887F883221F063E082E0B0DF0A
:1027000001C0C1E08C2FCF910895CF93DF93FC01DE
:1027100023A5222369F0EC011BD3811102C080E0C4
:1027200008C08EA1811180E4D1DF8823C1F31BA6EC
:1027300081E0DF91CF9108950F931F93CF93C42F22
:1027400089016330B9F050F4613081F0623009F0F2
:102750003FC0FC0146A321E023A73AC06630E9F060
:10276000673041F1653009F033C00CC0FC0186A52B
:102770008FDC2EC0FC0116A221E023A7411128C046
:102780009FDF26C0C2DF811103C09ADF80E021C035
:102790008C2F9CDF81111CC0F8CFB7DF8823A9F3F1
:1027A000CC23B1F0F80181918F0190DF882369F388
:1027B000C150F6CFAADF882341F3CC2349F0F801BA
:1027C000849184DF882329F00F5F1F4FC150F5CF1C
:1027D00081E0CF911F910F9108951F920F920FB634
:1027E0000F9211240BB60F922F933F934F935F9349
:1027F0006F937F938F939F93AF93BF93EF93FF93C9
:102800008091B8069091B90601969093B90680938D
:10281000B806883E934009F041C01092B906109264
:10282000B8068BE3C8D2892BD9F480910E0290911F
:102830000F02A0911002B0911102803824E8920793
:102840002EE1A207B10564F488519C4FAF4FBF4FF2
:1028500080930E0290930F02A0931002B093110286
:102860008AE3A9D2892BD1F480910E0290910F02B4
:10287000A0911002B0911102893522E09207A105C2
:10288000B10564F0885E9340A109B10980930E02FE
:1028900090930F02A0931002B09311028091BB0697
:1028A0009091BC0644968F3F23E092072CF49093BE
:1028B000BC068093BB0604C01092BC061092BB06F7
:1028C000E091BB06F091BC06EE5EFD4F80818093E7
:1028D000A800E091BB06F091BC06EE5EFD4F808142
:1028E0008093AA00FF91EF91BF91AF919F918F913B
:1028F0007F916F915F914F913F912F910F900BBE00
:102900000F900FBE0F901F90189590E0FC0131972B
:10291000E231F10508F04DC08827EE58FF4F8F4F88
:10292000E3C4809180008F7703C0809180008F7D09
:1029300080938000089580918000877FF9CF84B5CF
:102940008F7702C084B58F7D84BD08958091B000DB
:102950008F7703C08091B0008F7D8093B000089581
:10296000809190008F7707C0809190008F7D03C089
:1029700080919000877F8093900008958091A000BF
:102980008F7707C08091A0008F7D03C08091A00049
:10299000877F8093A0000895809120018F7707C0E2
:1029A000809120018F7D03C080912001877F8093DB
:1029B000200108953FB7F894809101079091020794
:1029C000A0910307B091040726B5A89B05C02F3F2F
:1029D00019F00196A11DB11D3FBFBA2FA92F982F45
:1029E0008827820F911DA11DB11DBC01CD0142E0C0
:1029F000660F771F881F991F4A95D1F708950F9387
:102A00001F93CF93DF931F92CDB7DEB70091C4061B
:102A10001091C506E091F306F091F40682E0199555
:102A200020E030E04AE0B80182EC96E0E7DC182FC5
:102A3000E091F306F091F40683E01995E091F30636
:102A4000F091F40680E019951123A1F16091C4067C
:102A50007091C5069E012F5F3F4F46E482EC96E0E1
:102A6000CDDC89818093C2066091C4067091C50651
:102A70009E012F5F3F4F47E482EC96E0BFDC8981E7
:102A80008093C3066091C4067091C50620E030E0D3
:102A900048E482EC96E0B2DC8093CD066091C406F7
:102AA0007091C50625EF36E047E182EC96E0A6DCA2
:102AB00081E001C080E00F90DF91CF911F910F91D5
:102AC0000895CF93DF938091FB06811104C081E0CC
:102AD0008093FB0694DFC091C406D091C506E091B7
:102AE000F306F091F40682E01995E091F306F09177
:102AF000F40681E0199520E030E044E1BE0182EC6B
:102B000096E07CDC25EF36E047E1BE0182EC96E002
:102B100075DCE091F306F091F40680E0DF91CF914F
:102B20001994FF920F931F93CF93DF93082FF62EE4
:102B3000172FE091D706F091D80682EC96E0199510
:102B4000080FCF2DD12F10E0F12C2991222341F035
:102B5000402F6F2D82EC96E055DCF80E180FF5CF64
:102B6000812FDF91CF911F910F91FF9008950F93C7
:102B70001F93CF93E091D006F091D106309719F0D2
:102B800082EC96E019950091C4061091C506E0917B
:102B9000F306F091F40682E01995E091F306F091C6
:102BA000F40681E0199520E030E045E1B80182ECBF
:102BB00096E024DCC82F882339F025EF36E047E182
:102BC000B80182EC96E01ADCE091F306F091F4068D
:102BD00080E019958C2FCF911F910F9108958091CE
:102BE000C6069091C706009709F437C02091D90610
:102BF000FC01211107C03596E491E093DA06FC014F
:102C00003C960FC0213039F43F96E491E093DA0608
:102C1000FC01709606C03D96E491E093DA06FC0153
:102C20003E96E491E093DB068091DA06082E000CD4
:102C3000990B2091DB06821B910927FD939520912A
:102C4000DC06203441F0829FC001112426E09695D5
:102C500087952A95E1F78093DD0608958F929F92DC
:102C6000AF92BF920F931F93CF93DF93CDB7DEB791
:102C7000A1970FB6F894DEBF0FBECDBF19A24230A8
:102C800008F44AE08E010F5D1F4F842E912CA12C79
:102C9000B12CA501940106D3E62FB901CA01015058
:102CA0001109EA3014F4E05D01C0E95CD801EC934D
:102CB000232B242B252B69F70115110569F0F80149
:102CC00001900020E9F73197AF01401B510BB8018B
:102CD0008EEB96E035D902C080E090E0A1960FB669
:102CE000F894DEBF0FBECDBFDF91CF911F910F9142
:102CF000BF90AF909F908F9008951F93CF93DF93D5
:102D0000EAE9FEE19491E4E5FEE1D491EEE0FEE132
:102D1000C491CC23C9F0182F992311F0892FF5DD28
:102D2000EC2FF0E0EE0FFF1FE951F24EA591B491A8
:102D30009FB7F894111104C08C91D095D82302C08C
:102D4000EC91DE2BDC939FBFDF91CF911F91089513
:102D5000CF9384EA8093BC0061E080E888DC88231C
:102D600051F08091B900887F883039F0803129F0A6
:102D700061E082E075DCC0E01BC088E78093BB00A7
:102D800084E88093BC0062E080E871DC882399F3DA
:102D90008091BD06C82FC27081FD09C08091B90025
:102DA000887F883121F062E082E05ADC01C0C1E016
:102DB0008C2FCF910895CF93DF93282F30E0F90126
:102DC000E357F14E8491F901E95BF14ED491F90199
:102DD000EF5FF14EC491CC2389F0811196DDEC2F89
:102DE000F0E0EE0FFF1FE353F24EA591B491EC918A
:102DF000ED2381E090E021F480E002C080E090E0EB
:102E0000DF91CF910895CF93DF9390E0FC01E95BD0
:102E1000F14E2491FC01EF5FF14E8491882361F122
:102E200090E0880F991FFC01ED54F24EC591D491AA
:102E3000FC01E951F24EA591B491611109C09FB70F
:102E4000F8948881209582238883EC912E230BC0EF
:102E5000623061F49FB7F8948881322F30958323D4
:102E60008883EC912E2B2C939FBF06C08FB7F894CC
:102E7000E8812E2B28838FBFDF91CF9108958F9209
:102E80009F92AF92BF92CF92DF92EF92FF926B012F
:102E90007C0190DD4B015C01C114D104E104F1041B
:102EA000E9F088DDDC01CB0188199909AA09BB0981
:102EB000883E9340A105B10578F321E0C21AD108FC
:102EC000E108F10888EE880E83E0981EA11CB11C71
:102ED000C114D104E104F10421F7DECFFF90EF909B
:102EE000DF90CF90BF90AF909F908F9008951F92EA
:102EF0000F920FB60F9211242F933F938F939F93AE
:102F0000AF93BF938091FD069091FE06A091FF06BE
:102F1000B09100073091FC0623E0230F2D3720F4F9
:102F20000196A11DB11D05C026E8230F0296A11D23
:102F3000B11D2093FC068093FD069093FE06A0939E
:102F4000FF06B09300078091010790910207A091BE
:102F50000307B09104070196A11DB11D80930107DD
:102F600090930207A0930307B0930407BF91AF911A
:102F70009F918F913F912F910F900FBE0F901F90B7
:102F80001895789484B5826084BD84B5816084BDD1
:102F900085B5826085BD85B5816085BD80916E00F7
:102FA000816080936E001092810080918100826028
:102FB0008093810080918100816080938100809165
:102FC00080008160809380008091B1008460809354
:102FD000B1008091B00081608093B0008091910039
:102FE0008260809391008091910081608093910034
:102FF000809190008160809390008091A100826018
:103000008093A1008091A10081608093A1008091B4
:10301000A00081608093A000809121018260809354
:103020002101809121018160809321018091200103
:1030300081608093200180917A00846080937A007F
:1030400080917A00826080937A0080917A0081601A
:1030500080937A0080917A00806880937A00109241
:10306000C10062E08CE0CFDE62E082E0CCDE62E0B4
:103070008BE3C9DE62E08AE3C6DE61E08DE0C3DE99
:1030800061E086E0C0DE61E087E0BDDE80E680933F
:103090007C0085EE80937A0010927B0081E0809323
:1030A0007E0080EA8093A00081E18093A10080E20D
:1030B000809372001092A7008FEF8093A60084B1D6
:1030C000866084B978949AE0792E20E0E22E20E0A0
:1030D000F22E0AE411E0CEE9DFE03AECC32E34E14F
:1030E000D32E8CE3682E81E008DE789462E370E0F2
:1030F00080E090E0C4DE80E000DEF8941092BC0630
:103100001092BB0660910E0270910F028091100226
:1031100090911102B4DE8CE04EDE892B09F44EC092
:10312000D0DC8091C6069091C7068A5C944149F034
:10313000D092C706C092C60652DDD093D806C0937F
:10314000D7066EE176E084E1ECDC7092F9066092DD
:10315000FA068091C6069091C7068A54914049F0BC
:103160001093C7060093C6063ADDD093D806C093E5
:10317000D70680900E0290900F02A0901002B0909F
:103180001102B7FE0DC06DE28EEB96E043DA6627C2
:103190007727CB01681979098A099B094AE003C09E
:1031A0004AE0C501B4015ADDE2DC8111BACFE11475
:1031B000F10409F498CF0E94000093CF82DC809143
:1031C000C6069091C7068A54914049F01093C706ED
:1031D0000093C60604DDD093D806C093D70668E2F4
:1031E00076E08EE19EDC6FE276E08CE39ADCBFDC79
:1031F0008111E5CFDCCF1092C1061092C00686E1A6
:1032000096E09093BF068093BE061092F906109246
:10321000FA061092FB061092C7061092C60610928C
:10322000C9061092C8061092CB0681E08093CA06A8
:1032300082E28093CC061092D1061092D006E5EE81
:10324000F6E08FEF819396E0E33FF907D9F781E04D
:103250008093E2062EE93FE03093D8062093D7060C
:103260008093D9061092DA061092DB0680E48093F0
:10327000DC061092DD068AEC9FE09093F4068093C2
:10328000F30688E092E09093C5068093C40682E03E
:103290008093F006B4DB86E196E09093BF068093BE
:1032A000BE060895A1E21A2EAA1BBB1BFD010DC08C
:1032B000AA1FBB1FEE1FFF1FA217B307E407F507E6
:1032C00020F0A21BB30BE40BF50B661F771F881FC2
:1032D000991F1A9469F760957095809590959B0158
:1032E000AC01BD01CF010895EE0FFF1F881F8BBFFA
:1032F0000790F691E02D199481E090E0F89400C0D9
:04330000F894FFCF6F
:103304000840000000803806D51000029C13204EAF
:103314000000808081828383848586878788898A68
:103324008A8B8C8D8E8E8F90919192939495959695
:10333400979898999A9B9B9C9D9E9F9FA0A1A2A2BF
:10334400A3A4A5A5A6A7A8A8A9AAAAABACADADAEEF
:10335400AFB0B0B1B2B2B3B4B5B5B6B7B7B8B9BA25
:10336400BABBBCBCBDBEBEBFC0C0C1C2C2C3C4C464
:10337400C5C6C6C7C8C8C9CACACBCCCCCDCDCECFAA
:10338400CFD0D0D1D2D2D3D3D4D5D5D6D6D7D7D8FF
:10339400D9D9DADADBDBDCDCDDDEDEDFDFE0E0E15D
:1033A400E1E2E2E3E3E4E4E5E5E6E6E6E7E7E8E8CC
:1033B400E9E9EAEAEAEBEBECECEDEDEDEEEEEFEF4A
:1033C400EFF0F0F0F1F1F1F2F2F2F3F3F3F4F4F4DC
:1033D400F5F5F5F6F6F6F7F7F7F7F8F8F8F8F9F97A
:1033E400F9F9FAFAFAFAFAFBFBFBFBFBFCFCFCFC2E
:1033F400FCFCFDFDFDFDFDFDFDFEFEFEFEFEFEFEF4
:10340400FEFEFEFEFFFFFFFFFFFFFFFFFFFFFFFFCC
:10341400FFFFFFFFFFFFFFFFFFFFFFFFFFFFFFFFB8
:10342400FFFEFEFEFEFEFEFEFEFEFEFDFDFDFDFDBC
:10343400FDFDFDFCFCFCFCFCFBFBFBFBFBFBFAFACF
:10344400FAFAF9F9F9F9F8F8F8F8F7F7F7F7F6F6F8
:10345400F6F5F5F5F5F4F4F4F3F3F3F2F2F2F1F131
:10346400F1F0F0EFEFEFEEEEEEEDEDECECEBEBEB7D
:10347400EAEAE9E9E8E8E8E7E7E6E6E5E5E4E4E3DB
:10348400E3E2E2E1E1E0E0DFDFDEDEDDDDDCDCDB48
:10349400DBDAD9D9D8D8D7D7D6D5D5D4D4D3D3D2C3
:1034A400D1D1D0D0CFCECECDCCCCCBCBCAC9C9C84C
:1034B400C7C7C6C5C5C4C3C3C2C1C1C0BFBFBEBDE3
:1034C400BDBCBBBBBAB9B9B8B7B6B6B5B4B4B3B280
:1034D400B1B1B0AFAFAEADACACABAAA9A9A8A7A629
:1034E400A6A5A4A3A3A2A1A0A09F9E9D9D9C9B9AD8
:1034F4009A999897969695949393929190908F8E8B
:103504008D8C8C8B8A898888878685858483828143
:1035140081807F7E7E7D7C7B7A7A797877777675F9
:103524007473737271706F6F6E6D6C6C6B6A6969B2
:1035340068676665656463626261605F5F5E5D5C67
:103544005C5B5A5959585756565554535352515017
:10355400504F4E4E4D4C4B4B4A49494847464645C1
:1035640044444342424140403F3E3E3D3C3C3B3A62
:103574003A393838373636353434333332313130FA
:103584002F2F2E2E2D2C2C2B2B2A2A292828272787
:10359400262625242423232222212120201F1F1E06
:1035A4001E1D1D1C1C1B1B1A1A1919181817171776
:1035B40016161515141414131312121111111010D8
:1035C400100F0F0E0E0E0D0D0D0C0C0C0B0B0B0A29
:1035D4000A0A0A0909090808080807070707060666
:1035E4000606050505050404040404040303030393
:1035F40003020202020202020201010101010101AD
:1036040001010100000000000000000000000000B3
:1036140000000000000000000000000000000000A6
:103624000101010101010101010101020202020281
:10363400020203030303030304040404040505054D
:103644000505060606060707070708080808090906
:10365400090A0A0A0B0B0B0C0C0C0D0D0D0E0E0EA9
:103664000F0F0F101010111112121213131414153E
:1036740015151616171718181919191A1A1B1B1CC1
:103684001C1D1D1E1E1F1F20202121222323242434
:103694002525262627282829292A2A2B2C2C2D2D96
:1036A4002E2F2F30303132323333343535363737ED
:1036B4003839393A3B3B3C3D3D3E3F3F4041414236
:1036C400434344454546474848494A4A4B4C4D4D77
:1036D4004E4F4F50515252535455555657575859AF
:1036E4005A5A5B5C5D5D5E5F6060616263646465E1
:1036F40066676768696A6A6B6C6D6E6E6F7071710C
:10370400727374757576777878797A7B7C7C7D7E34
:103714007F80000000000A13A00FFA11F9114D4533
:1037240054524F4E4F4D45004546464543540020A4
:0837340020204F464620000052
:00000001FF
