:100000006DC400009CC400009AC4000098C40000A5
:1000100096C4000094C4000092C4000090C4000084
:100020008EC400008CC400008AC4000088C4000094
:1000300086C4000084C4000082C4000080C40000A4
:100040007EC400007CC400007AC4000078C40000B4
:1000500076C4000074C4000072C400000C949A0CB2
:100060006EC400000C943608D8C7000068C40000B5
:1000700066C4000064C4000062C4000060C40000E4
:100080005EC400005CC400005AC4000058C40000F4
:1000900056C4000054C4000052C4000050C4000004
:1000A0004EC400000C945B0A4AC4000048C400001F
:1000B00046C4000044C4000042C4000040C4000024
:1000C0003EC400003CC400003AC4000038C4000034
:1000D00036C4000034C4000032C4000030C4000044
:1000E0002EC40000990A9C0A8B0A8F0A950AD30A2B
:1000F000A00AA40AAA0AAE0AB20AB80ABC0AC00A2E
:10010000D30AC60ACA0ACE0AFFE0FFD1AFFF32FF08
:10011000D0FFFEFFE0FFD1AEFFD0FFFEFFE0FFD13A
:100120001002FFFEFFD0FFE0FFC1FFD1AED580A8D7
:100130003FD300408D142002A1C8DA1281CFD9F13B
:10014000DB402EA4A6AFFFD0FFFE001116FEFB0B76
:10015000020A0485207FFD0CFD0BFD000000040059
:1001600001010B0B04020080808080808080800071
:100170008080030303050108A0A0A0070A0A080065
:10018000001414147E2828FC505050070E0E08004E
:10019000FE107C9292905038141292927C10100BA8
:1001A0000B160C00007080890089007200020004A8
:1001B00000080009C01220122021C0080A0A0A0102
:1001C000003048483020528A848A710103030301B9
:1001D00008808080030E0E0501FD20404080808055
:1001E0008080808080404020030E0E0501FD80400D
:1001F00040202020202020202040408005050507A9
:10020000010620A870A82007070709010110101097
:10021000FE1010100204040300FE40404080030161
:1002200001040004E00102020301008080040B0BC2
:100230000400001010202020404040808080060BE9
:100240000B08010078848484848484848484780303
:100250000B0B08020020E02020202020202020205E
:10026000060B0B080100788484040810204080806D
:10027000FC060B0B08010078848404043804048411
:100280008478070B0B080100040C1424448484FEBA
:10029000040404060B0B080100FC808080F80404B1
:1002A00004848478060B0B08010078848080B8C42D
:1002B0008484848478060B0B080100FC0408081071
:1002C000102020404040060B0B08010078848484F5
:1002D00084788484848478060B0B080100788484F5
:1002E00084847C04048484780108080301008080ED
:1002F000000000008080020A0A0400FE4040000066
:100300000000404040800605050801020C30C03066
:100310000C060303090103FC00FC060505080102A5
:10032000C0300C30C0060B0B08010030CC848404B4
:100330000810200020200B0C180D01FF0F0030C00A
:10034000402046A089209120912093408D8040003C
:1003500060801F00090B1609000008001C00140033
:1003600014002200220041007F0041008080808034
:10037000070B0B090100FC86828284F88482828646
:10038000FC080B0B0A01001C6341808080808041C7
:10039000631C080B0B0A0100F88682818181818130
:1003A0008286F8070B0B090100FE80808080FC80AC
:1003B000808080FE070B0B080100FE80808080FC9F
:1003C0008080808080090B160B01001E0061804038
:1003D0008080008000878080808080408063801CD7
:1003E00080080B0B0A01008181818181FF8181815D
:1003F0008181010B0B0402008080808080808080DE
:10040000808080060B0B070000040404040404042D
:1004100004848478080B0B09010082848890A0E092
:100420009088848281060B0B080200808080808087
:100430008080808080FC0B0B160C00008020C06048
:10044000C060A0A0A0A0912091208A208A208420B2
:100450008420080B0B0A0100C1A1A1919189898513
:10046000858383090B160B01001C0063004100808B
:10047000808080808080808080410063001C000735
:100480000B0B090100FC86828286FC8080808080C4
:10049000090B160B01001C00630041008080808066
:1004A000808088808480430063001C80080B0B0AD6
:1004B0000100FE83818182FC8281818181070B0B97
:1004C00009010038C682806018060282C638090B0E
:1004D00016090000FF800800080008000800080056
:1004E00008000800080008000800080B0B0A0100BB
:1004F000818181818181818181423C090B160900C2
:1005000000808080804100410063002200220014AE
:10051000001400080008000D0B160D000082088270
:1005200008850845104510451028A028A028A010CF
:10053000401040090B160900008080410022001481
:1005400000080008001400220041004100808009DA
:100550000B160900008080C1804100220022001497
:10056000001C000800080008000800070B0B090128
:1005700000FE020408181020604080FE030E0E04E6
:1005800001FDE0808080808080808080808080E0AD
:10059000040B0B04000080804040402020201010FD
:1005A00010030E0E0400FDE020202020202020203B
:1005B00020202020E00505050701062050508888EE
:1005C0000801010800FDFF02020205010980400741
:1005D000080808010078CC047CC484CC76060B0B98
:1005E000070100808080B8CC84848484CCB806085D
:1005F0000807010078CC80808084CC78060B0B083B
:10060000010004040474CC84848484CC7406080837
:1006100008010078CC84FC8080CC78040B0B0400AB
:1006200000304040E040404040404040060B0B0856
:1006300001FD74CC84848484CC7404CC78060B0BC8
:10064000080100808080B8CC848484848484010B79
:100650000B03010080800080808080808080800388
:100660000E0E03FFFD20200020202020202020202F
:100670002020C0060B0B0701008080808890A0C05E
:10068000A0908884010B0B03010080808080808013
:1006900080808080800908100B0100B300CC808826
:1006A0008088808880888088808880060808080183
:1006B00000B8CC8484848484840608080801007807
:1006C000CC84848484CC78060B0B0801FDB8CC84E0
:1006D000848484CCB8808080060B0B0801FD74CC28
:1006E00084848484CC74040404040808050100B0E4
:1006F000C08080808080800508080701007088C065
:100700007018088870040A0A0400004040E0404065
:1007100040404040300608080701008484848484F7
:1007200084CC7407080807000082824444442828C7
:10073000100908100A0000888088808880490049D4
:1007400000550022002200070808070000C64428C0
:1007500010102844C6070B0B0700FD82C244442436
:10076000281810103060060808070000FC04081064
:10077000204080FC050E0E0500FD182020202040A2
:100780008040202020202018010E0E0301FD8080D3
:10079000808080808080808080808080050E0E0533
:1007A00000FDC0202020201008102020202020C084
:1007B00006030308010364B498FF0000210024002D
:1007C00027002A002D003000330001010000040141
:1007D00007010A01000020002300260029002C0048
:1007E0002F00320000010000030106010901000092
:1007F0002200250028002B002E00310034000201C9
:100800000000050108010B0105050505070508089D
:100810000808020202020A0A08080404040401018A
:10082000010101010101030303030303030304079F
:1008300007070C0C0C0C0C0C0C0C02020202060636
:100840000606060606060B0B0B0B0B0B0B0B010229
:1008500010202008081020401020408002010201D2
:10086000080402010102040810204080804020108A
:1008700008040201800402018040201008040201E3
:10088000080402010102040810204080010204084B
:100890001020408000000A0B02090C0D0E0807030F
:1008A0000401000000000000000000000000000043
:1008B0000000000000000000000000000000000038
:1008C00012111000000000000000000000000000F5
:1008D00000000000000000000000C70E11241FBE31
:1008E000CFEFD1E2DEBFCDBF00E00CBF12E0A0E051
:1008F000B2E0E2E2FFE100E00BBF02C007900D9220
:10090000A835B107D9F723E0A8E5B2E001C01D92F0
:10091000A03CB207E1F714E0CEE6D4E000E006C068
:1009200021970109802FFE010E94830FCD36D10748
:1009300080E00807A9F70E94E40C0C948F0F60CBAD
:1009400080E00895CF92DF92EF92FF920F931F9372
:10095000CF93DF936C017A018B01C0E0D0E0CE151C
:10096000DF0581F0D8016D918D01D601ED91FC91EB
:100970000190F081E02DC6011995892B11F0219687
:10098000EECF7E01C701DF91CF911F910F91FF90B4
:10099000EF90DF90CF900895FC01538D448D252F6B
:1009A00030E0842F90E0821B930B541710F0CF9609
:1009B000089501970895FC01918D828D981761F03B
:1009C000828DDF01A80FB11D5D968C91928D9F5F86
:1009D0009F73928F90E008958FEF9FEF0895FC0131
:1009E000918D828D981731F0828DE80FF11D858DE4
:1009F00090E008958FEF9FEF0895FC01918D228D77
:100A0000892F90E0805C9F4F821B91098F739927FB
:100A100008958CE592E0F1DF21E0892B09F420E0D4
:100A2000822F0895FC01848DDF01A80FB11DA35A08
:100A3000BF4F2C91848D90E001968F739927848FFE
:100A4000A689B7892C93A089B1898C918370806421
:100A50008C93938D848D981306C00288F389E02DC2
:100A600080818F7D80830895EF92FF920F931F9373
:100A7000CF93DF93EC0181E0888F9B8D8C8D981351
:100A800005C0E889F989808185FD25C0F62E0B8D8A
:100A900010E00F5F1F4F0F731127E02E8C8DE812AF
:100AA0000BC00FB607FCFACFE889F989808185FF72
:100AB000F5CFCE01B7DFF2CF8B8DFE01E80FF11D30
:100AC000E35AFF4FF0829FB7F8940B8FEA89FB89B6
:100AD000808180620AC09FB7F894EE89FF896083A5
:100AE000E889F98980818370806480839FBF81E079
:100AF00090E0DF91CF911F910F91FF90EF900895BB
:100B0000CF93DF93EC01888D8823C1F0EA89FB89BC
:100B1000808185FD05C0A889B9898C9186FD0EC0AC
:100B20000FB607FCF5CF808185FFF2CFA889B98980
:100B30008C9185FFEDCFCE0175DFE8CFDF91CF91AE
:100B4000089580E090E0892B19F063DF811125C0C2
:100B500080E090E0892B41F080E090E0892B21F04B
:100B60000E94000081111CC080E090E0892B41F0C0
:100B700080E090E0892B21F00E940000811113C0D9
:100B800080E090E0892BA1F080E090E0892B81F05B
:100B90000E94000081110AC008950E940000D8CF71
:100BA0000E940000E1CF0E940000EACF0C940000F8
:100BB00008950895DC011696ED91FC911797129611
:100BC0008C91481B477081E090E001C0880F4A95E6
:100BD000EAF7E60FF11D3081222311F0832B02C0CA
:100BE0008095832380830895FB014181DC01129667
:100BF0002C911297421760F013962C91139724179B
:100C000038F0608115962C91621710F42481D2CFB0
:100C10000895FC0130819281930F92832181921774
:100C200060F494819F5F94838381830F821710F017
:100C30008FEF820F838381E0089580E00895FC01A7
:100C40001282808181508383148208950B96FC0167
:100C5000849108950A96FC0184910895FC01849181
:100C60000895FCDF882321F0823011F083E008959D
:100C700086E00895FC01E60FF11D849190E0982F25
:100C800088273196E4918E0F911D089568E0F2CF88
:100C900066E0F0CF2EE93FE0009729F0F9013197A7
:100CA000F1F70197F9CF08951092580208958093B3
:100CB0005B021092B90084FF02C08CE001C088E49E
:100CC0008093B800F1CFDB011496ED91FC9115975C
:100CD00020E030E065E01994CF92DF92EF92FF922E
:100CE0000F931F93CF93DF938C017B016A0180E008
:100CF000F601C49181110AC0CF3F09F454C04C2FB2
:100D0000B701C801E0DF81114CC052C0CF3F11F4E0
:100D10004FEFF6CFCE3F09F44DC0C03F08F041C0C1
:100D2000C03E58F04C2F4F70D7011496ED91FC91B6
:100D3000159720E030E062E00CC0C03D68F04C2F19
:100D40004F70D7011496ED91FC91159720E030E09B
:100D500063E0C801199525C0C03CF0F0D701149696
:100D6000ED91FC91159720E030E040E064E0C8018F
:100D70001995C295C07FCE5FD0E0CE018BDFD70141
:100D80001496ED91FC91159720E030E041E064E08D
:100D9000C8011995CE0104C0C7FD03C08C2F90E097
:100DA00079DF80E001C081E0BFEFCB1ADB0AA0CF82
:100DB00080E001C081E0DF91CF911F910F91FF9002
:100DC000EF90DF90CF900895AF92BF92CF92DF92D5
:100DD000FF920F931F93CF93DF936C018B01F42E3F
:100DE000E90120E1421709F453C0241798F03AE0D2
:100DF000431357C0DB011496ED91FC91159720E049
:100E000030E042E061E0199544E251E0B801C601EA
:100E100063DF47C081E1481709F43DC0A5E14A13EB
:100E200040C0FB01A280B3804CE151E0C60154DF19
:100E3000D50114964C91406BB801C60144DFD8012E
:100E40001496ED91FC91159720E030E041E062E0CE
:100E5000C6011995F50126813781D8011496ED91C7
:100E6000FC911597D50115964C9166E0C601199530
:100E7000811102C080E0C2C0D8011496ED91FC91AE
:100E8000159720E030E040E063E0C601199509C005
:100E900043E151E002C048E051E0B801C6011CDF67
:100EA000ACC0F80102811381F2E3FF1609F46FC0B0
:100EB000FF15B8F025E1F21609F474C037E1F31616
:100EC00009F485C084E1F81298C0D8011696ED9116
:100ED000FC91179715968C919F01280F311DC90120
:100EE0005AC0A6E4FA1609F481C0B7E4FB1609F467
:100EF00080C0EBE3FE1281C089819B81913029F093
:100F0000933031F4482F885004C048E0480F01C0A6
:100F1000482F51E0D80113962C91281708F450E07F
:100F200031E0F8012281421708F430E021E048174F
:100F300008F020E0822F852B382319F4252309F4AB
:100F40005CC0CA80913061F038F0923061F093302B
:100F500071F4FF24FA940CC0F12CDD24D39409C061
:100F6000FF24F39405C0F12CDD24DA9402C0F12CA7
:100F7000D12CC7FE03C0BE01C80136DE88818D0DAD
:100F8000888389818F0D8983CC0C99F736C0BE0187
:100F9000C8012ADE32C011928E179F07E1F7C801FF
:100FA0004EDE2BC0C80135DE882309F463CFD8019B
:100FB0001696ED91FC91179715968C919F01280F2D
:100FC000311DC90111928E179F07E1F716C01882D3
:100FD000D80112968C911297898315968C9115974A
:100FE00081508A8313968C918B8307C0F801858189
:100FF00003C0D80111968C91888381E0DF91CF9155
:101000001F910F91FF90DF90CF90BF90AF90089508
:10101000089580E090E008957ED71F920F920FB65A
:101020000F9211240BB60F922F933F934F935F9320
:101030006F937F938F939F93AF93BF93EF93FF93A0
:101040008CE592E0EFDCFF91EF91BF91AF919F9122
:101050008F917F916F915F914F913F912F910F9061
:101060000BBE0F900FBE0F901F9018951F920F92FE
:101070000FB60F9211240BB60F922F938F939F935D
:10108000EF93FF93E0916C02F0916D028081E0910B
:101090007202F091730282FD12C0908180917502FC
:1010A0008F5F8F7320917602821751F0E091750265
:1010B000F0E0E45AFD4F958F8093750201C0808166
:1010C000FF91EF919F918F912F910F900BBE0F90F9
:1010D0000FBE0F901F901895DB01ED91FC911994B4
:1010E0005F926F927F928F929F92AF92BF92CF92B8
:1010F000DF92EF92FF920F931F93CF93DF93EC0158
:10110000E62EF42EC22E0C811D81C801A7DDD82E3B
:101110008C819D81A6DD982E21E0D21203C02FE0A4
:10112000A22E02C0AA24AA948C819D8193DDD82E80
:101130008C819D818BDDB82E8C819D81A7DDE0E6C1
:10114000EC1538F4009729F0080F191F91E6D92EF5
:101150000FC08C819D819CDDF0E4FC1538F4009774
:1011600029F0080F191F81E4D82E02C00F5E1F4F0F
:10117000BC1430F4188A1B8A1C8A198A1A8A75C012
:10118000BD14C0F3892D90E0F80124912F3F19F48C
:101190000F5F1F4F3FC0CD1034C08C819D815EDD3D
:1011A00098012F5F3F4FF801882311F0823091F4AE
:1011B00084918B8BF90124912C8BF8013396E49167
:1011C000E88BF8013496E491E98BF8013596E491C7
:1011D000EA8B25C08491982F9F7092509A8B8295AC
:1011E0008F70898BF9012491822F8F708C8B2295BF
:1011F0002F702B8BF8013296E491E295EF70E88B1B
:101200000EC0F8013296E491EA219C012E0F311DA7
:10121000020F131FBD1409F4ADCFD394B5CF011540
:10122000110519F18C819D811CDD2C899A89920F01
:10123000F91A9FEF920F9F0D3CA94EA94F1518F078
:10124000931728F402C0931770F09F1560F43B8940
:101250009989E90E9FEF930F9E0D4BA95DA95E152D
:1012600030F4941730F4888933C080E031C094178B
:1012700010F49E15C0F7080F111D395F732E769478
:1012800076947694622E6F0C5E01FCE1AF0EB11C79
:10129000872C912C6F1439F35E2C68018C2D801BE8
:1012A000871590F4F60184916A817B815C8EFD8EB6
:1012B0001F8E8E8F95014BE3CE010EDFFFEFCF1A0D
:1012C000DF0A28E0520EEACF080D191DF394E2CF91
:1012D000DF91CF911F910F91FF90EF90DF90CF9012
:1012E000BF90AF909F908F907F906F905F90089588
:1012F000DF92EF92FF920F931F93CF93DF93EC0156
:10130000D62E1CAD0BAD7C0184E0E80EF11CE98DFE
:10131000FA8DC7011995412F480F2D2D602FC70158
:10132000DFDE9BAD890F8BAF81E090E0DF91CF9145
:101330001F910F91FF90EF90DF90089590915802C8
:10134000911102C08093580208951F93CF93DF93A9
:101350001F921F92CDB7DEB720ED37E03A83298385
:101360009091BC00982391F429813A81232B49F470
:1013700080915B02182F127081FD08C081E0DEDFD2
:1013800006C029813A8121503109E8CF11E0812F2F
:101390000F900F90DF91CF911F91089584E9809372
:1013A000BC0064E080E1D1CFCF938093BB0084E8A0
:1013B0008093BC0063E080E8C8DFC82F882381F0F9
:1013C00080915B02C82FC27081FD09C08091B90075
:1013D000887F883221F063E082E0B0DF01C0C1E0A5
:1013E0008C2FCF910895CF93DF93FC0123A5222367
:1013F00069F0EC0108D2811102C080E008C08EA122
:10140000811180E4D1DF8823C1F31BA681E0DF9145
:10141000CF9108950F931F93CF93C42F8901633009
:10142000B9F050F4613081F0623009F03FC0FC0146
:1014300046A321E023A73AC06630E9F0673041F1C6
:10144000653009F033C00CC0FC0186A530DC2EC02D
:10145000FC0116A221E023A7411128C09FDF26C06E
:10146000C2DF811103C09ADF80E021C08C2F9CDF96
:1014700081111CC0F8CFB7DF8823A9F3CC23B1F0CA
:10148000F80181918F0190DF882369F3C150F6CF75
:10149000AADF882341F3CC2349F0F801849184DF4B
:1014A000882329F00F5F1F4FC150F5CF81E0CF9106
:1014B0001F910F9108951F920F920FB60F92112452
:1014C0002F933F938F939F93809178002091790081
:1014D00090E0922B9C01305830935A02209359028D
:1014E0009093A800809159028093AA009F918F91B8
:1014F0003F912F910F900FBE0F901F90189590E085
:10150000FC013197E231F10508F04DC08827EE5813
:10151000FF4F8F4FF8C4809180008F7703C0809178
:1015200080008F7D80938000089580918000877F68
:10153000F9CF84B58F7702C084B58F7D84BD0895BF
:101540008091B0008F7703C08091B0008F7D809331
:10155000B0000895809190008F7707C0809190002F
:101560008F7D03C080919000877F809390000895C5
:101570008091A0008F7707C08091A0008F7D03C06D
:101580008091A000877F8093A00008958091200122
:101590008F7707C0809120018F7D03C0809120014B
:1015A000877F8093200108958F929F92AF92BF9280
:1015B0000F931F93CF93DF93CDB7DEB7A1970FB6ED
:1015C000F894DEBF0FBECDBF19A2423008F44AE046
:1015D0008E010F5D1F4F842E912CA12CB12CA501E3
:1015E00094016FD4E62FB901CA0101501109EA3004
:1015F00014F4E05D01C0E95CD801EC93232B242BAB
:10160000252B69F70115110569F0F80101900020FB
:10161000E9F73197AF01401B510BB80189EF92E018
:1016200091D902C080E090E0A1960FB6F894DEBF99
:101630000FBECDBFDF91CF911F910F91BF90AF90A3
:101640009F908F9008950F931F93CF93DF931F92D6
:10165000CDB7DEB70091FF0210910003E0912E0399
:10166000F0912F0382E0199520E030E04AE0B801C4
:101670008DEF92E031DD182FE0912E03F0912F03D2
:1016800083E01995E0912E03F0912F0380E01995E6
:101690001123A1F16091FF02709100039E012F5F61
:1016A0003F4F46E48DEF92E017DD89818093FD0284
:1016B0006091FF02709100039E012F5F3F4F47E44E
:1016C0008DEF92E009DD89818093FE026091FF0237
:1016D0007091000320E030E048E48DEF92E0FCDC04
:1016E000809308036091FF027091000320E333E0D0
:1016F00047E18DEF92E0F0DC81E001C080E00F90E7
:10170000DF91CF911F910F910895FF920F931F9337
:10171000CF93DF93082FF62E172FE0911203F0914D
:1017200013038DEF92E01995080FCF2DD12F10E004
:10173000F12C2991222341F0402F6F2D8DEF92E063
:10174000CFDCF80E180FF5CF812FDF91CF911F91CD
:101750000F91FF9008951F93CF93DF93E1EAF8E094
:101760009491EBE5F8E0D491E5E1F8E0C491CC2365
:10177000C9F0182F992311F0892FC1DEEC2FF0E06A
:10178000EE0FFF1FE251F84FA591B4919FB7F89467
:10179000111104C08C91D095D82302C0EC91DE2B9E
:1017A000DC939FBFDF91CF911F910895CF92DF927D
:1017B000EF92FF92CF93DF936C01990FEE08FF0831
:1017C000F7FE17C06DE289EF92E092DDEC0166272B
:1017D0007727CB016C197D098E099F094AE0E4DE69
:1017E0008C0F9D1FDF91CF91FF90EF90DF90CF90F6
:1017F00008954AE0C701B601DF91CF91FF90EF90C5
:10180000DF90CF90D1CECF9384EA8093BC0061E08B
:1018100080E89BDD882351F08091B900887F883073
:1018200039F0803129F061E082E088DDC0E01BC042
:1018300088E78093BB0084E88093BC0062E080E886
:1018400084DD882399F380915B02C82FC27081FDEB
:1018500009C08091B900887F883121F062E082E080
:101860006DDD01C0C1E08C2FCF910895CF93DF9340
:10187000282F30E0F901EC56F74F8491F901E25B33
:10188000F74FD491F901E85FF74FC491CC2389F069
:10189000811135DEEC2FF0E0EE0FFF1FEC52F84F18
:1018A000A591B491EC91ED2381E090E021F480E0EA
:1018B00002C080E090E0DF91CF910895CF93DF9355
:1018C00090E0FC01E25BF74F2491FC01E85FF74FE9
:1018D0008491882361F190E0880F991FFC01E65400
:1018E000F84FC591D491FC01E251F84FA591B49104
:1018F000611109C09FB7F89488812095822388835D
:10190000EC912E230BC0623061F49FB7F89488816C
:10191000322F309583238883EC912E2B2C939FBFFD
:1019200006C08FB7F894E8812E2B28838FBFDF91F4
:10193000CF9108951F920F920FB60F9211242F93FB
:101940003F938F939F93AF93BF938091BC039091EC
:10195000BD03A091BE03B091BF033091BB0323E050
:10196000230F2D3720F40196A11DB11D05C026E8D7
:10197000230F0296A11DB11D2093BB038093BC03CE
:101980009093BD03A093BE03B093BF038091B703B0
:101990009091B803A091B903B091BA030196A11D2B
:1019A000B11D8093B7039093B803A093B903B0938C
:1019B000BA03BF91AF919F918F913F912F910F905B
:1019C0000FBE0F901F901895789484B5826084BDE7
:1019D00084B5816084BD85B5826085BD85B5816033
:1019E00085BD80916E00816080936E0010928100B1
:1019F000809181008260809381008091810081606C
:101A0000809381008091800081608093800080912C
:101A1000B10084608093B1008091B00081608093B8
:101A2000B00080919100826080939100809191003C
:101A300081608093910080919000816080939000FC
:101A40008091A10082608093A1008091A1008160BB
:101A50008093A1008091A00081608093A00080917C
:101A60002101826080932101809121018160809316
:101A700021018091200181608093200180917A0072
:101A8000846080937A0080917A00826080937A00EB
:101A900080917A00816080937A0080917A008068DA
:101AA00080937A001092C100E0916C02F0916D0277
:101AB00082E08083E0916802F09169021082E091F7
:101AC0006A02F0916B028FEC808310927402E091B5
:101AD0007002F091710286E08083E0916E02F091D5
:101AE0006F02808180618083E0916E02F0916F02CD
:101AF000808188608083E0916E02F0916F02808126
:101B000080688083E0916E02F0916F0280818F7D0A
:101B1000808362E08CE0D2DE62E082E0CFDE62E0D1
:101B20008BE3CCDE62E08AE3C9DE61E08DE0C6DEF5
:101B300061E086E0C3DE61E087E0C0DE80E680939E
:101B40007C0085EE80937A0010927B0081E0809388
:101B50007E0080EA8093A00081E18093A10080E272
:101B6000809372001092A7008FEF8093A60084B13B
:101B7000866084B9789458E5452E51E0552E69E584
:101B8000662E61E0762E0AE511E07FE4E72E71E033
:101B9000F72EEAE4CE2EE1E0DE2EF0EAAF2EF4E0FE
:101BA000BF2E8CE063DE892B09F4ECC081E0D3DD2D
:101BB00080913603811104C081E08093360343DDB8
:101BC000C091FF02D0910003E0912E03F0912F030A
:101BD00082E01995E0912E03F0912F0381E0199591
:101BE00020E030E044E1BE018DEF92E075DA20E3C1
:101BF00033E047E1BE018DEF92E06EDAE0912E0313
:101C0000F0912F0380E0199536E5832E31E0932E75
:101C100047E3242E80910103909102038A5491405E
:101C200009F43CC0D0920203C092010380911403D6
:101C3000811106C0F701849180931503F4010EC051
:101C4000813031F4F301849180931503F80106C0CB
:101C5000E7E5F1E0849180931503F201849180938C
:101C6000160380911503082E000C990B2091160382
:101C7000821B910927FD939520911703203441F091
:101C8000829FC001112426E0969587952A95E1F759
:101C900080931803B0921303A09212036CE272E0D7
:101CA0008CE033DDF8E2F09334038CE0809335036D
:101CB0008091590290915A0279DD62E372E088E1E5
:101CC00024DD2092340388E1809335038BE3CEDD5D
:101CD0006DDD6AE372E084E218DD2092340384E271
:101CE000809335038AE3C2DD61DD62E472E080E364
:101CF0000CDD2AE52093340380E38093350382E0F2
:101D0000B5DD54DD6EE472E08CE3FFDC86E48093A5
:101D100034038CE3809335038CE0A8DD47DDE0914C
:101D20000B03F0910C03309719F08DEF92E01995A9
:101D3000C091FF02D0910003E0912E03F0912F0398
:101D400082E01995E0912E03F0912F0381E019951F
:101D500020E030E045E1BE018DEF92E0BDD9382EA4
:101D6000882339F020E333E047E1BE018DEF92E0B4
:101D7000B3D9E0912E03F0912F0380E01995311033
:101D800049CF02C080E0E7DC0E94A1050ACF109293
:101D90005F0210925E0288EE93E0A0E0B0E08093D4
:101DA000600290936102A0936202B093630282E1A9
:101DB00092E090935D0280935C0285EC90E09093BA
:101DC00069028093680284EC90E090936B028093A8
:101DD0006A0280EC90E090936D0280936C0281EC3B
:101DE00090E090936F0280936E0282EC90E090936B
:101DF00071028093700286EC90E09093730280935E
:101E0000720210927502109276021092770210926E
:101E100078021092FC021092FB0284E292E090930E
:101E2000FA028093F9021092340310923503109253
:101E300036031092020310920103109204031092D1
:101E400003031092060381E08093050382E28093EE
:101E5000070310920C0310920B03E0E2F3E08EE212
:101E600093E02FEF21938E179F07E1F781E0809396
:101E70001D0320EA34E03093130320931203809370
:101E80001403109215031092160380E48093170335
:101E90001092180389ED95E090932F0380932E0301
:101EA00088E092E0909300038093FF0282E08093A9
:101EB0002B03C9DB84E292E09093FA028093F9024B
:101EC0000895A1E21A2EAA1BBB1BFD010DC0AA1F7B
:101ED000BB1FEE1FFF1FA217B307E407F50720F093
:101EE000A21BB30BE40BF50B661F771F881F991F0E
:101EF0001A9469F760957095809590959B01AC0157
:101F0000BD01CF010895EE0FFF1F881F8BBF079003
:101F1000F691E02D199481E090E0F89400C0F894D7
:021F2000FFCFF1
:101F22000840000000803703E40600020A0A0000AD
:101F320000003405A204CC048005FD04DB04EF0498
:101F4200000000007809A204090808084144433A45
:101F5200200050555348313A200050555348323AE8
:101F62002000544F4F474C452D53573A2000464FBF
:081F72004F542D53573A200093
:00000001FF
